:020000040800F2
:1000000000000220516C0008FD6A0008056B000822
:100010000D6B0008156B00081D6B00080000000048
:10002000000000000000000000000000256B000838
:10003000336B000800000000416B0008516B0008A2
:10004000A16C0008A16C0008A16C0008A16C00085C
:10005000A16C0008A16C0008A16C0008A16C00084C
:10006000A16C0008A16C0008A16C0008A16C00083C
:10007000A16C0008A16C0008A16C0008A16C00082C
:10008000A16C0008A16C0008A16C0008A16C00081C
:10009000A16C0008A16C0008A16C0008A16C00080C
:1000A000A16C0008A16C0008A16C0008A16C0008FC
:1000B000A16C0008A16C0008A16C0008A16C0008EC
:1000C000A16C0008716B00087D6B0008A16C000832
:1000D000A16C0008896B0008A16C0008A16C0008E5
:1000E000A16C0008A16C0008A16C0008A16C0008BC
:1000F000A16C0008A16C0008A16C0008A16C0008AC
:10010000A16C0008A16C0008A16C0008A16C00089B
:10011000A16C0008A16C0008A16C0008A16C00088B
:100120009D6B0008A16C0008A16C0008A16C000880
:10013000A16C0008A16C0008A16C0008A16C00086B
:10014000A16C0008A16C0008A16C0008A16C00085B
:10015000A16C0008A16C0008A16C0008AD6B000840
:10016000A16C0008A16C0008A16C0008A16C00083B
:10017000A16C0008A16C0008A16C00080000000040
:08018000A16C0008A16C00084D
:1001900010B5054C237833B9044B13B10448AFF3C1
:1001A00000800123237010BDAC230020000000005C
:1001B0001CBF000808B5034B1BB103490348AFF34C
:1001C000008008BD00000000B02300201CBF000814
:1001D00010F8012B11F8013B012A28BF9A42F7D0F1
:1001E000D01A7047034613F8012B002AFBD1181AC6
:1001F000013870470000000000000000000000000F
:1002000001F0FF01102A2BDB10F0070F08D010F8C7
:10021000013B013A8B422DD010F0070F42B3F6D1CB
:10022000F0B441EA012141EA014122F007047FF0E4
:1002300000070023F0E80256083C85EA010586EA3B
:10024000010685FA47F5A3FA87F586FA47F6A5FA77
:1002500087F68EB9EED1F0BC01F0FF0102F0070283
:1002600032B110F8013B013A83EA010313B1F8D12E
:100270000020704701387047002D06BF354603380F
:10028000073815F0010F07D1013015F4807F02BF48
:10029000013015F4C03F0130F0BC0138704700BF99
:1002A0007BB972B90029BEBF00204FF0004106E0C3
:1002B00008BF00281CBF6FF000414FF0FF3000F076
:1002C000B5B9ADF1080C6DE904CE002909DB002BAE
:1002D0001ADB00F04DF8DDF804E0DDE9022304B09C
:1002E0007047404261EB4101002B1BDB00F040F8FE
:1002F000DDF804E0DDE9022304B0404261EB410196
:10030000524263EB43037047524263EB430300F0F6
:100310002FF8DDF804E0DDE9022304B0404261EB90
:1003200041017047524263EB430300F021F8DDF8CE
:1003300004E0DDE9022304B0524263EB430370475B
:1003400053B94AB9002908BF00281CBF4FF0FF313C
:100350004FF0FF3000F06AB9ADF1080C6DE904CE42
:1003600000F006F8DDF804E0DDE9022304B0704790
:100370002DE9F047089D0C46002B4ED194468C4544
:100380008646B2FA82F262D94AB1C2F120039140A4
:1003900020FA03F30CFA02FC194300FA02FE4FEABA
:1003A0001C471FFA8CF6B1FBF7F44FEA1E4307FB1C
:1003B000141143EA014304FB06F199420AD91CEBEC
:1003C000030304F1FF3080F01281994240F20F8163
:1003D000023C6344591A1FFA8EF3B1FBF7F007FB96
:1003E000101143EA014300FB06F69E420AD91CEBBA
:1003F000030300F1FF3180F0FC809E4240F2F9805F
:10040000634402389B1B40EA044000211DB1D340E5
:100410000022C5E90032BDE8F0878B4205D90DB155
:10042000C5E9000100210846F5E7B3FA83F1002988
:1004300046D1A34202D39042C0F0F080861A64EB0A
:1004400003030120002DE6D0C5E90063E3E7002A9D
:1004500040F09080A1EB0C044FEA1C481FFA8CF787
:100460000121B4FBF8F64FEA1E4308FB164443EAA9
:10047000044307FB06F0984208D91CEB030306F17E
:10048000FF3402D2984200F2CD8026461C1A1FFA91
:100490008EF3B4FBF8F008FB104443EA044300FB7E
:1004A00007F79F4208D91CEB030300F1FF3402D287
:1004B0009F4200F2B0802046DB1B40EA0640A5E7E1
:1004C000C1F120068B4022FA06F71F4320FA06FCF2
:1004D00004FA01F343EA0C03F44000FA01F8380C83
:1004E0004FEA1349B4FBF0FE1FFA87FC00FB1E44E1
:1004F00049EA04440EFB0CF9A14502FA01F20AD9BB
:100500003C190EF1FF3A80F08480A14540F28180D1
:10051000AEF1020E3C44A4EB09041FFA83F9B4FBCC
:10052000F0F300FB134449EA044403FB0CFCA4452C
:1005300007D93C1903F1FF3067D2A44565D9023BC6
:100540003C4443EA0E40A0FB0293A4EB0C049C4203
:10055000CE469C4651D34ED055B1B8EB0E0364EB5A
:100560000C0404FA06F6CB401E43CC40C5E90064F7
:10057000002150E7C2F1200320FA03F10CFA02FC3B
:1005800024FA03F394400C434FEA1C4800FA02FE9D
:100590001FFA8CF7B3FBF8F008FB1031230C43EA89
:1005A000014300FB07F1994208D91CEB030300F15A
:1005B000FF362CD299422AD9023863445B1AA4B27E
:1005C000B3FBF8F108FB113344EA034401FB07F3E2
:1005D000A34208D91CEB040401F1FF3613D2A34255
:1005E00011D902396444E41A41EA004139E704466A
:1005F000F0E6084606E7C845AED2B9EB020E63EB5B
:10060000070C0138A8E73146EDE7034699E7304685
:10061000D4E7D6467FE7634402384DE706462346D3
:1006200008460FE7023E634430E700BF704700BF53
:1006300080B400AF074B1B6803F48033B3F5803FF1
:100640000CBF01230023DBB21846BD465DF8047BD6
:10065000704700BF10E000E080B584B000AF0346F3
:10066000FB71FB790C4A12680C49A1FB0212920C37
:1006700002FB03F3FB6007E0FFF7DAFF0346002B02
:1006800002D0FB68013BFB60FB68002BF4D100BF8C
:1006900000BF1037BD4680BDCC22002083DE1B4347
:1006A00080B483B000AF78607B681B6843F00102C0
:1006B0007B681A6000BF0C37BD465DF8047B70474D
:1006C00080B483B000AF78607B681B6823F00102C0
:1006D0007B681A6000BF0C37BD465DF8047B70472D
:1006E00080B483B000AF78607B681B6823F0800221
:1006F0007B681A6000BF0C37BD465DF8047B70470D
:1007000080B483B000AF78607B681B6823F0400240
:100710007B681A6000BF0C37BD465DF8047B7047EC
:1007200080B483B000AF78607B68DB6823F001029F
:100730007B68DA6000BF0C37BD465DF8047B70470C
:1007400080B483B000AF78607B685B6843F400726C
:100750007B685A6000BF0C37BD465DF8047B70476C
:1007600080B483B000AF78607B685B6843F48062DC
:100770007B685A6000BF0C37BD465DF8047B70474C
:1007800080B483B000AF78607B685B6823F48062DC
:100790007B685A6000BF0C37BD465DF8047B70472C
:1007A00080B483B000AF78607B685B6843F480728C
:1007B0007B685A6000BF0C37BD465DF8047B70470C
:1007C00080B483B000AF78607B685B6903F080031E
:1007D000802B0CBF01230023DBB218460C37BD462B
:1007E0005DF8047B704780B483B000AF78607B68AD
:1007F0005B6903F04003402B0CBF01230023DBB2F5
:1008000018460C37BD465DF8047B704780B483B052
:1008100000AF78607B685B6903F00203022B0CBFBA
:1008200001230023DBB218460C37BD465DF8047B7C
:10083000704780B483B000AF78607B685B6903F475
:100840008063B3F5806F0CBF01230023DBB2184631
:100850000C37BD465DF8047B704780B483B000AFB1
:1008600078607B685B6903F01003102B0CBF0123D9
:100870000023DBB218460C37BD465DF8047B704799
:1008800080B483B000AF78607B685B6903F48073E9
:10089000B3F5807F0CBF01230023DBB218460C3771
:1008A000BD465DF8047B704780B483B000AF7860CC
:1008B0007B685B6903F40073B3F5007F0CBF012311
:1008C0000023DBB218460C37BD465DF8047B704749
:1008D00080B483B000AF78607B685B6903F4006329
:1008E000B3F5006F0CBF01230023DBB218460C37B1
:1008F000BD465DF8047B704780B485B000AF78607A
:100900007B685B69FB60FB687B689B69FB60FB68DD
:1009100000BF1437BD465DF8047B704780B483B0D8
:1009200000AF78607B685B6923F480627B685A6102
:1009300000BF0C37BD465DF8047B704780B485B0BE
:1009400000AF78607B685B69FB60FB687B681B6855
:1009500043F001027B681A6000BF1437BD465DF8A2
:10096000047B704780B483B000AF78607B685B69BC
:1009700023F480727B685A6100BF0C37BD465DF876
:10098000047B704780B483B000AF78607B685B699C
:1009900023F400727B685A6100BF0C37BD465DF8D6
:1009A000047B704780B483B000AF78607B685B697C
:1009B00023F400627B685A6100BF0C37BD465DF8C6
:1009C000047B704780B483B000AF78607B689B691C
:1009D00003F0040318460C37BD465DF8047B7047EE
:1009E00080B483B000AF78607B681B69DBB21846C7
:1009F0000C37BD465DF8047B704780B483B000AF10
:100A000078600B46FB707B681B6923F0FF02FB7864
:100A10001A437B681A6100BF0C37BD465DF8047B42
:100A20007047000080B586B000AF244B9B68184625
:100A3000FFF746FE214B9B68184609F033FB1F4B1E
:100A40009B681846FFF74CFE1C4B9B681846FFF747
:100A500057FE1A4B9B681846FFF762FE3B46002282
:100A60001A605A609A60DA601A615A6100233B602A
:100A7000134B7B600023BB602423FB604FF4806337
:100A80003B614FF480437B610C4B9B683A461146B7
:100A9000184609F041FB094B9B681846FFF750FECA
:100AA000064B9B681846FFF77BFE044B9B68184675
:100AB000FFF7F6FD00BF1837BD4680BDC8240020F3
:100AC000A086010080B400AF0A4B00225A71094B86
:100AD0004FF0FF321A60074B00221A71054B0022BB
:100AE0009A71044B0022DA7100BFBD465DF8047BA9
:100AF000704700BFC824002080B582B000AF786086
:100B0000094A7B689360094B00221A70FFF7DAFFED
:100B10004FF48072002106480AF078FD0023184641
:100B20000837BD4680BD00BFC8240020D424002063
:100B3000C823002080B596B000AF784B01221A7010
:100B4000774B9B681846FFF761FE0346002B1AD0CF
:100B5000734B9B681846FFF7CFFE714B9B68184696
:100B6000FFF730FF0346042B08D16D4B00221A71AA
:100B70006B4B9B681846FFF7F3FD04E0684B9B68DE
:100B80001846FFF7EDFD664B9B681846FFF718FE09
:100B90000346002B52D0002387F85730604B1B6868
:100BA00007F138005F4A1E210AF0FCFC07F1380308
:100BB00019465D4800F05AFC594B1B6807F1380094
:100BC0005A4A1E210AF0EEFC07F13803194656482E
:100BD00000F04CFC524B1A68554913465B00134415
:100BE0000B4402331B7887F8573097F8573007F1DA
:100BF0003800504A1E210AF0D5FC07F13803194687
:100C0000494800F033FC97F8573007F138004A4A5A
:100C10001E210AF0C7FC07F138031946424800F0CC
:100C200025FC3F4B9B6897F8572011461846FFF765
:100C3000E4FE3B4B9B681846FFF7A2FD384B9B68D0
:100C40001846FFF7D0FD0346002B4AD0344B9B6873
:100C50001846FFF7C5FE034687F85630304B1B7920
:100C6000DBB2002B1FD12E4A97F85630537197F8FC
:100C70005630381D314A32210AF094FC3B1D19468A
:100C8000294800F0F3FB264B01221A71244B1B6804
:100C9000381D2B4A32210AF085FC3B1D194622489B
:100CA00000F0E4FB1DE01E4B1A68214913465B006F
:100CB00013440B4401331B78032B0AD1184B1A68D9
:100CC0001B4913465B0013440B44023397F856202C
:100CD0001A70134B00221A71114B9B681846FFF7CC
:100CE0004FFD0F4B9B681846FFF7B7FD0346002BDF
:100CF0000FD00B4B9B681846FFF720FE084B0022D5
:100D00001A71074B9B681846FFF73AFD034B002208
:100D10001A7000BF5837BD4680BD00BFD4240020E4
:100D2000C824002034BF00080010014050BF000854
:100D3000D824002064BF000880BF000898BF0008C6
:100D4000A8BF000880B500AF2149224800F08EFB03
:100D5000214B00221A70214B9B681846FFF790FD2B
:100D60000346002B04D01D4B9B681846FFF7FAFD85
:100D70001A4B9B681846FFF797FD0346002B04D0DB
:100D8000164B9B681846FFF7FDFD144B9B681846F1
:100D9000FFF74FFD0346002B04D0104B9B6818460D
:100DA000FFF7BCFD0D4B9B681846FFF791FD03460E
:100DB000002B04D0094B9B681846FFF7F3FDFFF7A3
:100DC00031FE064B9B681846FFF796FE00BF80BDBC
:100DD000BCBF000800100140D4240020C82400201B
:100DE00080B483B000AF0023FB711CE0FA793C496A
:100DF00013465B0013440B44FA791A70FA793849A8
:100E000013465B0013440B44013302221A70FA7933
:100E1000334913465B0013440B440233FF221A701C
:100E2000FB790133FB71FB79072BDFD90823BB71F9
:100E30001CE0BA792A4913465B0013440B44BA7983
:100E40001A70BA79264913465B0013440B440133E8
:100E500003221A70BA79224913465B0013440B44EB
:100E6000023300221A70BB790133BB71BB797E2B30
:100E7000DFD91B4B7F2283F87D21194B022283F897
:100E80007E21174B772283F87F2180237B711CE022
:100E90007A79134913465B0013440B447A791A702C
:100EA0007A790F4913465B0013440B440133022245
:100EB0001A707A790A4913465B0013440B440233D3
:100EC000FF221A707B7901337B717B79FF2BDFD195
:100ED00000BF00BF0C37BD465DF8047B704700BF04
:100EE000D824002080B483B000AF03463960FB7182
:100EF00097F90730002B0ADB3B68DAB20C4997F907
:100F000007301201D2B20B4483F800230AE03B6899
:100F1000DAB20849FB7903F00F03043B1201D2B2A5
:100F20000B441A7600BF0C37BD465DF8047B704752
:100F300000E100E000ED00E080B582B000AF786035
:100F40007B68013BB3F1807F01D301230FE00A4AA4
:100F50007B68013B53600F214FF0FF30FFF7C2FF6A
:100F6000054B00229A60044B07221A6000231846A2
:100F70000837BD4680BD00BF10E000E080B400AF80
:100F8000054B1B68044A43F00103136000BFBD46D4
:100F90005DF8047B704700BF10E000E080B500AF53
:100FA000054B1B68054AA2FB03239B091846FFF764
:100FB000C3FF00BF80BD00BFCC220020D34D621014
:100FC00080B483B000AF78607B681B6803F00203D5
:100FD000022B0CBF01230023DBB218460C37BD46A1
:100FE0005DF8047B704780B483B000AF78607B68A5
:100FF0001B6803F00403042B0CBF01230023DBB2A6
:1010000018460C37BD465DF8047B704780B483B04A
:1010100000AF78607B681B6803F00803082B0CBFE7
:1010200001230023DBB218460C37BD465DF8047B74
:10103000704780B483B000AF78607B681B6803F0B2
:101040002003202B0CBF01230023DBB218460C37F2
:10105000BD465DF8047B704780B483B000AF786014
:101060007B681B6803F08003802B0CBF01230023E7
:10107000DBB218460C37BD465DF8047B704780B480
:1010800085B000AF78607B681B68FB60FB687B689D
:101090005B68FB60FB6800BF1437BD465DF8047BEE
:1010A000704780B485B000AF78607B681B68FB60D8
:1010B000FB687B685B68FB60FB6800BF1437BD465C
:1010C0005DF8047B704780B485B000AF78607B68C2
:1010D0001B68FB60FB687B685B68FB60FB6800BFAC
:1010E0001437BD465DF8047B704780B489B000AF0B
:1010F00078607B680C33FB60FB6853E8003FBB60A3
:10110000BB6843F02003FB617B680C33FA69BA616A
:101110007B617969BA6941E800233B613B69002B37
:10112000E7D100BF00BF2437BD465DF8047B7047A0
:1011300080B489B000AF78607B680C33FB60FB68DB
:1011400053E8003FBB60BB6843F08003FB617B68F2
:101150000C33FA69BA617B617969BA6941E80023A5
:101160003B613B69002BE7D100BF00BF2437BD4680
:101170005DF8047B704780B489B000AF78607B680D
:101180000C33FB60FB6853E8003FBB60BB6823F097
:101190002003FB617B680C33FA69BA617B61796972
:1011A000BA6941E800233B613B69002BE7D100BFEE
:1011B00000BF2437BD465DF8047B704780B489B01A
:1011C00000AF78607B680C33FB60FB6853E8003F3E
:1011D000BB60BB6823F08003FB617B680C33FA695A
:1011E000BA617B617969BA6941E800233B613B6977
:1011F000002BE7D100BF00BF2437BD465DF8047B5C
:10120000704780B483B000AF78607B68DB6803F020
:101210002003202B0CBF01230023DBB218460C3720
:10122000BD465DF8047B704780B483B000AF786042
:101230007B68DB6803F08003802B0CBF0123002355
:10124000DBB218460C37BD465DF8047B704780B4AE
:1012500083B000AF78607B685B68DBB218460C3700
:10126000BD465DF8047B704780B483B000AF786002
:101270000B46FB70FA787B685A6000BF0C37BD469E
:101280005DF8047B7047000080B485B000AF7860E3
:101290000023FB6015E01049FA681346DB00134495
:1012A0009B000B441B687A689A4207D1FA68134680
:1012B000DB0013449B00084A134406E0FB6801333B
:1012C000FB60FB68012BE6DD002318461437BD46A2
:1012D0005DF8047B704700BF0000002080B586B039
:1012E00000AF0346B9607A60FB73BB685B6801338B
:1012F000BA68D268B3FBF2F101FB02F29B1A7B6180
:10130000BB689A687B699A420FD07868FFF733FF11
:10131000BB681A68BB685B681344FA7B1A707A6909
:10132000BB685A607868FFF7E0FE00BF1837BD461B
:1013300080BD80B586B000AF78607868FFF7A4FF05
:1013400078617B69002B02D14FF0FF3325E07B6988
:1013500004333B613B695A683B699B689A4202D1FE
:101360004FF0FF3319E07868FFF705FF3B691A6813
:101370003B699B6813441B78FB733B699B68013393
:101380003A69D268B3FBF2F101FB02F29A1A3B69A7
:101390009A607868FFF7A9FEFB7B18461837BD46B0
:1013A00080BD80B586B000AF786039607868FFF79F
:1013B0006BFF78617B69002B2BD03B68002B28DB0F
:1013C0007B6914333B613B695B6801333A69D268DE
:1013D000B3FBF2F101FB02F29B1AFB607868FFF7A6
:1013E000CAFE00BF3B699A68FB689A42FAD03B6923
:1013F0001A683B695B6813443A68D2B21A70FA689B
:101400003B695A607868FFF770FE7868FFF790FED6
:1014100000E000BF1837BD4680BD80B584B000AF86
:1014200078607868FFF730FFF860FB68002B01D127
:10143000002317E0FB680433BB60BB68DB689AB22B
:10144000BB685B689BB213449AB2BB689B689BB253
:10145000D31A9BB21A46BB68DB68B2FBF3F101FBFF
:1014600003F3D31A18461037BD4680BD80B582B04D
:1014700000AF7860396007E03B685A1C3A601B781F
:1014800019467868FFF78DFF3B681B78002BF3D176
:1014900000BF00BF0837BD4680BD80B584B000AF37
:1014A00078607868FFF7F0FEF860FB68002B11D0D9
:1014B000FB680433BB60BB681868BB68DB681A460E
:1014C00000210AF0A3F8BB6800225A60BB68002222
:1014D0009A6000E000BF1037BD4680BD80B586B081
:1014E00000AF78607868FFF7CFFE78617B69002BEA
:1014F00068D07B6904333B617B691433FB60786897
:10150000FFF797FD0346002B2DD07868FFF779FE93
:101510000346002B27D07868FFF799FE0346FB723D
:101520007868FFF773FD0346002B0BD17868FFF74F
:1015300047FD0346002B05D17868FFF754FD0346AD
:10154000002B09D07868FFF7BEFD7868FFF797FD9C
:101550007868FFF7A6FD36E0FB7A7A6839691846A5
:10156000FFF7BCFE2FE07868FFF776FD0346002BFF
:1015700029D07868FFF758FE0346002B23D0FB687C
:101580005A68FB689B689A4203D17868FFF716FE99
:1015900019E0FB681A68FB689B6813441B78BB72F0
:1015A000FB689B680133FA68D268B3FBF2F101FB78
:1015B00002F29A1AFB689A60BB7A19467868FFF7BC
:1015C00053FE00E000BF1837BD4680BD80B586B031
:1015D00000AF78600123FB7300233B617B687B6174
:1015E0001FE07B691B78202B05D17B6900221A70D4
:1015F0000123FB7312E0FB7B002B0FD03B69072B11
:101600000AD81E493B697A6941F823203B690133B6
:101610003B610023FB7301E002232BE07B69013374
:101620007B617B691B78002BDBD13B69002B20D0D1
:101630003B6901333B61124BBB6016E00F4B1A68EC
:10164000BB681B6819461046FEF7C2FD0346002B17
:1016500008D1BB685B683A69084910469847034659
:10166000DBB207E0BB680C33BB60BB681B68002BB8
:10167000E4D1012318461837BD4680BDD83100207B
:101680006000002080B483B000AF78607B689B6806
:1016900003F00203022B01D1012300E000231846CE
:1016A0000C37BD465DF8047B704780B483B000AF53
:1016B00078607B689B6803F08003802B01D1012355
:1016C00000E0002318460C37BD465DF8047B7047E8
:1016D00080B485B000AF78600B46FB707B680C333C
:1016E000FB60FB68FA781A7000BF1437BD465DF8DE
:1016F000047B704780B483B000AF786039607B684A
:101700003A689A6100BF0C37BD465DF8047B7047AC
:1017100080B483B000AF786039603B681A047B689E
:101720009A6100BF0C37BD465DF8047B704780B4FA
:1017300085B000AF786039607B685B69FB60FA68F0
:101740003B6813401A04FB68D9433B680B401A43BB
:101750007B689A6100BF1437BD465DF8047B704713
:1017600080B582B000AF7860164A7B681360402273
:101770000021154809F04AFF144B00221A7001F0AD
:101780008DFD104B1B6812491846FFF76FFE0D4B7D
:101790001B6810491846FFF769FE0A4B1B6818467C
:1017A000FFF77BFE6421002002F0DCF9642006F0E4
:1017B000F3F86421002002F0D5F900BF0837BD46D8
:1017C00080BD00BF4434002048340020883400200D
:1017D00064C800087CC8000880B582B000AF144B14
:1017E0001B681846FFF719FE0346002B1CD0104B50
:1017F0001B681846FFF79DFD0346FB71FB791B2B09
:1018000006D10B4B1B680B491846FFF72FFE06E06D
:10181000074B1B68FA7911461846FFF7C2FDFB79A2
:101820000549184600F00AF800BF0837BD4680BDDC
:101830004434002090C80008FC31002080B5B8B0C6
:1018400002AF03463960FB71FB791B2B32D107F1E4
:10185000CC0300221A609A8007F1CC03184602F0EC
:10186000D7FA97F8CF30194697F8D03097F8D120AB
:1018700007F1AC00019200930B469E4A1E2109F02D
:1018800091FE07F1AC0307F108009B4A00929B4AC6
:101890003C2109F087FE9A4B1B6807F108021146AC
:1018A0001846FFF7E3FD3B680022A3F840203B68A1
:1018B00000221A70FB792D2B4ED13B68B3F84432CD
:1018C000002B07D03B68B3F84432013B9AB23B6827
:1018D000A3F844223B68B3F844223B68B3F8423291
:1018E0009A4215D238683B68B3F8443201339B0101
:1018F0003A6813440233194609F0BCFE3B681846A7
:10190000FEF770FC03469AB23B68A3F8402006E05D
:101910003B6800221A703B680022A3F84020784BF5
:101920001B6878491846FFF7A1FD07F18C00724B40
:10193000754A1E2109F036FE714B1B6807F18C02B7
:1019400011461846FFF792FD6D4B1B683A68114629
:101950001846FFF78BFDABE1FB793D2B51D13B687E
:10196000B3F844223B68B3F842329A4207D23B684C
:10197000B3F8443201339AB23B68A3F844223B687F
:10198000B3F844223B68B3F842329A4215D2386821
:101990003B68B3F8443201339B013A681344023385
:1019A000194609F067FE3B681846FEF71BFC034624
:1019B0009AB23B68A3F8402006E03B6800221A7008
:1019C0003B680022A3F840204D4B1B684D49184648
:1019D000FFF74CFD07F16C00474B4B4A1E2109F005
:1019E000E1FD474B1B6807F16C0211461846FFF7F3
:1019F0003DFD434B1B683A6811461846FFF736FD1C
:101A000056E1FB791F2B02D9FB797E2B06D9FB7996
:101A10000D2B03D0FB797F2B40F04A81FB792D2BD6
:101A200000F04681FB793D2B00F04281FB795C2B75
:101A300000F03E8107F1640300221A609A8007F1EA
:101A40006403184602F0E4F997F86730194697F8EE
:101A5000683097F8692007F14400019200930B4623
:101A6000244A1E2109F09EFDFB790D2B40F0C98010
:101A70003B68B3F84030002B00F0AE803B68B3F811
:101A800040301A463B68002199543B68B3F8423213
:101A9000002B10D03B68B3F84232013B01339B016D
:101AA0003A68134402333A6811461846FEF790FB31
:101AB0000346002B4DD03B68B3F84232072B15D8B4
:101AC0003B68B3F8423201339B013A681344023356
:101AD0003A681146184609F0CDFD3B68B3F842322A
:101AE00001339AB23B68A3F8422232E00023C7F8E0
:101AF000D43022E098C80008B8C80008ACC8000874
:101B000044340020BCC80008C4C80008D7F8D4304A
:101B100001339B013A681344981CD7F8D430013341
:101B200001339B013A6813440233194609F0A2FDC0
:101B3000D7F8D4300133C7F8D430D7F8D430062BD7
:101B4000E4DD3B6803F202233A681146184609F0C7
:101B500091FD3B68B3F842223B68A3F844223B68FE
:101B60001846FFF733FD034687F8D33097F9D33093
:101B7000062B00F09D8007F108034F4A3C211846D0
:101B800009F010FD4D4B1B6807F10802114618467D
:101B9000FFF76CFC494B1A6897F9D330484951F864
:101BA000233019461046FFF761FC07F1440307F1A3
:101BB0000800444A0092444A3C2109F0F3FC3F4BA0
:101BC0001B6807F1080211461846FFF74FFC3B68F7
:101BD0000022A3F840206BE000F07EF807F14403F8
:101BE00007F10800374A0092384A3C2109F0DAFC34
:101BF000324B1B6807F1080211461846FFF736FC06
:101C000056E0FB797F2B1BD13B68B3F84030002BAB
:101C10000FD03B68B3F84030013B9AB23B68A3F861
:101C200040203B68B3F840301A463B680021995485
:101C30003EE0224B1B6826491846FFF717FC37E0A9
:101C40003B68B3F840303E2B13D83B68B3F84030C4
:101C50005A1C91B23A68A2F8401019463B68FA79CA
:101C60005A543B68B3F840301A463B6800219954F7
:101C70001EE0124B1B6817491846FFF7F7FB07F1E8
:101C8000440307F108000F4A0092104A3C2109F072
:101C900089FC0A4B1B6807F1080211461846FFF73A
:101CA000E5FB3B680022A3F840203B6800221A7045
:101CB000D837BD4680BD00BFCCC8000844340020E2
:101CC00048000020B8C80008DCC80008ACC80008FC
:101CD000E4C80008E8C8000880B400AF124B002236
:101CE0001A60124B00221A70114B00221A70114B0D
:101CF00000221A60104B01221A70104B01221A7038
:101D00000F4B01221A700F4B00221A600E4B00225B
:101D10001A600E4B00221A700D4B00221A7000BF81
:101D2000BD465DF8047B70478C3400209034002061
:101D30009134002094340020CC010020CD010020FB
:101D4000CE010020983400209C340020A1340020D3
:101D5000A034002080B5CCB004AF07F59073A3F594
:101D60008E73186007F59073A3F59073196007F5EB
:101D70009073A3F58E731B68022B01DD022363E0D1
:101D8000344B1B6834491846FFF770FB334BC7F8D8
:101D90001C310023C7F8183116E0D7F81C311B6836
:101DA0001846FEF71FFAC7F80C01D7F80C21D7F830
:101DB00018319A4203D9D7F80C31C7F81831D7F83F
:101DC0001C310C33C7F81C31D7F81C311B68002BB1
:101DD000E3D1224BC7F81C3130E0D7F81C311B6827
:101DE0001846FEF7FFF9C7F81401D7F81821D7F8FD
:101DF0001431D31A0433C7F81031D7F81C311A68DC
:101E0000D7F81C319B6807F10C000293144B019327
:101E1000D7F8103100931346124A4FF4807109F03D
:101E2000C1FB0C4B1B6807F10C0211461846FFF76B
:101E30001DFBD7F81C310C33C7F81C31D7F81C3107
:101E40001B68002BC9D10023184607F59077BD46C3
:101E500080BD00BF4434002004C900086000002099
:101E60002CC900081CC9000880B582B000AF78609A
:101E700039607B68022B01DC032317E07B68032BAE
:101E800001DD022312E03B6804331B68184609F0A9
:101E900001FB0346002B04D010210648FFF72AFC63
:101EA00003E010210348FFF733FC002318460837EE
:101EB000BD4680BD000C024080B59CB002AF78608A
:101EC00039607B68052B01DC032358E07B68062B17
:101ED00001DD022353E0002387F8673024E097F800
:101EE000673001339B003A6813441B68184609F0B9
:101EF000D1FA024697F8673012B25B0068333B4470
:101F000023F80C2C97F867305B0068333B4433F9B7
:101F10000C2C97F867301146184605F02BF997F806
:101F20006730013387F8673097F86730032BD6D9CD
:101F3000002387F866301DE097F8662097F8663032
:101F40005B0068333B4433F90C3C07F10C00009311
:101F500013460D4A502109F025FB0C4B1B6807F175
:101F60000C0211461846FFF781FA97F866300133E4
:101F700087F8663097F86630032BDDD900231846C2
:101F80006837BD4680BD00BF30C90008443400201A
:101F900080B59AB002AF786039607B68022B01DDB2
:101FA000022357E00023A7F85C30B7F95C3047F60E
:101FB000FF72934206D1294B1B6829491846FFF747
:101FC00055FA0FE0B7F95C3007F10C00254A5021B3
:101FD00009F0E8FA214B1B6807F10C02114618467C
:101FE000FFF744FA002387F85F302EE097F85F3060
:101FF0001D4A32F81330A7F85C30B7F95C3047F669
:10200000FF72934208D197F85F3007F10C00174A2E
:10201000502109F0C7FA0BE097F85F20B7F95C3060
:1020200007F10C0000931346114A502109F0BAFA47
:102030000A4B1B6807F10C0211461846FFF716FA07
:1020400097F85F30013387F85F3097F85F30072BE0
:10205000CCD9002318466037BD4680BD44340020EB
:1020600044C9000858C90008C43400206CC90008DD
:1020700080C9000880B594B002AF786039607B6891
:10208000022B01DD02232CE00023A7F844300023BB
:1020900087F8473020E097F84730184605F080F879
:1020A0000346A7F8443097F84720B7F9443007F1C2
:1020B0000800009313460D4A3C2109F073FA0C4BBB
:1020C0001B6807F1080211461846FFF7CFF997F889
:1020D0004730013387F8473097F84730032BDAD978
:1020E000002318464837BD4680BD00BF90C9000890
:1020F0004434002080B59CB002AF786039607B68C2
:10210000052B01DC03236CE07B68062B01DD022339
:1021100067E0002387F8673038E097F867300133CD
:102120009B003A6813441B68184609F0B3F902464D
:1021300097F8673092B25B0068333B4423F80C2C6D
:1021400097F867305B0068333B4433F80C3C40F64B
:10215000B832934208D997F867305B0068333B4444
:1021600040F6B83223F80C2C97F867305B006833E0
:102170003B4433F80C2C97F867301146184605F0AD
:1021800021F897F86730013387F8673097F86730A0
:10219000032BC2D9002387F866301DE097F866202C
:1021A00097F866305B0068333B4433F80C3C07F12A
:1021B0000C00009313460D4A502109F0F3F90C4B23
:1021C0001B6807F10C0211461846FFF74FF997F804
:1021D0006630013387F8663097F86630032BDDD917
:1021E000002318466837BD4680BD00BFA4C900085B
:1021F0004434002090B59DB002AF786039607B68B0
:10220000022B01DD022334E0002387F867302BE046
:1022100097F8674097F86730184604F0F3FF0346D5
:102220001A46630068333B4423F80C2C97F8672068
:1022300097F867305B0068333B4433F80C3C07F198
:102240000C00009313460D4A502109F0ABF90C4BDA
:102250001B6807F10C0211461846FFF707F997F8BB
:102260006730013387F8673097F86730032BCFD991
:10227000002318466C37BD4690BD00BFC4C9000896
:102280004434002080B584B000AF786039607B684A
:10229000052B01DC03233FE07B68062B01DD0223D5
:1022A0003AE00023FB730023BB7300237B730023FE
:1022B0003B733B6804331B68184609F0EBF8034690
:1022C000002B01D10123FB733B6808331B681846C0
:1022D00009F0E0F80346002B01D10123BB733B68F2
:1022E0000C331B68184609F0D5F80346002B01D1C2
:1022F00001237B733B6810331B68184609F0CAF84A
:102300000346002B01D101233B733B7B7A7BB97BD6
:10231000F87B05F0A5F9002318461037BD4680BDAF
:1023200080B584B000AF786039607B68052B01DC34
:1023300003232BE07B68062B01DD022326E03B68AC
:1023400004331B68184609F0A5F80346FB733B6885
:1023500008331B68184609F09DF80346BB733B68B9
:102360000C331B68184609F095F803467B733B68ED
:1023700010331B68184609F08DF803463B733B7B0E
:102380007A7BB97BF87B05F0CDF90023184610372E
:10239000BD4680BD80B59AB002AF786039607B6879
:1023A000052B01DC032364E07B68062B01DD02239F
:1023B0005FE0002387F85F3031E097F85F3001334A
:1023C0009B003A6813441B68184609F063F80246FC
:1023D00097F85F30D2B260333B4403F8082C97F88B
:1023E0005F3060333B4413F8083C642B06D997F800
:1023F0005F3060333B44642203F8082C97F85F3069
:1024000060333B4413F8082C97F85F3011461846A8
:1024100004F014FF97F85F30013387F85F3097F8C6
:102420005F30032BC9D9002387F85E301CE097F892
:102430005E2097F85E3060333B4413F8083C07F1A8
:102440000800009313460D4A502109F0ABF80C4BDD
:102450001B6807F1080211461846FFF707F897F8BE
:102460005E30013387F85E3097F85E30032BDED99B
:10247000002318466037BD4680BD00BFE0C9000894
:102480004434002080B59CB002AF786039607B682E
:10249000022B01DD022334E0002387F867302BE0B4
:1024A00097F86730184604F0EDFE03461A4697F891
:1024B00067305B0068333B4423F80C2C97F86720A7
:1024C00097F867305B0068333B4433F80C3C07F106
:1024D0000C00009313460D4A502109F063F80C4B91
:1024E0001B6807F10C0211461846FEF7BFFF97F86C
:1024F0006730013387F8673097F86730032BCFD9FF
:10250000002318466837BD4680BD00BFE0C90008FB
:102510004434002080B584B000AF786039607B68B7
:10252000022B01DD022342E002212348FFF7FFF8DE
:10253000002002F03DF80346FB730A2008F0EAFD94
:1025400002211D48FFF7F3F8012002F031F803469D
:10255000BB730A2008F0DEFD02211748FFF7E7F8F9
:10256000022002F025F803467B730A2008F0D2FD12
:1025700002211148FFF7DBF8032002F019F80346A7
:102580003B73322008F0C6FD02210B48FFF7CFF85D
:10259000FA7BBB7B13435AB27B7B13435AB23B7B20
:1025A00013435BB2002B01D104F0D8FD0023184681
:1025B0001037BD4680BD00BF0000024080B584B02A
:1025C00000AF786039607B68052B01DC032383E072
:1025D0007B68062B01DD02237EE00023FB730023D2
:1025E000BB7300237B7300233B733B6804331B687E
:1025F0003B491846FDF7ECFD0346002B02D10123B1
:10260000FB730EE03B6804331B6836491846FDF740
:10261000DFFD0346002B02D10223FB7301E0002300
:10262000FB733B6808331B682D491846FDF7D0FD46
:102630000346002B02D10123BB730EE03B68083335
:102640001B6828491846FDF7C3FD0346002B02D13D
:102650000223BB7301E00023BB733B680C331B6890
:102660001F491846FDF7B4FD0346002B02D1012394
:10267000BB730EE03B680C331B681A491846FDF724
:10268000A7FD0346002B02D102237B7301E0002348
:102690007B733B6810331B6811491846FDF798FDA2
:1026A0000346002B02D101233B730EE03B6810333D
:1026B0001B680C491846FDF78BFD0346002B02D121
:1026C00002233B7301E000233B733B7B7A7BB97BA6
:1026D000F87B04F029FE002318461037BD4680BD64
:1026E000F8C90008FCC9000880B584B000AF786064
:1026F00039607B68052B01DC03233FE07B68062BF8
:1027000001DD02233AE03B6804331B68184608F0F9
:10271000C1FE0346002B14BF01230023DBB2FB7371
:102720003B6808331B68184608F0B4FE0346002BCC
:1027300014BF01230023DBB2BB733B680C331B685F
:10274000184608F0A7FE0346002B14BF0123002300
:10275000DBB27B733B6810331B68184608F09AFEA7
:102760000346002B14BF01230023DBB23B733B7BEA
:102770007A7BB97BF87B04F0A5FD0023184610375F
:10278000BD4680BD80B598B000AF786039607B6889
:10279000052B01DC03238BE07B68062B01DD022384
:1027A00086E0002387F85F303DE097F85F30013323
:1027B0009B003A6813441B68184608F06BFE0246FB
:1027C00097F85F30D2B260333B4403F8082C97F897
:1027D0005F3060333B4413F8083C642B06D997F80C
:1027E0005F3060333B44642203F8082C97F85F3075
:1027F00060333B4413F8083C1A4642F20F7302FB65
:1028000003F32D4A82FB03125211DB17D31A9AB23B
:1028100097F85F301146184601F0BEFB97F85F301D
:10282000013387F85F3097F85F30032BBDD997F8F5
:10283000583007F10800214A502108F0B3FE204B20
:102840001B6807F1080211461846FEF70FFE97F8BD
:10285000593007F108001B4A502108F0A3FE184B1D
:102860001B6807F1080211461846FEF7FFFD97F8AE
:102870005A3007F10800144A502108F093FE104B1B
:102880001B6807F1080211461846FEF7EFFD97F89E
:102890005B3007F108000D4A502108F083FE084B19
:1028A0001B6807F1080211461846FEF7DFFD0023FA
:1028B00018466037BD4680BD1F85EB5100CA000831
:1028C0004434002018CA000830CA000848CA00086A
:1028D00080B59CB002AF786039607B68022B01DD67
:1028E00002233EE0002387F8673035E097F8673031
:1028F000184601F09DFB03461A46642302FB03F3CE
:102900001A4A82FB03121212DB17D21A97F86730A9
:1029100092B25B0068333B4423F80C2C97F8672095
:1029200097F867305B0068333B4433F80C3C07F1A1
:102930000C00009313460E4A502108F033FE0D4B55
:102940001B6807F10C0211461846FEF78FFD97F839
:102950006730013387F8673097F86730032BC5D9A4
:10296000002318466837BD4680BD00BFAFE38D0623
:10297000E0C900084434002080B483B000AF786020
:102980003960002318460C37BD465DF8047B70475C
:1029900080B483B000AF78603960002318460C37EC
:1029A000BD465DF8047B704780B582B000AF7860AB
:1029B0003960054B1B6805491846FEF757FD002393
:1029C00018460837BD4680BD4434002060CA000860
:1029D00080B592B000AF786039607B68032B01DD71
:1029E000022324E07B68022B01DC03231FE03B6809
:1029F00004331B68184608F04DFD034687F847303E
:102A000097F8473007F108000B4A3C2108F0CAFD4F
:102A10000A4B1B6807F1080211461846FEF726FD0F
:102A200097F847301946002001F09CF8002318461B
:102A30004837BD4680BD00BF6CCA00084434002042
:102A400080B586B000AF786039607B68032B01DD0C
:102A5000022364E07B68022B01DC03235FE03B6818
:102A600004331B68184608F015FD0346FB742E4A14
:102A700007F1080392E80300186004331980FB7C17
:102A8000002B21D0FB7C242B1ED8FB7C013B274A4A
:102A900082FB0312DB17D31ABB74FB7C5A1E234B39
:102AA00083FB0231D317C91A0B465B000B445B0052
:102AB000D11A0B467B747B7C01229A40BB7CD2B23C
:102AC00018333B4403F8102C4FF480511848FEF79C
:102AD0001FFE05237B6112E007F108027B691344A6
:102AE0001B7819461348FEF7F3FD00BF1148FEF7A7
:102AF000C9FD0346002BF9D07B69013B7B617B69F3
:102B0000002BE9DA00BF0B48FEF7CFFD0346002B90
:102B1000F9D14FF480510648FEF7ECFD002318462A
:102B20001837BD4680BD00BF80CA0008ABAAAA2ADC
:102B3000001002400030014080B588B000AF7860DE
:102B400039607B68032B01DD022367E07B68022B81
:102B500001DC032362E03B6804331B68184608F07D
:102B600099FC0346FB76FB7E242B01D9042355E018
:102B70002C4A07F1100392E803001860043319800F
:102B8000FB7E002B21D0FB7E242B1ED8FB7E013B3D
:102B9000254A82FB0312DB17D31ABB76FB7E5A1E33
:102BA000214B83FB0231D317C91A0B465B000B4440
:102BB0005B00D11A0B467B767B7E01229A40BB7E5E
:102BC000D2B220333B4403F8102C0023FB610FE00A
:102BD000FB69C3F1050320333B4413F8101C07F1D4
:102BE0000802FB6913440A461A70FB690133FB6152
:102BF000FB69052BECDD4FF400710C48FEF788FDF6
:102C000007F108014FF47A730622094805F0B9FD6F
:102C10004FF400710548FEF76DFD0023184620377C
:102C2000BD4680BD80CA0008ABAAAA2A000C02409B
:102C30007435002080B594B000AF786039607B684F
:102C4000022B01DD02233DE07B68012B01DC032325
:102C500038E00023A7F848300023FB644FF40061FC
:102C60001A48FEF755FD00BF4FF400611748FEF704
:102C700041FD4FF480611548FEF74AFD07F1480118
:102C80004FF47A730222124805F0BFFE4FF48061C0
:102C90000E48FEF72FFD97F848301B0297F84920A1
:102CA0001343FB6407F10C00FB6C0A4A3C2108F05B
:102CB00079FC094B1B6807F10C0211461846FEF718
:102CC000D5FB002318465037BD4680BD000C02409E
:102CD0007435002088CA00084434002080B5A0B0B4
:102CE00002AF786039607B68082B01DD02234DE17B
:102CF0007B68072B01DC032348E13B6804331B6836
:102D0000184608F0C7FB03463B673B6808331B685F
:102D1000184608F0BFFB0346FB663B680C331B6894
:102D2000184608F0B7FB0346BB663B6810331B68C8
:102D3000184608F0AFFB034687F867303B6814334A
:102D40001B68184608F0A6FB03463B663B68183331
:102D50001B68184608F09EFB0346FB653A6F8D4BD7
:102D6000A3FB02135B09642101FB03F3D31A002BBD
:102D700003D13B6FB3F5C87F10D207F10803864A31
:102D80005021184608F00EFC844B1B6807F108021E
:102D900011461846FEF76AFB0423F7E0FB6EC72BCB
:102DA0000ED9FA6E7B4BA3FB02135B09642101FB76
:102DB00003F3D31A002B03D1FA6E3B6F9A4210D95A
:102DC00007F10803764A5021184608F0EBFB734BD5
:102DD0001B6807F1080211461846FEF747FB04235B
:102DE000D4E0BB6EB3F5FA7F10D907F108036D4A42
:102DF0005021184608F0D6FB684B1B6807F1080203
:102E000011461846FEF732FB0423BFE097F86730FF
:102E1000C82B10D907F10803634A5021184608F05F
:102E2000C1FB5E4B1B6807F1080211461846FEF70E
:102E30001DFB0423AAE097F86730002B0CBF012389
:102E40000023DBB21A46594B1A70FB6DFF2B01D9D8
:102E500004239BE007F10800FB6D554A502108F060
:102E6000A1FB4E4B1B6807F1080211461846FEF7FE
:102E7000FDFAFB6DDBB21946002000F073FE642002
:102E800004F08AFDFB6DDBB21946002000F06AFEFB
:102E90000023A7F85A30B7F95A3047F6FF72934229
:102EA00006D13E4B1B6843491846FEF7DFFA0FE098
:102EB000B7F95A3007F108003F4A502108F072FB79
:102EC000364B1B6807F1080211461846FEF7CEFA8A
:102ED000002387F877302EE097F87730374A32F8BA
:102EE0001330A7F85A30B7F95A3047F6FF729342B9
:102EF00008D197F8773007F10800314A502108F0DF
:102F000051FB0BE097F87720B7F95A3007F108002A
:102F1000009313462B4A502108F044FB1F4B1B68BB
:102F200007F1080211461846FEF7A0FA97F8773025
:102F3000013387F8773097F87730072BCCD9224ABE
:102F40003B6F1360214AFB6E1360214ABB6E136016
:102F5000204A3B6E1360204A97F8673013701F4B6E
:102F600001221A7007F10800BB6E0193FB6E0093FB
:102F70003B6F1B4A502108F015FB084B1B6807F1FB
:102F8000080211461846FEF771FA002318467837F2
:102F9000BD4680BD1F85EB5198CA0008443400200F
:102FA000D4CA000810CB000828CB0008A1340020A8
:102FB00054CB000868CB000884CB0008C434002040
:102FC0009CCB0008B4CB00088C3400209434002043
:102FD000983400209C340020A0340020903400203D
:102FE000C8CB000880B598B000AF786039607B68C6
:102FF000032B01DD022342E07B68022B01DC03236B
:103000003DE03B6804331B68184608F043FA03466A
:10301000FB65FA6D1C4BA3FB02135B09642101FBEA
:1030200003F3D31A002B03D1FB6DB3F5FA7F10D253
:1030300007F10C03154A5021184608F0B3FA144B57
:103040001B6807F10C0211461846FEF70FFA04231D
:1030500015E0104AFB6D13600F4B01221A7007F147
:103060000C00FB6D0D4A502108F09CFA084B1B68C0
:1030700007F10C0211461846FEF7F8F9002318462E
:103080006037BD4680BD00BF1F85EB5114CC0008E2
:1030900044340020943400209134002050CC0008A7
:1030A00080B596B002AF786039603B6804331B6826
:1030B000184608F0EFF9034687F84F3007F1480249
:1030C00097F84F300021184601F080F9BB6C1A0CBC
:1030D000BB6C07F10C0000931346614A3C2108F0D9
:1030E00061FA604B1B6807F10C0211461846FEF7A7
:1030F000BDF907F1480297F84F300121184601F059
:1031000065F9BB6C1A0CBB6C07F10C0000931346FD
:10311000554A3C2108F046FA524B1B6807F10C0255
:1031200011461846FEF7A2F907F1480297F84F300A
:103130000221184601F04AF9BB6C1A0CBB6C07F16E
:103140000C0000931346494A3C2108F02BFA454BEA
:103150001B6807F10C0211461846FEF787F907F1C4
:10316000480297F84F300321184601F02FF9BB6C45
:103170001A0CBB6C07F10C00009313463C4A3C212F
:1031800008F010FA374B1B6807F10C02114618467D
:10319000FEF76CF907F1480297F84F300421184602
:1031A00001F014F9BB6C1A0CBB6C07F10C00009316
:1031B0001346304A3C2108F0F5F92A4B1B6807F109
:1031C0000C0211461846FEF751F907F1480297F82C
:1031D0004F300521184601F0F9F8BB6C07F10C00DF
:1031E000254A3C2108F0DEF91E4B1B6807F10C0252
:1031F00011461846FEF73AF907F1480297F84F30A2
:103200000621184601F0E2F8BB6C07F10C001B4ADE
:103210003C2108F0C7F9134B1B6807F10C0211465B
:103220001846FEF723F907F1480297F84F300721B7
:10323000184601F0CBF8BB6C07F10C00104A3C219A
:1032400008F0B0F9074B1B6807F10C02114618464D
:10325000FEF70CF9002318465037BD4680BD00BF6D
:1032600084CC000844340020A0CC0008BCCC00086A
:10327000D8CC0008F4CC00080CCD000824CD000800
:103280003CCD000880B500AF0249034807F0CEFFEF
:1032900000BF80BDA8010020A401002080B500AFC0
:1032A000214B1B6821491846FEF7E0F81E4B1B68AE
:1032B0001F491846FEF7DAF81B4B1B681D491846D4
:1032C000FEF7D4F8184B1B681B491846FEF7CEF8DA
:1032D000154B1B6819491846FEF7C8F8124B1B68B6
:1032E00017491846FEF7C2F80F4B1B6815491846D8
:1032F000FEF7BCF80C4B1B6813491846FEF7B6F8EE
:10330000094B1B6811491846FEF7B0F8064B1B68BD
:103310000F491846FEF7AAF8034B1B680D491846DB
:10332000FEF7A4F800BF80BD4434002050CD000853
:1033300014CE0008B4CE000854CF000818D00008FE
:10334000D8D000089CD1000860D2000824D300081F
:10335000E8D30008ACD4000880B483B000AF786034
:103360007B689B6803F00203022B01D1012300E07C
:10337000002318460C37BD465DF8047B704780B4C7
:1033800083B000AF78607B689B6803F08003802B7C
:1033900001D1012300E0002318460C37BD465DF83B
:1033A000047B704780B485B000AF78600B46FB703B
:1033B0007B680C33FB60FB68FA781A7000BF143727
:1033C000BD465DF8047B704780B483B000AF786081
:1033D00039607B683A689A6100BF0C37BD465DF87A
:1033E000047B704780B483B000AF786039603B687D
:1033F0001A047B689A6100BF0C37BD465DF8047BF8
:103400007047000080B590B002AF984B1B78DBB2DC
:10341000002B0DD00A2007F0F3FE0346002B07D047
:1034200000F074FA924B1B6819460A2007F0D2FE8E
:10343000904B1B78DBB2002B00F014810B2007F0BF
:10344000DFFE0346002B00F0F3808B4B00221A7046
:103450008A4B1B78DBB21A46520013445B00DAB287
:10346000874B1B78DBB21344DBB2063B87F837305F
:10347000844B1B78DBB2002B3AD0834B1B78DBB23A
:10348000002B25D1814B1B78DBB2002B20D1804B48
:1034900000221A60774B00221A70744B00221A70B7
:1034A000734B00221A607B4B01221A70744B01226D
:1034B0001A70724B01221A70774B00221A60774BF8
:1034C00000221A60704B00221A70704B00221A7092
:1034D000002000F04DF9002000F0B0F96E4B1B68A1
:1034E00019460C2007F076FE664B00221A7098E011
:1034F0000C2007F085FE0346002B00F092805F4B06
:103500001B78DBB2012B1BD1654B1B78DBB2002B88
:1035100016D15B4B1B78DBB2012B11D100F0CAF83E
:103520005A4B1B78DBB2013BDAB2584B1A705B4B3B
:103530001B6819460D2007F04DFE594B01221A70E9
:103540000D2007F05DFE0346002B61D04B4B1B782E
:10355000DBB2012B03D153495348FDF787FF97F89E
:103560003730184600F004F997F83730184600F065
:1035700065F997F83730092B12D8414B1B78DBB22D
:1035800019463E4B1B78DBB21A4697F83730381D88
:10359000019300920B46454A322108F003F811E0EE
:1035A000374B1B78DBB21946344B1B78DBB21A461B
:1035B00097F83730381D019300920B463C4A322170
:1035C00007F0F0FF3B1D19463748FDF74FFF2B4B27
:1035D0001B78DBB20133DAB2284B1A70274B1B7809
:1035E000DBB2062B11D9254B01221A70244B1B7814
:1035F000DBB20133DAB2224B1A70214B1B78DBB2FB
:10360000062B02D91E4B01221A70254B00221A707C
:103610001F4B1B6819460B2007F0DCFD194B0122DC
:103620001A70134B1B6819460A2007F0D3FD19E0E6
:103630000D2007F0E5FD0346002B13D00A2007F00C
:10364000DFFD0346002B0DD000F0DEF90A4B1B789E
:103650000133DAB2084B1A70054B1B6819460A2071
:1036600007F0B8FD00BF3837BD4680BD913400205B
:10367000943400209034002089340020CE010020B2
:10368000CD010020CF010020A1340020A034002073
:103690008C340020CC010020983400209C34002081
:1036A000D001002070D500080010014074D500083A
:1036B00088D5000880B592B002AF0023BB87B7F968
:1036C0003C3047F6FF72934204D123492348FDF76B
:1036D000CDFE0BE0B7F93C303846214A3C2107F0DB
:1036E00061FF3B4619461D48FDF7C0FE002387F8E1
:1036F0003F3028E097F83F301A4A32F81330BB8742
:10370000B7F93C3047F6FF72934207D197F83F3044
:103710003846154A3C2107F045FF0AE097F83F205C
:10372000B7F93C30384600931346104A3C2107F065
:1037300039FF3B4619460948FDF798FE97F83F3098
:10374000013387F83F3097F83F30072BD2D900BFBD
:1037500000BF4037BD4680BD9CD500080010014029
:10376000B8D50008C4340020D0D50008E8D500083A
:1037700080B588B000AF0346FB712C4A07F11403F3
:1037800092E80300186004331980FB79002B21D0E4
:10379000FB79242B1ED8FB79013B254A82FB0312BF
:1037A000DB17D31AFB76FB795A1E214B83FB0231C0
:1037B000D317C91A0B465B000B445B00D11A0B46AA
:1037C000BB76BB7E01229A40FB7ED2B220333B44C3
:1037D00003F80C2C0023FB610FE0FB69C3F1050328
:1037E00020333B4413F80C1C07F10C02FB69134413
:1037F0000A461A70FB690133FB61FB69052BECDD9E
:103800004FF400710B48FFF7EDFD07F10C014FF489
:103810007A730622084804F0B4FF4FF4007105489B
:10382000FFF7D2FD00BF2037BD4680BDFCD50008A4
:10383000ABAAAA2A000C02407435002080B586B0DD
:1038400000AF0346FB712D4A07F10C0392E8030019
:10385000186004331980FB79002B21D0FB79242BCD
:103860001ED8FB79013B264A82FB0312DB17D31AD1
:10387000FB74FB795A1E224B83FB0231D317C91A02
:103880000B465B000B445B00D11A0B46BB74BB7C40
:1038900001229A40FB7CD2B218333B4403F80C2C33
:1038A0004FF480511748FFF79DFD05237B6112E01F
:1038B00007F10C027B6913441B7819461248FFF785
:1038C00071FD00BF1048FFF747FD0346002BF9D0FC
:1038D0007B69013B7B617B69002BE9DA00BF0A4809
:1038E000FFF74DFD0346002BF9D14FF480510548F9
:1038F000FFF76AFD00BF1837BD4680BDFCD5000844
:10390000ABAAAA2A001002400030014080B598B04E
:1039100002AF0023A7F8403000237B654FF000037F
:103920003B65324BFB640023BB6400237B644FF494
:1039300000612F48FFF756FD00BF4FF400612C488F
:10394000FFF742FD4FF480612948FFF74BFD07F177
:1039500040014FF47A730222264805F056F84FF4DE
:1039600080612348FFF730FD97F840301B0297F83D
:10397000412013437B657B6D07EE903AB8EE677A82
:10398000DFED1D6AC7EE267A97ED137A67EE277A88
:10399000C7ED147AD7ED147AFDEEE77A17EE903A78
:1039A000BB64BB6C07EE903AF8EEE77A97ED147AB9
:1039B00077EE677A9FED117A67EE877AFDEEE77A08
:1039C00017EE903A7B64381D7B6C0193BB6C0093BF
:1039D0007B6D0B4A3C2107F0E5FD3B1D194609486C
:1039E000FDF744FD00BF5837BD4680BD0000404094
:1039F000000C0240743500200000804700007A442B
:103A000004D600080010014080B590B002AF00233A
:103A1000BB860023FB864FF400611C48FFF7E2FCE5
:103A200000BF4FF400611948FFF7CEFC4FF48061EE
:103A30001648FFF7D7FC07F134014FF47A730222DE
:103A4000134804F0E2FF4FF480611048FFF7BCFC1C
:103A500097F834301B021AB297F835301BB2134373
:103A60001BB2FB860B4B1B781A46FB8E3846009325
:103A70001346094A322107F095FD3B46194607488F
:103A8000FDF7F4FC00BF3837BD4680BD000C024096
:103A9000743500208934002028D600080010014029
:103AA00080B500AF0249034807F0C0FB00BF80BDEE
:103AB000BC010020B801002080B483B000AF786062
:103AC00039607B683A689A6100BF0C37BD465DF883
:103AD000047B704780B483B000AF786039603B6886
:103AE0001A047B689A6100BF0C37BD465DF8047B01
:103AF000704780B483B000AF78607B689B6803F048
:103B00000203022B01D1012300E0002318460C37E9
:103B1000BD465DF8047B704780B483B000AF786029
:103B20007B689B6803F08003802B01D1012300E0B8
:103B3000002318460C37BD465DF8047B704780B4FF
:103B400085B000AF78600B46FB707B680C33FB6080
:103B5000FB68FA781A7000BF1437BD465DF8047B25
:103B60007047000080B584B000AF03460A46FB7181
:103B70001346BB714FF480412A48FFF7ABFFFB7936
:103B8000002B07D0BB791B011AB2274B13431BB282
:103B90009BB206E0BB791B011BB243F440531BB23E
:103BA0009BB2FB81FB891B0A9BB2DBB219461F4803
:103BB000FFF7C5FF00BF1D48FFF79BFF0346002B23
:103BC000F9D0FB89DBB219461848FFF7B8FF00BFF0
:103BD0001648FFF78EFF0346002BF9D000BF1348AD
:103BE000FFF79AFF0346002BF9D14FF480410D48AF
:103BF000FFF762FF4FF400410A48FFF76BFF002315
:103C0000BB6002E0BB680133BB60BB68632BF9DDBE
:103C10004FF400410348FFF74FFF00BF1037BD4688
:103C200080BD00BF0010024000B0FFFF0030014027
:103C300080B483B000AF5B4B5B790133DAB2594B90
:103C40005A71584B5B793B2B7AD9564B00225A71EB
:103C5000544B1B790133DAB2524B1A71514B1B7919
:103C60003B2B6DD94F4B00221A714E4BDB78013341
:103C7000DAB24C4BDA704B4BDB78172B60D9494BDF
:103C80000022DA70474B1B780133DAB2454B1A70C9
:103C9000444B9B7803F00303DBB2002B1ED1414B56
:103CA0009B78414AA2FB03125209642101FB02F2F4
:103CB0009B1ADBB2002B0FD13A4B9B781A463A4B3A
:103CC00083FB0213D911D317CB1A4FF4C87101FB30
:103CD00003F3D31A002B01D1012300E00023FB7171
:103CE000304B5B78022B03D1FB791C33DBB204E051
:103CF0002C4B5B78013B2D4AD35CBB71294B1B7865
:103D0000BA799A421CD2274B01221A70254B5B7854
:103D10000133DAB2234B5A70224B5B780C2B0FD94C
:103D2000204B01225A701F4B9B780133DAB21D4B96
:103D30009A701C4B9B78632B02D91A4B00229A7005
:103D40001B4B9B790133DAB2194B9A71184B9B7953
:103D50003B2B21D9164B00229A71154B5B7901330D
:103D6000DAB2134B5A71124B5B793B2B14D9104BBF
:103D700000225A710E4B1B790133DAB20C4B1A71C7
:103D80000B4B1B79172B07D9094B00221A71084BD3
:103D90001B680133064A136000BF0C37BD465DF84F
:103DA000047B7047D40100201F85EB5148D60008E2
:103DB000A434002080B500AF114B00229A70104B44
:103DC00001225A700E4B01221A700D4B0022DA703C
:103DD0000B4B00221A710A4B00225A71094B002228
:103DE0001A60084B00221A71064B00225A71054BCB
:103DF00000229A710449054807F018FA00BF80BDF7
:103E0000D4010020A4340020E0010020DC010020C7
:103E100080B483B000AF78607B68002B06D07B68ED
:103E2000054A1068186092889A8000E000BF0C373D
:103E3000BD465DF8047B7047D401002080B483B098
:103E400000AF786039607B683A685A6300BF0C370E
:103E5000BD465DF8047B704780B483B000AF7860E6
:103E600039607B683A689A6300BF0C37BD465DF8DD
:103E7000047B704780B483B000AF786039607B68A2
:103E80003A68DA6300BF0C37BD465DF8047B7047C3
:103E900080B483B000AF786039607B683A681A6498
:103EA00000BF0C37BD465DF8047B704780B582B01B
:103EB00000AF03460A46FB711346BB80BB8842F243
:103EC0000F72934202D942F20F73BB80FB79032B2E
:103ED00022D801A252F823F0E93E0008F53E00087E
:103EE000013F00080D3F0008BB8819460D48FFF749
:103EF000A5FF12E0BB8819460A48FFF7ADFF0CE0AA
:103F0000BB8819460748FFF7B5FF06E0BB8819468E
:103F10000448FFF7BDFF00E000BF00BF0837BD4603
:103F200080BD00BF0000014080B483B000AF786066
:103F300039607B683A685A6300BF0C37BD465DF84C
:103F4000047B704780B483B000AF786039607B68D1
:103F50003A689A6300BF0C37BD465DF8047B704732
:103F600080B483B000AF786039607B683A68DA6308
:103F700000BF0C37BD465DF8047B704780B483B04A
:103F800000AF786039607B683A681A6400BF0C370C
:103F9000BD465DF8047B704780B582B000AF034634
:103FA0000A46FB711346BB80BB8842F20F729342F4
:103FB00002D942F20F73BB80FB79032B2ED801A2EA
:103FC00052F823F0D53F0008E73F0008F93F00080A
:103FD0000B400008144ABB881380BB88194613485D
:103FE000FFF7A2FF1BE0104ABB885380BB8819462D
:103FF0000E48FFF7A7FF12E00B4ABB889380BB88EF
:1040000019460A48FFF7ACFF09E0074ABB88D3808E
:10401000BB8819460548FFF7B1FF00E000BF00BFAD
:104020000837BD4680BD00BFAC340020000400400E
:1040300080B483B000AF0346FB71FB79044A32F8C9
:10404000133018460C37BD465DF8047B704700BF3F
:10405000AC34002080B483B000AF78607B689B688C
:1040600003F00103012B01D1012300E000231846D6
:104070000C37BD465DF8047B704780B483B000AF59
:1040800078607B680C331B78DBB218460C37BD4672
:104090005DF8047B704780B485B000AF78600B4654
:1040A000FB707B680C33FB60FB68FA781A7000BF0A
:1040B0001437BD465DF8047B704780B483B000AF11
:1040C000786039607B683A689A6100BF0C37BD46FA
:1040D0005DF8047B704780B483B000AF78603960CE
:1040E0003B681A047B689A6100BF0C37BD465DF8D7
:1040F000047B704780B582B000AF0346FB71FB794B
:10410000074A52F823301846FB79064A52F8233002
:104110001946FFF7E0FF00BF0837BD4680BD00BF6E
:10412000540200206402002080B582B000AF034634
:10413000FB71FB79074A52F823301846FB79064A8F
:1041400052F823301946FFF7B8FF00BF0837BD46C5
:1041500080BD00BF540200206402002080B582B000
:1041600000AF0346FB71FB7919460948FFF793FF3F
:1041700000BF0748FFF76EFF0346002BF9D0044845
:10418000FFF77BFF034618460837BD4680BD00BFDA
:10419000003C004080B584B000AF03463960FB713D
:1041A0001346BB710023FB73FB791846FFF7A2FF90
:1041B0000023BB7310E0BB7B3A6813441B7818469E
:1041C000FFF7CCFF0346FB73BB7B3A681344FA7BD3
:1041D0001A70BB7B0133BB73BA7BBB799A42EAD3BB
:1041E000FB791846FFF7A0FFFB7B18461037BD464A
:1041F00080BD000000000000B0B582B000AFC7E98C
:104200000001D7E900010E4D00242A1A64EB0103D6
:104210004FF000004FF00001590641EAD21150065C
:1042200005A3D3E90023FCF73BF802460B461346EF
:1042300018460837BD46B0BD00F9029500000000E1
:10424000807C814A2DE9B00F85B000AFF860F96835
:10425000C8170C4605461B4901FB05F0002104FB6D
:1042600001F101441748A4FB002319440B461046F2
:104270001946002908DA6FF07E43C3183B6041F10C
:1042800000037B60D7E900014FF000024FF000030C
:10429000420E42EAC1124B160021D2F1000A61EB34
:1042A000030B52465B46084912EB010843F1000933
:1042B00042464B46104619461437BD46BDE8B00F7E
:1042C000704700BF00F90295807C814A80B586B0B6
:1042D00000AF03463960FB710023FB6000233B61A4
:1042E0003B681B783B733B681B795B00DBB27B73DD
:1042F0003B681B78F22B11D13B681A6907F10C035C
:1043000002331946104600F0EAFA07F10C030621C1
:10431000184600F0A9FA0346BB7407E007F10C0346
:104320000221184600F0A0FA0346BB733B685A7896
:1043300007F10C01FB791846FFF72CFF07F10C037E
:10434000184600F00AFB03469AB24FF0FF337B6138
:104350007B695B057B617B695B0D7B617B699BB2E4
:1043600013409AB23B68DA823B681B78F22B06D185
:10437000BA7B3B681A75FA7C3B685A7519E03B6852
:104380001B78F42B0FD107F10C030233184600F011
:10439000C7FA02463B681A61BA7C3B681A75FA7C18
:1043A0003B685A7505E0BA7B3B681A75FA7B3B6837
:1043B0005A753B685B7DA52B02D04FF0FF3300E0C0
:1043C000002318461837BD4680BD000080B58AB06E
:1043D00000AF03463A60FB710B46BB71002387F8C0
:1043E0002730154B1B883B813B89BB81BA79134928
:1043F00013465B0013449B00CA1807F1100307CA59
:1044000083E8070007F10C02FB7911461846FFF715
:104410005DFF034687F8273097F92730002B02D03D
:1044200097F9273003E0FA693B681A6000231846C1
:104430002837BD4680BD00BF3CD60008F4010020EF
:1044400080B58AB000AF03463A60FB710B46BB7182
:104450000F4B1B88BB81BB893B82BA790D49134640
:104460005B0013449B00CA1807F1140307CA83E8D2
:1044700007003B683B6207F11002FB7911461846C2
:10448000FFF724FF034618462837BD4680BD00BF0E
:1044900040D60008F401002080B586B000AFBA60B5
:1044A0007B600346FB730B46BB7307F11402B97BB9
:1044B000FB7B1846FFF78AFFBB68DA437B69134032
:1044C0007B617968B86800F078FA02467B6913432B
:1044D0007B617A69B97BFB7B1846FFF7B1FF034626
:1044E00018461837BD4680BD80B582B000AF034680
:1044F0000A46FB711346BB71BB79F8790122002192
:10450000FFF7CAFF034618460837BD4680BD80B591
:1045100082B000AF03460A46FB711346BB71BB79FC
:10452000F87902220021FFF7B7FF03461846083743
:10453000BD4680BD80B582B000AF0346FB71F879FF
:1045400001234FF480420021FFF7A6FF03461846DF
:104550000837BD4680BD80B584B000AF0346FB710F
:104560004FF0FF33FB60FB689B06FB60FB685B0D55
:10457000FB60FA68F87900230121FFF78DFF0346FD
:1045800018461037BD4680BD80B584B000AF0346E5
:104590003960FB714FF0FF33FB60FA68F8793B68D4
:1045A0000421FFF779FF034618461037BD4680BD4A
:1045B0002DE9F04F91B000AF0346FB75002387F85B
:1045C0003E30FB7D6B4A52F823301846FB7D6A4A29
:1045D00052F823301946FFF77EFDFB7D674A52F8FB
:1045E00023301846FB7D664A52F823301946FFF700
:1045F00072FDFB7D1846FFF79DFFFB7D1846FFF718
:10460000AAFF034687F83E30FB7D5A4A52F8233012
:104610001846FB7D584A52F823301946FFF74DFDE6
:10462000FB7D01211846FFF75FFF034687F83E3008
:10463000FB7D43F6012200211846FFF701FF0346E8
:1046400087F83E30FB7D4FF07F411846FFF79CFF17
:10465000034687F83E30FB7D002201211846FFF714
:10466000EFFE034687F83E30012006F053FDFB7D48
:1046700043F6012200211846FFF7E2FE034687F8C1
:104680003E304FF07F40FFF7DDFDC7E90C01002011
:10469000FFF7D8FDC7E90A01002387F83F3047E05C
:1046A000D7E90A01D7E90C23841A61EB030597F8CF
:1046B0003F3000229846914608FB05F204FB09F3BF
:1046C0001344A4FB08AB5B449B4652465B46002B5D
:1046D00006DAD11CB96043F10003FB60D7E902237D
:1046E0004FF000004FF00001900840EA83709910ED
:1046F000D7E90C2316183E604B417B60D7E90023B5
:10470000C7E90823D7E90801FFF776FDF861FA69E0
:10471000FB7D11461846FFF737FF034687F83E300A
:10472000012006F0F7FC97F83F30013387F83F305F
:1047300097F83F30042BB3D9FB7D104A52F8233051
:104740001846FB7D0E4A52F823301946FFF7B5FC98
:10475000FB7D01211846FFF7DAFE034687F83E305D
:10476000C820FBF779FF97F93E3018464437BD461D
:10477000BDE8F08F74020020840200209402002023
:10478000A40200202DE9B04F8CB000AFC7E904238C
:104790000346FB770B46BB77002387F827304FF0A3
:1047A00000024FF00003C7E90A2300233B62BB7FEE
:1047B000002B24D1D7E9042310461946002907DA33
:1047C00010F10F03BB6041F10003FB60D7E9020168
:1047D0004FF000024FF00003020942EA01720B1190
:1047E00000215042386061EB03037B60D7E900236E
:1047F0001C4912EB010843F10009C7E90A89BB7F94
:10480000012B19D1D7E90423002B05DA12F10F0A85
:1048100043F1000B52465B464FF000004FF00001A1
:10482000100940EA0370191102460B460D4954184D
:1048300043F10005C7E90A45D7E90A01FFF7DCFCA7
:1048400038623A6AFB7F11461846FFF79DFE034621
:1048500087F8273097F9273018463037BD46BDE82E
:10486000B08F00BF807C814A80B485B000AF786093
:104870000B46FB700023FB7307233B730023BB73C2
:1048800022E0BB7B7A6813441A78FB7B5340FB73AE
:1048900000237B7312E097F90F30002B08DAFB7BC3
:1048A0005B005AB297F90C3053405BB2FB7302E0E5
:1048B000FB7B5B00FB737B7B01337B737B7B072B79
:1048C000E9D9BB7B0133BB73BA7BFB789A42D8D35F
:1048D000FB7B18461437BD465DF8047B704780B4F7
:1048E00083B000AF786039603B6803337A68D2B236
:1048F0001A707B681A0A3B680233D2B21A707B685E
:104900001A0C3B680133D2B21A707B681B0EDAB204
:104910003B681A7000BF0C37BD465DF8047B7047DA
:1049200080B483B000AF78607B6803331B781A468D
:104930007B6802331B781B0213431A467B680133E2
:104940001B781B041A437B681B781B06134318460D
:104950000C37BD465DF8047B704780B483B000AF70
:1049600078607B6801331B781A467B681B781B02D2
:10497000134318460C37BD465DF8047B704780B47E
:1049800085B000AF78600023FB600CE07B6803F02B
:104990000103002B01D0FB6809E07B685B087B60AA
:1049A000FB680133FB607B68002BEFD120231846A6
:1049B0001437BD465DF8047B704780B582B000AF08
:1049C000786039607868FFF7DAFF02463B6803FADF
:1049D00002F27B68134018460837BD4680BD80B49C
:1049E00083B000AF78607B689B6843F001027B680E
:1049F0009A6000BF0C37BD465DF8047B704780B4F9
:104A000083B000AF78607B689B6803F00103012BE3
:104A10000CBF01230023DBB218460C37BD465DF8FE
:104A2000047B704780B483B000AF78607B689B687C
:104A300043F080427B689A6000BF0C37BD465DF84A
:104A4000047B704780B483B000AF786039600C4A53
:104A50003B6813441B781A467B6813441B6808495B
:104A60003A680A44127811467A680A4443F001030E
:104A7000136000BF0C37BD465DF8047B704700BF74
:104A800054D6000880B485B000AFF860B9607A6091
:104A90000D4ABB6813441B781A46FB6813441B6815
:104AA00023F0C0020849BB680B441B781946FB6819
:104AB0000B4419467B6813430B6000BF1437BD4697
:104AC0005DF8047B704700BF54D6000880B485B001
:104AD00000AFF860B9607A600D4ABB6813441B7878
:104AE0001A46FB6813441B6823F490720849BB689C
:104AF0000B441B781946FB680B4419467B6813432B
:104B00000B6000BF1437BD465DF8047B704700BFE3
:104B100054D6000880B485B000AFF860B9607A6000
:104B20000D4ABB6813441B781A46FB6813441B6884
:104B300023F400720849BB680B441B781946FB68D4
:104B40000B4419467B6813430B6000BF1437BD4606
:104B50005DF8047B704700BF54D6000880B485B070
:104B600000AFF860B9607A600D4ABB6813441B78E7
:104B70001A46FB6813441B6823F480620849BB682B
:104B80000B441B781946FB680B4419467B6813439A
:104B90000B6000BF1437BD465DF8047B704700BF53
:104BA00054D6000880B485B000AFF860B9607A6070
:104BB0000D4ABB6813441B781A46FB6813441B68F4
:104BC00023F4C0520849BB680B441B781946FB68A4
:104BD0000B4419467B6813430B6000BF1437BD4676
:104BE0005DF8047B704700BF54D6000880B485B0E0
:104BF00000AFF860B9607A600D4ABB6813441B7857
:104C00001A46FB6813441B6823F4C0420849BB687A
:104C10000B441B781946FB680B4419467B68134309
:104C20000B6000BF1437BD465DF8047B704700BFC2
:104C300054D6000880B485B000AFF860B9607A60DF
:104C40000D4ABB6813441B781A46FB6813445B6823
:104C50001B0C1B040849BA680A4412781146FA680A
:104C60000A4411467A6813434B6000BF1437BD46AF
:104C70005DF8047B704700BF54D6000880B485B04F
:104C800000AFF860B9607A600D4ABB6813441B78C6
:104C90001A46FB6813441B6823F060620849BB682E
:104CA0000B441B781946FB680B4419467B68134379
:104CB0000B6000BF1437BD465DF8047B704700BF32
:104CC00054D6000880B485B000AFF860B9607A604F
:104CD000074ABB6813441B781A46FB6813441A46FC
:104CE0007B68D36000BF1437BD465DF8047B704716
:104CF00054D6000880B485B000AFF860B9607A601F
:104D0000074ABB6813441B781A46FB6813441A46CB
:104D10007B68936000BF1437BD465DF8047B704725
:104D200054D6000880B500AF002200212348FFF7C9
:104D3000A5FF002200212148FFF7A4FE0022002148
:104D40001E48FFF7E7FE4FF4806200211B48FFF783
:104D500005FF4FF4006200211848FFF723FF4FF4CE
:104D6000005200211548FFF741FF08220021134897
:104D7000FFF760FF124A00211048FFF7BBFF114BFD
:104D80001A4600210D48FFF79DFF4FF48072002165
:104D90000A48FFF79BFE00210848FFF753FE0A4828
:104DA000FFF71DFE00BF0848FFF729FE0346002B52
:104DB000F9D00548FFF736FE00BF80BD0064024011
:104DC0004C200140B43400200020014080B485B064
:104DD00000AF78600023FB7328E0FB7B184A32F8B1
:104DE00013301946FB7B5B007A681344154A32F98D
:104DF00011201A80FB7B5B007A681344B3F9003002
:104E000013F5FA7F08DBFB7B5B007A681344B3F988
:104E10000030B3F5FA6F06DDFB7B5B007A68134464
:104E200047F6FF721A80FB7B0133FB73FB7B072B7A
:104E3000D3D900BF00BF1437BD465DF8047B70476F
:104E4000B4340020B402002080B483B000AF786096
:104E500039607B683A689A6100BF0C37BD465DF8DF
:104E6000047B704780B483B000AF786039603B68E2
:104E70001A047B689A6100BF0C37BD465DF8047B5D
:104E80007047000080B500AF0A4A13786FF3000343
:104E90001370084A13786FF341031370054A1378AF
:104EA0006FF38703137000F0D5F800F0EBF800BF44
:104EB00080BD00BFD434002080B500AF0C4B1B7800
:104EC000C3F38503DBB2022B0CD0022B0DDC002BCD
:104ED00002D0012B03D008E000F00CF806E000F04F
:104EE00051F803E000F070F800E000BF00BF80BDA3
:104EF000D434002080B500AF214B1B7803F00103B0
:104F0000DBB2002B20D01E4B1B7803F00203DBB278
:104F1000002B19D0002006F073F90346002B2DD08A
:104F2000174A13786FF300031370154A13786FF361
:104F30004103137000F09AF800F0B0F84FF4FA71E2
:104F4000002006F047F919E0002006F059F9034661
:104F5000002B13D00A4A137843F001031370084A58
:104F6000137843F00203137000F074F800F08AF82D
:104F70004FF4FA71002006F02DF9FFE700BF80BD65
:104F8000D434002080B500AF4FF400610D48FFF726
:104F900069FF4FF480610B48FFF756FF4FF4FA703A
:104FA00006F0B8F84FF480610648FFF75BFF4FF456
:104FB00000610448FFF748FF4FF4FA7006F0AAF8C2
:104FC00000BF80BD0010024080B500AF204B1B78B1
:104FD00003F00103DBB2002B1FD01D4B1B7803F045
:104FE0000203DBB2002B18D0002006F009F90346BB
:104FF000002B2BD0164A13786FF300031370144A5A
:1050000013786FF34103137000F030F800F046F8A6
:105010003221002006F0DEF818E0002006F0F0F85B
:105020000346002B12D00A4A137843F00103137091
:10503000074A137843F00203137000F00BF800F0F6
:1050400021F83221002006F0C5F8FFE700BF80BD3F
:10505000D434002080B500AF4FF480610248FFF7E0
:10506000F3FE00BF80BD00BF0010024080B500AF5E
:105070004FF480610248FFF7F5FE00BF80BD00BF1E
:105080000010024080B500AF4FF400610248FFF706
:10509000DBFE00BF80BD00BF0010024080B500AF46
:1050A0004FF400610248FFF7DDFE00BF80BD00BF86
:1050B0000010024080B500AF0249034806F0B6F880
:1050C00000BF80BDB8220020B422002080B400AF11
:1050D000044BDB681B0A03F007031846BD465DF866
:1050E000047B704700ED00E080B483B000AF03465E
:1050F000FB7197F90730002B0BDBFB7903F01F02E4
:10510000074997F907305B09012000FA02F241F8DC
:10511000232000BF0C37BD465DF8047B704700BFFD
:1051200000E100E080B483B000AF03463960FB715A
:1051300097F90730002B0ADB3B68DAB20C4997F984
:1051400007301201D2B20B4483F800230AE03B6817
:10515000DAB20849FB7903F00F03043B1201D2B223
:105160000B441A7600BF0C37BD465DF8047B7047D0
:1051700000E100E000ED00E080B489B000AFF8602D
:10518000B9607A60FB6803F00703FB61FB69C3F158
:105190000703042B28BF0423BB61FB690433062BE0
:1051A00002D9FB69033B00E000237B614FF0FF3233
:1051B000BB6902FA03F3DA43BB681A407B699A4081
:1051C0004FF0FF317B6901FA03F3D9437B680B4051
:1051D000134318462437BD465DF8047B704780B4FE
:1051E00089B000AFF860B9607A60FB682C3319466B
:1051F000BB6803F440734FF440727A617A6992FAA3
:10520000A2F23A613A69BA61BA69002A01D1202250
:1052100003E0BA69B2FA82F2D2B2D3409B000B44E7
:10522000FB61FB691A68BB6803F01F031F2101FAC9
:1052300003F3DB431A407B6803F01F01BB6803F0F4
:105240001F0301FA03F31A43FB691A6000BF2437F6
:10525000BD465DF8047B704780B483B000AF7860D2
:1052600039607B689B6823F480623B681A437B68E3
:105270009A6000BF0C37BD465DF8047B704780B470
:105280008FB000AFF860B9607A60FB680C331946E4
:10529000BB6803F000734FF000727A617A6992FA8A
:1052A000A2F23A613A69BA61BA69002A01D12022B0
:1052B00003E0BA69B2FA82F2D2B2D3409B000B4447
:1052C0007B637B6B1A68BB6803F0F8734FF0F8716F
:1052D0003962396A91FAA1F1F961F9697962796AF9
:1052E000002901D1202103E0796AB1FA81F1C9B224
:1052F000CB40072101FA03F3DB431A40BB6803F0FC
:10530000F8734FF0F871F962F96A91FAA1F1B96294
:10531000B96A3963396B002901D1202103E0396B67
:10532000B1FA81F1C9B2CB40796801FA03F31A43AB
:105330007B6B1A6000BF3C37BD465DF8047B70474D
:1053400080B485B000AFF860B9607A600D4ABB6880
:1053500013441B781A46FB6813441B6823F0C002F1
:105360000849BB680B441B781946FB680B44194677
:105370007B6813430B6000BF1437BD465DF8047BA8
:10538000704700BF5CD6000880B485B000AFF860FD
:10539000B9607A600D4ABB6813441B781A46FB68F3
:1053A00013441B6823F490720849BB680B441B78B4
:1053B0001946FB680B4419467B6813430B6000BF1A
:1053C0001437BD465DF8047B704700BF5CD600080B
:1053D00080B485B000AFF860B9607A600D4ABB68F0
:1053E00013441B781A46FB6813441B6823F40072AD
:1053F0000849BB680B441B781946FB680B441946E7
:105400007B6813430B6000BF1437BD465DF8047B17
:10541000704700BF5CD6000880B485B000AFF8606C
:10542000B9607A600D4ABB6813441B781A46FB6862
:1054300013441B6823F480620849BB680B441B7843
:105440001946FB680B4419467B6813430B6000BF89
:105450001437BD465DF8047B704700BF5CD600087A
:1054600080B485B000AFF860B9607A600D4ABB685F
:1054700013441B781A46FB6813441B6823F4C0527C
:105480000849BB680B441B781946FB680B44194656
:105490007B6813430B6000BF1437BD465DF8047B87
:1054A000704700BF5CD6000880B485B000AFF860DC
:1054B000B9607A600D4ABB6813441B781A46FB68D2
:1054C00013441B6823F4C0420849BB680B441B7893
:1054D0001946FB680B4419467B6813430B6000BFF9
:1054E0001437BD465DF8047B704700BF5CD60008EA
:1054F00080B485B000AFF860B9607A600D4ABB68CF
:1055000013441B781A46FB6813441B6823F440328B
:105510000849BB680B441B781946FB680B441946C5
:105520007B6813430B6000BF1437BD465DF8047BF6
:10553000704700BF5CD6000880B485B000AFF8604B
:10554000B9607A600D4ABB6813441B781A46FB6841
:1055500013441B6823F060620849BB680B441B7846
:105560001946FB680B4419467B6813430B6000BF68
:105570001437BD465DF8047B704700BF5CD6000859
:1055800080B483B000AF786039600C4A3B68134444
:105590001B781A467B6813445B6908493A680A44D9
:1055A000127811467A680A4423F00403536100BF5D
:1055B0000C37BD465DF8047B704700BF5CD6000821
:1055C00080B483B000AF78607B681B6843F0010251
:1055D0007B681A6000BF0C37BD465DF8047B7047DE
:1055E00080B483B000AF78607B681B6823F08002D2
:1055F0007B681A6000BF0C37BD465DF8047B7047BE
:1056000080B483B000AF78607B681B6823F04002F1
:105610007B681A6000BF0C37BD465DF8047B70479D
:1056200080B483B000AF786039607B68DB6823F0BA
:10563000FE023B681A437B68DA6000BF0C37BD4648
:105640005DF8047B704780B483B000AF78607B68FE
:10565000DB6823F001027B68DA6000BF0C37BD46CF
:105660005DF8047B704780B483B000AF78607B68DE
:105670005B6843F400727B685A6000BF0C37BD461C
:105680005DF8047B7047000080B400AF054B1B68D9
:10569000044A43F48033136000BFBD465DF8047BC9
:1056A000704700BF0038024080B400AF074B1B6852
:1056B00003F40033B3F5003F0CBF01230023DBB23A
:1056C0001846BD465DF8047B704700BF00380240B5
:1056D00080B483B000AF7860064B9B6823F0030270
:1056E00004497B6813438B6000BF0C37BD465DF8EF
:1056F000047B70470038024080B400AF044B9B68C5
:1057000003F00C031846BD465DF8047B704700BFEC
:105710000038024080B483B000AF7860064B9B68CD
:1057200023F0F00204497B6813438B6000BF0C3701
:10573000BD465DF8047B70470038024080B483B0FA
:1057400000AF7860064B9B6823F4E05204497B6805
:1057500013438B6000BF0C37BD465DF8047B704778
:105760000038024080B483B000AF7860064B9B687D
:1057700023F4604204497B6813438B6000BF0C37FD
:10578000BD465DF8047B70470038024080B485B0A8
:1057900000AF7860084B1A6B07497B6813430B63B3
:1057A000054B1A6B7B681340FB60FB6800BF143726
:1057B000BD465DF8047B70470038024080B485B078
:1057C00000AF7860084B1A6C07497B6813430B6481
:1057D000054B1A6C7B681340FB60FB6800BF1437F5
:1057E000BD465DF8047B70470038024080B485B048
:1057F00000AF7860084B5A6C07497B6813434B64D1
:10580000054B5A6C7B681340FB60FB6800BF143784
:10581000BD465DF8047B70470038024080B483B019
:1058200000AF7860064B1B6823F0070204497B68D1
:1058300013430B6000BF0C37BD465DF8047B704717
:10584000003C024080B400AF044B1B6803F0070328
:105850001846BD465DF8047B704700BF003C02401F
:1058600080B483B000AF7860064B1B6823F480429D
:1058700004497B6813430B6000BF0C37BD465DF8DD
:10588000047B70470070004080B483B000AF786044
:105890007B681B6843F040027B681A6000BF0C37CE
:1058A000BD465DF8047B704780B483B000AF78607C
:1058B00039607B685B6823F010023B681A437B68A1
:1058C0005A6000BF0C37BD465DF8047B704780B45A
:1058D00085B000AF78600B46FB707B680C33FB60D3
:1058E000FB68FA781A7000BF1437BD465DF8047B78
:1058F000704780B483B000AF78607B681B6823F08A
:1059000080027B681A6000BF0C37BD465DF8047BDF
:105910007047000080B485B000AF786039603B68A4
:10592000012B1CD03B68042B17D03B68102B12D0E6
:105930003B68402B0DD03B68B3F5807F07D03B68B8
:10594000B3F5806F01D105230AE0062308E00423A4
:1059500006E0032304E0022302E0012300E0002329
:10596000FB737B6818331946FB7B0B4AD35C0B44F3
:10597000BB60BB681A68FB7B0849CB5C19460423F3
:105980008B40DB431A40BB681A6000BF1437BD462A
:105990005DF8047B704700BF64D600086CD6000831
:1059A00080B485B000AF786039603B68012B1CD0B3
:1059B0003B68042B17D03B68102B12D03B68402B60
:1059C0000DD03B68B3F5807F07D03B68B3F5806F9F
:1059D00001D105230AE0062308E0042306E003239F
:1059E00004E0022302E0012300E00023FB737B6854
:1059F00018331946FB7B0A4AD35C0B44BB60BB6877
:105A00001A68FB7B0749CB5C194608238B401A4375
:105A1000BB681A6000BF1437BD465DF8047B704751
:105A200064D600086CD6000880B483B000AF7860FC
:105A300039607B689B6823F4804323F007033A684E
:105A40001A437B689A6000BF0C37BD465DF8047B43
:105A5000704780B483B000AF786039607B685B6862
:105A600023F070023B681A437B685A6000BF0C3712
:105A7000BD465DF8047B704780B483B000AF7860AA
:105A80007B689B6823F080027B689A6000BF0C37BC
:105A9000BD465DF8047B704780B483B000AF78608A
:105AA0007B68DB6843F400527B68DA6000BF0C3728
:105AB000BD465DF8047B704780B483B000AF78606A
:105AC0007B681B6923F490427B681A617B685B6981
:105AD00023F02A027B685A6100BF0C37BD465DF88F
