:020000040800F2
:1000000000000220F9690008A5680008AD68000832
:10001000B5680008BD680008C56800080000000059
:10002000000000000000000000000000CD68000893
:10003000DB68000800000000E9680008F9680008B3
:10004000496A0008496A0008496A0008496A0008C4
:10005000496A0008496A0008496A0008496A0008B4
:10006000496A0008496A0008496A0008496A0008A4
:10007000496A0008496A0008496A0008496A000894
:10008000496A0008496A0008496A0008496A000884
:10009000496A0008496A0008496A0008496A000874
:1000A000496A0008496A0008496A0008496A000864
:1000B000496A0008496A0008496A0008496A000854
:1000C000496A00081969000825690008496A00089A
:1000D000496A000831690008496A0008496A00084D
:1000E000496A0008496A0008496A0008496A000824
:1000F000496A0008496A0008496A0008496A000814
:10010000496A0008496A0008496A0008496A000803
:10011000496A0008496A0008496A0008496A0008F3
:1001200045690008496A0008496A0008496A0008E8
:10013000496A0008496A0008496A0008496A0008D3
:10014000496A0008496A0008496A0008496A0008C3
:10015000496A0008496A0008496A000855690008A8
:10016000496A0008496A0008496A0008496A0008A3
:10017000496A0008496A0008496A0008000000004E
:08018000496A0008496A000801
:1001900010B5054C237833B9044B13B10448AFF3C1
:1001A00000800123237010BDA42300200000000064
:1001B000BCBB000808B5034B1BB103490348AFF3B0
:1001C000008008BD00000000A8230020BCBB000880
:1001D00010F8012B11F8013B012A28BF9A42F7D0F1
:1001E000D01A7047034613F8012B002AFBD1181AC6
:1001F000013870470000000000000000000000000F
:1002000001F0FF01102A2BDB10F0070F08D010F8C7
:10021000013B013A8B422DD010F0070F42B3F6D1CB
:10022000F0B441EA012141EA014122F007047FF0E4
:1002300000070023F0E80256083C85EA010586EA3B
:10024000010685FA47F5A3FA87F586FA47F6A5FA77
:1002500087F68EB9EED1F0BC01F0FF0102F0070283
:1002600032B110F8013B013A83EA010313B1F8D12E
:100270000020704701387047002D06BF354603380F
:10028000073815F0010F07D1013015F4807F02BF48
:10029000013015F4C03F0130F0BC0138704700BF99
:1002A0007BB972B90029BEBF00204FF0004106E0C3
:1002B00008BF00281CBF6FF000414FF0FF3000F076
:1002C000B5B9ADF1080C6DE904CE002909DB002BAE
:1002D0001ADB00F04DF8DDF804E0DDE9022304B09C
:1002E0007047404261EB4101002B1BDB00F040F8FE
:1002F000DDF804E0DDE9022304B0404261EB410196
:10030000524263EB43037047524263EB430300F0F6
:100310002FF8DDF804E0DDE9022304B0404261EB90
:1003200041017047524263EB430300F021F8DDF8CE
:1003300004E0DDE9022304B0524263EB430370475B
:1003400053B94AB9002908BF00281CBF4FF0FF313C
:100350004FF0FF3000F06AB9ADF1080C6DE904CE42
:1003600000F006F8DDF804E0DDE9022304B0704790
:100370002DE9F047089D0C46002B4ED194468C4544
:100380008646B2FA82F262D94AB1C2F120039140A4
:1003900020FA03F30CFA02FC194300FA02FE4FEABA
:1003A0001C471FFA8CF6B1FBF7F44FEA1E4307FB1C
:1003B000141143EA014304FB06F199420AD91CEBEC
:1003C000030304F1FF3080F01281994240F20F8163
:1003D000023C6344591A1FFA8EF3B1FBF7F007FB96
:1003E000101143EA014300FB06F69E420AD91CEBBA
:1003F000030300F1FF3180F0FC809E4240F2F9805F
:10040000634402389B1B40EA044000211DB1D340E5
:100410000022C5E90032BDE8F0878B4205D90DB155
:10042000C5E9000100210846F5E7B3FA83F1002988
:1004300046D1A34202D39042C0F0F080861A64EB0A
:1004400003030120002DE6D0C5E90063E3E7002A9D
:1004500040F09080A1EB0C044FEA1C481FFA8CF787
:100460000121B4FBF8F64FEA1E4308FB164443EAA9
:10047000044307FB06F0984208D91CEB030306F17E
:10048000FF3402D2984200F2CD8026461C1A1FFA91
:100490008EF3B4FBF8F008FB104443EA044300FB7E
:1004A00007F79F4208D91CEB030300F1FF3402D287
:1004B0009F4200F2B0802046DB1B40EA0640A5E7E1
:1004C000C1F120068B4022FA06F71F4320FA06FCF2
:1004D00004FA01F343EA0C03F44000FA01F8380C83
:1004E0004FEA1349B4FBF0FE1FFA87FC00FB1E44E1
:1004F00049EA04440EFB0CF9A14502FA01F20AD9BB
:100500003C190EF1FF3A80F08480A14540F28180D1
:10051000AEF1020E3C44A4EB09041FFA83F9B4FBCC
:10052000F0F300FB134449EA044403FB0CFCA4452C
:1005300007D93C1903F1FF3067D2A44565D9023BC6
:100540003C4443EA0E40A0FB0293A4EB0C049C4203
:10055000CE469C4651D34ED055B1B8EB0E0364EB5A
:100560000C0404FA06F6CB401E43CC40C5E90064F7
:10057000002150E7C2F1200320FA03F10CFA02FC3B
:1005800024FA03F394400C434FEA1C4800FA02FE9D
:100590001FFA8CF7B3FBF8F008FB1031230C43EA89
:1005A000014300FB07F1994208D91CEB030300F15A
:1005B000FF362CD299422AD9023863445B1AA4B27E
:1005C000B3FBF8F108FB113344EA034401FB07F3E2
:1005D000A34208D91CEB040401F1FF3613D2A34255
:1005E00011D902396444E41A41EA004139E704466A
:1005F000F0E6084606E7C845AED2B9EB020E63EB5B
:10060000070C0138A8E73146EDE7034699E7304685
:10061000D4E7D6467FE7634402384DE706462346D3
:1006200008460FE7023E634430E700BF704700BF53
:1006300080B400AF074B1B6803F48033B3F5803FF1
:100640000CBF01230023DBB21846BD465DF8047BD6
:10065000704700BF10E000E080B584B000AF0346F3
:10066000FB71FB790C4A12680C49A1FB0212920C37
:1006700002FB03F3FB6007E0FFF7DAFF0346002B02
:1006800002D0FB68013BFB60FB68002BF4D100BF8C
:1006900000BF1037BD4680BDC022002083DE1B4353
:1006A00080B483B000AF78607B681B6843F00102C0
:1006B0007B681A6000BF0C37BD465DF8047B70474D
:1006C00080B483B000AF78607B681B6823F00102C0
:1006D0007B681A6000BF0C37BD465DF8047B70472D
:1006E00080B483B000AF78607B681B6823F0800221
:1006F0007B681A6000BF0C37BD465DF8047B70470D
:1007000080B483B000AF78607B681B6823F0400240
:100710007B681A6000BF0C37BD465DF8047B7047EC
:1007200080B483B000AF78607B68DB6823F001029F
:100730007B68DA6000BF0C37BD465DF8047B70470C
:1007400080B483B000AF78607B685B6843F400726C
:100750007B685A6000BF0C37BD465DF8047B70476C
:1007600080B483B000AF78607B685B6843F48062DC
:100770007B685A6000BF0C37BD465DF8047B70474C
:1007800080B483B000AF78607B685B6823F48062DC
:100790007B685A6000BF0C37BD465DF8047B70472C
:1007A00080B483B000AF78607B685B6843F480728C
:1007B0007B685A6000BF0C37BD465DF8047B70470C
:1007C00080B483B000AF78607B685B6903F080031E
:1007D000802B0CBF01230023DBB218460C37BD462B
:1007E0005DF8047B704780B483B000AF78607B68AD
:1007F0005B6903F04003402B0CBF01230023DBB2F5
:1008000018460C37BD465DF8047B704780B483B052
:1008100000AF78607B685B6903F00203022B0CBFBA
:1008200001230023DBB218460C37BD465DF8047B7C
:10083000704780B483B000AF78607B685B6903F475
:100840008063B3F5806F0CBF01230023DBB2184631
:100850000C37BD465DF8047B704780B483B000AFB1
:1008600078607B685B6903F01003102B0CBF0123D9
:100870000023DBB218460C37BD465DF8047B704799
:1008800080B483B000AF78607B685B6903F48073E9
:10089000B3F5807F0CBF01230023DBB218460C3771
:1008A000BD465DF8047B704780B483B000AF7860CC
:1008B0007B685B6903F40073B3F5007F0CBF012311
:1008C0000023DBB218460C37BD465DF8047B704749
:1008D00080B483B000AF78607B685B6903F4006329
:1008E000B3F5006F0CBF01230023DBB218460C37B1
:1008F000BD465DF8047B704780B485B000AF78607A
:100900007B685B69FB60FB687B689B69FB60FB68DD
:1009100000BF1437BD465DF8047B704780B483B0D8
:1009200000AF78607B685B6923F480627B685A6102
:1009300000BF0C37BD465DF8047B704780B485B0BE
:1009400000AF78607B685B69FB60FB687B681B6855
:1009500043F001027B681A6000BF1437BD465DF8A2
:10096000047B704780B483B000AF78607B685B69BC
:1009700023F480727B685A6100BF0C37BD465DF876
:10098000047B704780B483B000AF78607B685B699C
:1009900023F400727B685A6100BF0C37BD465DF8D6
:1009A000047B704780B483B000AF78607B685B697C
:1009B00023F400627B685A6100BF0C37BD465DF8C6
:1009C000047B704780B483B000AF78607B689B691C
:1009D00003F0040318460C37BD465DF8047B7047EE
:1009E00080B483B000AF78607B681B69DBB21846C7
:1009F0000C37BD465DF8047B704780B483B000AF10
:100A000078600B46FB707B681B6923F0FF02FB7864
:100A10001A437B681A6100BF0C37BD465DF8047B42
:100A20007047000080B586B000AF244B9B68184625
:100A3000FFF746FE214B9B68184609F083F91F4BD0
:100A40009B681846FFF74CFE1C4B9B681846FFF747
:100A500057FE1A4B9B681846FFF762FE3B46002282
:100A60001A605A609A60DA601A615A6100233B602A
:100A7000134B7B600023BB602423FB604FF4806337
:100A80003B614FF480437B610C4B9B683A461146B7
:100A9000184609F091F9094B9B681846FFF750FE7C
:100AA000064B9B681846FFF77BFE044B9B68184675
:100AB000FFF7F6FD00BF1837BD4680BDC0240020FB
:100AC000A086010080B400AF0A4B00225A71094B86
:100AD0004FF0FF321A60074B00221A71054B0022BB
:100AE0009A71044B0022DA7100BFBD465DF8047BA9
:100AF000704700BFC024002080B582B000AF78608E
:100B0000094A7B689360094B00221A70FFF7DAFFED
:100B10004FF48072002106480AF0C8FB00231846F3
:100B20000837BD4680BD00BFC0240020CC24002073
:100B3000C023002080B596B000AF784B01221A7018
:100B4000774B9B681846FFF761FE0346002B1AD0CF
:100B5000734B9B681846FFF7CFFE714B9B68184696
:100B6000FFF730FF0346042B08D16D4B00221A71AA
:100B70006B4B9B681846FFF7F3FD04E0684B9B68DE
:100B80001846FFF7EDFD664B9B681846FFF718FE09
:100B90000346002B52D0002387F85730604B1B6868
:100BA00007F138005F4A1E210AF04CFB07F13803B9
:100BB00019465D4800F05AFC594B1B6807F1380094
:100BC0005A4A1E210AF03EFB07F1380319465648DF
:100BD00000F04CFC524B1A68554913465B00134415
:100BE0000B4402331B7887F8573097F8573007F1DA
:100BF0003800504A1E210AF025FB07F13803194638
:100C0000494800F033FC97F8573007F138004A4A5A
:100C10001E210AF017FB07F138031946424800F07D
:100C200025FC3F4B9B6897F8572011461846FFF765
:100C3000E4FE3B4B9B681846FFF7A2FD384B9B68D0
:100C40001846FFF7D0FD0346002B4AD0344B9B6873
:100C50001846FFF7C5FE034687F85630304B1B7920
:100C6000DBB2002B1FD12E4A97F85630537197F8FC
:100C70005630381D314A32210AF0E4FA3B1D19463C
:100C8000294800F0F3FB264B01221A71244B1B6804
:100C9000381D2B4A32210AF0D5FA3B1D194622484D
:100CA00000F0E4FB1DE01E4B1A68214913465B006F
:100CB00013440B4401331B78032B0AD1184B1A68D9
:100CC0001B4913465B0013440B44023397F856202C
:100CD0001A70134B00221A71114B9B681846FFF7CC
:100CE0004FFD0F4B9B681846FFF7B7FD0346002BDF
:100CF0000FD00B4B9B681846FFF720FE084B0022D5
:100D00001A71074B9B681846FFF73AFD034B002208
:100D10001A7000BF5837BD4680BD00BFCC240020EC
:100D2000C0240020D4BB000800100140F0BB000824
:100D3000D024002004BC000820BC000838BC0008F7
:100D400048BC000880B500AF2149224800F08EFB66
:100D5000214B00221A70214B9B681846FFF790FD2B
:100D60000346002B04D01D4B9B681846FFF7FAFD85
:100D70001A4B9B681846FFF797FD0346002B04D0DB
:100D8000164B9B681846FFF7FDFD144B9B681846F1
:100D9000FFF74FFD0346002B04D0104B9B6818460D
:100DA000FFF7BCFD0D4B9B681846FFF791FD03460E
:100DB000002B04D0094B9B681846FFF7F3FDFFF7A3
:100DC00031FE064B9B681846FFF796FE00BF80BDBC
:100DD0005CBC000800100140CC240020C02400208E
:100DE00080B483B000AF0023FB711CE0FA793C496A
:100DF00013465B0013440B44FA791A70FA793849A8
:100E000013465B0013440B44013302221A70FA7933
:100E1000334913465B0013440B440233FF221A701C
:100E2000FB790133FB71FB79072BDFD90823BB71F9
:100E30001CE0BA792A4913465B0013440B44BA7983
:100E40001A70BA79264913465B0013440B440133E8
:100E500003221A70BA79224913465B0013440B44EB
:100E6000023300221A70BB790133BB71BB797E2B30
:100E7000DFD91B4B7F2283F87D21194B022283F897
:100E80007E21174B772283F87F2180237B711CE022
:100E90007A79134913465B0013440B447A791A702C
:100EA0007A790F4913465B0013440B440133022245
:100EB0001A707A790A4913465B0013440B440233D3
:100EC000FF221A707B7901337B717B79FF2BDFD195
:100ED00000BF00BF0C37BD465DF8047B704700BF04
:100EE000D024002080B483B000AF03463960FB718A
:100EF00097F90730002B0ADB3B68DAB20C4997F907
:100F000007301201D2B20B4483F800230AE03B6899
:100F1000DAB20849FB7903F00F03043B1201D2B2A5
:100F20000B441A7600BF0C37BD465DF8047B704752
:100F300000E100E000ED00E080B582B000AF786035
:100F40007B68013BB3F1807F01D301230FE00A4AA4
:100F50007B68013B53600F214FF0FF30FFF7C2FF6A
:100F6000054B00229A60044B07221A6000231846A2
:100F70000837BD4680BD00BF10E000E080B400AF80
:100F8000054B1B68044A43F00103136000BFBD46D4
:100F90005DF8047B704700BF10E000E080B500AF53
:100FA000054B1B68054AA2FB03239B091846FFF764
:100FB000C3FF00BF80BD00BFC0220020D34D621020
:100FC00080B483B000AF78607B681B6803F00203D5
:100FD000022B0CBF01230023DBB218460C37BD46A1
:100FE0005DF8047B704780B483B000AF78607B68A5
:100FF0001B6803F00403042B0CBF01230023DBB2A6
:1010000018460C37BD465DF8047B704780B483B04A
:1010100000AF78607B681B6803F00803082B0CBFE7
:1010200001230023DBB218460C37BD465DF8047B74
:10103000704780B483B000AF78607B681B6803F0B2
:101040002003202B0CBF01230023DBB218460C37F2
:10105000BD465DF8047B704780B483B000AF786014
:101060007B681B6803F08003802B0CBF01230023E7
:10107000DBB218460C37BD465DF8047B704780B480
:1010800085B000AF78607B681B68FB60FB687B689D
:101090005B68FB60FB6800BF1437BD465DF8047BEE
:1010A000704780B485B000AF78607B681B68FB60D8
:1010B000FB687B685B68FB60FB6800BF1437BD465C
:1010C0005DF8047B704780B485B000AF78607B68C2
:1010D0001B68FB60FB687B685B68FB60FB6800BFAC
:1010E0001437BD465DF8047B704780B489B000AF0B
:1010F00078607B680C33FB60FB6853E8003FBB60A3
:10110000BB6843F02003FB617B680C33FA69BA616A
:101110007B617969BA6941E800233B613B69002B37
:10112000E7D100BF00BF2437BD465DF8047B7047A0
:1011300080B489B000AF78607B680C33FB60FB68DB
:1011400053E8003FBB60BB6843F08003FB617B68F2
:101150000C33FA69BA617B617969BA6941E80023A5
:101160003B613B69002BE7D100BF00BF2437BD4680
:101170005DF8047B704780B489B000AF78607B680D
:101180000C33FB60FB6853E8003FBB60BB6823F097
:101190002003FB617B680C33FA69BA617B61796972
:1011A000BA6941E800233B613B69002BE7D100BFEE
:1011B00000BF2437BD465DF8047B704780B489B01A
:1011C00000AF78607B680C33FB60FB6853E8003F3E
:1011D000BB60BB6823F08003FB617B680C33FA695A
:1011E000BA617B617969BA6941E800233B613B6977
:1011F000002BE7D100BF00BF2437BD465DF8047B5C
:10120000704780B483B000AF78607B68DB6803F020
:101210002003202B0CBF01230023DBB218460C3720
:10122000BD465DF8047B704780B483B000AF786042
:101230007B68DB6803F08003802B0CBF0123002355
:10124000DBB218460C37BD465DF8047B704780B4AE
:1012500083B000AF78607B685B68DBB218460C3700
:10126000BD465DF8047B704780B483B000AF786002
:101270000B46FB70FA787B685A6000BF0C37BD469E
:101280005DF8047B7047000080B485B000AF7860E3
:101290000023FB6015E01049FA681346DB00134495
:1012A0009B000B441B687A689A4207D1FA68134680
:1012B000DB0013449B00084A134406E0FB6801333B
:1012C000FB60FB68012BE6DD002318461437BD46A2
:1012D0005DF8047B704700BF0000002080B586B039
:1012E00000AF0346B9607A60FB73BB685B6801338B
:1012F000BA68D268B3FBF2F101FB02F29B1A7B6180
:10130000BB689A687B699A420FD07868FFF733FF11
:10131000BB681A68BB685B681344FA7B1A707A6909
:10132000BB685A607868FFF7E0FE00BF1837BD461B
:1013300080BD80B586B000AF78607868FFF7A4FF05
:1013400078617B69002B02D14FF0FF3325E07B6988
:1013500004333B613B695A683B699B689A4202D1FE
:101360004FF0FF3319E07868FFF705FF3B691A6813
:101370003B699B6813441B78FB733B699B68013393
:101380003A69D268B3FBF2F101FB02F29A1A3B69A7
:101390009A607868FFF7A9FEFB7B18461837BD46B0
:1013A00080BD80B586B000AF786039607868FFF79F
:1013B0006BFF78617B69002B2BD03B68002B28DB0F
:1013C0007B6914333B613B695B6801333A69D268DE
:1013D000B3FBF2F101FB02F29B1AFB607868FFF7A6
:1013E000CAFE00BF3B699A68FB689A42FAD03B6923
:1013F0001A683B695B6813443A68D2B21A70FA689B
:101400003B695A607868FFF770FE7868FFF790FED6
:1014100000E000BF1837BD4680BD80B584B000AF86
:1014200078607868FFF730FFF860FB68002B01D127
:10143000002317E0FB680433BB60BB68DB689AB22B
:10144000BB685B689BB213449AB2BB689B689BB253
:10145000D31A9BB21A46BB68DB68B2FBF3F101FBFF
:1014600003F3D31A18461037BD4680BD80B582B04D
:1014700000AF7860396007E03B685A1C3A601B781F
:1014800019467868FFF78DFF3B681B78002BF3D176
:1014900000BF00BF0837BD4680BD80B584B000AF37
:1014A00078607868FFF7F0FEF860FB68002B11D0D9
:1014B000FB680433BB60BB681868BB68DB681A460E
:1014C000002109F0F3FEBB6800225A60BB680022CD
:1014D0009A6000E000BF1037BD4680BD80B586B081
:1014E00000AF78607868FFF7CFFE78617B69002BEA
:1014F00068D07B6904333B617B691433FB60786897
:10150000FFF797FD0346002B2DD07868FFF779FE93
:101510000346002B27D07868FFF799FE0346FB723D
:101520007868FFF773FD0346002B0BD17868FFF74F
:1015300047FD0346002B05D17868FFF754FD0346AD
:10154000002B09D07868FFF7BEFD7868FFF797FD9C
:101550007868FFF7A6FD36E0FB7A7A6839691846A5
:10156000FFF7BCFE2FE07868FFF776FD0346002BFF
:1015700029D07868FFF758FE0346002B23D0FB687C
:101580005A68FB689B689A4203D17868FFF716FE99
:1015900019E0FB681A68FB689B6813441B78BB72F0
:1015A000FB689B680133FA68D268B3FBF2F101FB78
:1015B00002F29A1AFB689A60BB7A19467868FFF7BC
:1015C00053FE00E000BF1837BD4680BD80B586B031
:1015D00000AF78600123FB7300233B617B687B6174
:1015E0001FE07B691B78202B05D17B6900221A70D4
:1015F0000123FB7312E0FB7B002B0FD03B69072B11
:101600000AD81E493B697A6941F823203B690133B6
:101610003B610023FB7301E002232BE07B69013374
:101620007B617B691B78002BDBD13B69002B20D0D1
:101630003B6901333B61124BBB6016E00F4B1A68EC
:10164000BB681B6819461046FEF7C2FD0346002B17
:1016500008D1BB685B683A69084910469847034659
:10166000DBB207E0BB680C33BB60BB681B68002BB8
:10167000E4D1012318461837BD4680BDD031002083
:101680006000002080B483B000AF78607B689B6806
:1016900003F00203022B01D1012300E000231846CE
:1016A0000C37BD465DF8047B704780B483B000AF53
:1016B00078607B689B6803F08003802B01D1012355
:1016C00000E0002318460C37BD465DF8047B7047E8
:1016D00080B485B000AF78600B46FB707B680C333C
:1016E000FB60FB68FA781A7000BF1437BD465DF8DE
:1016F000047B704780B483B000AF786039607B684A
:101700003A689A6100BF0C37BD465DF8047B7047AC
:1017100080B483B000AF786039603B681A047B689E
:101720009A6100BF0C37BD465DF8047B704700002E
:1017300080B582B000AF7860164A7B6813604022A3
:101740000021154809F0B2FD144B00221A7001F077
:1017500059FC104B1B6812491846FFF787FE0D4BCA
:101760001B6810491846FFF781FE0A4B1B68184694
:10177000FFF793FE6421002002F0A8F8642005F032
:101780005BFF6421002002F0A1F800BF0837BD46CE
:1017900080BD00BF3C340020403400208034002055
:1017A000C0C10008D8C1000880B582B000AF144B9A
:1017B0001B681846FFF731FE0346002B1CD0104B68
:1017C0001B681846FFF7B5FD0346FB71FB791B2B21
:1017D00006D10B4B1B680B491846FFF747FE06E086
:1017E000074B1B68FA7911461846FFF7DAFDFB79BB
:1017F0000549184600F00AF800BF0837BD4680BD0D
:101800003C340020ECC10008F431002080B5B8B0B1
:1018100002AF03463960FB71FB791B2B32D107F114
:10182000CC0300221A609A8007F1CC03184602F01C
:10183000A3F997F8CF30194697F8D03097F8D12010
:1018400007F1AC00019200930B469E4A1E2109F05D
:10185000F9FC07F1AC0307F108009B4A00929B4A90
:101860003C2109F0EFFC9A4B1B6807F10802114676
:101870001846FFF7FBFD3B680022A3F840203B68B9
:1018800000221A70FB792D2B4ED13B68B3F84432FD
:10189000002B07D03B68B3F84432013B9AB23B6857
:1018A000A3F844223B68B3F844223B68B3F84232C1
:1018B0009A4215D238683B68B3F8443201339B0131
:1018C0003A6813440233194609F024FD3B68184670
:1018D000FEF788FC03469AB23B68A3F8402006E076
:1018E0003B6800221A703B680022A3F84020784B26
:1018F0001B6878491846FFF7B9FD07F18C00724B59
:10190000754A1E2109F09EFC714B1B6807F18C0281
:1019100011461846FFF7AAFD6D4B1B683A68114641
:101920001846FFF7A3FDABE1FB793D2B51D13B6896
:10193000B3F844223B68B3F842329A4207D23B687C
:10194000B3F8443201339AB23B68A3F844223B68AF
:10195000B3F844223B68B3F842329A4215D2386851
:101960003B68B3F8443201339B013A6813440233B5
:10197000194609F0CFFC3B681846FEF733FC0346D6
:101980009AB23B68A3F8402006E03B6800221A7038
:101990003B680022A3F840204D4B1B684D49184678
:1019A000FFF764FD07F16C00474B4B4A1E2109F01D
:1019B00049FC474B1B6807F16C0211461846FFF7BC
:1019C00055FD434B1B683A6811461846FFF74EFD1C
:1019D00056E1FB791F2B02D9FB797E2B06D9FB79C7
:1019E0000D2B03D0FB797F2B40F04A81FB792D2B07
:1019F00000F04681FB793D2B00F04281FB795C2BA6
:101A000000F03E8107F1640300221A609A8007F11A
:101A10006403184602F0B0F897F86730194697F853
:101A2000683097F8692007F14400019200930B4653
:101A3000244A1E2109F006FCFB790D2B40F0C980D9
:101A40003B68B3F84030002B00F0AE803B68B3F841
:101A500040301A463B68002199543B68B3F8423243
:101A6000002B10D03B68B3F84232013B01339B019D
:101A70003A68134402333A6811461846FEF7A8FB49
:101A80000346002B4DD03B68B3F84232072B15D8E4
:101A90003B68B3F8423201339B013A681344023386
:101AA0003A681146184609F035FC3B68B3F84232F3
:101AB00001339AB23B68A3F8422232E00023C7F810
:101AC000D43022E0F4C1000814C2000808C20008A3
:101AD0003C34002018C2000820C20008D7F8D430D7
:101AE00001339B013A681344981CD7F8D430013372
:101AF00001339B013A6813440233194609F00AFC8A
:101B0000D7F8D4300133C7F8D430D7F8D430062B07
:101B1000E4DD3B6803F202233A681146184609F0F7
:101B2000F9FB3B68B3F842223B68A3F844223B68C8
:101B30001846FFF74BFD034687F8D33097F9D330AB
:101B4000062B00F09D8007F108034F4A3C21184600
:101B500009F078FB4D4B1B6807F108021146184647
:101B6000FFF784FC494B1A6897F9D330484951F87C
:101B7000233019461046FFF779FC07F1440307F1BB
:101B80000800444A0092444A3C2109F05BFB3F4B69
:101B90001B6807F1080211461846FFF767FC3B680F
:101BA0000022A3F840206BE000F07EF807F1440328
:101BB00007F10800374A0092384A3C2109F042FBFD
:101BC000324B1B6807F1080211461846FFF74EFC1E
:101BD00056E0FB797F2B1BD13B68B3F84030002BDC
:101BE0000FD03B68B3F84030013B9AB23B68A3F892
:101BF00040203B68B3F840301A463B6800219954B6
:101C00003EE0224B1B6826491846FFF72FFC37E0C1
:101C10003B68B3F840303E2B13D83B68B3F84030F4
:101C20005A1C91B23A68A2F8401019463B68FA79FA
:101C30005A543B68B3F840301A463B680021995427
:101C40001EE0124B1B6817491846FFF70FFC07F1FF
:101C5000440307F108000F4A0092104A3C2109F0A2
:101C6000F1FA0A4B1B6807F1080211461846FFF704
:101C7000FDFB3B680022A3F840203B6800221A705D
:101C8000D837BD4680BD00BF28C200083C340020C4
:101C90004800002014C2000838C2000808C200082A
:101CA00040C2000844C2000880B400AF124B0022BA
:101CB0001A60124B00221A70114B00221A70114B3D
:101CC00000221A60104B01221A70104B01221A7068
:101CD0000F4B01221A700F4B00221A600E4B00228C
:101CE0001A600E4B00221A700D4B00221A7000BFB2
:101CF000BD465DF8047B70478434002088340020A2
:101D0000893400208C340020C0010020C101002053
:101D1000C201002090340020943400209934002027
:101D20009834002080B5CCB004AF07F59073A3F5CC
:101D30008E73186007F59073A3F59073196007F51B
:101D40009073A3F58E731B68022B01DD022363E001
:101D5000344B1B6834491846FFF788FB334BC7F8F0
:101D60001C310023C7F8183116E0D7F81C311B6866
:101D70001846FEF737FAC7F80C01D7F80C21D7F848
:101D800018319A4203D9D7F80C31C7F81831D7F86F
:101D90001C310C33C7F81C31D7F81C311B68002BE1
:101DA000E3D1224BC7F81C3130E0D7F81C311B6857
:101DB0001846FEF717FAC7F81401D7F81821D7F814
:101DC0001431D31A0433C7F81031D7F81C311A680C
:101DD000D7F81C319B6807F10C000293144B019358
:101DE000D7F8103100931346124A4FF4807109F06E
:101DF00029FA0C4B1B6807F10C0211461846FFF735
:101E000035FBD7F81C310C33C7F81C31D7F81C311F
:101E10001B68002BC9D10023184607F59077BD46F3
:101E200080BD00BF3C34002060C20008600000207C
:101E300088C2000878C2000880B582B000AF786020
:101E400039607B68022B01DC032317E07B68032BDE
:101E500001DD022312E03B6804331B68184609F0D9
:101E600069F90346002B04D010210648FFF742FC15
:101E700003E010210348FFF74BFC00231846083706
:101E8000BD4680BD000C024080B59CB002AF7860BA
:101E900039607B68052B01DC032358E07B68062B47
:101EA00001DD022353E0002387F8673024E097F830
:101EB000673001339B003A6813441B68184609F0E9
:101EC00039F9024697F8673012B25B0068333B4439
:101ED00023F80C2C97F867305B0068333B4433F9E8
:101EE0000C2C97F867301146184604F0F3FF97F86A
:101EF0006730013387F8673097F86730032BD6D9FE
:101F0000002387F866301DE097F8662097F8663062
:101F10005B0068333B4433F90C3C07F10C00009341
:101F200013460D4A502109F08DF90C4B1B6807F13F
:101F30000C0211461846FFF799FA97F866300133FC
:101F400087F8663097F86630032BDDD900231846F2
:101F50006837BD4680BD00BF8CC200083C340020FD
:101F600080B59AB002AF786039607B68022B01DDE2
:101F7000022357E00023A7F85C30B7F95C3047F63E
:101F8000FF72934206D1294B1B6829491846FFF777
:101F90006DFA0FE0B7F95C3007F10C00254A5021CB
:101FA00009F050F9214B1B6807F10C021146184645
:101FB000FFF75CFA002387F85F302EE097F85F3078
:101FC0001D4A32F81330A7F85C30B7F95C3047F699
:101FD000FF72934208D197F85F3007F10C00174A5F
:101FE000502109F02FF90BE097F85F20B7F95C302A
:101FF00007F10C0000931346114A502109F022F911
:102000000A4B1B6807F10C0211461846FFF72EFA1F
:1020100097F85F30013387F85F3097F85F30072B10
:10202000CCD9002318466037BD4680BD3C34002023
:10203000A0C20008B4C20008BC340020C8C2000816
:10204000DCC2000880B594B002AF786039607B686C
:10205000022B01DD02232CE00023A7F844300023EB
:1020600087F8473020E097F84730184604F048FFDB
:102070000346A7F8443097F84720B7F9443007F1F2
:102080000800009313460D4A3C2109F0DBF80C4B85
:102090001B6807F1080211461846FFF7E7F997F8A1
:1020A0004730013387F8473097F84730032BDAD9A8
:1020B000002318464837BD4680BD00BFECC200086B
:1020C0003C34002080B59CB002AF786039607B68FA
:1020D000052B01DC03236CE07B68062B01DD02236A
:1020E00067E0002387F8673038E097F867300133FE
:1020F0009B003A6813441B68184609F01BF8024617
:1021000097F8673092B25B0068333B4423F80C2C9D
:1021100097F867305B0068333B4433F80C3C40F67B
:10212000B832934208D997F867305B0068333B4474
:1021300040F6B83223F80C2C97F867305B00683310
:102140003B4433F80C2C97F867301146184604F0DE
:10215000E9FE97F86730013387F8673097F8673002
:10216000032BC2D9002387F866301DE097F866205C
:1021700097F866305B0068333B4433F80C3C07F15A
:102180000C00009313460D4A502109F05BF80C4BEC
:102190001B6807F10C0211461846FFF767F997F81C
:1021A0006630013387F8663097F86630032BDDD947
:1021B000002318466837BD4680BD00BF00C3000835
:1021C0003C34002090B59DB002AF786039607B68E8
:1021D000022B01DD022334E0002387F867302BE077
:1021E00097F8674097F86730184604F0BBFE03463F
:1021F0001A46630068333B4423F80C2C97F8672099
:1022000097F867305B0068333B4433F80C3C07F1C8
:102210000C00009313460D4A502109F013F80C4BA3
:102220001B6807F10C0211461846FFF71FF997F8D3
:102230006730013387F8673097F86730032BCFD9C1
:10224000002318466C37BD4690BD00BF20C3000870
:102250003C34002080B584B000AF786039607B6882
:10226000052B01DC03233FE07B68062B01DD022305
:102270003AE00023FB730023BB7300237B7300232E
:102280003B733B6804331B68184608F053FF034652
:10229000002B01D10123FB733B6808331B681846F0
:1022A00008F048FF0346002B01D10123BB733B68B4
:1022B0000C331B68184608F03DFF0346002B01D184
:1022C00001237B733B6810331B68184608F032FF0C
:1022D0000346002B01D101233B733B7B7A7BB97B07
:1022E000F87B05F06DF8002318461037BD4680BD19
:1022F00080B584B000AF786039607B68052B01DC65
:1023000003232BE07B68062B01DD022326E03B68DC
:1023100004331B68184608F00DFF0346FB733B6847
:1023200008331B68184608F005FF0346BB733B687B
:102330000C331B68184608F0FDFE03467B733B68B0
:1023400010331B68184608F0F5FE03463B733B7BD1
:102350007A7BB97BF87B05F065F8002318461037C7
:10236000BD4680BD80B59AB002AF786039607B68A9
:10237000052B01DC032364E07B68062B01DD0223CF
:102380005FE0002387F85F3031E097F85F3001337A
:102390009B003A6813441B68184608F0CBFE0246BF
:1023A00097F85F30D2B260333B4403F8082C97F8BB
:1023B0005F3060333B4413F8083C642B06D997F830
:1023C0005F3060333B44642203F8082C97F85F3099
:1023D00060333B4413F8082C97F85F3011461846D9
:1023E00004F0DCFD97F85F30013387F85F3097F831
:1023F0005F30032BC9D9002387F85E301CE097F8C3
:102400005E2097F85E3060333B4413F8083C07F1D8
:102410000800009313460D4A502108F013FF0C4B9F
:102420001B6807F1080211461846FFF71FF897F8D6
:102430005E30013387F85E3097F85E30032BDED9CB
:10244000002318466037BD4680BD00BF3CC300086E
:102450003C34002080B59CB002AF786039607B6866
:10246000022B01DD022334E0002387F867302BE0E4
:1024700097F86730184604F0B5FD03461A4697F8FA
:1024800067305B0068333B4423F80C2C97F86720D7
:1024900097F867305B0068333B4433F80C3C07F136
:1024A0000C00009313460D4A502108F0CBFE0C4B54
:1024B0001B6807F10C0211461846FEF7D7FF97F884
:1024C0006730013387F8673097F86730032BCFD92F
:1024D000002318466837BD4680BD00BF3CC30008D6
:1024E0003C34002080B582B000AF786039607B68F2
:1024F000022B01DD022302E001F00EFF002318464B
:102500000837BD4680BD000080B584B000AF78605C
:1025100039607B68052B01DC032383E07B68062B95
:1025200001DD02237EE00023FB730023BB73002345
:102530007B7300233B733B6804331B683B4918469D
:10254000FDF746FE0346002B02D10123FB730EE08C
:102550003B6804331B6836491846FDF739FE0346CD
:10256000002B02D10223FB7301E00023FB733B68C5
:1025700008331B682D491846FDF72AFE0346002B39
:1025800002D10123BB730EE03B6808331B68284966
:102590001846FDF71DFE0346002B02D10223BB7334
:1025A00001E00023BB733B680C331B681F491846CE
:1025B000FDF70EFE0346002B02D10123BB730EE094
:1025C0003B680C331B681A491846FDF701FE0346A9
:1025D000002B02D102237B7301E000237B733B6855
:1025E00010331B6811491846FDF7F2FD0346002B16
:1025F00002D101233B730EE03B6810331B680C498A
:102600001846FDF7E5FD0346002B02D102233B737C
:1026100001E000233B733B7B7A7BB97BF87B04F0C2
:1026200033FD002318461037BD4680BD54C3000853
:1026300058C3000880B584B000AF786039607B680B
:10264000052B01DC03233FE07B68062B01DD022321
:102650003AE03B6804331B68184608F06BFD0346FC
:10266000002B14BF01230023DBB2FB733B6808334C
:102670001B68184608F05EFD0346002B14BF0123BB
:102680000023DBB2BB733B680C331B68184608F0B1
:1026900051FD0346002B14BF01230023DBB27B73E3
:1026A0003B6810331B68184608F044FD0346002BB6
:1026B00014BF01230023DBB23B733B7B7A7BB97BE6
:1026C000F87B04F0AFFC002318461037BD4680BDF0
:1026D00080B598B000AF786039607B68052B01DC6D
:1026E00003238BE07B68062B01DD022386E00023B9
:1026F00087F85F303DE097F85F3001339B003A6820
:1027000013441B68184608F015FD024697F85F3021
:10271000D2B260333B4403F8082C97F85F30603343
:102720003B4413F8083C642B06D997F85F306033BC
:102730003B44642203F8082C97F85F3060333B4435
:1027400013F8083C1A4642F20F7302FB03F32D4ABA
:1027500082FB03125211DB17D31A9AB297F85F303B
:102760001146184601F0CCFA97F85F30013387F82C
:102770005F3097F85F30032BBDD997F8583007F1D9
:102780000800214A502108F05DFD204B1B6807F12D
:10279000080211461846FEF769FE97F8593007F10E
:1027A00008001B4A502108F04DFD184B1B6807F12B
:1027B000080211461846FEF759FE97F85A3007F1FD
:1027C0000800144A502108F03DFD104B1B6807F12A
:1027D000080211461846FEF749FE97F85B3007F1EC
:1027E00008000D4A502108F02DFD084B1B6807F129
:1027F000080211461846FEF739FE002318466037D6
:10280000BD4680BD1F85EB515CC300083C340020F1
:1028100074C300088CC30008A4C3000880B59CB032
:1028200002AF786039607B68022B01DD02233EE055
:10283000002387F8673035E097F86730184601F0D5
:10284000ABFA03461A46642302FB03F31A4A82FBDF
:1028500003121212DB17D21A97F8673092B25B009C
:1028600068333B4423F80C2C97F8672097F86730BF
:102870005B0068333B4433F80C3C07F10C000093D9
:1028800013460E4A502108F0DDFC0D4B1B6807F182
:102890000C0211461846FEF7E9FD97F86730013340
:1028A00087F8673097F86730032BC5D9002318469F
:1028B0006837BD4680BD00BFAFE38D063CC300084E
:1028C0003C34002080B483B000AF786039600023CE
:1028D00018460C37BD465DF8047B704780B483B062
:1028E00000AF78603960002318460C37BD465DF8AC
:1028F000047B704780B582B000AF78603960054BCB
:102900001B6805491846FEF7B1FD00231846083735
:10291000BD4680BD3C340020BCC3000880B592B0E9
:1029200000AF786039607B68032B01DD022324E06F
:102930007B68022B01DC03231FE03B6804331B6828
:10294000184608F0F7FB034687F8473097F84730FA
:1029500007F108000B4A3C2108F074FC0A4B1B6885
:1029600007F1080211461846FEF780FD97F8473038
:102970001946002000F0AAFF002318464837BD463C
:1029800080BD00BFC8C300083C34002080B586B0BD
:1029900000AF786039607B68032B01DD022364E0BF
:1029A0007B68022B01DC03235FE03B6804331B6878
:1029B000184608F0BFFB0346FB742E4A07F10803D4
:1029C00092E80300186004331980FB7C002B21D0AF
:1029D000FB7C242B1ED8FB7C013B274A82FB031285
:1029E000DB17D31ABB74FB7C5A1E234B83FB0231CB
:1029F000D317C91A0B465B000B445B00D11A0B4678
:102A00007B747B7C01229A40BB7CD2B218333B445E
:102A100003F8102C4FF480511848FEF779FE052377
:102A20007B6112E007F108027B6913441B781946A9
:102A30001348FEF74DFE00BF1148FEF723FE034684
:102A4000002BF9D07B69013B7B617B69002BE9DAC4
:102A500000BF0B48FEF729FE0346002BF9D14FF4C7
:102A600080510648FEF746FE002318461837BD463B
:102A700080BD00BFDCC30008ABAAAA2A0010024038
:102A80000030014080B588B000AF786039607B6865
:102A9000032B01DD022367E07B68022B01DC0323AB
:102AA00062E03B6804331B68184608F043FB0346AA
:102AB000FB76FB7E242B01D9042355E02C4A07F139
:102AC000100392E80300186004331980FB7E002B8A
:102AD00021D0FB7E242B1ED8FB7E013B254A82FBA6
:102AE0000312DB17D31ABB76FB7E5A1E214B83FBE6
:102AF0000231D317C91A0B465B000B445B00D11A95
:102B00000B467B767B7E01229A40BB7ED2B220337D
:102B10003B4403F8102C0023FB610FE0FB69C3F179
:102B2000050320333B4413F8101C07F10802FB692E
:102B300013440A461A70FB690133FB61FB69052BDC
:102B4000ECDD4FF400710C48FEF7E2FD07F10801DF
:102B50004FF47A730622094805F063FC4FF40071C4
:102B60000548FEF7C7FD002318462037BD4680BD47
:102B7000DCC30008ABAAAA2A000C02406C35002076
:102B800080B594B000AF786039607B68022B01DDBE
:102B900002233DE07B68012B01DC032338E00023A6
:102BA000A7F848300023FB644FF400611A48FEF791
:102BB000AFFD00BF4FF400611748FEF79BFD4FF4D7
:102BC00080611548FEF7A4FD07F148014FF47A73C0
:102BD0000222124805F069FD4FF480610E48FEF7AD
:102BE00089FD97F848301B0297F849201343FB648E
:102BF00007F10C00FB6C0A4A3C2108F023FB094B4F
:102C00001B6807F10C0211461846FEF72FFC002343
:102C100018465037BD4680BD000C02406C35002080
:102C2000E4C300083C34002080B5A0B002AF786057
:102C300039607B68082B01DD02234DE17B68072B9F
:102C400001DC032348E13B6804331B68184608F0A5
:102C500071FA03463B673B6808331B68184608F067
:102C600069FA0346FB663B680C331B68184608F09C
:102C700061FA0346BB663B6810331B68184608F0D0
:102C800059FA034687F867303B6814331B681846C7
:102C900008F050FA03463B663B6818331B68184639
:102CA00008F048FA0346FB653A6F8D4BA3FB02130D
:102CB0005B09642101FB03F3D31A002B03D13B6FA3
:102CC000B3F5C87F10D207F10803864A5021184691
:102CD00008F0B8FA844B1B6807F108021146184641
:102CE000FEF7C4FB0423F7E0FB6EC72B0ED9FA6E88
:102CF0007B4BA3FB02135B09642101FB03F3D31A93
:102D0000002B03D1FA6E3B6F9A4210D907F10803EA
:102D1000764A5021184608F095FA734B1B6807F164
:102D2000080211461846FEF7A1FB0423D4E0BB6E4F
:102D3000B3F5FA7F10D907F108036D4A5021184600
:102D400008F080FA684B1B6807F108021146184624
:102D5000FEF78CFB0423BFE097F86730C82B10D92F
:102D600007F10803634A5021184608F06BFA5E4BDE
:102D70001B6807F1080211461846FEF777FB04238B
:102D8000AAE097F86730002B0CBF01230023DBB2C9
:102D90001A46594B1A70FB6DFF2B01D904239BE097
:102DA00007F10800FB6D554A502108F04BFA4E4BD5
:102DB0001B6807F1080211461846FEF757FBFB6D2A
:102DC000DBB21946002000F081FD642004F034FCE1
:102DD000FB6DDBB21946002000F078FD0023A7F858
:102DE0005A30B7F95A3047F6FF72934206D13E4B3C
:102DF0001B6843491846FEF739FB0FE0B7F95A3014
:102E000007F108003F4A502108F01CFA364B1B68B6
:102E100007F1080211461846FEF728FB002387F841
:102E200077302EE097F87730374A32F81330A7F82A
:102E30005A30B7F95A3047F6FF72934208D197F8E3
:102E4000773007F10800314A502108F0FBF90BE018
:102E500097F87720B7F95A3007F108000093134626
:102E60002B4A502108F0EEF91F4B1B6807F10802AE
:102E700011461846FEF7FAFA97F87730013387F8CB
:102E8000773097F87730072BCCD9224A3B6F136005
:102E9000214AFB6E1360214ABB6E1360204A3B6ED1
:102EA0001360204A97F8673013701F4B01221A7085
:102EB00007F10800BB6E0193FB6E00933B6F1B4A4A
:102EC000502108F0BFF9084B1B6807F108021146B2
:102ED0001846FEF7CBFA002318467837BD4680BD6A
:102EE0001F85EB51F4C300083C34002030C40008B7
:102EF0006CC4000884C4000899340020B0C40008E1
:102F0000C4C40008E0C40008BC340020F8C40008B1
:102F100010C50008843400208C3400209034002038
:102F200094340020983400208834002024C5000800
:102F300080B598B000AF786039607B68032B01DD05
:102F4000022342E07B68022B01DC03233DE03B6867
:102F500004331B68184608F0EDF80346FB65FA6D6C
:102F60001C4BA3FB02135B09642101FB03F3D31A7F
:102F7000002B03D1FB6DB3F5FA7F10D207F10C03E0
:102F8000154A5021184608F05DF9144B1B6807F1EB
:102F90000C0211461846FEF769FA042315E0104AA0
:102FA000FB6D13600F4B01221A7007F10C00FB6DD3
:102FB0000D4A502108F046F9084B1B6807F10C0236
:102FC00011461846FEF752FA002318466037BD46F0
:102FD00080BD00BF1F85EB5170C500083C34002048
:102FE0008C34002089340020ACC5000880B500AFC7
:102FF0000249034807F06AFF00BF80BD9C01002022
:103000009801002080B500AF214B1B68214918466C
:10301000FEF72CFA1E4B1B681F491846FEF726FACE
:103020001B4B1B681D491846FEF720FA184B1B68FE
:103030001B491846FEF71AFA154B1B681949184622
:10304000FEF714FA124B1B6817491846FEF70EFAE2
:103050000F4B1B6815491846FEF708FA0C4B1B6806
:1030600013491846FEF702FA094B1B681149184626
:10307000FEF7FCF9064B1B680F491846FEF7F6F9F8
:10308000034B1B680D491846FEF7F0F900BF80BDE1
:103090003C340020ACC6000870C7000810C8000807
:1030A000B0C8000874C9000834CA0008F8CA00088B
:1030B000BCCB000880CC000844CD000808CE000836
:1030C00080B483B000AF78607B689B6803F0020334
:1030D000022B01D1012300E0002318460C37BD4626
:1030E0005DF8047B704780B483B000AF78607B6884
:1030F0009B6803F08003802B01D1012300E00023B3
:1031000018460C37BD465DF8047B704780B485B027
:1031100000AF78600B46FB707B680C33FB60FB688C
:10312000FA781A7000BF1437BD465DF8047B70470B
:1031300080B483B000AF786039607B683A689A6188
:1031400000BF0C37BD465DF8047B704780B483B088
:1031500000AF786039603B681A047B689A6100BFF1
:103160000C37BD465DF8047B7047000080B590B019
:1031700002AF984B1B78DBB2002B0DD00A2007F072
:103180008FFE0346002B07D000F074FA924B1B68A9
:1031900019460A2007F06EFE904B1B78DBB2002B1D
:1031A00000F014810B2007F07BFE0346002B00F09B
:1031B000F3808B4B00221A708A4B1B78DBB21A46C5
:1031C000520013445B00DAB2874B1B78DBB2134426
:1031D000DBB2063B87F83730844B1B78DBB2002B21
:1031E0003AD0834B1B78DBB2002B25D1814B1B7867
:1031F000DBB2002B20D1804B00221A60774B0022DB
:103200001A70744B00221A70734B00221A607B4BA9
:1032100001221A70744B01221A70724B01221A702B
:10322000774B00221A60774B00221A60704B002205
:103230001A70704B00221A70002000F04DF9002027
:1032400000F0B0F96E4B1B6819460C2007F012FE17
:10325000664B00221A7098E00C2007F021FE03460E
:10326000002B00F092805F4B1B78DBB2012B1BD14F
:10327000654B1B78DBB2002B16D15B4B1B78DBB2A6
:10328000012B11D100F0CAF85A4B1B78DBB2013B7D
:10329000DAB2584B1A705B4B1B6819460D2007F0C9
:1032A000E9FD594B01221A700D2007F0F9FD034684
:1032B000002B61D04B4B1B78DBB2012B03D1534960
:1032C0005348FEF7D3F897F83730184600F004F962
:1032D00097F83730184600F065F997F83730092B22
:1032E00012D8414B1B78DBB219463E4B1B78DBB240
:1032F0001A4697F83730381D019300920B46454A1D
:10330000322107F09FFF11E0374B1B78DBB21946E3
:10331000344B1B78DBB21A4697F83730381D0193CF
:1033200000920B463C4A322107F08CFF3B1D1946A8
:103330003748FEF79BF82B4B1B78DBB20133DAB230
:10334000284B1A70274B1B78DBB2062B11D9254B63
:1033500001221A70244B1B78DBB20133DAB2224B04
:103360001A70214B1B78DBB2062B02D91E4B0122AF
:103370001A70254B00221A701F4B1B6819460B2030
:1033800007F078FD194B01221A70134B1B68194680
:103390000A2007F06FFD19E00D2007F081FD0346BC
:1033A000002B13D00A2007F07BFD0346002B0DD025
:1033B00000F0DEF90A4B1B780133DAB2084B1A70C1
:1033C000054B1B6819460A2007F054FD00BF38372B
:1033D000BD4680BD893400208C3400208834002014
:1033E00081340020C2010020C1010020C30100205F
:1033F000993400209834002084340020C00100203B
:103400009034002094340020C4010020CCCE000869
:1034100000100140D0CE0008E4CE000880B592B084
:1034200002AF0023BB87B7F93C3047F6FF729342E7
:1034300004D123492348FEF719F80BE0B7F93C30D3
:103440003846214A3C2107F0FDFE3B4619461D48FF
:10345000FEF70CF8002387F83F3028E097F83F305C
:103460001A4A32F81330BB87B7F93C3047F6FF727F
:10347000934207D197F83F303846154A3C2107F070
:10348000E1FE0AE097F83F20B7F93C303846009358
:103490001346104A3C2107F0D5FE3B461946094821
:1034A000FDF7E4FF97F83F30013387F83F3097F896
:1034B0003F30072BD2D900BF00BF4037BD4680BD8B
:1034C000F8CE00080010014014CF0008BC340020E2
:1034D0002CCF000844CF000880B588B000AF034669
:1034E000FB712C4A07F1140392E8030018600433BF
:1034F0001980FB79002B21D0FB79242B1ED8FB7976
:10350000013B254A82FB0312DB17D31AFB76FB79BA
:103510005A1E214B83FB0231D317C91A0B465B009D
:103520000B445B00D11A0B46BB76BB7E01229A404E
:10353000FB7ED2B220333B4403F80C2C0023FB610A
:103540000FE0FB69C3F1050320333B4413F80C1C67
:1035500007F10C02FB6913440A461A70FB69013338
:10356000FB61FB69052BECDD4FF400710B48FFF7A5
:10357000EDFD07F10C014FF47A730622084804F0C0
:1035800050FF4FF400710548FFF7D2FD00BF203710
:10359000BD4680BD58CF0008ABAAAA2A000C024045
:1035A0006C35002080B586B000AF0346FB712D4A14
:1035B00007F10C0392E80300186004331980FB79CB
:1035C000002B21D0FB79242B1ED8FB79013B264A06
:1035D00082FB0312DB17D31AFB74FB795A1E224BB2
:1035E00083FB0231D317C91A0B465B000B445B0007
:1035F000D11A0B46BB74BB7C01229A40FB7CD2B231
:1036000018333B4403F80C2C4FF480511748FFF754
:103610009DFD05237B6112E007F10C027B691344D9
:103620001B7819461248FFF771FD00BF1048FFF7DD
:1036300047FD0346002BF9D07B69013B7B617B6929
:10364000002BE9DA00BF0A48FFF74DFD0346002BC7
:10365000F9D14FF480510548FFF76AFD00BF1837D4
:10366000BD4680BD58CF0008ABAAAA2A0010024070
:103670000030014080B598B002AF0023A7F8403079
:1036800000237B654FF000033B65324BFB64002356
:10369000BB6400237B644FF400612F48FFF756FDA5
:1036A00000BF4FF400612C48FFF742FD4FF48061EA
:1036B0002948FFF74BFD07F140014FF47A730222CE
:1036C000264804F0F2FF4FF480612348FFF730FDF5
:1036D00097F840301B0297F8412013437B657B6DC0
:1036E00007EE903AB8EE677ADFED1D6AC7EE267AEC
:1036F00097ED137A67EE277AC7ED147AD7ED147A2F
:10370000FDEEE77A17EE903ABB64BB6C07EE903A99
:10371000F8EEE77A97ED147A77EE677A9FED117AF3
:1037200067EE877AFDEEE77A17EE903A7B64381DF4
:103730007B6C0193BB6C00937B6D0B4A3C2107F0C3
:1037400081FD3B1D19460948FDF790FE00BF583723
:10375000BD4680BD00004040000C02406C3500209A
:103760000000804700007A4460CF0008001001404C
:1037700080B590B002AF0023BB860023FB864FF4D8
:1037800000611C48FFF7E2FC00BF4FF400611948DC
:10379000FFF7CEFC4FF480611648FFF7D7FC07F126
:1037A00034014FF47A730222134804F07EFF4FF481
:1037B00080611048FFF7BCFC97F834301B021AB246
:1037C00097F835301BB213431BB2FB860B4B1B78AB
:1037D0001A46FB8E384600931346094A322107F0F9
:1037E00031FD3B4619460748FDF740FE00BF38371C
:1037F000BD4680BD000C02406C35002081340020A5
:1038000084CF00080010014080B500AF0249034892
:1038100007F05CFB00BF80BDB0010020AC010020C0
:1038200080B483B000AF786039607B683A689A6191
:1038300000BF0C37BD465DF8047B704780B483B091
:1038400000AF786039603B681A047B689A6100BFFA
:103850000C37BD465DF8047B704780B483B000AF81
:1038600078607B689B6803F00203022B01D101237F
:1038700000E0002318460C37BD465DF8047B704716
:1038800080B483B000AF78607B689B6803F08003EE
:10389000802B01D1012300E0002318460C37BD46E0
:1038A0005DF8047B704780B485B000AF78600B464C
:1038B000FB707B680C33FB60FB68FA781A7000BF02
:1038C0001437BD465DF8047B7047000080B584B0B6
:1038D00000AF03460A46FB711346BB714FF48041AB
:1038E0002A48FFF7ABFFFB79002B07D0BB791B0100
:1038F0001AB2274B13431BB29BB206E0BB791B01E4
:103900001BB243F440531BB29BB2FB81FB891B0AE1
:103910009BB2DBB219461F48FFF7C5FF00BF1D4829
:10392000FFF79BFF0346002BF9D0FB89DBB219465A
:103930001848FFF7B8FF00BF1648FFF78EFF034691
:10394000002BF9D000BF1348FFF79AFF0346002B66
:10395000F9D14FF480410D48FFF762FF4FF4004169
:103960000A48FFF76BFF0023BB6002E0BB6801332E
:10397000BB60BB68632BF9DD4FF400410348FFF7E0
:103980004FFF00BF1037BD4680BD00BF0010024092
:1039900000B0FFFF0030014080B483B000AF5B4B4C
:1039A0005B790133DAB2594B5A71584B5B793B2B37
:1039B0007AD9564B00225A71544B1B790133DAB233
:1039C000524B1A71514B1B793B2B6DD94F4B002237
:1039D0001A714E4BDB780133DAB24C4BDA704B4B39
:1039E000DB78172B60D9494B0022DA70474B1B78E4
:1039F0000133DAB2454B1A70444B9B7803F0030352
:103A0000DBB2002B1ED1414B9B78414AA2FB031233
:103A10005209642101FB02F29B1ADBB2002B0FD189
:103A20003A4B9B781A463A4B83FB0213D911D317B2
:103A3000CB1A4FF4C87101FB03F3D31A002B01D149
:103A4000012300E00023FB71304B5B78022B03D194
:103A5000FB791C33DBB204E02C4B5B78013B2D4A35
:103A6000D35CBB71294B1B78BA799A421CD2274B85
:103A700001221A70254B5B780133DAB2234B5A705E
:103A8000224B5B780C2B0FD9204B01225A701F4B15
:103A90009B780133DAB21D4B9A701C4B9B78632BD9
:103AA00002D91A4B00229A701B4B9B790133DAB270
:103AB000194B9A71184B9B793B2B21D9164B00223D
:103AC0009A71154B5B790133DAB2134B5A71124B71
:103AD0005B793B2B14D9104B00225A710E4B1B798A
:103AE0000133DAB20C4B1A710B4B1B79172B07D928
:103AF000094B00221A71084B1B680133064A1360F8
:103B000000BF0C37BD465DF8047B7047C80100203C
:103B10001F85EB51A4CF00089C34002080B500AF76
:103B2000114B00229A70104B01225A700E4B012249
:103B30001A700D4B0022DA700B4B00221A710A4BDF
:103B400000225A71094B00221A60084B00221A7198
:103B5000064B00225A71054B00229A710449054810
:103B600007F0B4F900BF80BDC80100209C340020DC
:103B7000D4010020D001002080B483B000AF786071
:103B80007B68002B06D07B68054A10681860928815
:103B90009A8000E000BF0C37BD465DF8047B70479B
:103BA000C801002080B483B000AF786039607B68C2
:103BB0003A685A6300BF0C37BD465DF8047B704716
:103BC00080B483B000AF786039607B683A689A63EC
:103BD00000BF0C37BD465DF8047B704780B483B0EE
:103BE00000AF786039607B683A68DA6300BF0C37F1
:103BF000BD465DF8047B704780B483B000AF786049
:103C000039607B683A681A6400BF0C37BD465DF8BE
:103C1000047B704780B582B000AF03460A46FB7153
:103C20001346BB80BB8842F20F72934202D942F224
:103C30000F73BB80FB79032B22D801A252F823F02B
:103C4000513C00085D3C0008693C0008753C0008D8
:103C5000BB8819460D48FFF7A5FF12E0BB8819463F
:103C60000A48FFF7ADFF0CE0BB8819460748FFF78D
:103C7000B5FF06E0BB8819460448FFF7BDFF00E02A
:103C800000BF00BF0837BD4680BD00BF0000014037
:103C900080B483B000AF786039607B683A685A635B
:103CA00000BF0C37BD465DF8047B704780B483B01D
:103CB00000AF786039607B683A689A6300BF0C3760
:103CC000BD465DF8047B704780B483B000AF786078
:103CD00039607B683A68DA6300BF0C37BD465DF82F
:103CE000047B704780B483B000AF786039607B6834
:103CF0003A681A6400BF0C37BD465DF8047B704714
:103D000080B582B000AF03460A46FB711346BB8004
:103D1000BB8842F20F72934202D942F20F73BB800A
:103D2000FB79032B2ED801A252F823F03D3D000869
:103D30004F3D0008613D0008733D0008144ABB88F0
:103D40001380BB8819461348FFF7A2FF1BE0104AF7
:103D5000BB885380BB8819460E48FFF7A7FF12E0C7
:103D60000B4ABB889380BB8819460A48FFF7ACFF13
:103D700009E0074ABB88D380BB8819460548FFF78E
:103D8000B1FF00E000BF00BF0837BD4680BD00BFE7
:103D9000A43400200004004080B483B000AF034688
:103DA000FB71FB79044A32F8133018460C37BD46D4
:103DB0005DF8047B704700BFA434002080B483B05A
:103DC00000AF78607B689B6803F00103012B01D191
:103DD000012300E0002318460C37BD465DF8047B44
:103DE000704780B483B000AF78607B680C331B7879
:103DF000DBB218460C37BD465DF8047B704780B4D3
:103E000085B000AF78600B46FB707B680C33FB60BD
:103E1000FB68FA781A7000BF1437BD465DF8047B62
:103E2000704780B483B000AF786039607B683A68CF
:103E30009A6100BF0C37BD465DF8047B704780B4C3
:103E400083B000AF786039603B681A047B689A6180
:103E500000BF0C37BD465DF8047B704780B582B06B
:103E600000AF0346FB71FB79074A52F8233018462E
:103E7000FB79064A52F823301946FFF7E0FF00BFEE
:103E80000837BD4680BD00BF480200205802002010
:103E900080B582B000AF0346FB71FB79074A52F848
:103EA00023301846FB79064A52F823301946FFF7AB
:103EB000B8FF00BF0837BD4680BD00BF48020020E4
:103EC0005802002080B582B000AF0346FB71FB7939
:103ED00019460948FFF793FF00BF0748FFF76EFF39
:103EE0000346002BF9D00448FFF77BFF0346184632
:103EF0000837BD4680BD00BF003C004080B584B09F
:103F000000AF03463960FB711346BB710023FB739E
:103F1000FB791846FFF7A2FF0023BB7310E0BB7BC1
:103F20003A6813441B781846FFF7CCFF0346FB732F
:103F3000BB7B3A681344FA7B1A70BB7B0133BB73BB
:103F4000BA7BBB799A42EAD3FB791846FFF7A0FF08
:103F5000FB7B18461037BD4680BD00000000000006
:103F6000B0B582B000AFC7E90001D7E900010E4D3E
:103F700000242A1A64EB01034FF000004FF0000107
:103F8000590641EAD211500605A3D3E90023FCF7F4
:103F900087F902460B46134618460837BD46B0BDA2
:103FA00000F9029500000000807C814A2DE9B00FE5
:103FB00085B000AFF860F968C8170C4605461B4984
:103FC00001FB05F0002104FB01F101441748A4FBAB
:103FD000002319440B4610461946002908DA6FF0F1
:103FE0007E43C3183B6041F100037B60D7E90001C9
:103FF0004FF000024FF00003420E42EAC1124B168E
:104000000021D2F1000A61EB030B52465B460849DE
:1040100012EB010843F1000942464B46104619468F
:104020001437BD46BDE8B00F704700BF00F90295D8
:10403000807C814A80B586B000AF03463960FB7151
:104040000023FB6000233B613B681B783B733B68AC
:104050001B795B00DBB27B733B681B78F22B11D1C1
:104060003B681A6907F10C0302331946104600F049
:1040700008FB07F10C030621184600F0C7FA0346B7
:10408000BB7407E007F10C030221184600F0BEFAEA
:104090000346BB733B685A7807F10C01FB7918465D
:1040A000FFF72CFF07F10C03184600F028FB03462E
:1040B0009AB24FF0FF337B617B695B057B617B6963
:1040C0005B0D7B617B699BB213409AB23B68DA82DD
:1040D0003B681B78F22B06D1BA7B3B681A75FA7CD9
:1040E0003B685A7519E03B681B78F42B0FD107F138
:1040F0000C030233184600F0E5FA02463B681A61E9
:10410000BA7C3B681A75FA7C3B685A7505E0BA7B45
:104110003B681A75FA7B3B685A753B685B7DA52B3B
:1041200002D04FF0FF3300E0002318461837BD4699
:1041300080BD000080B58AB000AF03463A60FB71D5
:104140000B46BB71002387F82730154B1B883B813A
:104150003B89BB81BA79134913465B0013449B002A
:10416000CA1807F1100307CA83E8070007F10C0219
:10417000FB7911461846FFF75DFF034687F82730A5
:1041800097F92730002B02D097F9273003E0FA691E
:104190003B681A60002318462837BD4680BD00BF23
:1041A00098CF0008E801002080B58AB000AF034630
:1041B0003A60FB710B46BB710F4B1B88BB81BB89FF
:1041C0003B82BA790D4913465B0013449B00CA1821
:1041D00007F1140307CA83E807003B683B6207F155
:1041E0001002FB7911461846FFF724FF03461846D4
:1041F0002837BD4680BD00BF9CCF0008E8010020E5
:1042000080B586B000AFBA607B600346FB730B4697
:10421000BB7307F11402B97BFB7B1846FFF78AFFDB
:10422000BB68DA437B6913407B617968B86800F04A
:1042300096FA02467B6913437B617A69B97BFB7B03
:104240001846FFF7B1FF034618461837BD4680BD34
:1042500080B582B000AF03460A46FB711346BB71BE
:10426000BB79F87901220021FFF7CAFF03461846FF
:104270000837BD4680BD80B582B000AF03460A4610
:10428000FB711346BB71BB79F87902220021FFF75D
:10429000B7FF034618460837BD4680BD80B582B0DB
:1042A00000AF0346FB71F87901234FF480420021EF
:1042B000FFF7A6FF034618460837BD4680BD80B508
:1042C00084B000AF0346FB714FF0FF33FB60FB6827
:1042D0009B06FB60FB685B0DFB60FA68F8790023C6
:1042E0000121FFF78DFF034618461037BD4680BDFC
:1042F00080B584B000AF03463960FB714FF0FF33E7
:10430000FB60FA68F8793B680421FFF779FF034600
:1043100018461037BD4680BD2DE9F04F8FB000AF75
:10432000002387F83730002387F83630E7E097F826
:104330003630794A52F82330184697F83630774AA3
:1043400052F823301946FFF77AFD97F83630744A51
:1043500052F82330184697F83630724A52F8233014
:104360001946FFF76CFD97F836301846FFF796FFB1
:1043700097F836301846FFF7A2FF034687F8373024
:1043800097F83630644A52F82330184697F836309A
:10439000624A52F823301946FFF743FD97F836304A
:1043A00001211846FFF754FF034687F8373097F886
:1043B000363043F6012200211846FFF7F5FE03468A
:1043C00087F8373097F836304FF07F411846FFF7BF
:1043D0008FFF034687F8373097F8363000220121E7
:1043E0001846FFF7E1FE034687F83730012006F054
:1043F000E1FC97F8363043F6012200211846FFF71A
:10440000D3FE034687F837304FF07F40FFF7CEFDED
:10441000C7E90A010020FFF7C9FDC7E90801002329
:1044200087F8353048E0D7E90801D7E90A23841A2C
:1044300061EB030597F8353000229846914608FB5A
:1044400005F204FB09F31344A4FB08AB5B449B4651
:1044500052465B46002B06DAD11CB96043F10003DB
:10446000FB60D7E902234FF000004FF000019008F5
:1044700040EA83709910D7E90A2316183E604B4131
:104480007B60D7E90023C7E90623D7E90601FFF7D8
:1044900067FD78617A6997F8363011461846FFF75C
:1044A00027FF034687F83730012006F083FC97F892
:1044B0003530013387F8353097F83530042BB2D9D1
:1044C00097F83630164A52F82330184697F83630A7
:1044D000144A52F823301946FFF7A3FC97F83630F8
:1044E00001211846FFF7C7FE034687F83730B4208E
:1044F000FCF7B2F897F83630013387F8363097F882
:104500003630032B7FF613AF97F9373018463C3718
:10451000BD46BDE8F08F00BF680200207802002091
:1045200088020020980200202DE9B04F8CB000AF27
:10453000C7E904230346FB770B46BB77002387F8C4
:1045400027304FF000024FF00003C7E90A23002391
:104550003B62BB7F002B24D1D7E9042310461946C8
:10456000002907DA10F10F03BB6041F10003FB6083
:10457000D7E902014FF000024FF00003020942EABE
:1045800001720B1100215042386061EB03037B6024
:10459000D7E900231C4912EB010843F10009C7E9E0
:1045A0000A89BB7F012B19D1D7E90423002B05DA37
:1045B00012F10F0A43F1000B52465B464FF0000028
:1045C0004FF00001100940EA0370191102460B4632
:1045D0000D49541843F10005C7E90A45D7E90A0116
:1045E000FFF7BEFC38623A6AFB7F11461846FFF7B8
:1045F0007FFE034687F8273097F927301846303773
:10460000BD46BDE8B08F00BF807C814A80B485B0D4
:1046100000AF78600B46FB700023FB7307233B73EE
:104620000023BB7322E0BB7B7A6813441A78FB7BC0
:104630005340FB7300237B7312E097F90F30002B7C
:1046400008DAFB7B5B005AB297F90C3053405BB23F
:10465000FB7302E0FB7B5B00FB737B7B01337B73B3
:104660007B7B072BE9D9BB7B0133BB73BA7BFB7820
:104670009A42D8D3FB7B18461437BD465DF8047BBD
:10468000704780B483B000AF786039603B68033313
:104690007A68D2B21A707B681A0A3B680233D2B2C7
:1046A0001A707B681A0C3B680133D2B21A707B68AF
:1046B0001B0EDAB23B681A7000BF0C37BD465DF8BE
:1046C000047B704780B483B000AF78607B680333AD
:1046D0001B781A467B6802331B781B0213431A4669
:1046E0007B6801331B781B041A437B681B781B060D
:1046F000134318460C37BD465DF8047B704780B401
:1047000083B000AF78607B6801331B781A467B6802
:104710001B781B02134318460C37BD465DF8047B1B
:10472000704780B485B000AF78600023FB600CE078
:104730007B6803F00103002B01D0FB6809E07B6874
:104740005B087B60FB680133FB607B68002BEFD16B
:10475000202318461437BD465DF8047B704780B5AA
:1047600082B000AF786039607868FFF7DAFF024600
:104770003B6803FA02F27B68134018460837BD46CF
:1047800080BD80B483B000AF78607B689B6843F0E5
:1047900001027B689A6000BF0C37BD465DF8047B60
:1047A000704780B483B000AF78607B689B6803F08B
:1047B0000103012B0CBF01230023DBB218460C3789
:1047C000BD465DF8047B704780B483B000AF78606D
:1047D0007B689B6843F080427B689A6000BF0C371F
:1047E000BD465DF8047B704780B483B000AF78604D
:1047F00039600C4A3B6813441B781A467B681344A3
:104800001B6808493A680A44127811467A680A44D3
:1048100043F00103136000BF0C37BD465DF8047B15
:10482000704700BFB0CF000880B485B000AFF8601B
:10483000B9607A600D4ABB6813441B781A46FB685E
:1048400013441B6823F0C0020849BB680B441B7863
:104850001946FB680B4419467B6813430B6000BF85
:104860001437BD465DF8047B704700BFB0CF000829
:1048700080B485B000AFF860B9607A600D4ABB685B
:1048800013441B781A46FB6813441B6823F4907288
:104890000849BB680B441B781946FB680B44194652
:1048A0007B6813430B6000BF1437BD465DF8047B83
:1048B000704700BFB0CF000880B485B000AFF8608B
:1048C000B9607A600D4ABB6813441B781A46FB68CE
:1048D00013441B6823F400720849BB680B441B781F
:1048E0001946FB680B4419467B6813430B6000BFF5
:1048F0001437BD465DF8047B704700BFB0CF000899
:1049000080B485B000AFF860B9607A600D4ABB68CA
:1049100013441B781A46FB6813441B6823F4806217
:104920000849BB680B441B781946FB680B441946C1
:104930007B6813430B6000BF1437BD465DF8047BF2
:10494000704700BFB0CF000880B485B000AFF860FA
:10495000B9607A600D4ABB6813441B781A46FB683D
:1049600013441B6823F4C0520849BB680B441B78EE
:104970001946FB680B4419467B6813430B6000BF64
:104980001437BD465DF8047B704700BFB0CF000808
:1049900080B485B000AFF860B9607A600D4ABB683A
:1049A00013441B781A46FB6813441B6823F4C04267
:1049B0000849BB680B441B781946FB680B44194631
:1049C0007B6813430B6000BF1437BD465DF8047B62
:1049D000704700BFB0CF000880B485B000AFF8606A
:1049E000B9607A600D4ABB6813441B781A46FB68AD
:1049F00013445B681B0C1B040849BA680A4412780C
:104A00001146FA680A4411467A6813434B6000BFA6
:104A10001437BD465DF8047B704700BFB0CF000877
:104A200080B485B000AFF860B9607A600D4ABB68A9
:104A300013441B781A46FB6813441B6823F060621A
:104A40000849BB680B441B781946FB680B441946A0
:104A50007B6813430B6000BF1437BD465DF8047BD1
:104A6000704700BFB0CF000880B485B000AFF860D9
:104A7000B9607A60074ABB6813441B781A46FB6822
:104A800013441A467B68D36000BF1437BD465DF8F7
:104A9000047B7047B0CF000880B485B000AFF860E9
:104AA000B9607A60074ABB6813441B781A46FB68F2
:104AB00013441A467B68936000BF1437BD465DF807
:104AC000047B7047B0CF000880B500AF0022002102
:104AD0002348FFF7A5FF002200212148FFF7A4FE8D
:104AE000002200211E48FFF7E7FE4FF480620021FC
:104AF0001B48FFF705FF4FF4006200211848FFF73D
:104B000023FF4FF4005200211548FFF741FF082210
:104B100000211348FFF760FF124A00211048FFF7F9
:104B2000BBFF114B1A4600210D48FFF79DFF4FF4C4
:104B3000807200210A48FFF79BFE00210848FFF71A
:104B400053FE0A48FFF71DFE00BF0848FFF729FE85
:104B50000346002BF9D00548FFF736FE00BF80BDA5
:104B6000006402404C200140AC3400200020014091
:104B700080B485B000AF78600023FB7328E0FB7B36
:104B8000184A32F813301946FB7B5B007A681344ED
:104B9000154A32F911201A80FB7B5B007A681344B6
:104BA000B3F9003013F5FA7F08DBFB7B5B007A6812
:104BB0001344B3F90030B3F5FA6F06DDFB7B5B00FD
:104BC0007A68134447F6FF721A80FB7B0133FB734C
:104BD000FB7B072BD3D900BF00BF1437BD465DF860
:104BE000047B7047AC340020A802002080B483B05E
:104BF00000AF786039607B683A689A6100BF0C3713
:104C0000BD465DF8047B704780B483B000AF786028
:104C100039603B681A047B689A6100BF0C37BD4657
:104C20005DF8047B7047000080B500AF0A4A137836
:104C30006FF300031370084A13786FF34103137086
:104C4000054A13786FF38703137000F0D5F800F06E
:104C5000EBF800BF80BD00BFCC34002080B500AFB2
:104C60000C4B1B78C3F38503DBB2022B0CD0022B59
:104C70000DDC002B02D0012B03D008E000F00CF873
:104C800006E000F051F803E000F070F800E000BF2B
:104C900000BF80BDCC34002080B500AF214B1B7815
:104CA00003F00103DBB2002B20D01E4B1B7803F076
:104CB0000203DBB2002B19D0002006F0F1F8034606
:104CC000002B2DD0174A13786FF300031370154A89
:104CD00013786FF34103137000F09AF800F0B0F806
:104CE0004FF4FA71002006F0C5F819E0002006F034
:104CF000D7F80346002B13D00A4A137843F0010378
:104D00001370084A137843F00203137000F074F82C
:104D100000F08AF84FF4FA71002006F0ABF8FFE7D4
:104D200000BF80BDCC34002080B500AF4FF40061DF
:104D30000D48FFF769FF4FF480610B48FFF756FFFE
:104D40004FF4FA7006F036F84FF480610648FFF72A
:104D50005BFF4FF400610448FFF748FF4FF4FA701F
:104D600006F028F800BF80BD0010024080B500AFFB
:104D7000204B1B7803F00103DBB2002B1FD01D4B2F
:104D80001B7803F00203DBB2002B18D0002006F0E2
:104D900087F80346002B2BD0164A13786FF30003D5
:104DA0001370144A13786FF34103137000F030F856
:104DB00000F046F83221002006F05CF818E00020F0
:104DC00006F06EF80346002B12D00A4A137843F01F
:104DD00001031370074A137843F00203137000F0C5
:104DE0000BF800F021F83221002006F043F8FFE72D
:104DF00000BF80BDCC34002080B500AF4FF480618F
:104E00000248FFF7F3FE00BF80BD00BF0010024064
:104E100080B500AF4FF480610248FFF7F5FE00BF98
:104E200080BD00BF0010024080B500AF4FF40061AC
:104E30000248FFF7DBFE00BF80BD00BF001002404C
:104E400080B500AF4FF400610248FFF7DDFE00BF00
:104E500080BD00BF0010024080B500AF024903488A
:104E600006F034F800BF80BDAC220020A82200204C
:104E700080B400AF044BDB681B0A03F0070318463D
:104E8000BD465DF8047B704700ED00E080B483B060
:104E900000AF0346FB7197F90730002B0BDBFB7962
:104EA00003F01F02074997F907305B09012000FA58
:104EB00002F241F8232000BF0C37BD465DF8047BA9
:104EC000704700BF00E100E080B483B000AF03464C
:104ED0003960FB7197F90730002B0ADB3B68DAB2C7
:104EE0000C4997F907301201D2B20B4483F8002322
:104EF0000AE03B68DAB20849FB7903F00F03043B90
:104F00001201D2B20B441A7600BF0C37BD465DF8D1
:104F1000047B704700E100E000ED00E080B489B060
:104F200000AFF860B9607A60FB6803F00703FB61CB
:104F3000FB69C3F10703042B28BF0423BB61FB6992
:104F40000433062B02D9FB69033B00E000237B619D
:104F50004FF0FF32BB6902FA03F3DA43BB681A4031
:104F60007B699A404FF0FF317B6901FA03F3D94323
:104F70007B680B40134318462437BD465DF8047B1D
:104F8000704780B489B000AFF860B9607A60FB68A0
:104F90002C331946BB6803F440734FF440727A61B6
:104FA0007A6992FAA2F23A613A69BA61BA69002A58
:104FB00001D1202203E0BA69B2FA82F2D2B2D34020
:104FC0009B000B44FB61FB691A68BB6803F01F037D
:104FD0001F2101FA03F3DB431A407B6803F01F0132
:104FE000BB6803F01F0301FA03F31A43FB691A605D
:104FF00000BF2437BD465DF8047B704780B483B0A2
:1050000000AF786039607B689B6823F480623B68FE
:105010001A437B689A6000BF0C37BD465DF8047B7D
:10502000704780B48FB000AFF860B9607A60FB68F9
:105030000C331946BB6803F000734FF000727A61BD
:105040007A6992FAA2F23A613A69BA61BA69002AB7
:1050500001D1202203E0BA69B2FA82F2D2B2D3407F
:105060009B000B447B637B6B1A68BB6803F0F8738F
:105070004FF0F8713962396A91FAA1F1F961F96971
:105080007962796A002901D1202103E0796AB1FAB5
:1050900081F1C9B2CB40072101FA03F3DB431A4087
:1050A000BB6803F0F8734FF0F871F962F96A91FA8E
:1050B000A1F1B962B96A3963396B002901D12021A4
:1050C00003E0396BB1FA81F1C9B2CB40796801FADA
:1050D00003F31A437B6B1A6000BF3C37BD465DF893
:1050E000047B704780B485B000AFF860B9607A6027
:1050F0000D4ABB6813441B781A46FB6813441B68AF
:1051000023F0C0020849BB680B441B781946FB68B2
:105110000B4419467B6813430B6000BF1437BD4630
:105120005DF8047B704700BFB8CF000880B485B03D
:1051300000AFF860B9607A600D4ABB6813441B7811
:105140001A46FB6813441B6823F490720849BB6835
:105150000B441B781946FB680B4419467B681343C4
:105160000B6000BF1437BD465DF8047B704700BF7D
:10517000B8CF000880B485B000AFF860B9607A603D
:105180000D4ABB6813441B781A46FB6813441B681E
:1051900023F400720849BB680B441B781946FB686E
:1051A0000B4419467B6813430B6000BF1437BD46A0
:1051B0005DF8047B704700BFB8CF000880B485B0AD
:1051C00000AFF860B9607A600D4ABB6813441B7881
:1051D0001A46FB6813441B6823F480620849BB68C5
:1051E0000B441B781946FB680B4419467B68134334
:1051F0000B6000BF1437BD465DF8047B704700BFED
:10520000B8CF000880B485B000AFF860B9607A60AC
:105210000D4ABB6813441B781A46FB6813441B688D
:1052200023F4C0520849BB680B441B781946FB683D
:105230000B4419467B6813430B6000BF1437BD460F
:105240005DF8047B704700BFB8CF000880B485B01C
:1052500000AFF860B9607A600D4ABB6813441B78F0
:105260001A46FB6813441B6823F4C0420849BB6814
:105270000B441B781946FB680B4419467B681343A3
:105280000B6000BF1437BD465DF8047B704700BF5C
:10529000B8CF000880B485B000AFF860B9607A601C
:1052A0000D4ABB6813441B781A46FB6813441B68FD
:1052B00023F440320849BB680B441B781946FB684D
:1052C0000B4419467B6813430B6000BF1437BD467F
:1052D0005DF8047B704700BFB8CF000880B485B08C
:1052E00000AFF860B9607A600D4ABB6813441B7860
:1052F0001A46FB6813441B6823F060620849BB68C8
:105300000B441B781946FB680B4419467B68134312
:105310000B6000BF1437BD465DF8047B704700BFCB
:10532000B8CF000880B483B000AF786039600C4A11
:105330003B6813441B781A467B6813445B69084931
:105340003A680A44127811467A680A4423F0040342
:10535000536100BF0C37BD465DF8047B704700BF4A
:10536000B8CF000880B483B000AF78607B681B685A
:1053700043F001027B681A6000BF0C37BD465DF840
:10538000047B704780B483B000AF78607B681B6893
:1053900023F080027B681A6000BF0C37BD465DF8C1
:1053A000047B704780B483B000AF78607B681B6873
:1053B00023F040027B681A6000BF0C37BD465DF8E1
:1053C000047B704780B483B000AF786039607B683D
:1053D000DB6823F0FE023B681A437B68DA6000BF9B
:1053E0000C37BD465DF8047B704780B483B000AFD6
:1053F00078607B68DB6823F001027B68DA6000BFBD
:105400000C37BD465DF8047B704780B483B000AFB5
:1054100078607B685B6843F400727B685A6000BF09
:105420000C37BD465DF8047B7047000080B400AFC8
:10543000054B1B68044A43F48033136000BFBD462C
:105440005DF8047B704700BF0038024080B400AFB5
:10545000074B1B6803F40033B3F5003F0CBF012377
:105460000023DBB21846BD465DF8047B704700BFE1
:105470000038024080B483B000AF7860064B9B6870
:1054800023F0030204497B6813438B6000BF0C3791
:10549000BD465DF8047B70470038024080B400AF21
:1054A000044B9B6803F00C031846BD465DF8047B73
:1054B000704700BF0038024080B483B000AF78600E
:1054C000064B9B6823F0F00204497B6813438B6012
:1054D00000BF0C37BD465DF8047B704700380240C2
:1054E00080B483B000AF7860064B9B6823F4E05231
:1054F00004497B6813438B6000BF0C37BD465DF8E1
:10550000047B70470038024080B483B000AF7860FD
:10551000064B9B6823F4604204497B6813438B600D
:1055200000BF0C37BD465DF8047B70470038024071
:1055300080B485B000AF7860084B1A6B07497B6870
:1055400013430B63054B1A6B7B681340FB60FB68CE
:1055500000BF1437BD465DF8047B70470038024039
:1055600080B485B000AF7860084B1A6C07497B683F
:1055700013430B64054B1A6C7B681340FB60FB689C
:1055800000BF1437BD465DF8047B70470038024009
:1055900080B485B000AF7860084B5A6C07497B68CF
:1055A00013434B64054B5A6C7B681340FB60FB68EC
:1055B00000BF1437BD465DF8047B704700380240D9
:1055C00080B483B000AF7860064B1B6823F00702FD
:1055D00004497B6813430B6000BF0C37BD465DF880
:1055E000047B7047003C024080B400AF044B1B6852
:1055F00003F007031846BD465DF8047B704700BF03
:10560000003C024080B483B000AF7860064B1B685A
:1056100023F4804204497B6813430B6000BF0C37BE
:10562000BD465DF8047B70470070004080B483B0D5
:1056300000AF78607B681B6843F040027B681A60AB
:1056400000BF0C37BD465DF8047B704780B483B063
:1056500000AF786039607B685B6823F010023B68BC
:105660001A437B685A6000BF0C37BD465DF8047B67
:10567000704780B485B000AF78600B46FB707B68E4
:105680000C33FB60FB68FA781A7000BF1437BD4614
:105690005DF8047B704780B483B000AF78607B68AE
:1056A0001B6823F080027B681A6000BF0C37BD4680
:1056B0005DF8047B7047000080B485B000AF78606F
:1056C00039603B68012B1CD03B68042B17D03B682A
:1056D000102B12D03B68402B0DD03B68B3F5807F78
:1056E00007D03B68B3F5806F01D105230AE006239C
:1056F00008E0042306E0032304E0022302E0012380
:1057000000E00023FB737B6818331946FB7B0B4AD0
:10571000D35C0B44BB60BB681A68FB7B0849CB5C5D
:10572000194604238B40DB431A40BB681A6000BF54
:105730001437BD465DF8047B704700BFC0CF00083A
:10574000C8CF000880B485B000AF786039603B688E
:10575000012B1CD03B68042B17D03B68102B12D0B8
:105760003B68402B0DD03B68B3F5807F07D03B688A
:10577000B3F5806F01D105230AE0062308E0042376
:1057800006E0032304E0022302E0012300E00023FB
:10579000FB737B6818331946FB7B0A4AD35C0B44C6
:1057A000BB60BB681A68FB7B0749CB5C19460823C2
:1057B0008B401A43BB681A6000BF1437BD465DF8C2
:1057C000047B7047C0CF0008C8CF000880B483B006
:1057D00000AF786039607B689B6823F4804323F0D6
:1057E00007033A681A437B689A6000BF0C37BD46CE
:1057F0005DF8047B704780B483B000AF7860396097
:105800007B685B6823F070023B681A437B685A60D0
:1058100000BF0C37BD465DF8047B704780B483B091
:1058200000AF78607B689B6823F080027B689A6099
:1058300000BF0C37BD465DF8047B704780B483B071
:1058400000AF78607B68DB6843F400527B68DA6005
:1058500000BF0C37BD465DF8047B704780B483B051
:1058600000AF78607B681B6923F490427B681A6103
:105870007B685B6923F02A027B685A6100BF0C37A2
:10588000BD465DF8047B704780B483B000AF78609C
:1058900039607B683A689A6100BF0C37BD465DF895
:1058A000047B704780B483B000AF786039603B6898
:1058B0001A047B689A6100BF0C37BD465DF8047B13
:1058C0007047000080B500AF01F044FE00F068F8BA
:1058D00000F0BAFD00F0A0FD00F0BAFA00F098F870
:1058E00000F098FB00F02EFC00F034FA00F03CFBD6
:1058F00000F004FB00F030FD00F0ACF900F052FCC9
:1059000000F0CAFC00F0F8F901F0DCFDFFF78CF9BB
:105910001E48FBF70DFFFFF7D7F805F081FA01F0FD
:10592000DDFDFFF799FAFDF761FB01F0C7FAFDF71E
:105930006BFFFEF7F3F805F09DFBFBF751FA1448F7
:10594000FBF7DAF804211348FFF79EFF10211148F6
:10595000FFF79AFF20211048FFF7A4FF0F210F48FF
:10596000FFF787FE0F210D48FFF783FE0F210B483D
:10597000FFF77FFE0F210948FFF77BFE2021064835
:10598000FFF782FF05F07CFBFCE700BF0010014041
:105990000058004000040240000C0240003C00405F
:1059A00080B500AF0020FFF70BFE00BFFFF71CFE25
:1059B0000346002BFAD14FF48040FFF723FEFFF798
:1059C00035FD00BFFFF742FD0346012BFAD1002051
:1059D000FFF772FD0020FFF783FD0020FFF794FD25
:1059E0000120FFF747FD00BFFFF758FD0346042BDA
:1059F000FAD1064805F004FA0F2001F0CDFD034668
:105A0000002B01D000F0F0FD00BF80BD00127A0035
:105A100080B592B000AF07F13C0300221A605A60D3
:105A20009A6007F1280300221A605A609A60DA60CF
:105A30001A6107F1180300221A605A609A60DA604E
:105A40003B4600221A605A609A60DA601A615A6115
:105A50004FF48070FFF79CFD0420FFF769FD0120E3
:105A6000FFF766FD0220FFF763FD3F233B60032342
:105A70007B6000233B613B461946694803F0C5FF44
:105A800010233B6003237B6000233B613B461946A8
:105A9000644803F0BAFF03233B6003237B600023C9
:105AA0003B613B461946604803F0AFFF00220021EE
:105AB0005E48FFF713FC002200215C48FFF712FB51
:105AC0004FF4803200215948FFF7E4FB4FF4807215
:105AD00000215648FFF72AFB002200215348FFF718
