:020000040800F2
:1080000000000220D9F4000885F300088DF3000871
:1080100095F300089DF30008A5F300080000000098
:10802000000000000000000000000000ADF30008A8
:10803000BBF3000800000000C9F30008D9F30008F2
:1080400029F5000829F5000829F5000829F5000898
:1080500029F5000829F5000829F5000829F5000888
:1080600029F5000829F5000829F5000829F5000878
:1080700029F5000829F5000829F5000829F5000868
:1080800029F5000829F5000829F5000829F5000858
:1080900029F5000829F5000829F5000829F5000848
:1080A00029F5000829F5000829F5000829F5000838
:1080B00029F5000829F5000829F5000829F5000828
:1080C00029F50008F9F3000805F4000829F500086F
:1080D00029F5000811F4000829F5000829F5000821
:1080E00029F5000829F5000829F5000829F50008F8
:1080F00029F5000829F5000829F5000829F50008E8
:1081000029F5000829F5000829F5000829F50008D7
:1081100029F5000829F5000829F5000829F50008C7
:1081200025F4000829F5000829F5000829F50008BC
:1081300029F5000829F5000829F5000829F50008A7
:1081400029F5000829F5000829F5000829F5000897
:1081500029F5000829F5000829F5000835F400087C
:1081600029F5000829F5000829F5000829F5000877
:1081700029F5000829F5000829F50008000000008D
:0881800029F5000829F50008AB
:1081900010B5054C237833B9044B13B10448AFF341
:1081A00000800123237010BD0C240020000000007B
:1081B000DC34010808B5034B1BB103490348AFF396
:1081C000008008BD0000000010240020DC340108FD
:1081D00010F8012B11F8013B012A28BF9A42F7D071
:1081E000D01A7047034613F8012B002AFBD1181A46
:1081F000013870470000000000000000000000008F
:1082000001F0FF01102A2BDB10F0070F08D010F847
:10821000013B013A8B422DD010F0070F42B3F6D14B
:10822000F0B441EA012141EA014122F007047FF064
:1082300000070023F0E80256083C85EA010586EABB
:10824000010685FA47F5A3FA87F586FA47F6A5FAF7
:1082500087F68EB9EED1F0BC01F0FF0102F0070203
:1082600032B110F8013B013A83EA010313B1F8D1AE
:108270000020704701387047002D06BF354603388F
:10828000073815F0010F07D1013015F4807F02BFC8
:10829000013015F4C03F0130F0BC0138704700BF19
:1082A0007BB972B90029BEBF00204FF0004106E043
:1082B00008BF00281CBF6FF000414FF0FF3000F0F6
:1082C000D3B9ADF1080C6DE904CE002909DB002B10
:1082D0001ADB00F04DF8DDF804E0DDE9022304B01C
:1082E0007047404261EB4101002B1BDB00F040F87E
:1082F000DDF804E0DDE9022304B0404261EB410116
:10830000524263EB43037047524263EB430300F076
:108310002FF8DDF804E0DDE9022304B0404261EB10
:1083200041017047524263EB430300F021F8DDF84E
:1083300004E0DDE9022304B0524263EB43037047DB
:1083400053B94AB9002908BF00281CBF4FF0FF31BC
:108350004FF0FF3000F088B9ADF1080C6DE904CEA4
:1083600000F006F8DDF804E0DDE9022304B0704710
:108370002DE9F047089D8E4604468846002B4AD1D9
:108380008A42174662D9B2FA82F64EB1C6F120038C
:1083900001FA06F820FA03F3B74043EA0808B440AC
:1083A0004FEA174E1FFA87FCB8FBFEF1230C0EFBB9
:1083B000118843EA084301FB0CF29A4209D9FB18E1
:1083C00001F1FF3080F0EA809A4240F2E780023902
:1083D0003B449A1AA3B2B2FBFEF00EFB102243EA12
:1083E000024300FB0CFC9C4509D9FB1800F1FF324D
:1083F00080F0D6809C4540F2D3803B44023840EA6E
:108400000140A3EB0C0300211DB1F3400022C5E99C
:108410000032BDE8F0878B4205D90DB1C5E90001F6
:1084200000210846F5E7B3FA83F1002946D17345E8
:1084300002D3824200F20581841A6EEB030201200E
:108440009046002DE5D0C5E90048E2E7002A00F09B
:108450009080B2FA82F6002E40F0A4808A1A030CB3
:108460004FEA174E80B2BCB20121B2FBFEFC0EFBFC
:108470001C2243EA024304FB0CF29A4207D9FB1880
:108480000CF1FF3802D29A4200F2E080C4469B1AF7
:10849000B3FBFEF20EFB123340EA034302FB04F48B
:1084A0009C4207D9FB1802F1FF3002D29C4200F235
:1084B000CA8002461B1B42EA0C40A5E7C1F1200618
:1084C0008B4022FA06F71F430EFA01F420FA06F356
:1084D0002EFA06FE4FEA1749234300FA01F81FFA65
:1084E00087FCBEFBF9F01C0C09FB10EE44EA0E44BD
:1084F00000FB0CFEA64502FA01F209D93C1900F175
:10850000FF3A80F09C80A64540F2998002383C44B6
:10851000A4EB0E041FFA83FEB4FBF9F309FB13442A
:108520004EEA044403FB0CFCA44508D93C1903F1B2
:10853000FF3E80F08280A4457FD9023B3C4443EA61
:108540000040A4EB0C04A0FB02EC64457346E1463A
:1085500062D35FD05DB1B8EB030264EB090404FAA7
:1085600006F622FA01F31E43CC40C5E9006400215F
:108570004FE7B1FBF2FC010C41EA0E4180B240EA48
:1085800001423B4638463C46B846BE462026B1FB33
:10859000F7F1A2EB080241EA0C4166E7014618E751
:1085A00010462CE7C6F120022EFA02F3B740B14084
:1085B00020FA02F24FEA174E0A43B3FBFEF8BCB2B0
:1085C0000EFB1833110C41EA034108FB04F9B040DB
:1085D00089454FEA104380B23ED9791808F1FF3C33
:1085E00001D289451FD8A1EB0901B1FBFEF909FBB6
:1085F00004F80EFB191192B242EA0142424529D217
:10860000BA1809F1FF31C4D24245C2D2A9F1020120
:108610003A44BEE7F0459DD2BEEB02036CEB070C7B
:108620000138E14696E7A7EB09094944A8F1020C95
:10863000B1FBFEF909FB04F8DBE773467FE7504620
:1086400066E70846FDE63B44023A33E7ACF1020C2C
:108650003B441CE749469CE7A1EB0901C446B1FB3A
:10866000FEF909FB04F8C4E7704700BF80B400AF0F
:10867000074B1B6803F48033B3F5803F0CBF012325
:108680000023DBB21846BD465DF8047B704700BF8F
:1086900010E000E080B584B000AF0346FB71FB79C9
:1086A0000C4A12680C49A1FB0212920C02FB03F364
:1086B000FB6007E0FFF7DAFF0346002B02D0FB6800
:1086C000013BFB60FB68002BF4D100BF00BF1037FB
:1086D000BD4680BD3023002083DE1B4380B483B0C1
:1086E00000AF78607B681B6843F001027B681A600A
:1086F00000BF0C37BD465DF8047B704780B483B083
:1087000000AF78607B681B6823F001027B681A6009
:1087100000BF0C37BD465DF8047B704780B483B062
:1087200000AF78607B681B6823F080027B681A606A
:1087300000BF0C37BD465DF8047B704780B483B042
:1087400000AF78607B681B6823F040027B681A608A
:1087500000BF0C37BD465DF8047B704780B483B022
:1087600000AF78607B68DB6823F001027B68DA6029
:1087700000BF0C37BD465DF8047B704780B483B002
:1087800000AF78607B685B6843F400727B685A6076
:1087900000BF0C37BD465DF8047B704780B483B0E2
:1087A00000AF78607B685B6843F480627B685A60E6
:1087B00000BF0C37BD465DF8047B704780B483B0C2
:1087C00000AF78607B685B6823F480627B685A60E6
:1087D00000BF0C37BD465DF8047B704780B483B0A2
:1087E00000AF78607B685B6843F480727B685A6096
:1087F00000BF0C37BD465DF8047B704780B483B082
:1088000000AF78607B685B6903F08003802B0CBF4E
:1088100001230023DBB218460C37BD465DF8047B0C
:10882000704780B483B000AF78607B685B6903F009
:108830004003402B0CBF01230023DBB218460C374A
:10884000BD465DF8047B704780B483B000AF7860AC
:108850007B685B6903F00203022B0CBF012300233A
:10886000DBB218460C37BD465DF8047B704780B418
:1088700083B000AF78607B685B6903F48063B3F515
:10888000806F0CBF01230023DBB218460C37BD46B6
:108890005DF8047B704780B483B000AF78607B687C
:1088A0005B6903F01003102B0CBF01230023DBB224
:1088B00018460C37BD465DF8047B704780B483B022
:1088C00000AF78607B685B6903F48073B3F5807FE9
:1088D0000CBF01230023DBB218460C37BD465DF800
:1088E000047B704780B483B000AF78607B685B69BD
:1088F00003F40073B3F5007F0CBF01230023DBB248
:1089000018460C37BD465DF8047B704780B483B0D1
:1089100000AF78607B685B6903F40063B3F5006FB8
:108920000CBF01230023DBB218460C37BD465DF8AF
:10893000047B704780B485B000AF78607B685B696A
:10894000FB60FB687B689B69FB60FB6800BF1437BA
:10895000BD465DF8047B704780B483B000AF78609B
:108960007B685B6923F480627B685A6100BF0C37C7
:10897000BD465DF8047B704780B485B000AF786079
:108980007B685B69FB60FB687B681B6843F00102E6
:108990007B681A6000BF1437BD465DF8047B7047E2
:1089A00080B483B000AF78607B685B6923F4807229
:1089B0007B685A6100BF0C37BD465DF8047B704789
:1089C00080B483B000AF78607B685B6923F4007289
:1089D0007B685A6100BF0C37BD465DF8047B704769
:1089E00080B483B000AF78607B685B6923F4006279
:1089F0007B685A6100BF0C37BD465DF8047B704749
:108A000080B483B000AF78607B689B6903F0040397
:108A100018460C37BD465DF8047B704780B483B0C0
:108A200000AF78607B681B69DBB218460C37BD4627
:108A30005DF8047B704780B483B000AF78600B466C
:108A4000FB707B681B6923F0FF02FB781A437B688D
:108A50001A6100BF0C37BD465DF8047B704700000B
:108A600080B586B000AF244B9B681846FFF746FEE2
:108A7000214B9B68184608F0F5FD1F4B9B68184674
:108A8000FFF74CFE1C4B9B681846FFF757FE1A4B2E
:108A90009B681846FFF762FE3B4600221A605A6048
:108AA0009A60DA601A615A6100233B60134B7B6065
:108AB0000023BB602423FB604FF480633B614FF4D1
:108AC00080437B610C4B9B683A461146184608F080
:108AD00003FE094B9B681846FFF750FE064B9B6848
:108AE0001846FFF77BFE044B9B681846FFF7F6FD20
:108AF00000BF1837BD4680BD28250020A086010094
:108B000080B400AF0A4B00225A71094B4FF0FF327C
:108B10001A60074B00221A71054B00229A71044B10
:108B20000022DA7100BFBD465DF8047B704700BFCC
:108B30002825002080B582B000AF7860094A7B68A4
:108B40009360094B00221A70FFF7DAFF4FF480722E
:108B5000002106480AF03CF8002318460837BD46B5
:108B600080BD00BF282500203425002028240020B7
:108B700080B596B000AF784B01221A70774B9B6896
:108B80001846FFF761FE0346002B1AD0734B9B6813
:108B90001846FFF7CFFE714B9B681846FFF730FF72
:108BA0000346042B08D16D4B00221A716B4B9B6856
:108BB0001846FFF7F3FD04E0684B9B681846FFF783
:108BC000EDFD664B9B681846FFF718FE0346002B29
:108BD00052D0002387F85730604B1B6807F13800EC
:108BE0005F4A1E2109F0BEFF07F1380319465D48B0
:108BF00000F0D8FB594B1B6807F138005A4A1E2178
:108C000009F0B0FF07F138031946564800F0CAFBD7
:108C1000524B1A68554913465B0013440B44023308
:108C20001B7887F8573097F8573007F13800504ACB
:108C30001E2109F097FF07F138031946494800F053
:108C4000B1FB97F8573007F138004A4A1E2109F066
:108C500089FF07F138031946424800F0A3FB3F4B58
:108C60009B6897F8572011461846FFF7E4FE3B4BE8
:108C70009B681846FFF7A2FD384B9B681846FFF724
:108C8000D0FD0346002B4AD0344B9B681846FFF7B3
:108C9000C5FE034687F85630304B1B79DBB2002BFC
:108CA0001FD12E4A97F85630537197F85630381D19
:108CB000314A322109F056FF3B1D1946294800F080
:108CC00071FB264B01221A71244B1B68381D2B4A5D
:108CD000322109F047FF3B1D1946224800F062FB94
:108CE0001DE01E4B1A68214913465B0013440B44D8
:108CF00001331B78032B0AD1184B1A681B49134602
:108D00005B0013440B44023397F856201A70134B40
:108D100000221A71114B9B681846FFF74FFD0F4B4D
:108D20009B681846FFF7B7FD0346002B0FD00B4B8F
:108D30009B681846FFF720FE084B00221A71074B6C
:108D40009B681846FFF73AFD034B00221A7000BFDC
:108D50005837BD4680BD00BF34250020282500209F
:108D6000F4340108001001401035010838250020B6
:108D700024350108403501085835010868350108D7
:108D800080B500AF2149224800F00CFB214B0022A6
:108D90001A70214B9B681846FFF790FD0346002B85
:108DA00004D01D4B9B681846FFF7FAFD1A4B9B68D1
:108DB0001846FFF797FD0346002B04D0164B9B681F
:108DC0001846FFF7FDFD144B9B681846FFF74FFD53
:108DD0000346002B04D0104B9B681846FFF7BCFDE0
:108DE0000D4B9B681846FFF791FD0346002B04D0FE
:108DF000094B9B681846FFF7F3FDFFF731FE064B62
:108E00009B681846FFF796FE00BF80BD7C350108C1
:108E100000100140342500202825002080B483B0B4
:108E200000AF03463960FB7197F90730002B0ADB6E
:108E30003B68DAB20C4997F907301201D2B20B4401
:108E400083F800230AE03B68DAB20849FB7903F0B3
:108E50000F03043B1201D2B20B441A7600BF0C3749
:108E6000BD465DF8047B704700E100E000ED00E0E6
:108E700080B582B000AF78607B68013BB3F1807F42
:108E800001D301230FE00A4A7B68013B53600F21A5
:108E90004FF0FF30FFF7C2FF054B00229A60044BF2
:108EA00007221A60002318460837BD4680BD00BF60
:108EB00010E000E080B400AF054B1B68044A43F0AB
:108EC0000103136000BFBD465DF8047B704700BF1F
:108ED00010E000E080B500AF054B1B68054AA2FB1F
:108EE00003239B091846FFF7C3FF00BF80BD00BFE7
:108EF00030230020D34D621080B483B000AF78607F
:108F00007B681B6803F00203022B0CBF01230023C4
:108F1000DBB218460C37BD465DF8047B704780B461
:108F200083B000AF78607B681B6803F00403042BF8
:108F30000CBF01230023DBB218460C37BD465DF899
:108F4000047B704780B483B000AF78607B681B6897
:108F500003F00803082B0CBF01230023DBB21846E3
:108F60000C37BD465DF8047B704780B483B000AF1A
:108F700078607B681B6803F02003202B0CBF012363
:108F80000023DBB218460C37BD465DF8047B704702
:108F900080B483B000AF78607B681B6803F0800307
:108FA000802B0CBF01230023DBB218460C37BD46D3
:108FB0005DF8047B704780B485B000AF78607B6853
:108FC0001B68FB60FB687B685B68FB60FB6800BF3D
:108FD0001437BD465DF8047B704780B485B000AFA0
:108FE00078607B681B68FB60FB687B685B68FB6084
:108FF000FB6800BF1437BD465DF8047B704780B442
:1090000085B000AF78607B681B68FB60FB687B689D
:109010005B68FB60FB6800BF1437BD465DF8047BEE
:10902000704780B489B000AF78607B680C33FB6018
:10903000FB6853E8003FBB60BB6843F02003FB6163
:109040007B680C33FA69BA617B617969BA6941E876
:1090500000233B613B69002BE7D100BF00BF2437F1
:10906000BD465DF8047B704780B489B000AF78607E
:109070007B680C33FB60FB6853E8003FBB60BB6858
:1090800043F08003FB617B680C33FA69BA617B6152
:109090007969BA6941E800233B613B69002BE7D15C
:1090A00000BF00BF2437BD465DF8047B704780B425
:1090B00089B000AF78607B680C33FB60FB6853E8D5
:1090C000003FBB60BB6823F02003FB617B680C336F
:1090D000FA69BA617B617969BA6941E800233B6149
:1090E0003B69002BE7D100BF00BF2437BD465DF8C8
:1090F000047B704780B489B000AF78607B680C3324
:10910000FB60FB6853E8003FBB60BB6823F0800353
:10911000FB617B680C33FA69BA617B617969BA6972
:1091200041E800233B613B69002BE7D100BF00BF52
:109130002437BD465DF8047B704780B483B000AF30
:1091400078607B68DB6803F02003202B0CBF0123D1
:109150000023DBB218460C37BD465DF8047B704730
:1091600080B483B000AF78607B68DB6803F0800375
:10917000802B0CBF01230023DBB218460C37BD4601
:109180005DF8047B704780B483B000AF78607B6883
:109190005B68DBB218460C37BD465DF8047B704750
:1091A00080B483B000AF78600B46FB70FA787B68C0
:1091B0005A6000BF0C37BD465DF8047B7047000065
:1091C00080B485B000AF78600023FB6015E01049E3
:1091D000FA681346DB0013449B000B441B687A6853
:1091E0009A4207D1FA681346DB0013449B00084AF1
:1091F000134406E0FB680133FB60FB68012BE6DDEE
:10920000002318461437BD465DF8047B704700BF45
:109210000000002080B586B000AF0346B9607A60D8
:10922000FB73BB685B680133BA68D268B3FBF2F1C9
:1092300001FB02F29B1A7B61BB689A687B699A42C8
:109240000FD07868FFF733FFBB681A68BB685B68AC
:109250001344FA7B1A707A69BB685A607868FFF722
:10926000E0FE00BF1837BD4680BD80B586B000AFB8
:1092700078607868FFF7A4FF78617B69002B02D1E2
:109280004FF0FF3325E07B6904333B613B695A684B
:109290003B699B689A4202D14FF0FF3319E078682E
:1092A000FFF705FF3B691A683B699B6813441B780D
:1092B000FB733B699B6801333A69D268B3FBF2F1F7
:1092C00001FB02F29A1A3B699A607868FFF7A9FEDF
:1092D000FB7B18461837BD4680BD80B586B000AF11
:1092E000786039607868FFF76BFF78617B69002BE5
:1092F0002BD03B68002B28DB7B6914333B613B6937
:109300005B6801333A69D268B3FBF2F101FB02F208
:109310009B1AFB607868FFF7CAFE00BF3B699A683A
:10932000FB689A42FAD03B691A683B695B68134450
:109330003A68D2B21A70FA683B695A607868FFF7E7
:1093400070FE7868FFF790FE00E000BF1837BD465A
:1093500080BD80B584B000AF78607868FFF730FFDB
:10936000F860FB68002B01D1002317E0FB68043391
:10937000BB60BB68DB689AB2BB685B689BB2134496
:109380009AB2BB689B689BB2D31A9BB21A46BB6861
:10939000DB68B2FBF3F101FB03F3D31A1846103775
:1093A000BD4680BD80B582B000AF7860396007E00F
:1093B0003B685A1C3A601B7819467868FFF78DFFA6
:1093C0003B681B78002BF3D100BF00BF0837BD46B8
:1093D00080BD80B584B000AF78607868FFF7F0FE9C
:1093E000F860FB68002B11D0FB680433BB60BB68DE
:1093F0001868BB68DB681A46002109F0E9FBBB6806
:1094000000225A60BB6800229A6000E000BF10375B
:10941000BD4680BD80B586B000AF78607868FFF744
:10942000CFFE78617B69002B68D07B6904333B6198
:109430007B691433FB607868FFF797FD0346002BC8
:109440002DD07868FFF779FE0346002B27D0786887
:10945000FFF799FE0346FB727868FFF773FD03463A
:10946000002B0BD17868FFF747FD0346002B05D191
:109470007868FFF754FD0346002B09D07868FFF7A2
:10948000BEFD7868FFF797FD7868FFF7A6FD36E028
:10949000FB7A7A6839691846FFF7BCFE2FE07868D6
:1094A000FFF776FD0346002B29D07868FFF758FEBA
:1094B0000346002B23D0FB685A68FB689B689A42DE
:1094C00003D17868FFF716FE19E0FB681A68FB689D
:1094D0009B6813441B78BB72FB689B680133FA6876
:1094E000D268B3FBF2F101FB02F29A1AFB689A60B0
:1094F000BB7A19467868FFF753FE00E000BF1837C3
:10950000BD4680BD80B586B000AF78600123FB7397
:1095100000233B617B687B611FE07B691B78202B0C
:1095200005D17B6900221A700123FB7312E0FB7BDB
:10953000002B0FD03B69072B0AD81E493B697A697B
:1095400041F823203B6901333B610023FB7301E0B9
:1095500002232BE07B6901337B617B691B78002B45
:10956000DBD13B69002B20D03B6901333B61124BBF
:10957000BB6016E00F4B1A68BB681B6819461046A3
:10958000FEF726FE0346002B08D1BB685B683A69EC
:109590000849104698470346DBB207E0BB680C3326
:1095A000BB60BB681B68002BE4D101231846183749
:1095B000BD4680BD383200206000002080B400AF7E
:1095C000BFF34F8F00BF064BDB6803F4E062044932
:1095D000044B1343CB60BFF34F8F00BF00BFFDE7C9
:1095E00000ED00E00400FA0580B483B000AF7860BD
:1095F00039607B683A689A6100BF0C37BD465DF8F8
:10960000047B704780B483B000AF786039603B68FA
:109610001A047B689A6100BF0C37BD465DF8047B75
:109620007047000080B483B000AF7860054B5A6A81
:1096300004497B6813434B6200BF0C37BD465DF89D
:10964000047B70470038024080B483B000AF78607C
:10965000064B5A6A7B68DB43044913404B6200BFE8
:109660000C37BD465DF8047B704700BF00380240F0
:1096700080B58AB000AF7860144A7B6813604022DE
:109680000021134809F0A4FA124B00221A700F4B64
:109690001B6811491846FFF785FE0C4B1B681846DE
:1096A000FFF797FE07F108000C4B0D4A1E2109F049
:1096B00059FA064B1B6807F1080211461846FFF7D6
:1096C00071FE00BF2837BD4680BD00BFA434002016
:1096D000A8340020E8340020A4400108C04001085C
:1096E000C840010880B582B000AF144B1B68184613
:1096F000FFF72FFE0346002B1CD0104B1B681846AB
:10970000FFF7B3FD0346FB71FB791B2B06D10B4B17
:109710001B680B491846FFF745FE06E0074B1B6820
:10972000FA7911461846FFF7D8FDFB790549184626
:1097300000F00AF800BF0837BD4680BDA434002001
:10974000D84001085C32002080B5BCB002AF0346AF
:109750003960FB71FB791B2B32D107F1DC0300224E
:109760001A609A8007F1DC03184602F043FC97F870
:10977000DF30194697F8E03097F8E12007F1BC0098
:10978000019200930B46B94A1E2109F0EBF907F14B
:10979000BC0307F10800B64A0092B64A3C2109F022
:1097A000E1F9B54B1B6807F1080211461846FFF7AF
:1097B000F9FD3B680022A3F840203B6800221A70A4
:1097C000FB792D2B6BD107F1B40300221A609A802C
:1097D00007F1B403184602F00DFC97F8B7301946AC
:1097E00097F8B83097F8B92007F1940001920093E8
:1097F0000B469E4A1E2109F0B5F93B68B3F8443286
:10980000002B07D03B68B3F84432013B9AB23B6867
:10981000A3F844223B68B3F844223B68B3F84232D1
:109820009A4215D238683B68B3F8443201339B0141
:109830003A6813440233194609F0FEF93B681846AA
:10984000FEF7D0FC03469AB23B68A3F8402006E03E
:109850003B6800221A703B680022A3F84020864B28
:109860001B6886491846FFF79DFD07F1940307F131
:1098700008007F4A0092824A3C2109F073F97E4B2E
:109880001B6807F1080211461846FFF78BFD7A4B5B
:109890001B683A6811461846FFF784FDC8E1FB795A
:1098A0003D2B6ED107F18C0300221A609A8007F1DC
:1098B0008C03184602F09EFB97F88F30194697F8F4
:1098C000903097F8912007F16C00019200930B46BD
:1098D000664A1E2109F046F93B68B3F844223B680A
:1098E000B3F842329A4207D23B68B3F844320133AC
:1098F0009AB23B68A3F844223B68B3F844223B6821
:10990000B3F842329A4215D238683B68B3F8443211
:1099100001339B013A6813440233194609F08CF96C
:109920003B681846FEF75EFC03469AB23B68A3F814
:10993000402006E03B6800221A703B680022A3F832
:1099400040204D4B1B684D491846FFF72BFD07F192
:109950006C0307F10800464A0092494A3C2109F08D
:1099600001F9454B1B6807F1080211461846FFF73D
:1099700019FD414B1B683A6811461846FFF712FD66
:1099800056E1FB791F2B02D9FB797E2B06D9FB7997
:109990000D2B03D0FB797F2B40F04A81FB792D2BD7
:1099A00000F04681FB793D2B00F04281FB795C2B76
:1099B00000F03E8107F1640300221A609A8007F1EB
:1099C0006403184602F016FB97F86730194697F8BB
:1099D000683097F8692007F14400019200930B4624
:1099E000224A1E2109F0BEF8FB790D2B40F0C980F8
:1099F0003B68B3F84030002B00F0AE803B68B3F812
:109A000040301A463B68002199543B68B3F8423213
:109A1000002B10D03B68B3F84232013B01339B016D
:109A20003A68134402333A6811461846FEF7D0FBF1
:109A30000346002B4DD03B68B3F84232072B21D8A8
:109A40003B68B3F8423201339B013A681344023356
:109A50003A681146184609F0EFF83B68B3F842320D
:109A600001339AB23B68A3F8422232E0E040010899
:109A7000C0400108F4400108A4340020004101085E
:109A8000084101080023C7F8E43016E0D7F8E430B5
:109A900001339B013A681344981CD7F8E430013332
:109AA00001339B013A6813440233194609F0C4F8A4
:109AB000D7F8E4300133C7F8E430D7F8E430062BA8
:109AC000E4DD3B6803F202233A681146184609F0C8
:109AD000B3F83B68B3F842223B68A3F844223B68E2
:109AE0001846FFF70FFD034687F8E33097F9E33098
:109AF000062B00F09D8007F108034F4A3C211846D1
:109B000009F030F84D4B1B6807F108021146184662
:109B1000FFF748FC494B1A6897F9E330484951F878
:109B2000233019461046FFF73DFC07F1440307F1C7
:109B30000800444A0092444A3C2109F013F83F4B84
:109B40001B6807F1080211461846FFF72BFC3B681B
:109B50000022A3F840206BE000F07EF807F14403F8
:109B600007F10800374A0092384A3C2108F0FAFF12
:109B7000324B1B6807F1080211461846FFF712FC2A
:109B800056E0FB797F2B1BD13B68B3F84030002BAC
:109B90000FD03B68B3F84030013B9AB23B68A3F862
:109BA00040203B68B3F840301A463B680021995486
:109BB0003EE0224B1B6826491846FFF7F3FB37E0CF
:109BC0003B68B3F840303E2B13D83B68B3F84030C5
:109BD0005A1C91B23A68A2F8401019463B68FA79CB
:109BE0005A543B68B3F840301A463B6800219954F8
:109BF0001EE0124B1B6817491846FFF7D3FB07F10D
:109C0000440307F108000F4A0092104A3C2108F073
:109C1000A9FF0A4B1B6807F1080211461846FFF717
:109C2000C1FB3B680022A3F840203B6800221A7069
:109C3000E837BD4680BD00BF10410108A4340020B4
:109C400048000020C040010820410108F4400108FC
:109C5000284101082C41010880B400AF124B0022BA
:109C60001A60124B00221A70114B00221A70114B0D
:109C700000221A60104B01221A70104B01221A7038
:109C80000F4B01221A700F4B00221A600E4B00225C
:109C90001A600E4B00221A700D4B00221A7000BF82
:109CA000BD465DF8047B7047EC340020F0340020A2
:109CB000F1340020F43400202C0200202D0200207A
:109CC0002E020020F8340020FC3400200135002052
:109CD0000035002080B5CCB004AF07F59073A3F534
:109CE0008E73186007F59073A3F59073196007F5EC
:109CF0009073A3F58E731B68022B01DD022363E0D2
:109D0000344B1B6834491846FFF74CFB334BC7F8FC
:109D10001C310023C7F8183116E0D7F81C311B6836
:109D20001846FEF75FFAC7F80C01D7F80C21D7F8F0
:109D300018319A4203D9D7F80C31C7F81831D7F83F
:109D40001C310C33C7F81C31D7F81C311B68002BB1
:109D5000E3D1224BC7F81C3130E0D7F81C311B6827
:109D60001846FEF73FFAC7F81401D7F81821D7F8BC
:109D70001431D31A0433C7F81031D7F81C311A68DC
:109D8000D7F81C319B6807F10C000293144B019328
:109D9000D7F8103100931346124A4FF4807108F03F
:109DA000E1FE0C4B1B6807F10C0211461846FFF749
:109DB000F9FAD7F81C310C33C7F81C31D7F81C312D
:109DC0001B68002BC9D10023184607F59077BD46C4
:109DD00080BD00BFA434002048410108600000207D
:109DE000704101086041010880B584B000AF78601F
:109DF000396072B600BF0023FB7310E0154AFB7B8D
:109E000020334FF0FF3142F82310124AFB7B6033BE
:109E10004FF0FF3142F82310FB7B0133FB73FB7BD8
:109E2000072BEBD91020FFF7FDFB1020FFF70CFCF0
:109E300006F002FC05F096FE074B00221A60064B66
:109E400000225A60044B00229A6062B600BFFFF7FE
:109E5000B5FB00BF00E100E010E000E080B582B09B
:109E600000AF78603960054B1B6805491846FFF75D
:109E700099FA002318460837BD4680BDA434002057
:109E80007441010880B584B000AF7860396072B663
:109E900000BF0023FB7310E0154AFB7B20334FF01B
:109EA000FF3142F82310124AFB7B60334FF0FF3141
:109EB00042F82310FB7B0133FB73FB7B072BEBD9B1
:109EC0001020FFF7AFFB1020FFF7BEFB06F0B4FB3E
:109ED00005F048FE074B00221A60064B00225A602C
:109EE000044B00229A6062B600BFFFF767FB00BF19
:109EF00000E100E010E000E080B582B000AF7860E3
:109F000039607B68022B01DC032317E07B68032B9D
:109F100001DD022312E03B6804331B68184608F099
:109F200099FD0346002B04D010210648FFF75CFB87
:109F300003E010210348FFF765FB002318460837AC
:109F4000BD4680BD000C024080B592B002AF786083
:109F500039607B68052B01DC03234BE07B68062B13
:109F600001DD022346E0002387F83F303DE097F80B
:109F70003F3001339B003A6813441B68184608F0D1
:109F800069FD024697F83F3012B25B0040333B4414
:109F900023F80C2C97F83F305B0040333B4433F9F7
:109FA0000C2C97F83F301146184605F01BFC97F82B
:109FB0003F2097F83F305B0040333B4433F90C3C83
:109FC00007F10C00009313460C4A282108F0CAFD43
:109FD0000B4B1B6807F10C0211461846FFF7E2F91C
:109FE00097F83F30013387F83F3097F83F30032B25
:109FF000BDD9002318464037BD4680BD8C410108BD
:10A00000A434002080B59AB002AF786039607B68D4
:10A01000022B01DD02235AE00023A7F85C30B7F9D8
:10A020005C3047F6FF72934206D12B4B1B682B49DD
:10A030001846FFF7B7F90FE0B7F95C3007F10C00ED
:10A04000274A502108F08EFD234B1B6807F10C02B4
:10A0500011461846FFF7A6F9224803F039F9002304
:10A0600087F85F302EE097F85F301E4A32F81330E1
:10A07000A7F85C30B7F95C3047F6FF72934208D11D
:10A0800097F85F3007F10C00174A502108F06AFD7D
:10A090000BE097F85F20B7F95C3007F10C000093F4
:10A0A0001346124A502108F05DFD0B4B1B6807F167
:10A0B0000C0211461846FFF775F997F85F30013327
:10A0C00087F85F3097F85F30072BCCD9002318460C
:10A0D0006037BD4680BD00BFA4340020A441010804
:10A0E000BC41010878350020D4410108EC41010849
:10A0F00080B594B002AF786039607B68022B01DDD7
:10A1000002232CE00023A7F84430002387F84730CF
:10A1100020E097F84730184605F07AFB0346A7F889
:10A12000443097F84720B7F9443007F1080000930E
:10A1300013460D4A3C2108F015FD0C4B1B6807F136
:10A14000080211461846FFF72DF997F847300133FA
:10A1500087F8473097F84730032BDAD900231846A1
:10A160004837BD4680BD00BF00420108A43400202E
:10A1700080B594B000AF786039607B68032B01DD57
:10A18000022397E00123BB64002387F84E307B68ED
:10A19000022B47D1002387F84F303DE097F84F302E
:10A1A000184602F085FC034687F84E300A2008F076
:10A1B00091FA97F94E30002B05D197F84F300021D6
:10A1C000184602F024FC07F1480297F84F300121AD
:10A1D000184602F07BFBBB6C002B08D197F84F3080
:10A1E00007F10C00354A3C2108F0BCFC07E097F869
:10A1F0004F3007F10C00324A3C2108F0B3FC314BE0
:10A200001B6807F10C0211461846FFF7CBF897F8C8
:10A210004F30013387F84F3097F84F30032BBDD9BB
:10A22000002347E07B68032B43D13B6804331B6862
:10A23000184608F00FFC034687F84D3097F84D306C
:10A24000184602F035FC034687F84E300A2008F025
:10A2500041FA97F94E30002B05D197F84D30002187
:10A26000184602F0D4FB07F1480297F84D3001215F
:10A27000184602F02BFBBB6C002B08D197F84D3031
:10A2800007F10C000D4A3C2108F06CFC07E097F840
:10A290004D3007F10C000A4A3C2108F063FC094BE1
:10A2A0001B6807F10C0211461846FFF77BF80023E4
:10A2B00000E0002318465037BD4680BD1842010813
:10A2C00034420108A434002090B59BB002AF7860FE
:10A2D00039607B68052B01DC032341E07B68062B9A
:10A2E00001DD02233CE0002387F85F3033E097F87C
:10A2F0005F3001339B003A6813441B68184608F02E
:10A30000A9FB03469AB297F85F301146184605F04C
:10A3100093FA97F85F4097F85F3001339B003A68F3
:10A3200013441B68184608F095FB034607F10C0020
:10A33000009323460C4A502108F014FC0B4B1B6879
:10A3400007F10C0211461846FFF72CF897F85F301A
:10A35000013387F85F3097F85F30032BC7D90023AC
:10A3600018466437BD4690BD4C420108A434002015
:10A3700090B59DB002AF786039607B68022B01DD3B
:10A38000022334E0002387F867302BE097F867401A
:10A3900097F86730184605F07BFA03461A466300C3
:10A3A00068333B4423F80C2C97F8672097F8673004
:10A3B0005B0068333B4433F80C3C07F10C0000931E
:10A3C00013460D4A502108F0CDFB0C4B1B6807F1DA
:10A3D0000C0211461846FEF7E5FF97F86730013387
:10A3E00087F8673097F86730032BCFD900231846DA
:10A3F0006C37BD4690BD00BF68420108A434002000
:10A4000080B584B000AF786039607B68052B01DCD3
:10A4100003233FE07B68062B01DD02233AE03B6823
:10A4200004331B68184608F015FB0346002B14BFC5
:10A4300001230023DBB2FB733B6808331B6818461B
:10A4400008F008FB0346002B14BF01230023DBB2F6
:10A45000BB733B680C331B68184608F0FBFA0346D5
:10A46000002B14BF01230023DBB27B733B68103346
:10A470001B68184608F0EEFA0346002B14BF0123B0
:10A480000023DBB23B733B7B7A7BB97BF87B05F027
:10A49000AFFA002318461037BD4680BD80B582B0A4
:10A4A00000AF786039607B68052B01DC03234DE049
:10A4B0007B68062B01DD022348E03B6804331B6800
:10A4C000184608F0C7FA0346002B04D001210020EB
:10A4D00002F09DFA03E00021002002F098FA3B68A8
:10A4E00008331B68184608F0B5FA0346002B04D061
:10A4F0000121012002F08BFA03E00021012002F08B
:10A5000086FA3B680C331B68184608F0A3FA03462A
:10A51000002B04D00121022002F079FA03E000218F
:10A52000022002F074FA3B6810331B68184608F0EA
:10A5300091FA0346002B04D00121032002F067FAB0
:10A5400003E00021032002F062FA002318460837D6
:10A55000BD4680BD80B596B002AF786039603B687B
:10A5600004331B68184608F075FA034687F84F3025
:10A5700007F1480297F84F300021184602F0A6F97B
:10A58000BB6C1A0CBB6C07F10C0000931346614ABC
:10A590003C2108F0E7FA604B1B6807F10C021146FA
:10A5A0001846FEF7FFFE07F1480297F84F300121E9
:10A5B000184602F08BF9BB6C1A0CBB6C07F10C004F
:10A5C00000931346554A3C2108F0CCFA524B1B68C5
:10A5D00007F10C0211461846FEF7E4FE07F14802A7
:10A5E00097F84F300221184602F070F9BB6C1A0C34
:10A5F000BB6C07F10C0000931346494A3C2108F05C
:10A60000B1FA454B1B6807F10C0211461846FEF7DC
:10A61000C9FE07F1480297F84F300321184602F0AF
:10A6200055F9BB6C1A0CBB6C07F10C000093134678
:10A630003C4A3C2108F096FA374B1B6807F10C02A4
:10A6400011461846FEF7AEFE07F1480297F84F3064
:10A650000421184602F03AF9BB6C1A0CBB6C07F1E6
:10A660000C0000931346304A3C2108F07BFA2A4B39
:10A670001B6807F10C0211461846FEF793FE07F11E
:10A68000480297F84F300521184602F01FF9BB6CBD
:10A6900007F10C00254A3C2108F064FA1E4B1B68A8
:10A6A00007F10C0211461846FEF77CFE07F148023E
:10A6B00097F84F300621184602F008F9BB6C07F1F5
:10A6C0000C001B4A3C2108F04DFA134B1B6807F1A4
:10A6D0000C0211461846FEF765FE07F1480297F88E
:10A6E0004F300721184602F0F1F8BB6C07F10C005F
:10A6F000104A3C2108F036FA074B1B6807F10C02A0
:10A7000011461846FEF74EFE002318465037BD4648
:10A7100080BD00BF88420108A4340020A442010883
:10A72000C0420108DC420108F84201081043010858
:10A73000284301084043010880B59AB002AF786011
:10A7400039607B68052B01DC032342E07B68062B24
:10A7500001DD02233DE0002387F85E3034E097F806
:10A760005E3001339B003A6813441B68184608F0BA
:10A7700071F9034687F85F3097F85F30642B02D990
:10A78000642387F85F3097F85F2097F85E301146B2
:10A79000184605F099F897F85E2097F85F3007F1B2
:10A7A0000C00009313460D4A502108F0DBF90C4BC6
:10A7B0001B6807F10C0211461846FEF7F3FD97F8E7
:10A7C0005E30013387F85E3097F85E30032BC6D9D0
:10A7D000002318466037BD4680BD00BF54430108C2
:10A7E000A434002080B59AB002AF786039607B68ED
:10A7F000022B01DD022329E0002387F85F3020E0EF
:10A8000097F85F30184605F087F8034687F85E3002
:10A8100097F85F2097F85E3007F10C00009313461D
:10A820000C4A502108F09EF90B4B1B6807F10C02F3
:10A8300011461846FEF7B6FD97F85F30013387F8EA
:10A840005F3097F85F30032BDAD900231846603762
:10A85000BD4680BD70430108A434002080B584B09B
:10A8600000AF786039607B68052B01DC03233FE093
:10A870007B68062B01DD02233AE03B6804331B684A
:10A88000184608F0E7F80346002B14BF0123002305
:10A89000DBB2FB733B6808331B68184608F0DAF834
:10A8A0000346002B14BF01230023DBB2BB733B68BC
:10A8B0000C331B68184608F0CDF80346002B14BF74
:10A8C00001230023DBB27B733B6810331B681846FF
:10A8D00008F0C0F80346002B14BF01230023DBB2AD
:10A8E0003B733B7B7A7BB97BF87B05F033F8002325
:10A8F00018461037BD4680BD80B5BAB002AF78604B
:10A9000039607B68052B01DC0323A8E07B68062BFC
:10A9100001DD0223A3E03B6804331B68184608F0FE
:10A9200099F80346002B14BF01230023DBB287F8FC
:10A93000DF303B6808331B68184608F08BF8034685
:10A94000A7F8DC303B680C331B68184608F082F827
:10A95000034687F8DB303B6810331B68184608F065
:10A9600079F80346A7F8D8300123C7F8D030002083
:10A9700002F09EF8034687F8D7300A2007F0AAFEB7
:10A9800097F8D730002B03D10021002002F03FF8C8
:10A9900007F1D0031A460121002001F097FFD7F8F4
:10A9A000D030002B33D1304B1B6830491846FEF7AE
:10A9B000F9FCB7F8DC301946002004F03DFF97F8A9
:10A9C000DB301946002004F07FFFB7F9D830194674
:10A9D000002004F007FFB7F8DC1097F8DB30B7F978
:10A9E000D82007F10800019200930B46204AC821A5
:10A9F00008F0B8F81C4B1B6807F10802114618460E
:10AA0000FEF7D0FC97F8DF30002B18D007E0164B8C
:10AA10001B6818491846FEF7C5FC00231FE0164BBB
:10AA200093F84C3043F00103DAB2134B83F84C2017
:10AA30000D4B1B6811491846FEF7B4FC0EE00E4B97
:10AA400093F84C3023F00103DAB20B4B83F84C201F
:10AA5000054B1B680A491846FEF7A4FC002318465C
:10AA6000E037BD4680BD00BFA43400208843010804
:10AA7000BC430108A44301085023002008440108F6
:10AA80002044010880B5BAB002AF786039607B68B5
:10AA9000052B01DC0323A8E07B68062B01DD0223E4
:10AAA000A3E03B6804331B68184607F0D3FF034656
:10AAB000002B14BF01230023DBB287F8DF303B6893
:10AAC00008331B68184607F0C5FF0346A7F8DC30BB
:10AAD0003B680C331B68184607F0BCFF034687F839
:10AAE000DB303B6810331B68184607F0B3FF0346A2
:10AAF000A7F8D8300123C7F8D030012001F0D8FFE3
:10AB0000034687F8D7300A2007F0E4FD97F8D730DE
:10AB1000002B03D10021012001F079FF07F1D003C0
:10AB20001A460121012001F0D1FED7F8D030002BC8
:10AB300033D1304B1B6830491846FEF733FCB7F869
:10AB4000DC301946012004F077FE97F8DB30194617
:10AB5000012004F0B9FEB7F9D8301946012004F0FD
:10AB600041FEB7F8DC1097F8DB30B7F9D82007F1D1
:10AB70000800019200930B46204AC82107F0F2FF1B
:10AB80001C4B1B6807F1080211461846FEF70AFC29
:10AB900097F8DF30002B18D007E0164B1B681849D8
:10ABA0001846FEF7FFFB00231FE0164B93F84C30CE
:10ABB00043F00203DAB2134B83F84C200D4B1B68B1
:10ABC00011491846FEF7EEFB0EE00E4B93F84C30A1
:10ABD00023F00203DAB20B4B83F84C20054B1B68C1
:10ABE0000A491846FEF7DEFB00231846E037BD464B
:10ABF00080BD00BFA434002034440108684401082B
:10AC00005044010850230020B4440108CC440108FA
:10AC100080B5BAB002AF786039607B68052B01DC83
:10AC20000323A8E07B68062B01DD0223A3E03B6839
:10AC300004331B68184607F00DFF0346002B14BFB2
:10AC400001230023DBB287F8DF303B6808331B6841
:10AC5000184607F0FFFE0346A7F8DC303B680C33CC
:10AC60001B68184607F0F6FE034687F8DB303B68A2
:10AC700010331B68184607F0EDFE0346A7F8D830DE
:10AC80000123C7F8D030022001F012FF034687F8F5
:10AC9000D7300A2007F01EFD97F8D730002B03D1DC
:10ACA0000021022001F0B3FE07F1D0031A46012172
:10ACB000022001F00BFED7F8D030002B33D1304BFF
:10ACC0001B6830491846FEF76DFBB7F8DC301946B3
:10ACD000022004F0B1FD97F8DB301946022004F0A1
:10ACE000F3FDB7F9D8301946022004F07BFDB7F820
:10ACF000DC1097F8DB30B7F9D82007F10800019293
:10AD000000930B46204AC82107F02CFF1C4B1B6800
:10AD100007F1080211461846FEF744FB97F8DF30AA
:10AD2000002B18D007E0164B1B6818491846FEF791
:10AD300039FB00231FE0164B93F84C3043F004031B
:10AD4000DAB2134B83F84C200D4B1B68114918469F
:10AD5000FEF728FB0EE00E4B93F84C3023F0040373
:10AD6000DAB20B4B83F84C20054B1B680A49184696
:10AD7000FEF718FB00231846E037BD4680BD00BF34
:10AD8000A4340020E044010814450108FC440108F3
:10AD900050230020604501087845010880B5BAB00D
:10ADA00002AF786039607B68052B01DC0323A8E0E3
:10ADB0007B68062B01DD0223A3E03B6804331B689C
:10ADC000184607F047FE0346002B14BF012300235B
:10ADD000DBB287F8DF303B6808331B68184607F0A2
:10ADE00039FE0346A7F8DC303B680C331B68184675
:10ADF00007F030FE034687F8DB303B6810331B68F2
:10AE0000184607F027FE0346A7F8D8300123C7F8F5
:10AE1000D030032001F04CFE034687F8D7300A20DB
:10AE200007F058FC97F8D730002B03D100210320FE
:10AE300001F0EDFD07F1D0031A460121032001F0D6
:10AE400045FDD7F8D030002B33D1304B1B6830494B
:10AE50001846FEF7A7FAB7F8DC301946032004F0CD
:10AE6000EBFC97F8DB301946032004F02DFDB7F911
:10AE7000D8301946032004F0B5FCB7F8DC1097F879
:10AE8000DB30B7F9D82007F10800019200930B4698
:10AE9000204AC82107F066FE1C4B1B6807F1080218
:10AEA00011461846FEF77EFA97F8DF30002B18D0CF
:10AEB00007E0164B1B6818491846FEF773FA002383
:10AEC0001FE0164B93F84C3043F00803DAB2134BF3
:10AED00083F84C200D4B1B6811491846FEF762FAA7
:10AEE0000EE00E4B93F84C3023F00803DAB20B4B14
:10AEF00083F84C20054B1B680A491846FEF752FAA6
:10AF000000231846E037BD4680BD00BFA4340020B2
:10AF10008C450108C0450108A845010850230020C0
:10AF20000C4601082446010880B598B000AF78604F
:10AF300039607B68052B01DC03232AE07B68062B44
:10AF400001DD022325E03B6804331B68184607F047
:10AF500081FD034687F85F3097F85F30642B02D994
:10AF6000642387F85F3097F85F30184601F0DCF80B
:10AF700097F85F3007F10C00084A502107F0F2FD06
:10AF8000074B1B6807F10C0211461846FEF70AFA38
:10AF9000002318466037BD4680BD00BF3846010813
:10AFA000A434002080B58EB000AF786039607B6833
:10AFB000022B01DD022315E001F0D6F8034687F8E5
:10AFC000373097F8373007F10C00084A282107F08E
:10AFD000C9FD074B1B6807F10C0211461846FEF726
:10AFE000E1F9002318463837BD4680BD4C460108BC
:10AFF000A434002080B483B000AF786039600023AF
:10B0000018460C37BD465DF8047B704780B483B0AA
:10B0100000AF78603960002318460C37BD465DF8F4
:10B02000047B704780B592B000AF786039607B6870
:10B03000032B01DD02232BE07B68022B01DC0323C1
:10B0400026E03B6804331B68184607F003FD0346FF
:10B05000A7F84630B7F84630FF2B01D9042317E094
:10B06000B7F8463007F108000B4A3C2107F07AFD9B
:10B070000A4B1B6807F1080211461846FEF792F9C1
:10B08000B7F846301A460021054801F0ADF9002313
:10B0900018464837BD4680BD60460108A4340020EC
:10B0A0005035002080B584B000AF786039607B688F
:10B0B000032B01DD022317E07B68022B01DC032355
:10B0C00012E03B6804331B68184607F0C3FC0346D4
:10B0D000FB73FB7B242B01D9042305E0FB7B194682
:10B0E000034800F0BDFB002318461037BD4680BD65
:10B0F0001035002080B5A0B002AF786039607B6861
:10B10000082B01DD02233EE17B68072B01DC0323D2
:10B1100039E13B6804331B68184607F09BFC034683
:10B120003B673B6808331B68184607F093FC0346EF
:10B13000FB663B680C331B68184607F08BFC034624
:10B14000BB663B6810331B68184607F083FC034658
:10B1500087F867303B6814331B68184607F07AFCA1
:10B1600003463B663B6818331B68184607F072FCC1
:10B170000346FB653A6F864BA3FB02135B09642110
:10B1800001FB03F3D31A002B03D13B6FB3F5C87F48
:10B1900010D207F108037F4A5021184607F0E2FC5D
:10B1A0007D4B1B6807F1080211461846FEF7FAF8B6
:10B1B0000423E8E0FB6EC72B0ED9FA6E744BA3FB99
:10B1C00002135B09642101FB03F3D31A002B03D1A3
:10B1D000FA6E3B6F9A4210D907F108036F4A50216B
:10B1E000184607F0BFFC6C4B1B6807F108021146BC
:10B1F0001846FEF7D7F80423C5E0BB6EB3F5FA7F17
:10B2000010D907F10803664A5021184607F0AAFC36
:10B21000614B1B6807F1080211461846FEF7C2F899
:10B220000423B0E097F86730C82B10D907F1080362
:10B230005C4A5021184607F095FC574B1B6807F1F4
:10B24000080211461846FEF7ADF804239BE097F874
:10B250006730002B0CBF01230023DBB21A46524B90
:10B260001A70FB6DFF2B01D904238CE007F1080055
:10B27000FB6D4E4A502107F075FC474B1B6807F1E8
:10B28000080211461846FEF78DF80023A7F85A3039
:10B29000B7F95A3047F6FF72934206D13E4B1B680E
:10B2A00043491846FEF77EF80FE0B7F95A3007F128
:10B2B0000800404A502107F055FC374B1B6807F146
:10B2C000080211461846FEF76DF8002387F877301C
:10B2D0002EE097F87730384A32F81330A7F85A3012
:10B2E000B7F95A3047F6FF72934208D197F8773092
:10B2F00007F10800314A502107F034FC0BE097F8C1
:10B300007720B7F95A3007F10800009313462C4A0A
:10B31000502107F027FC204B1B6807F1080211465B
:10B320001846FEF73FF897F87730013387F8773003
:10B3300097F87730072BCCD9224A3B6F1360224A0B
:10B34000FB6E1360214ABB6E1360214A3B6E136093
:10B35000204A97F8673013701F4B01221A7007F1CB
:10B360000800BB6E0193FB6E00933B6F1B4A50219C
:10B3700007F0F8FB084B1B6807F108021146184656
:10B38000FEF710F8002318467837BD4680BD00BF91
:10B390001F85EB5178460108A4340020B44601080B
:10B3A000F04601080847010801350020344701082C
:10B3B0004847010864470108783500207C470108A8
:10B3C00094470108EC340020F4340020F8340020C5
:10B3D000FC34002000350020F0340020A84701088C
:10B3E00080B592B000AF786039607B68032B01DDD7
:10B3F00002232BE07B68022B01DC032326E03B6861
:10B4000004331B68184607F025FB0346A7F84630AF
:10B41000B7F84630D22B01D9042317E0B7F84630ED
:10B4200007F108000B4A3C2107F09CFB0A4B1B6804
:10B4300007F1080211461846FDF7B4FFB7F8463089
:10B440001A460121054800F0CFFF0023184648376F
:10B45000BD4680BDF4470108A434002050350020CB
:10B4600080B584B000AF786039607B68032B01DD64
:10B47000022317E07B68022B01DC032312E03B6808
:10B4800004331B68184607F0E5FA0346FB73FB7BA1
:10B49000082B01D9042305E0FB7B1946034800F083
:10B4A000DFF9002318461037BD4680BD3035002037
:10B4B00080B483B000AF78603960002318460C3741
:10B4C000BD465DF8047B704780B584B000AF7860FE
:10B4D00039607B68032B01DD022317E07B68022BB8
:10B4E00001DC032312E03B6804331B68184607F0B5
:10B4F000B1FA0346FB73FB7B242B01D9042305E03F
:10B50000FB7B1946034800F0ABF9002318461037BF
:10B51000BD4680BD8835002080B592B000AF786010
:10B5200039607B68022B01DD02231BE07B68012B65
:10B5300001DC032316E000237B640C4802F04AF888
:10B5400003467B6407F108007B6C094A3C2107F045
:10B5500009FB084B1B6807F1080211461846FDF766
:10B5600021FF002318464837BD4680BDA83500207E
:10B570000C480108A434002080B598B000AF786072
:10B5800039607B68032B01DD022342E07B68022BDC
:10B5900001DC03233DE03B6804331B68184607F0D9
:10B5A00059FA0346FB65FA6D1C4BA3FB02135B09BA
:10B5B000642101FB03F3D31A002B03D1FB6DB3F518
:10B5C000FA7F10D207F10C03154A5021184607F0F4
:10B5D000C9FA144B1B6807F10C0211461846FDF717
:10B5E000E1FE042315E0104AFB6D13600F4B0122AE
:10B5F0001A7007F10C00FB6D0D4A502107F0B2FAEA
:10B60000084B1B6807F10C0211461846FDF7CAFEED
:10B61000002318466037BD4680BD00BF1F85EB5133
:10B6200020480108A4340020F4340020F134002024
:10B630005C48010880B500AF0249034807F0D6F81E
:10B6400000BF80BD080200200402002080B483B047
:10B6500000AF78607B681B6803F04003402B01D18A
:10B66000012300E0002318460C37BD465DF8047B3B
:10B67000704780B483B000AF78607B689B6803F04C
:10B680000203022B01D1012300E0002318460C37EE
:10B69000BD465DF8047B704780B483B000AF78602E
:10B6A0007B689B6803F08003802B01D1012300E0BD
:10B6B000002318460C37BD465DF8047B704780B404
:10B6C00085B000AF78600B46FB707B680C33FB6085
:10B6D000FB68FA781A7000BF1437BD465DF8047B2A
:10B6E000704780B483B000AF786039607B683A6897
:10B6F0009A6100BF0C37BD465DF8047B704780B48B
:10B7000083B000AF786039603B681A047B689A6147
:10B7100000BF0C37BD465DF8047B704780B584B030
:10B7200000AF786000BF7B681B681846FFF7A1FF79
:10B730000346002BF7D07B685A687B689B681946E4
:10B740001046FFF7DCFF7B681B7B013BFB601EE0C4
:10B750007B6818687A68FB6813440D331B781946B8
:10B76000FFF7ADFF00BF7B681B681846FFF781FF3E
:10B770000346002BF7D000BF7B681B681846FFF715
:10B780008BFF0346002BF7D1FB68013BFB60FB6896
:10B79000002BDDDA7B685A687B689B681946104687
:10B7A000FFF79FFF00BF1037BD4680BD80B58CB04E
:10B7B00000AFF860B9607A603B60FB68BA681A60F5
:10B7C000FB6897F838201A73FB687A685A60FB6840
:10B7D0003A689A6007F1140300221A605A609A606E
:10B7E000DA601A615A61FB689B687B610123BB6167
:10B7F0000223FB6100233B6200237B62FB685B68E2
:10B8000007F114021146184605F08FFDFB685A68CF
:10B81000FB689B6819461046FFF763FF0023FB6235
:10B8200008E0FA68FB6A13440D3300221A70FB6AC1
:10B830000133FB62FB681B7B1A46FB6A9342F0DB19
:10B8400000BFFB681B681846FFF700FF0346002B8C
:10B85000F7D0F868FFF762FF00BF3037BD4680BD04
:10B8600080B584B000AF78600B46FB70FB78242B6A
:10B8700003D97B681B7B062B5AD0FB78082B03D996
:10B880007B681B7B012B55D07B681B7B062B38D13B
:10B890000023FB6008E07A68FB6813440D33002244
:10B8A0001A70FB680133FB607B681B7B1A46FB68E0
:10B8B0009342F0DBFB78002B36D0FB78013B1F4A2C
:10B8C00082FB0312DB17D31AFB72FB785A1E1B4B49
:10B8D00083FB0231D317C91A0B465B000B445B0094
:10B8E000D11A0B46BB72BB7A012202FA03F3DAB219
:10B8F000FB7A02F03F02D1B27A6813440A465A73C7
:10B9000012E07B681B7B012B0ED1FB78002B08D04B
:10B91000FB78013B012202FA03F3DAB27B685A7327
:10B9200002E07B6800225A737868FFF7F7FE02E0B6
:10B9300000BF00E000BF1037BD4680BDABAAAA2AF9
:10B9400080B590B002AF984B1B78DBB2002B0DD0C6
:10B950000A2006F035FF0346002B07D000F0CEF991
:10B96000924B1B6819460A2006F014FF904B1B7877
:10B97000DBB2002B00F014810B2006F021FF034600
:10B98000002B00F0F3808B4B00221A708A4B1B783F
:10B99000DBB21A46520013445B00DAB2874B1B78C5
:10B9A000DBB21344DBB2063B87F83730844B1B789D
:10B9B000DBB2002B3AD0834B1B78DBB2002B25D1B6
:10B9C000814B1B78DBB2002B20D1804B00221A6008
:10B9D000774B00221A70744B00221A70734B0022AE
:10B9E0001A607B4B01221A70744B01221A70724B41
:10B9F00001221A70774B00221A60774B00221A60DE
:10BA0000704B00221A70704B00221A70002000F058
:10BA10004DF9002000F05EF96E4B1B6819460C20B2
:10BA200006F0B8FE664B00221A7098E00C2006F073
:10BA3000C7FE0346002B00F092805F4B1B78DBB201
:10BA4000012B1BD1654B1B78DBB2002B16D15B4B56
:10BA50001B78DBB2012B11D100F0CAF85A4B1B78CE
:10BA6000DBB2013BDAB2584B1A705B4B1B681946CC
:10BA70000D2006F08FFE594B01221A700D2006F0A2
:10BA80009FFE0346002B61D04B4B1B78DBB2012B92
:10BA900003D153495348FDF785FC97F837301846D2
:10BAA00000F004F997F83730184600F013F997F8CA
:10BAB0003730092B12D8414B1B78DBB219463E4B6D
:10BAC0001B78DBB21A4697F83730381D0193009285
:10BAD0000B46454A322107F045F811E0374B1B78F9
:10BAE000DBB21946344B1B78DBB21A4697F8373075
:10BAF000381D019300920B463C4A322107F032F880
:10BB00003B1D19463748FDF74DFC2B4B1B78DBB22C
:10BB10000133DAB2284B1A70274B1B78DBB2062BA5
:10BB200011D9254B01221A70244B1B78DBB201334B
:10BB3000DAB2224B1A70214B1B78DBB2062B02D9EA
:10BB40001E4B01221A70254B00221A701F4B1B68D6
:10BB500019460B2006F01EFE194B01221A70134BDA
:10BB60001B6819460A2006F015FE19E00D2006F0A4
:10BB700027FE0346002B13D00A2006F021FE0346C1
:10BB8000002B0DD000F014F90A4B1B780133DAB208
:10BB9000084B1A70054B1B6819460A2006F0FAFD7F
:10BBA00000BF3837BD4680BDF1340020F43400209A
:10BBB000F0340020E93400202E0200202D02002065
:10BBC0002F0200200135002000350020EC34002039
:10BBD0002C020020F8340020FC3400203002002029
:10BBE000B050010800100140B4500108C8500108CD
:10BBF00080B592B002AF0023BB87B7F93C3047F65F
:10BC0000FF72934204D123492348FDF7CBFB0BE09D
:10BC1000B7F93C303846214A3C2106F0A3FF3B46A9
:10BC200019461D48FDF7BEFB002387F83F3028E08A
:10BC300097F83F301A4A32F81330BB87B7F93C30D7
:10BC400047F6FF72934207D197F83F303846154ABE
:10BC50003C2106F087FF0AE097F83F20B7F93C3017
:10BC6000384600931346104A3C2106F07BFF3B46C2
:10BC700019460948FDF796FB97F83F30013387F8DE
:10BC80003F3097F83F30072BD2D900BF00BF403775
:10BC9000BD4680BDDC50010800100140F85001088D
:10BCA00078350020105101082851010880B582B074
:10BCB00000AF0346FB71FB79242B05D8FB791946AD
:10BCC0000348FFF7CDFD00E000BF0837BD4680BD4B
:10BCD0008835002080B582B000AF0346FB71FB7948
:10BCE000242B05D8FB7919460348FFF7B9FD00E07E
:10BCF00000BF0837BD4680BD1035002080B596B026
:10BD000002AF0023FB644FF00003BB64224B7B6453
:10BD100000233B640023FB63204801F05BFC0346E7
:10BD2000FB64FB6C07EE903AB8EE677ADFED1C6AB5
:10BD3000C7EE267A97ED117A67EE277AC7ED127A69
:10BD4000D7ED127AFDEEE77A17EE903A3B643B6C42
:10BD500007EE903AF8EEE77A97ED127A77EE677A87
:10BD60009FED107A67EE877AFDEEE77A17EE903A4C
:10BD7000FB633846FB6B01933B6C0093FB6C0A4AF8
:10BD80003C2106F0EFFE3B4619460848FDF70AFB4A
:10BD900000BF5037BD4680BD00004040A8350020A0
:10BDA0000000804700007A443C5101080010014027
:10BDB00080B590B002AF0023FB860C4801F00AFC6E
:10BDC0000346FB860A4B1B781A46FB8E381D0093F0
:10BDD0001346084A322106F0C5FE3B1D19460648A7
:10BDE000FDF7E0FA00BF3837BD4680BDA83500201A
:10BDF000E9340020605101080010014080B500AF17
:10BE00000249034806F0F2FC00BF80BD1C0200207E
:10BE10001802002080B483B000AF5B4B5B79013324
:10BE2000DAB2594B5A71584B5B793B2B7AD9564B46
:10BE300000225A71544B1B790133DAB2524B1A71FA
:10BE4000514B1B793B2B6DD94F4B00221A714E4B36
:10BE5000DB780133DAB24C4BDA704B4BDB78172BC3
:10BE600060D9494B0022DA70474B1B780133DAB2B4
:10BE7000454B1A70444B9B7803F00303DBB2002B55
:10BE80001ED1414B9B78414AA2FB03125209642107
:10BE900001FB02F29B1ADBB2002B0FD13A4B9B78CD
:10BEA0001A463A4B83FB0213D911D317CB1A4FF41E
:10BEB000C87101FB03F3D31A002B01D1012300E069
:10BEC0000023FB71304B5B78022B03D1FB791C33D1
:10BED000DBB204E02C4B5B78013B2D4AD35CBB7199
:10BEE000294B1B78BA799A421CD2274B01221A702F
:10BEF000254B5B780133DAB2234B5A70224B5B78C7
:10BF00000C2B0FD9204B01225A701F4B9B78013309
:10BF1000DAB21D4B9A701C4B9B78632B02D91A4BDB
:10BF200000229A701B4B9B790133DAB2194B9A713C
:10BF3000184B9B793B2B21D9164B00229A71154B3C
:10BF40005B790133DAB2134B5A71124B5B793B2B9D
:10BF500014D9104B00225A710E4B1B790133DAB2FF
:10BF60000C4B1A710B4B1B79172B07D9094B00226D
:10BF70001A71084B1B680133064A136000BF0C3767
:10BF8000BD465DF8047B7047340200201F85EB51ED
:10BF9000805101080435002080B500AF114B00220C
:10BFA0009A70104B01225A700E4B01221A700D4BE1
:10BFB0000022DA700B4B00221A710A4B00225A71D0
:10BFC000094B00221A60084B00221A71064B00220E
:10BFD0005A71054B00229A710449054806F006FC87
:10BFE00000BF80BD34020020043500204002002044
:10BFF0003C02002080B483B000AF78607B68002BE7
:10C0000006D07B68054A1068186092889A8000E024
:10C0100000BF0C37BD465DF8047B7047340200203A
:10C0200080B483B000AF786039607B683A685A6347
:10C0300000BF0C37BD465DF8047B704780B483B009
:10C0400000AF786039607B683A689A6300BF0C374C
:10C05000BD465DF8047B704780B483B000AF786064
:10C0600039607B683A68DA6300BF0C37BD465DF81B
:10C07000047B704780B483B000AF786039607B6820
:10C080003A681A6400BF0C37BD465DF8047B704700
:10C0900080B582B000AF03460A46FB711346BB80F1
:10C0A000BB88B3F57A7F02D340F2E733BB80FB79DC
:10C0B000032B23D801A252F823F000BFCDC0000803
:10C0C000D9C00008E5C00008F1C00008BB881946C7
:10C0D0000D48FFF7A5FF12E0BB8819460A48FFF795
:10C0E000ADFF0CE0BB8819460748FFF7B5FF06E037
:10C0F000BB8819460448FFF7BDFF00E000BF00BF42
:10C100000837BD4680BD00BF0000014080B483B049
:10C1100000AF786039607B683A685A6300BF0C37BB
:10C12000BD465DF8047B704780B582B000AF034622
:10C13000FB71FB799BB21A46920013445B009AB2E2
:10C14000074B1A80FA7913469B0013445B0019468B
:10C150000448FFF7DBFF00BF0837BD4680BD00BFC6
:10C160000C3500200000014080B400AF064B1B8856
:10C17000064AA2FB0323DB089BB2DBB21846BD468E
:10C180005DF8047B704700BF0C350020CDCCCCCCD3
:10C1900080B483B000AF78607B681B6843F04002D6
:10C1A0007B681A6000BF0C37BD465DF8047B7047A2
:10C1B00080B483B000AF78607B681B6803F04003F5
:10C1C000402B01D1012300E0002318460C37BD4667
:10C1D0005DF8047B704780B483B000AF78607B6803
:10C1E0009B6803F00203022B01D1012300E000232E
:10C1F00018460C37BD465DF8047B704780B483B0A9
:10C2000000AF78607B689B6803F08003802B01D1CE
:10C21000012300E0002318460C37BD465DF8047B7F
:10C22000704780B485B000AF78600B46FB707B68C8
:10C230000C33FB60FB68FA781A7000BF1437BD46F8
:10C240005DF8047B704780B483B000AF78603960DC
:10C250007B683A689A6100BF0C37BD465DF8047B85
:10C26000704780B483B000AF786039603B681A04CF
:10C270007B689A6100BF0C37BD465DF8047B704750
:10C2800080B483B000AF0346FB80FB8807EE903A92
:10C29000F8EEE77A9FED097A27EE877ADFED086AF4
:10C2A000C7EE267AFCEEE77AC7ED007A3B78DBB280
:10C2B00018460C37BD465DF8047B70473333234086
:10C2C0003333534080B584B000AF786000BF7B68E3
:10C2D0001B681846FFF77FFF0346002BF7D00023AB
:10C2E000FB6076E07B685A687B689B68194610465D
:10C2F000FFF7B7FFFB68002B0CD07A68FB6813448C
:10C3000014331B781BB21B011AB2364B13431BB2FA
:10C310009BB20BE07A68FB68134414331B781BB2A2
:10C320001B011BB243F440531BB29BB27B817B6861
:10C330001A687B891B0A9BB2DBB219461046FFF7CD
:10C3400070FF00BF7B681B681846FFF744FF034679
:10C35000002BF7D000BF7B681B681846FFF74EFF25
:10C360000346002BF7D17B681B687A89D2B211464D
:10C370001846FFF756FF00BF7B681B681846FFF79B
:10C380002AFF0346002BF7D000BF7B681B681846C6
:10C39000FFF734FF0346002BF7D17B685A687B68B0
:10C3A0009B6819461046FFF74EFF7B68DA687B688A
:10C3B0001B6919461046FFF754FF00BF7B68DA6817
:10C3C0007B681B6919461046FFF73DFFFB68013388
:10C3D000FB60FB68012B85DD00BF00BF1037BD4649
:10C3E00080BD00BF00B0FFFF90B583B000AF7860A4
:10C3F0000B46FB7013463B80FC783B881846FFF7E2
:10C400003FFF03461A467B6823441A757868FFF796
:10C4100059FF00BF0C37BD4690BD80B58CB000AF52
:10C42000F860B9607A603B60FB68BA681A60FB68C4
:10C430007A685A60FB683A689A60FB68BA6BDA609F
:10C44000FB68FA6B1A6107F1140300221A605A6044
:10C450009A60DA601A615A61FB689B687B6101230C
:10C46000BB610223FB6100233B6200237B62FB680C
:10C470005B6807F114021146184604F056FFFB688A
:10C480001B697B61FB68DB6807F1140211461846E3
:10C4900004F04BFFFB685A68FB689B68194610461E
:10C4A000FFF7D1FEFB68DA68FB681B691946104686
:10C4B000FFF7C9FE0023FB6208E0FA68FB6A134439
:10C4C000143300221A70FB6A0133FB62FB6A012BF2
:10C4D000F3DDFB681B681846FFF75AFE00BFFB68D8
:10C4E0001B681846FFF764FE0346002BF7D0F86878
:10C4F000FFF7E8FE00BF3037BD4680BD80B582B093
:10C5000002AF062300934FF480430E4A0E490F48B2
:10C51000FFF74CF9012300934FF40053094A0A49ED
:10C520000B48FFF743F94FF400430193054B009389
:10C530004FF48053034A04490648FFF76EFF00BFDB
:10C54000BD4680BD00100240003001401035002083
:10C55000303500205035002080B483B000AF7860C3
:10C560007B689B6803F00103012B01D1012300E0EC
:10C57000002318460C37BD465DF8047B704780B435
:10C5800083B000AF78607B680C331B78DBB2184651
:10C590000C37BD465DF8047B704780B485B000AFB2
:10C5A00078600B46FB707B680C33FB60FB68FA78A5
:10C5B0001A7000BF1437BD465DF8047B704780B425
:10C5C00083B000AF786039607B683A689A6100BFD9
:10C5D0000C37BD465DF8047B704780B483B000AF74
:10C5E000786039603B681A047B689A6100BF0C3739
:10C5F000BD465DF8047B704780B582B000AF03464E
:10C60000FB71FB79074A52F823301846FB79064A3A
:10C6100052F823301946FFF7E0FF00BF0837BD4648
:10C6200080BD00BFB4020020C402002080B582B0EB
:10C6300000AF0346FB71FB79074A52F823301846D6
:10C64000FB79064A52F823301946FFF7B8FF00BFBE
:10C650000837BD4680BD00BFB4020020C4020020E0
:10C6600080B582B000AF0346FB71FB7919460948DB
:10C67000FFF793FF00BF0748FFF76EFF0346002B4D
:10C68000F9D00448FFF77BFF034618460837BD463C
:10C6900080BD00BF003C004080B584B000AF0346C1
:10C6A0003960FB711346BB710023FB73FB7918469D
:10C6B000FFF7A2FF0023BB7310E0BB7B3A68134473
:10C6C0001B781846FFF7CCFF0346FB73BB7B3A6829
:10C6D0001344FA7B1A70BB7B0133BB73BA7BBB7903
:10C6E0009A42EAD3FB791846FFF7A0FFFB7B184676
:10C6F0001037BD4680BD0000B0B582B000AFC7E9BD
:10C700000001D7E900010E4D00242A1A64EB010351
:10C710004FF000004FF00001590641EAD2115006D7
:10C7200005A3D3E90023FBF7BBFD02460B461346E6
:10C7300018460837BD46B0BD00F90295000000005C
:10C74000807C814A2DE9B00F85B000AFF860F968B0
:10C75000C8170C4605461B4901FB05F0002104FBE8
:10C7600001F101441748A4FB002319440B4610466D
:10C770001946002908DA6FF07E43C3183B6041F187
:10C7800000037B60D7E900014FF000024FF0000387
:10C79000420E42EAC1124B160021D2F1000A61EBAF
:10C7A000030B52465B46084912EB010843F10009AE
:10C7B00042464B46104619461437BD46BDE8B00FF9
:10C7C000704700BF00F90295807C814A80B586B031
:10C7D00000AF03463960FB7107F10C0300221A60B9
:10C7E0005A603B681B783B733B681B795B00DBB28C
:10C7F0007B733B681B78F22B11D13B681A6907F1F8
:10C800000C0302331946104600F0EAFA07F10C0354
:10C810000621184600F0A8FA0346BB7407E007F1AA
:10C820000C030221184600F09FFA0346BB733B68D5
:10C830005A7807F10C01FB791846FFF72DFF07F135
:10C840000C03184600F00AFB03469AB24FF0FF3380
:10C850007B617B695B057B617B695B0D7B617B69D0
:10C860009BB213409AB23B68DA823B681B78F22B8A
:10C8700006D1BA7B3B681A75FA7C3B685A7519E099
:10C880003B681B78F42B0FD107F10C0302331846D9
:10C8900000F0C7FA02463B681A61BA7C3B681A7519
:10C8A000FA7C3B685A7505E0BA7B3B681A75FA7BDF
:10C8B0003B685A753B685B7DA52B02D04FF0FF3378
:10C8C00000E0002318461837BD4680BD80B58AB009
:10C8D00000AF03463A60FB710B46BB71002387F83B
:10C8E0002730154B1B883B813B89BB81BA791349A3
:10C8F00013465B0013449B00CA1807F1100307CAD4
:10C9000083E8070007F10C02FB7911461846FFF790
:10C910005DFF034687F8273097F92730002B02D0B8
:10C9200097F9273003E0FA693B681A60002318463C
:10C930002837BD4680BD00BF745101085402002055
:10C9400080B58AB000AF03463A60FB710B46BB71FD
:10C950000F4B1B88BB81BB893B82BA790D491346BB
:10C960005B0013449B00CA1807F1140307CA83E84D
:10C9700007003B683B6207F11002FB79114618463D
:10C98000FFF724FF034618462837BD4680BD00BF89
:10C99000785101085402002080B586B000AFBA601B
:10C9A0007B600346FB730B46BB7307F11402B97B34
:10C9B000FB7B1846FFF78AFFBB68DA437B691340AD
:10C9C0007B617968B86800F079FA02467B691343A5
:10C9D0007B617A69B97BFB7B1846FFF7B1FF0346A1
:10C9E00018461837BD4680BD80B582B000AF0346FB
:10C9F0000A46FB711346BB71BB79F879012200210D
:10CA0000FFF7CAFF034618460837BD4680BD80B50C
:10CA100082B000AF03460A46FB711346BB71BB7977
:10CA2000F87902220021FFF7B7FF034618460837BE
:10CA3000BD4680BD80B582B000AF0346FB71F8797A
:10CA400001234FF480420021FFF7A6FF034618465A
:10CA50000837BD4680BD80B584B000AF0346FB718A
:10CA60004FF0FF33FB60FB689B06FB60FB685B0DD0
:10CA7000FB60FA68F87900230121FFF78DFF034678
:10CA800018461037BD4680BD80B584B000AF034660
:10CA90003960FB714FF0FF33FB60FA68F8793B684F
:10CAA0000421FFF779FF034618461037BD4680BDC5
:10CAB0002DE9F04F91B000AF0346FB75002387F8D6
:10CAC0003E30FB7D6B4A52F823301846FB7D6A4AA4
:10CAD00052F823301946FFF780FDFB7D674A52F874
:10CAE00023301846FB7D664A52F823301946FFF77B
:10CAF00074FDFB7D1846FFF79DFFFB7D1846FFF791
:10CB0000AAFF034687F83E30FB7D5A4A52F823308D
:10CB10001846FB7D584A52F823301946FFF74FFD5F
:10CB2000FB7D01211846FFF75FFF034687F83E3083
:10CB3000FB7D43F6012200211846FFF701FF034663
:10CB400087F83E30FB7D4FF07F411846FFF79CFF92
:10CB5000034687F83E30FB7D002201211846FFF78F
:10CB6000EFFE034687F83E30012005F0B3FDFB7D64
:10CB700043F6012200211846FFF7E2FE034687F83C
:10CB80003E304FF07F40FFF7DDFDC7E90C0100208C
:10CB9000FFF7D8FDC7E90A01002387F83F3047E0D7
:10CBA000D7E90A01D7E90C23841A61EB030597F84A
:10CBB0003F3000229846914608FB05F204FB09F33A
:10CBC0001344A4FB08AB5B449B4652465B46002BD8
:10CBD00006DAD11CB96043F10003FB60D7E90223F8
:10CBE0004FF000004FF00001900840EA8370991068
:10CBF000D7E90C2316183E604B417B60D7E9002330
:10CC0000C7E90823D7E90801FFF776FDF861FA695B
:10CC1000FB7D11461846FFF737FF034687F83E3085
:10CC2000012005F057FD97F83F30013387F83F307A
:10CC300097F83F30042BB3D9FB7D104A52F82330CC
:10CC40001846FB7D0E4A52F823301946FFF7B7FC11
:10CC5000FB7D01211846FFF7DAFE034687F83E30D8
:10CC6000C820FBF717FD97F93E3018464437BD46FC
:10CC7000BDE8F08FD4020020E4020020F40200207E
:10CC8000040300202DE9B04F8CB000AFC7E90423A6
:10CC90000346FB770B46BB77002387F827304FF01E
:10CCA00000024FF00003C7E90A2300233B62BB7F69
:10CCB000002B24D1D7E9042310461946002907DAAE
:10CCC00010F10F03BB6041F10003FB60D7E90201E3
:10CCD0004FF000024FF00003020942EA01720B110B
:10CCE00000215042386061EB03037B60D7E90023E9
:10CCF0001C4912EB010843F10009C7E90A89BB7F0F
:10CD0000012B19D1D7E90423002B05DA12F10F0A00
:10CD100043F1000B52465B464FF000004FF000011C
:10CD2000100940EA0370191102460B460D495418C8
:10CD300043F10005C7E90A45D7E90A01FFF7DCFC22
:10CD400038623A6AFB7F11461846FFF79DFE03469C
:10CD500087F8273097F9273018463037BD46BDE8A9
:10CD6000B08F00BF807C814A80B485B000AF78600E
:10CD70000B46FB700023FB7307233B730023BB733D
:10CD800023E0BB7B7A6813441A78FB7B5340FB7328
:10CD900000237B7313E097F90F30002B09DA97F922
:10CDA0000F305B005AB297F90C3053405BB2FB7303
:10CDB00002E0FB7B5B00FB737B7B01337B737B7B44
:10CDC000072BE8D9BB7B0133BB73BA7BFB789A4254
:10CDD000D7D3FB7B18461437BD465DF8047B7047FC
:10CDE00080B483B000AF786039603B6803337A6801
:10CDF000D2B21A707B681A0A3B680233D2B21A7038
:10CE00007B681A0C3B680133D2B21A707B681B0E28
:10CE1000DAB23B681A7000BF0C37BD465DF8047B80
:10CE2000704780B483B000AF78607B6803331B78B1
:10CE30001A467B6802331B781B0213431A467B6831
:10CE400001331B781B041A437B681B781B061343B2
:10CE500018460C37BD465DF8047B704780B483B03C
:10CE600000AF78607B6801331B781A467B681B78BB
:10CE70001B02134318460C37BD465DF8047B704710
:10CE800080B485B000AF78600023FB600CE07B6865
:10CE900003F00103002B01D0FB6809E07B685B080D
:10CEA0007B60FB680133FB607B68002BEFD12023A4
:10CEB00018461437BD465DF8047B704780B582B0D4
:10CEC00000AF786039607868FFF7DAFF02463B68A8
:10CED00003FA02F27B68134018460837BD4680BD4E
:10CEE00080B483B000AF78607B689B6843F0010238
:10CEF0007B689A6000BF0C37BD465DF8047B7047C5
:10CF000080B483B000AF78607B689B6803F0010356
:10CF1000012B0CBF01230023DBB218460C37BD46A2
:10CF20005DF8047B704780B483B000AF78607B68A5
:10CF30009B6843F080427B689A6000BF0C37BD4617
:10CF40005DF8047B7047000080B483B000AF786068
:10CF500039600C4A3B6813441B781A467B681344BB
:10CF60001B6808493A680A44127811467A680A44EC
:10CF700043F00103136000BF0C37BD465DF8047B2E
:10CF8000704700BF8C51010880B485B000AFF860D5
:10CF9000B9607A600D4ABB6813441B781A46FB6877
:10CFA00013441B6823F0C0020849BB680B441B787C
:10CFB0001946FB680B4419467B6813430B6000BF9E
:10CFC0001437BD465DF8047B704700BF8C510108E3
:10CFD00080B485B000AFF860B9607A600D4ABB6874
:10CFE00013441B781A46FB6813441B6823F49072A1
:10CFF0000849BB680B441B781946FB680B4419466B
:10D000007B6813430B6000BF1437BD465DF8047B9B
:10D01000704700BF8C51010880B485B000AFF86044
:10D02000B9607A600D4ABB6813441B781A46FB68E6
:10D0300013441B6823F400720849BB680B441B7837
:10D040001946FB680B4419467B6813430B6000BF0D
:10D050001437BD465DF8047B704700BF8C51010852
:10D0600080B485B000AFF860B9607A600D4ABB68E3
:10D0700013441B781A46FB6813441B6823F4806230
:10D080000849BB680B441B781946FB680B441946DA
:10D090007B6813430B6000BF1437BD465DF8047B0B
:10D0A000704700BF8C51010880B485B000AFF860B4
:10D0B000B9607A600D4ABB6813441B781A46FB6856
:10D0C00013441B6823F4C0520849BB680B441B7807
:10D0D0001946FB680B4419467B6813430B6000BF7D
:10D0E0001437BD465DF8047B704700BF8C510108C2
:10D0F00080B485B000AFF860B9607A600D4ABB6853
:10D1000013441B781A46FB6813441B6823F4C0427F
:10D110000849BB680B441B781946FB680B44194649
:10D120007B6813430B6000BF1437BD465DF8047B7A
:10D13000704700BF8C51010880B485B000AFF86023
:10D14000B9607A600D4ABB6813441B781A46FB68C5
:10D1500013445B681B0C1B040849BA680A44127824
:10D160001146FA680A4411467A6813434B6000BFBF
:10D170001437BD465DF8047B704700BF8C51010831
:10D1800080B485B000AFF860B9607A600D4ABB68C2
:10D1900013441B781A46FB6813441B6823F0606233
:10D1A0000849BB680B441B781946FB680B441946B9
:10D1B0007B6813430B6000BF1437BD465DF8047BEA
:10D1C000704700BF8C51010880B485B000AFF86093
:10D1D000B9607A60074ABB6813441B781A46FB683B
:10D1E00013441A467B68D36000BF1437BD465DF810
:10D1F000047B70478C51010880B485B000AFF860A3
:10D20000B9607A60074ABB6813441B781A46FB680A
:10D2100013441A467B68936000BF1437BD465DF81F
:10D22000047B70478C51010880B500AF00220021BB
:10D230002348FFF7A5FF002200212148FFF7A4FEA5
:10D24000002200211E48FFF7E7FE4FF48062002114
:10D250001B48FFF705FF4FF4006200211848FFF755
:10D2600023FF4FF4005200211548FFF741FF082229
:10D2700000211348FFF760FF124A00211048FFF712
:10D28000BBFF114B1A4600210D48FFF79DFF4FF4DD
:10D29000807200210A48FFF79BFE00210848FFF733
:10D2A00053FE0A48FFF71CFE00BF0848FFF728FEA0
:10D2B0000346002BF9D00548FFF735FE00BF80BDBF
:10D2C000006402404C2001406835002000200140ED
:10D2D00080B485B000AF78600023FB7328E0FB7B4F
:10D2E000184A32F813301946FB7B5B007A68134406
:10D2F000154A32F911201A80FB7B5B007A681344CF
:10D30000B3F9003013F5FA7F08DBFB7B5B007A682A
:10D310001344B3F90030B3F5FA6F06DDFB7B5B0015
:10D320007A68134447F6FF721A80FB7B0133FB7364
:10D33000FB7B072BD3D900BF00BF1437BD465DF878
:10D34000047B7047683500201403002080B483B04C
:10D3500000AF78607B681B6803F04003402B01D16D
:10D36000012300E0002318460C37BD465DF8047B1E
:10D37000704780B483B000AF78607B689B6803F02F
:10D380000203022B01D1012300E0002318460C37D1
:10D39000BD465DF8047B704780B483B000AF786011
:10D3A0007B689B6803F08003802B01D1012300E0A0
:10D3B000002318460C37BD465DF8047B704780B4E7
:10D3C00085B000AF78600B46FB707B680C33FB6068
:10D3D000FB68FA781A7000BF1437BD465DF8047B0D
:10D3E000704780B483B000AF786039607B683A687A
:10D3F0009A6100BF0C37BD465DF8047B704780B46E
:10D4000083B000AF786039603B681A047B689A612A
:10D4100000BF0C37BD465DF8047B704780B582B015
:10D4200000AF78600B467B8000BF7B681B681846A6
:10D43000FFF79FFF0346002BF7D07B681A687B88B5
:10D440001B0A9BB2DBB219461046FFF7B8FF00BFBC
:10D450007B681B681846FFF78CFF0346002BF7D04C
:10D4600000BF7B681B681846FFF796FF0346002B3A
:10D47000F7D17B681B687A88D2B211461846FFF74D
:10D480009EFF00BF7B681B681846FFF772FF0346CC
:10D49000002BF7D000BF7B681B681846FFF77CFFA6
:10D4A0000346002BF7D100BF00BF0837BD4680BD43
:10D4B00080B582B000AF78607B684FF430429A83C9
:10D4C0007B685A687B689B6819461046FFF797FF90
:10D4D0007B689B8B19467868FFF7A0FF7B685A68CA
:10D4E0007B689B6819461046FFF77BFF00BF083733
:10D4F000BD4680BD80B584B000AF78600B467B80B0
:10D500007B685A687B689B6819461046FFF777FF6F
:10D510007B684FF460429A837B687A88DA837B6801
:10D520009B8B1BB223F47F6323F00F031AB27B683B
:10D53000DB8B1BB2C3F30B031BB213431BB2FB8188
:10D54000FB8919467868FFF769FF7B685A687B6832
:10D550009B6819461046FFF744FF00BF1037BD46D1
:10D5600080BD000080B582B000AF78600B46FB70D4
:10D57000FB78002B06D1164B1B8819467868FFF7FD
:10D58000B9FF20E0FB78012B1DD17B685A687B68CE
:10D590009B6819461046FFF732FF7B684FF47042D4
:10D5A0009A837B6840F6FD62DA837B689B8B194621
:10D5B0007868FFF733FF7B685A687B689B68194679
:10D5C0001046FFF70EFF00BF0837BD4680BD00BF05
:10D5D0001423002080B584B000AF78607B68DA68DF
:10D5E0007B681B6919461046FFF709FF7B68FA89BB
:10D5F0001A847B681B8C18461037BD4680BD80B5E9
:10D6000084B000AFF860B9607A603B60FB68BA68CC
:10D610001A60FB687A685A60FB683A689A60FB682F
:10D62000BA69DA60FB68FA691A61FB683A6A5A619A
:10D63000FB687A6A9A6100BFFB681B681846FFF7AF
:10D6400085FE0346002BF7D00021F868FFF78AFF1C
:10D65000F868FFF72DFF00BF1037BD4680BD000002
:10D6600080B584B004AF062300934FF400730C4AD6
:10D670000C490D48FEF79AF84FF4807303930B4B57
:10D6800002934FF400630193054B00934FF48063C2
:10D69000034A04490648FFF7B2FF00BFBD4680BDFC
:10D6A000000C02400038004088350020000802408D
:10D6B000A835002080B483B000AF786039607B6803
:10D6C0003A689A6100BF0C37BD465DF8047B70472D
:10D6D00080B483B000AF786039603B681A047B681F
:10D6E0009A6100BF0C37BD465DF8047B70470000AF
:10D6F00080B500AF0A4A137823F001031370084A7B
:10D70000137823F002031370054A137823F0FC0307
:10D71000137000F0D5F800F0EBF800BF80BD00BF3B
:10D72000CC35002080B500AF0C4B1B78C3F38503CC
:10D73000DBB2022B0CD0022B0DDC002B02D0012B14
:10D7400003D008E000F00CF806E000F051F803E028
:10D7500000F070F800E000BF00BF80BDCC350020B5
:10D7600080B500AF214B1B7803F00103DBB2002B27
:10D7700020D01E4B1B7803F00203DBB2002B19D024
:10D78000002005F01DF80346002B2DD0174A137812
:10D7900023F001031370154A137823F0020313706A
:10D7A00000F09AF800F0B0F84FF4FA71002004F09D
:10D7B000F1FF19E0002005F003F80346002B13D019
:10D7C0000A4A137843F001031370084A137843F0B0
:10D7D0000203137000F074F800F08AF84FF4FA7145
:10D7E000002004F0D7FFFFE700BF80BDCC3500204C
:10D7F00080B500AF4FF400610D48FFF769FF4FF4AB
:10D8000080610B48FFF756FF4FF4FA7004F062FF97
:10D810004FF480610648FFF75BFF4FF40061044856
:10D82000FFF748FF4FF4FA7004F054FF00BF80BDCB
:10D830000010024080B500AF204B1B7803F00103BD
:10D84000DBB2002B1FD01D4B1B7803F00203DBB2B1
:10D85000002B18D0002004F0B3FF0346002B2BD080
:10D86000164A137823F001031370144A137823F037
:10D870000203137000F030F800F046F83221002067
:10D8800004F088FF18E0002004F09AFF0346002B04
:10D8900012D00A4A137843F001031370074A137831
:10D8A00043F00203137000F00BF800F021F832216E
:10D8B000002004F06FFFFFE700BF80BDCC350020E3
:10D8C00080B500AF4FF480610248FFF7F3FE00BF60
:10D8D00080BD00BF0010024080B500AF4FF48061F2
:10D8E0000248FFF7F5FE00BF80BD00BF00100240F8
:10D8F00080B500AF4FF400610248FFF7DBFE00BFC8
:10D9000080BD00BF0010024080B500AF4FF4006141
:10D910000248FFF7DDFE00BF80BD00BF00100240DF
:10D9200080B500AF0249034804F060FF00BF80BD2E
:10D930001C2300201823002080B400AF044BDB68B8
:10D940001B0A03F007031846BD465DF8047B7047C9
:10D9500000ED00E080B483B000AF0346FB7197F99F
:10D960000730002B0BDBFB7903F01F02074997F907
:10D9700007305B09012000FA02F241F8232000BFC2
:10D980000C37BD465DF8047B704700BF00E100E046
:10D9900080B483B000AF03463960FB7197F907305C
:10D9A000002B0ADB3B68DAB20C4997F90730120109
:10D9B000D2B20B4483F800230AE03B68DAB208498C
:10D9C000FB7903F00F03043B1201D2B20B441A7629
:10D9D00000BF0C37BD465DF8047B704700E100E0F6
:10D9E00000ED00E080B489B000AFF860B9607A6003
:10D9F000FB6803F00703FB61FB69C3F10703042B1A
:10DA000028BF0423BB61FB690433062B02D9FB69E1
:10DA1000033B00E000237B614FF0FF32BB6902FA59
:10DA200003F3DA43BB681A407B699A404FF0FF3139
:10DA30007B6901FA03F3D9437B680B401343184613
:10DA40002437BD465DF8047B704780B489B000AFD1
:10DA5000F860B9607A60FB682C331946BB6803F440
:10DA600040734FF440727A617A6992FAA2F23A6195
:10DA70003A69BA61BA69002A01D1202203E0BA6981
:10DA8000B2FA82F2D2B2D3409B000B44FB61FB6935
:10DA90001A68BB6803F01F031F2101FA03F3DB437D
:10DAA0001A407B6803F01F01BB6803F01F0301FAF3
:10DAB00003F31A43FB691A6000BF2437BD465DF8C3
:10DAC000047B704780B483B000AF786039607B68B6
:10DAD0009B6823F480623B681A437B689A6000BFAE
