:020000040800F2
:1000000000000220F16400089D630008A563000859
:10001000AD630008B5630008BD6300080000000080
:10002000000000000000000000000000C5630008A0
:10003000D363000800000000E1630008F1630008DA
:1000400041650008416500084165000841650008F8
:1000500041650008416500084165000841650008E8
:1000600041650008416500084165000841650008D8
:1000700041650008416500084165000841650008C8
:1000800041650008416500084165000841650008B8
:1000900041650008416500084165000841650008A8
:1000A0004165000841650008416500084165000898
:1000B0004165000841650008416500084165000888
:1000C00041650008116400081D64000841650008CE
:1000D0004165000829640008416500084165000881
:1000E0004165000841650008416500084165000858
:1000F0004165000841650008416500084165000848
:100100004165000841650008416500084165000837
:100110004165000841650008416500084165000827
:100120003D6400084165000841650008416500081C
:100130004165000841650008416500084165000807
:1001400041650008416500084165000841650008F7
:100150004165000841650008416500084D640008DC
:1001600041650008416500084165000841650008D7
:100170004165000841650008416500080000000075
:0801800041650008416500081B
:1001900010B5054C237833B9044B13B10448AFF3C1
:1001A00000800123237010BD1423002000000000F4
:1001B00028AA000808B5034B1BB103490348AFF355
:1001C000008008BD000000001823002028AA0008B5
:1001D00010F8012B11F8013B012A28BF9A42F7D0F1
:1001E000D01A7047034613F8012B002AFBD1181AC6
:1001F000013870470000000000000000000000000F
:1002000001F0FF01102A2BDB10F0070F08D010F8C7
:10021000013B013A8B422DD010F0070F42B3F6D1CB
:10022000F0B441EA012141EA014122F007047FF0E4
:1002300000070023F0E80256083C85EA010586EA3B
:10024000010685FA47F5A3FA87F586FA47F6A5FA77
:1002500087F68EB9EED1F0BC01F0FF0102F0070283
:1002600032B110F8013B013A83EA010313B1F8D12E
:100270000020704701387047002D06BF354603380F
:10028000073815F0010F07D1013015F4807F02BF48
:10029000013015F4C03F0130F0BC0138704700BF99
:1002A0007BB972B90029BEBF00204FF0004106E0C3
:1002B00008BF00281CBF6FF000414FF0FF3000F076
:1002C000B5B9ADF1080C6DE904CE002909DB002BAE
:1002D0001ADB00F04DF8DDF804E0DDE9022304B09C
:1002E0007047404261EB4101002B1BDB00F040F8FE
:1002F000DDF804E0DDE9022304B0404261EB410196
:10030000524263EB43037047524263EB430300F0F6
:100310002FF8DDF804E0DDE9022304B0404261EB90
:1003200041017047524263EB430300F021F8DDF8CE
:1003300004E0DDE9022304B0524263EB430370475B
:1003400053B94AB9002908BF00281CBF4FF0FF313C
:100350004FF0FF3000F06AB9ADF1080C6DE904CE42
:1003600000F006F8DDF804E0DDE9022304B0704790
:100370002DE9F047089D0C46002B4ED194468C4544
:100380008646B2FA82F262D94AB1C2F120039140A4
:1003900020FA03F30CFA02FC194300FA02FE4FEABA
:1003A0001C471FFA8CF6B1FBF7F44FEA1E4307FB1C
:1003B000141143EA014304FB06F199420AD91CEBEC
:1003C000030304F1FF3080F01281994240F20F8163
:1003D000023C6344591A1FFA8EF3B1FBF7F007FB96
:1003E000101143EA014300FB06F69E420AD91CEBBA
:1003F000030300F1FF3180F0FC809E4240F2F9805F
:10040000634402389B1B40EA044000211DB1D340E5
:100410000022C5E90032BDE8F0878B4205D90DB155
:10042000C5E9000100210846F5E7B3FA83F1002988
:1004300046D1A34202D39042C0F0F080861A64EB0A
:1004400003030120002DE6D0C5E90063E3E7002A9D
:1004500040F09080A1EB0C044FEA1C481FFA8CF787
:100460000121B4FBF8F64FEA1E4308FB164443EAA9
:10047000044307FB06F0984208D91CEB030306F17E
:10048000FF3402D2984200F2CD8026461C1A1FFA91
:100490008EF3B4FBF8F008FB104443EA044300FB7E
:1004A00007F79F4208D91CEB030300F1FF3402D287
:1004B0009F4200F2B0802046DB1B40EA0640A5E7E1
:1004C000C1F120068B4022FA06F71F4320FA06FCF2
:1004D00004FA01F343EA0C03F44000FA01F8380C83
:1004E0004FEA1349B4FBF0FE1FFA87FC00FB1E44E1
:1004F00049EA04440EFB0CF9A14502FA01F20AD9BB
:100500003C190EF1FF3A80F08480A14540F28180D1
:10051000AEF1020E3C44A4EB09041FFA83F9B4FBCC
:10052000F0F300FB134449EA044403FB0CFCA4452C
:1005300007D93C1903F1FF3067D2A44565D9023BC6
:100540003C4443EA0E40A0FB0293A4EB0C049C4203
:10055000CE469C4651D34ED055B1B8EB0E0364EB5A
:100560000C0404FA06F6CB401E43CC40C5E90064F7
:10057000002150E7C2F1200320FA03F10CFA02FC3B
:1005800024FA03F394400C434FEA1C4800FA02FE9D
:100590001FFA8CF7B3FBF8F008FB1031230C43EA89
:1005A000014300FB07F1994208D91CEB030300F15A
:1005B000FF362CD299422AD9023863445B1AA4B27E
:1005C000B3FBF8F108FB113344EA034401FB07F3E2
:1005D000A34208D91CEB040401F1FF3613D2A34255
:1005E00011D902396444E41A41EA004139E704466A
:1005F000F0E6084606E7C845AED2B9EB020E63EB5B
:10060000070C0138A8E73146EDE7034699E7304685
:10061000D4E7D6467FE7634402384DE706462346D3
:1006200008460FE7023E634430E700BF704700BF53
:1006300080B400AF074B1B6803F48033B3F5803FF1
:100640000CBF01230023DBB21846BD465DF8047BD6
:10065000704700BF10E000E080B584B000AF0346F3
:10066000FB71FB790C4A12680C49A1FB0212920C37
:1006700002FB03F3FB6007E0FFF7DAFF0346002B02
:1006800002D0FB68013BFB60FB68002BF4D100BF8C
:1006900000BF1037BD4680BD3C22002083DE1B43D7
:1006A00080B483B000AF78607B681B6843F00102C0
:1006B0007B681A6000BF0C37BD465DF8047B70474D
:1006C00080B483B000AF78607B681B6823F00102C0
:1006D0007B681A6000BF0C37BD465DF8047B70472D
:1006E00080B483B000AF78607B681B6823F0800221
:1006F0007B681A6000BF0C37BD465DF8047B70470D
:1007000080B483B000AF78607B681B6823F0400240
:100710007B681A6000BF0C37BD465DF8047B7047EC
:1007200080B483B000AF78607B68DB6823F001029F
:100730007B68DA6000BF0C37BD465DF8047B70470C
:1007400080B483B000AF78607B685B6843F400726C
:100750007B685A6000BF0C37BD465DF8047B70476C
:1007600080B483B000AF78607B685B6843F48062DC
:100770007B685A6000BF0C37BD465DF8047B70474C
:1007800080B483B000AF78607B685B6823F48062DC
:100790007B685A6000BF0C37BD465DF8047B70472C
:1007A00080B483B000AF78607B685B6843F480728C
:1007B0007B685A6000BF0C37BD465DF8047B70470C
:1007C00080B483B000AF78607B685B6903F080031E
:1007D000802B0CBF01230023DBB218460C37BD462B
:1007E0005DF8047B704780B483B000AF78607B68AD
:1007F0005B6903F04003402B0CBF01230023DBB2F5
:1008000018460C37BD465DF8047B704780B483B052
:1008100000AF78607B685B6903F00203022B0CBFBA
:1008200001230023DBB218460C37BD465DF8047B7C
:10083000704780B483B000AF78607B685B6903F475
:100840008063B3F5806F0CBF01230023DBB2184631
:100850000C37BD465DF8047B704780B483B000AFB1
:1008600078607B685B6903F01003102B0CBF0123D9
:100870000023DBB218460C37BD465DF8047B704799
:1008800080B483B000AF78607B685B6903F48073E9
:10089000B3F5807F0CBF01230023DBB218460C3771
:1008A000BD465DF8047B704780B483B000AF7860CC
:1008B0007B685B6903F40073B3F5007F0CBF012311
:1008C0000023DBB218460C37BD465DF8047B704749
:1008D00080B483B000AF78607B685B6903F4006329
:1008E000B3F5006F0CBF01230023DBB218460C37B1
:1008F000BD465DF8047B704780B485B000AF78607A
:100900007B685B69FB60FB687B689B69FB60FB68DD
:1009100000BF1437BD465DF8047B704780B483B0D8
:1009200000AF78607B685B6923F480627B685A6102
:1009300000BF0C37BD465DF8047B704780B485B0BE
:1009400000AF78607B685B69FB60FB687B681B6855
:1009500043F001027B681A6000BF1437BD465DF8A2
:10096000047B704780B483B000AF78607B685B69BC
:1009700023F480727B685A6100BF0C37BD465DF876
:10098000047B704780B483B000AF78607B685B699C
:1009900023F400727B685A6100BF0C37BD465DF8D6
:1009A000047B704780B483B000AF78607B685B697C
:1009B00023F400627B685A6100BF0C37BD465DF8C6
:1009C000047B704780B483B000AF78607B689B691C
:1009D00003F0040318460C37BD465DF8047B7047EE
:1009E00080B483B000AF78607B681B69DBB21846C7
:1009F0000C37BD465DF8047B704780B483B000AF10
:100A000078600B46FB707B681B6923F0FF02FB7864
:100A10001A437B681A6100BF0C37BD465DF8047B42
:100A20007047000080B586B000AF244B9B68184625
:100A3000FFF746FE214B9B68184608F0B9F81F4B9C
:100A40009B681846FFF74CFE1C4B9B681846FFF747
:100A500057FE1A4B9B681846FFF762FE3B46002282
:100A60001A605A609A60DA601A615A6100233B602A
:100A7000134B7B600023BB602423FB604FF4806337
:100A80003B614FF480437B610C4B9B683A461146B7
:100A9000184608F0C7F8094B9B681846FFF750FE48
:100AA000064B9B681846FFF77BFE044B9B68184675
:100AB000FFF7F6FD00BF1837BD4680BD302400208B
:100AC000A086010080B400AF0A4B00225A71094B86
:100AD0004FF0FF321A60074B00221A71054B0022BB
:100AE0009A71044B0022DA7100BFBD465DF8047BA9
:100AF000704700BF3024002080B582B000AF78601E
:100B0000094A7B689360094B00221A70FFF7DAFFED
:100B10004FF480720021064809F0FEFA00231846BF
:100B20000837BD4680BD00BF302400203C24002093
:100B30003023002080B596B000AF784B01221A70A8
:100B4000774B9B681846FFF761FE0346002B1AD0CF
:100B5000734B9B681846FFF7CFFE714B9B68184696
:100B6000FFF730FF0346042B08D16D4B00221A71AA
:100B70006B4B9B681846FFF7F3FD04E0684B9B68DE
:100B80001846FFF7EDFD664B9B681846FFF718FE09
:100B90000346002B52D0002387F85730604B1B6868
:100BA00007F138005F4A1E2109F082FA07F1380385
:100BB00019465D4800F05AFC594B1B6807F1380094
:100BC0005A4A1E2109F074FA07F1380319465648AB
:100BD00000F04CFC524B1A68554913465B00134415
:100BE0000B4402331B7887F8573097F8573007F1DA
:100BF0003800504A1E2109F05BFA07F13803194604
:100C0000494800F033FC97F8573007F138004A4A5A
:100C10001E2109F04DFA07F138031946424800F049
:100C200025FC3F4B9B6897F8572011461846FFF765
:100C3000E4FE3B4B9B681846FFF7A2FD384B9B68D0
:100C40001846FFF7D0FD0346002B4AD0344B9B6873
:100C50001846FFF7C5FE034687F85630304B1B7920
:100C6000DBB2002B1FD12E4A97F85630537197F8FC
:100C70005630381D314A322109F01AFA3B1D194607
:100C8000294800F0F3FB264B01221A71244B1B6804
:100C9000381D2B4A322109F00BFA3B1D1946224818
:100CA00000F0E4FB1DE01E4B1A68214913465B006F
:100CB00013440B4401331B78032B0AD1184B1A68D9
:100CC0001B4913465B0013440B44023397F856202C
:100CD0001A70134B00221A71114B9B681846FFF7CC
:100CE0004FFD0F4B9B681846FFF7B7FD0346002BDF
:100CF0000FD00B4B9B681846FFF720FE084B0022D5
:100D00001A71074B9B681846FFF73AFD034B002208
:100D10001A7000BF5837BD4680BD00BF3C2400207C
:100D20003024002040AA0008001401405CAA0008FA
:100D30004024002070AA00088CAA0008A4AA000879
:100D4000B4AA000880B500AF2149224800F08EFB0C
:100D5000214B00221A70214B9B681846FFF790FD2B
:100D60000346002B04D01D4B9B681846FFF7FAFD85
:100D70001A4B9B681846FFF797FD0346002B04D0DB
:100D8000164B9B681846FFF7FDFD144B9B681846F1
:100D9000FFF74FFD0346002B04D0104B9B6818460D
:100DA000FFF7BCFD0D4B9B681846FFF791FD03460E
:100DB000002B04D0094B9B681846FFF7F3FDFFF7A3
:100DC00031FE064B9B681846FFF796FE00BF80BDBC
:100DD000C8AA0008001401403C2400203024002050
:100DE00080B483B000AF0023FB711CE0FA793C496A
:100DF00013465B0013440B44FA791A70FA793849A8
:100E000013465B0013440B44013302221A70FA7933
:100E1000334913465B0013440B440233FF221A701C
:100E2000FB790133FB71FB79072BDFD90823BB71F9
:100E30001CE0BA792A4913465B0013440B44BA7983
:100E40001A70BA79264913465B0013440B440133E8
:100E500003221A70BA79224913465B0013440B44EB
:100E6000023300221A70BB790133BB71BB797E2B30
:100E7000DFD91B4B7F2283F87D21194B022283F897
:100E80007E21174B772283F87F2180237B711CE022
:100E90007A79134913465B0013440B447A791A702C
:100EA0007A790F4913465B0013440B440133022245
:100EB0001A707A790A4913465B0013440B440233D3
:100EC000FF221A707B7901337B717B79FF2BDFD195
:100ED00000BF00BF0C37BD465DF8047B704700BF04
:100EE0004024002080B483B000AF03463960FB711A
:100EF00097F90730002B0ADB3B68DAB20C4997F907
:100F000007301201D2B20B4483F800230AE03B6899
:100F1000DAB20849FB7903F00F03043B1201D2B2A5
:100F20000B441A7600BF0C37BD465DF8047B704752
:100F300000E100E000ED00E080B582B000AF786035
:100F40007B68013BB3F1807F01D301230FE00A4AA4
:100F50007B68013B53600F214FF0FF30FFF7C2FF6A
:100F6000054B00229A60044B07221A6000231846A2
:100F70000837BD4680BD00BF10E000E080B400AF80
:100F8000054B1B68044A43F00103136000BFBD46D4
:100F90005DF8047B704700BF10E000E080B500AF53
:100FA000054B1B68054AA2FB03239B091846FFF764
:100FB000C3FF00BF80BD00BF3C220020D34D6210A4
:100FC00080B483B000AF78607B681B6803F00203D5
:100FD000022B0CBF01230023DBB218460C37BD46A1
:100FE0005DF8047B704780B483B000AF78607B68A5
:100FF0001B6803F00403042B0CBF01230023DBB2A6
:1010000018460C37BD465DF8047B704780B483B04A
:1010100000AF78607B681B6803F00803082B0CBFE7
:1010200001230023DBB218460C37BD465DF8047B74
:10103000704780B483B000AF78607B681B6803F0B2
:101040002003202B0CBF01230023DBB218460C37F2
:10105000BD465DF8047B704780B483B000AF786014
:101060007B681B6803F08003802B0CBF01230023E7
:10107000DBB218460C37BD465DF8047B704780B480
:1010800085B000AF78607B681B68FB60FB687B689D
:101090005B68FB60FB6800BF1437BD465DF8047BEE
:1010A000704780B485B000AF78607B681B68FB60D8
:1010B000FB687B685B68FB60FB6800BF1437BD465C
:1010C0005DF8047B704780B485B000AF78607B68C2
:1010D0001B68FB60FB687B685B68FB60FB6800BFAC
:1010E0001437BD465DF8047B704780B489B000AF0B
:1010F00078607B680C33FB60FB6853E8003FBB60A3
:10110000BB6843F02003FB617B680C33FA69BA616A
:101110007B617969BA6941E800233B613B69002B37
:10112000E7D100BF00BF2437BD465DF8047B7047A0
:1011300080B489B000AF78607B680C33FB60FB68DB
:1011400053E8003FBB60BB6843F08003FB617B68F2
:101150000C33FA69BA617B617969BA6941E80023A5
:101160003B613B69002BE7D100BF00BF2437BD4680
:101170005DF8047B704780B489B000AF78607B680D
:101180000C33FB60FB6853E8003FBB60BB6823F097
:101190002003FB617B680C33FA69BA617B61796972
:1011A000BA6941E800233B613B69002BE7D100BFEE
:1011B00000BF2437BD465DF8047B704780B489B01A
:1011C00000AF78607B680C33FB60FB6853E8003F3E
:1011D000BB60BB6823F08003FB617B680C33FA695A
:1011E000BA617B617969BA6941E800233B613B6977
:1011F000002BE7D100BF00BF2437BD465DF8047B5C
:10120000704780B483B000AF78607B68DB6803F020
:101210002003202B0CBF01230023DBB218460C3720
:10122000BD465DF8047B704780B483B000AF786042
:101230007B68DB6803F08003802B0CBF0123002355
:10124000DBB218460C37BD465DF8047B704780B4AE
:1012500083B000AF78607B685B68DBB218460C3700
:10126000BD465DF8047B704780B483B000AF786002
:101270000B46FB70FA787B685A6000BF0C37BD469E
:101280005DF8047B7047000080B485B000AF7860E3
:101290000023FB6015E01049FA681346DB00134495
:1012A0009B000B441B687A689A4207D1FA68134680
:1012B000DB0013449B00084A134406E0FB6801333B
:1012C000FB60FB68012BE6DD002318461437BD46A2
:1012D0005DF8047B704700BF0000002080B586B039
:1012E00000AF0346B9607A60FB73BB685B6801338B
:1012F000BA68D268B3FBF2F101FB02F29B1A7B6180
:10130000BB689A687B699A420FD07868FFF733FF11
:10131000BB681A68BB685B681344FA7B1A707A6909
:10132000BB685A607868FFF7E0FE00BF1837BD461B
:1013300080BD80B586B000AF78607868FFF7A4FF05
:1013400078617B69002B02D14FF0FF3325E07B6988
:1013500004333B613B695A683B699B689A4202D1FE
:101360004FF0FF3319E07868FFF705FF3B691A6813
:101370003B699B6813441B78FB733B699B68013393
:101380003A69D268B3FBF2F101FB02F29A1A3B69A7
:101390009A607868FFF7A9FEFB7B18461837BD46B0
:1013A00080BD80B586B000AF786039607868FFF79F
:1013B0006BFF78617B69002B2BD03B68002B28DB0F
:1013C0007B6914333B613B695B6801333A69D268DE
:1013D000B3FBF2F101FB02F29B1AFB607868FFF7A6
:1013E000CAFE00BF3B699A68FB689A42FAD03B6923
:1013F0001A683B695B6813443A68D2B21A70FA689B
:101400003B695A607868FFF770FE7868FFF790FED6
:1014100000E000BF1837BD4680BD80B584B000AF86
:1014200078607868FFF730FFF860FB68002B01D127
:10143000002317E0FB680433BB60BB68DB689AB22B
:10144000BB685B689BB213449AB2BB689B689BB253
:10145000D31A9BB21A46BB68DB68B2FBF3F101FBFF
:1014600003F3D31A18461037BD4680BD80B582B04D
:1014700000AF7860396007E03B685A1C3A601B781F
:1014800019467868FFF78DFF3B681B78002BF3D176
:1014900000BF00BF0837BD4680BD80B584B000AF37
:1014A00078607868FFF7F0FEF860FB68002B11D0D9
:1014B000FB680433BB60BB681868BB68DB681A460E
:1014C000002108F029FEBB6800225A60BB68002298
:1014D0009A6000E000BF1037BD4680BD80B586B081
:1014E00000AF78607868FFF7CFFE78617B69002BEA
:1014F00068D07B6904333B617B691433FB60786897
:10150000FFF797FD0346002B2DD07868FFF779FE93
:101510000346002B27D07868FFF799FE0346FB723D
:101520007868FFF773FD0346002B0BD17868FFF74F
:1015300047FD0346002B05D17868FFF754FD0346AD
:10154000002B09D07868FFF7BEFD7868FFF797FD9C
:101550007868FFF7A6FD36E0FB7A7A6839691846A5
:10156000FFF7BCFE2FE07868FFF776FD0346002BFF
:1015700029D07868FFF758FE0346002B23D0FB687C
:101580005A68FB689B689A4203D17868FFF716FE99
:1015900019E0FB681A68FB689B6813441B78BB72F0
:1015A000FB689B680133FA68D268B3FBF2F101FB78
:1015B00002F29A1AFB689A60BB7A19467868FFF7BC
:1015C00053FE00E000BF1837BD4680BD80B586B031
:1015D00000AF78600123FB7300233B617B687B6174
:1015E0001FE07B691B78202B05D17B6900221A70D4
:1015F0000123FB7312E0FB7B002B0FD03B69072B11
:101600000AD81E493B697A6941F823203B690133B6
:101610003B610023FB7301E002232BE07B69013374
:101620007B617B691B78002BDBD13B69002B20D0D1
:101630003B6901333B61124BBB6016E00F4B1A68EC
:10164000BB681B6819461046FEF7C2FD0346002B17
:1016500008D1BB685B683A69084910469847034659
:10166000DBB207E0BB680C33BB60BB681B68002BB8
:10167000E4D1012318461837BD4680BD4031002013
:101680006000002080B483B000AF78607B689B6806
:1016900003F00203022B01D1012300E000231846CE
:1016A0000C37BD465DF8047B704780B483B000AF53
:1016B00078607B689B6803F08003802B01D1012355
:1016C00000E0002318460C37BD465DF8047B7047E8
:1016D00080B485B000AF78600B46FB707B680C333C
:1016E000FB60FB68FA781A7000BF1437BD465DF8DE
:1016F000047B704780B483B000AF786039607B684A
:101700003A689A6100BF0C37BD465DF8047B7047AC
:1017100080B483B000AF786039603B681A047B689E
:101720009A6100BF0C37BD465DF8047B704700002E
:1017300080B582B000AF7860164A7B6813604022A3
:101740000021154808F0E8FC144B00221A7001F043
:10175000C1FB104B1B6812491846FFF787FE0D4B63
:101760001B6810491846FFF781FE0A4B1B68184694
:10177000FFF793FE6421002002F010F8642005F0CA
:1017800079FB6421002002F009F800BF0837BD464C
:1017900080BD00BFAC330020B0330020F033002008
:1017A0007CAF000894AF000880B582B000AF144B46
:1017B0001B681846FFF731FE0346002B1CD0104B68
:1017C0001B681846FFF7B5FD0346FB71FB791B2B21
:1017D00006D10B4B1B680B491846FFF747FE06E086
:1017E000074B1B68FA7911461846FFF7DAFDFB79BB
:1017F0000549184600F00AF800BF0837BD4680BD0D
:10180000AC330020A8AF00086431002080B5B8B028
:1018100002AF03463960FB71FB791B2B32D107F114
:10182000CC0300221A609A8007F1CC03184602F01C
:101830000BF997F8CF30194697F8D03097F8D120A8
:1018400007F1AC00019200930B469E4A1E2108F05E
:101850002FFC07F1AC0307F108009B4A00929B4A5A
:101860003C2108F025FC9A4B1B6807F10802114641
:101870001846FFF7FBFD3B680022A3F840203B68B9
:1018800000221A70FB792D2B4ED13B68B3F84432FD
:10189000002B07D03B68B3F84432013B9AB23B6857
:1018A000A3F844223B68B3F844223B68B3F84232C1
:1018B0009A4215D238683B68B3F8443201339B0131
:1018C0003A6813440233194608F05AFC3B6818463C
:1018D000FEF788FC03469AB23B68A3F8402006E076
:1018E0003B6800221A703B680022A3F84020784B26
:1018F0001B6878491846FFF7B9FD07F18C00724B59
:10190000754A1E2108F0D4FB714B1B6807F18C024D
:1019100011461846FFF7AAFD6D4B1B683A68114641
:101920001846FFF7A3FDABE1FB793D2B51D13B6896
:10193000B3F844223B68B3F842329A4207D23B687C
:10194000B3F8443201339AB23B68A3F844223B68AF
:10195000B3F844223B68B3F842329A4215D2386851
:101960003B68B3F8443201339B013A6813440233B5
:10197000194608F005FC3B681846FEF733FC0346A1
:101980009AB23B68A3F8402006E03B6800221A7038
:101990003B680022A3F840204D4B1B684D49184678
:1019A000FFF764FD07F16C00474B4B4A1E2108F01E
:1019B0007FFB474B1B6807F16C0211461846FFF787
:1019C00055FD434B1B683A6811461846FFF74EFD1C
:1019D00056E1FB791F2B02D9FB797E2B06D9FB79C7
:1019E0000D2B03D0FB797F2B40F04A81FB792D2B07
:1019F00000F04681FB793D2B00F04281FB795C2BA6
:101A000000F03E8107F1640300221A609A8007F11A
:101A10006403184602F018F897F86730194697F8EB
:101A2000683097F8692007F14400019200930B4653
:101A3000244A1E2108F03CFBFB790D2B40F0C980A5
:101A40003B68B3F84030002B00F0AE803B68B3F841
:101A500040301A463B68002199543B68B3F8423243
:101A6000002B10D03B68B3F84232013B01339B019D
:101A70003A68134402333A6811461846FEF7A8FB49
:101A80000346002B4DD03B68B3F84232072B15D8E4
:101A90003B68B3F8423201339B013A681344023386
:101AA0003A681146184608F06BFB3B68B3F84232BF
:101AB00001339AB23B68A3F8422232E00023C7F810
:101AC000D43022E0B0AF0008D0AF0008C4AF0008A7
:101AD000AC330020DCAF0008E4AF0008D7F8D43006
:101AE00001339B013A681344981CD7F8D430013372
:101AF00001339B013A6813440233194608F040FB56
:101B0000D7F8D4300133C7F8D430D7F8D430062B07
:101B1000E4DD3B6803F202233A681146184608F0F8
:101B20002FFB3B68B3F842223B68A3F844223B6892
:101B30001846FFF74BFD034687F8D33097F9D330AB
:101B4000062B00F09D8007F108034F4A3C21184600
:101B500008F0AEFA4D4B1B6807F108021146184613
:101B6000FFF784FC494B1A6897F9D330484951F87C
:101B7000233019461046FFF779FC07F1440307F1BB
:101B80000800444A0092444A3C2108F091FA3F4B35
:101B90001B6807F1080211461846FFF767FC3B680F
:101BA0000022A3F840206BE000F07EF807F1440328
:101BB00007F10800374A0092384A3C2108F078FAC9
:101BC000324B1B6807F1080211461846FFF74EFC1E
:101BD00056E0FB797F2B1BD13B68B3F84030002BDC
:101BE0000FD03B68B3F84030013B9AB23B68A3F892
:101BF00040203B68B3F840301A463B6800219954B6
:101C00003EE0224B1B6826491846FFF72FFC37E0C1
:101C10003B68B3F840303E2B13D83B68B3F84030F4
:101C20005A1C91B23A68A2F8401019463B68FA79FA
:101C30005A543B68B3F840301A463B680021995427
:101C40001EE0124B1B6817491846FFF70FFC07F1FF
:101C5000440307F108000F4A0092104A3C2108F0A3
:101C600027FA0A4B1B6807F1080211461846FFF7CE
:101C7000FDFB3B680022A3F840203B6800221A705D
:101C8000D837BD4680BD00BFECAF0008AC330020A4
:101C900048000020D0AF0008FCAF0008C4AF000827
:101CA00004B0000808B0000880B400AF124B002256
:101CB0001A60124B00221A70114B00221A70114B3D
:101CC00000221A60104B01221A70104B01221A7068
:101CD0000F4B01221A700F4B00221A600E4B00228C
:101CE0001A600E4B00221A700D4B00221A7000BFB2
:101CF000BD465DF8047B7047F4330020F8330020C4
:101D0000F9330020FC3300209C0100209D010020BD
:101D10009E010020003400200434002009340020FB
:101D20000834002080B5CCB004AF07F59073A3F55C
:101D30008E73186007F59073A3F59073196007F51B
:101D40009073A3F58E731B68022B01DD022363E001
:101D5000344B1B6834491846FFF788FB334BC7F8F0
:101D60001C310023C7F8183116E0D7F81C311B6866
:101D70001846FEF737FAC7F80C01D7F80C21D7F848
:101D800018319A4203D9D7F80C31C7F81831D7F86F
:101D90001C310C33C7F81C31D7F81C311B68002BE1
:101DA000E3D1224BC7F81C3130E0D7F81C311B6857
:101DB0001846FEF717FAC7F81401D7F81821D7F814
:101DC0001431D31A0433C7F81031D7F81C311A680C
:101DD000D7F81C319B6807F10C000293144B019358
:101DE000D7F8103100931346124A4FF4807108F06F
:101DF0005FF90C4B1B6807F10C0211461846FFF700
:101E000035FBD7F81C310C33C7F81C31D7F81C311F
:101E10001B68002BC9D10023184607F59077BD46F3
:101E200080BD00BFAC33002024B00008600000205B
:101E30004CB000083CB0000880B582B000AF7860BC
:101E400039607B68022B01DC032319E07B68032BDC
:101E500001DD022314E03B6804331B68184608F0D8
:101E60009FF80346002B05D04FF480710648FFF71A
:101E700041FC04E04FF480710348FFF749FC002364
:101E800018460837BD4680BD0010024080B59CB0A2
:101E900002AF786039607B68052B01DC032358E0D2
:101EA0007B68062B01DD022353E0002387F86730AF
:101EB00024E097F8673001339B003A6813441B68AD
:101EC000184608F06DF8024697F8673012B25B00CA
:101ED00068333B4423F80C2C97F867305B00683379
:101EE0003B4433F90C2C97F867301146184604F040
:101EF00001FD97F86730013387F8673097F867304E
:101F0000032BD6D9002387F866301DE097F86620AA
:101F100097F866305B0068333B4433F90C3C07F1BB
:101F20000C00009313460D4A502108F0C1F80C4BE9
:101F30001B6807F10C0211461846FFF797FA97F84D
:101F40006630013387F8663097F86630032BDDD9A9
:101F5000002318466837BD4680BD00BF50B000085A
:101F6000AC33002080B59AB002AF786039607B68EE
:101F7000022B01DD022357E00023A7F85C30B7F9FC
:101F80005C3047F6FF72934206D1294B1B68294902
:101F90001846FFF76BFA0FE0B7F95C3007F10C0059
:101FA000254A502108F084F8214B1B6807F10C02E8
:101FB00011461846FFF75AFA002387F85F302EE0E3
:101FC00097F85F301D4A32F81330A7F85C30B7F944
:101FD0005C3047F6FF72934208D197F85F3007F103
:101FE0000C00174A502108F063F80BE097F85F20C7
:101FF000B7F95C3007F10C0000931346114A5021E9
:1020000008F056F80A4B1B6807F10C0211461846F7
:10201000FFF72CFA97F85F30013387F85F3097F8B5
:102020005F30072BCCD9002318466037BD4680BDF2
:10203000AC33002064B0000878B000082C340020D5
:102040008CB00008A0B0000880B594B002AF7860F2
:1020500039607B68022B01DD02232CE00023A7F806
:102060004430002387F8473020E097F8473018467F
:1020700004F056FC0346A7F8443097F84720B7F918
:10208000443007F10800009313460D4A3C2108F044
:102090000FF80C4B1B6807F1080211461846FFF7B2
:1020A000E5F997F84730013387F8473097F847301C
:1020B000032BDAD9002318464837BD4680BD00BF40
:1020C000B0B00008AC33002080B59CB002AF78609F
:1020D00039607B68052B01DC03236CE07B68062BF1
:1020E00001DD022367E0002387F8673038E097F8C6
:1020F000673001339B003A6813441B68184607F0A9
:102100004FFF024697F8673092B25B0068333B445A
:1021100023F80C2C97F867305B0068333B4433F8A6
:102120000C3C40F6B832934208D997F867305B0010
:1021300068333B4440F6B83223F80C2C97F86730EC
:102140005B0068333B4433F80C2C97F8673011463A
:10215000184604F0F7FB97F86730013387F86730CB
:1021600097F86730032BC2D9002387F866301DE04B
:1021700097F8662097F866305B0068333B4433F885
:102180000C3C07F10C00009313460D4A502107F058
:102190008FFF0C4B1B6807F10C0211461846FFF726
:1021A00065F997F86630013387F8663097F866303E
:1021B000032BDDD9002318466837BD4680BD00BF1C
:1021C000C4B00008AC33002090B59DB002AF786079
:1021D00039607B68022B01DD022334E0002387F89D
:1021E00067302BE097F8674097F86730184604F09F
:1021F000C9FB03461A46630068333B4423F80C2CA2
:1022000097F8672097F867305B0068333B4433F8F2
:102210000C3C07F10C00009313460D4A502107F0C7
:1022200047FF0C4B1B6807F10C0211461846FFF7DD
:102230001DF997F86730013387F8673097F86730F2
:10224000032BCFD9002318466C37BD4690BD00BF85
:10225000C4B00008AC33002080B59AB002AF7860FB
:1022600039607B68052B01DC032364E07B68062B67
:1022700001DD02235FE0002387F85F3031E097F84B
:102280005F3001339B003A6813441B68184607F01F
:1022900087FE024697F85F30D2B260333B4403F8C2
:1022A000082C97F85F3060333B4413F8083C642BEC
:1022B00006D997F85F3060333B44642203F8082C5A
:1022C00097F85F3060333B4413F8082C97F85F3081
:1022D0001146184604F072FB97F85F30013387F817
:1022E0005F3097F85F30032BC9D9002387F85E3041
:1022F0001CE097F85E2097F85E3060333B4413F89B
:10230000083C07F10800009313460D4A502107F0DE
:10231000CFFE0C4B1B6807F1080211461846FFF769
:10232000A5F897F85E30013387F85E3097F85E3095
:10233000032BDED9002318466037BD4680BD00BFA1
:10234000E0B00008AC33002080B59CB002AF7860EC
:1023500039607B68022B01DD022334E0002387F81B
:1023600067302BE097F86730184604F04BFB0346C4
:102370001A4697F867305B0068333B4423F80C2C0F
:1023800097F8672097F867305B0068333B4433F871
:102390000C3C07F10C00009313460D4A502107F046
:1023A00087FE0C4B1B6807F10C0211461846FFF71D
:1023B0005DF897F86730013387F8673097F8673032
:1023C000032BCFD9002318466837BD4680BD00BF18
:1023D000E0B00008AC33002080B584B000AF786076
:1023E00039607B68052B01DC032383E07B68062BC7
:1023F00001DD02237EE00023FB730023BB73002377
:102400007B7300233B733B6804331B683B491846CE
:10241000FDF7DEFE0346002B02D10123FB730EE025
:102420003B6804331B6836491846FDF7D1FE034666
:10243000002B02D10223FB7301E00023FB733B68F6
:1024400008331B682D491846FDF7C2FE0346002BD2
:1024500002D10123BB730EE03B6808331B68284997
:102460001846FDF7B5FE0346002B02D10223BB73CD
:1024700001E00023BB733B680C331B681F491846FF
:10248000FDF7A6FE0346002B02D10123BB730EE02D
:102490003B680C331B681A491846FDF799FE034642
:1024A000002B02D102237B7301E000237B733B6886
:1024B00010331B6811491846FDF78AFE0346002BAE
:1024C00002D101233B730EE03B6810331B680C49BB
:1024D0001846FDF77DFE0346002B02D102233B7315
:1024E00001E000233B733B7B7A7BB97BF87B04F0F4
:1024F000DBFA002318461037BD4680BDF8B000084F
:10250000FCB0000880B584B000AF786039607B68AB
:10251000052B01DC03233FE07B68062B01DD022352
:102520003AE03B6804331B68184607F039FD034660
:10253000002B14BF01230023DBB2FB733B6808337D
:102540001B68184607F02CFD0346002B14BF01231F
:102550000023DBB2BB733B680C331B68184607F0E3
:102560001FFD0346002B14BF01230023DBB27B7346
:102570003B6810331B68184607F012FD0346002B1A
:1025800014BF01230023DBB23B733B7B7A7BB97B17
:10259000F87B04F057FA002318461037BD4680BD7B
:1025A00080B598B000AF786039607B68052B01DC9E
:1025B00003238BE07B68062B01DD022386E00023EA
:1025C00087F85F303DE097F85F3001339B003A6851
:1025D00013441B68184607F0E3FC024697F85F3087
:1025E000D2B260333B4403F8082C97F85F30603375
:1025F0003B4413F8083C642B06D997F85F306033EE
:102600003B44642203F8082C97F85F3060333B4466
:1026100013F8083C1A4642F20F7302FB03F32D4AEB
:1026200082FB03125211DB17D31A9AB297F85F306C
:102630001146184601F0CCFA97F85F30013387F85D
:102640005F3097F85F30032BBDD997F8583007F10A
:102650000800214A502107F02BFD204B1B6807F191
:10266000080211461846FEF701FF97F8593007F1A6
:1026700008001B4A502107F01BFD184B1B6807F18F
:10268000080211461846FEF7F1FE97F85A3007F196
:102690000800144A502107F00BFD104B1B6807F18E
:1026A000080211461846FEF7E1FE97F85B3007F185
:1026B00008000D4A502107F0FBFC084B1B6807F18E
:1026C000080211461846FEF7D1FE0023184660376F
:1026D000BD4680BD1F85EB5100B10008AC33002022
:1026E00018B1000830B1000848B1000880B59CB0AE
:1026F00002AF786039607B68022B01DD02233EE087
:10270000002387F8673035E097F86730184601F006
:10271000ABFA03461A46642302FB03F31A4A82FB10
:1027200003121212DB17D21A97F8673092B25B00CD
:1027300068333B4423F80C2C97F8672097F86730F0
:102740005B0068333B4433F80C3C07F10C0000930A
:1027500013460E4A502107F0ABFC0D4B1B6807F1E6
:102760000C0211461846FEF781FE97F867300133D8
:1027700087F8673097F86730032BC5D900231846D0
:102780006837BD4680BD00BFAFE38D06E0B00008EE
:10279000AC33002080B483B000AF78603960002390
:1027A00018460C37BD465DF8047B704780B483B093
:1027B00000AF78603960002318460C37BD465DF8DD
:1027C000047B704780B582B000AF78603960054BFC
:1027D0001B6805491846FEF749FE002318460837CE
:1027E000BD4680BDAC33002060B1000880B592B01A
:1027F00000AF786039607B68032B01DD022324E0A1
:102800007B68022B01DC03231FE03B6804331B6859
:10281000184607F0C5FB034687F8473097F847305E
:1028200007F108000B4A3C2107F042FC0A4B1B68E9
:1028300007F1080211461846FEF718FE97F84730D0
:102840001946002000F0AAFF002318464837BD466D
:1028500080BD00BF6CB10008AC33002080B586B0ED
:1028600000AF786039607B68032B01DD022364E0F0
:102870007B68022B01DC03235FE03B6804331B68A9
:10288000184607F08DFB0346FB742E4A07F1080338
:1028900092E80300186004331980FB7C002B21D0E0
:1028A000FB7C242B1ED8FB7C013B274A82FB0312B6
:1028B000DB17D31ABB74FB7C5A1E234B83FB0231FC
:1028C000D317C91A0B465B000B445B00D11A0B46A9
:1028D0007B747B7C01229A40BB7CD2B218333B4490
:1028E00003F8102C4FF480511848FEF711FF052310
:1028F0007B6112E007F108027B6913441B781946DB
:102900001348FEF7E5FE00BF1148FEF7BBFE034685
:10291000002BF9D07B69013B7B617B69002BE9DAF5
:1029200000BF0B48FEF7C1FE0346002BF9D14FF460
:1029300080510648FEF7DEFE002318461837BD46D4
:1029400080BD00BF80B10008ABAAAA2A00100240D7
:102950000030014080B588B000AF786039607B6896
:10296000032B01DD022367E07B68022B01DC0323DC
:1029700062E03B6804331B68184607F011FB03460E
:10298000FB76FB7E242B01D9042355E02C4A07F16A
:10299000100392E80300186004331980FB7E002BBB
:1029A00021D0FB7E242B1ED8FB7E013B254A82FBD7
:1029B0000312DB17D31ABB76FB7E5A1E214B83FB17
:1029C0000231D317C91A0B465B000B445B00D11AC6
:1029D0000B467B767B7E01229A40BB7ED2B22033AF
:1029E0003B4403F8102C0023FB610FE0FB69C3F1AB
:1029F000050320333B4413F8101C07F10802FB6960
:102A000013440A461A70FB690133FB61FB69052B0D
:102A1000ECDD4FF400710C48FEF77AFE07F1080177
:102A20004FF47A730622094804F0B5FF4FF40071A1
:102A30000548FEF75FFE002318462037BD4680BDDF
:102A400080B10008ABAAAA2A000C024088340020FA
:102A500080B594B000AF786039607B68022B01DDEF
:102A600002233DE07B68012B01DC032338E00023D7
:102A7000A7F848300023FB644FF400611A48FEF7C2
:102A800047FE00BF4FF400611748FEF733FE4FF4D6
:102A900080611548FEF73CFE07F148014FF47A7358
:102AA0000222124805F0BBF84FF480610E48FEF791
:102AB00021FE97F848301B0297F849201343FB6426
:102AC00007F10C00FB6C0A4A3C2107F0F1FA094BB4
:102AD0001B6807F10C0211461846FEF7C7FC0023DD
:102AE00018465037BD4680BD000C02408834002097
:102AF00088B10008AC33002080B5A0B002AF786088
:102B000039607B68082B01DD02234DE17B68072BD0
:102B100001DC032348E13B6804331B68184607F0D7
:102B20003FFA03463B673B6808331B68184607F0CB
:102B300037FA0346FB663B680C331B68184607F000
:102B40002FFA0346BB663B6810331B68184607F034
:102B500027FA034687F867303B6814331B6818462A
:102B600007F01EFA03463B663B6818331B6818469D
:102B700007F016FA0346FB653A6F8D4BA3FB021371
:102B80005B09642101FB03F3D31A002B03D13B6FD4
:102B9000B3F5C87F10D207F10803864A50211846C2
:102BA00007F086FA844B1B6807F1080211461846A5
:102BB000FEF75CFC0423F7E0FB6EC72B0ED9FA6E20
:102BC0007B4BA3FB02135B09642101FB03F3D31AC4
:102BD000002B03D1FA6E3B6F9A4210D907F108031C
:102BE000764A5021184607F063FA734B1B6807F1C9
:102BF000080211461846FEF739FC0423D4E0BB6EE8
:102C0000B3F5FA7F10D907F108036D4A5021184631
:102C100007F04EFA684B1B6807F108021146184688
:102C2000FEF724FC0423BFE097F86730C82B10D9C7
:102C300007F10803634A5021184607F039FA5E4B42
:102C40001B6807F1080211461846FEF70FFC042323
:102C5000AAE097F86730002B0CBF01230023DBB2FA
:102C60001A46594B1A70FB6DFF2B01D904239BE0C8
:102C700007F10800FB6D554A502107F019FA4E4B39
:102C80001B6807F1080211461846FEF7EFFBFB6DC3
:102C9000DBB21946002000F081FD642004F0EAF860
:102CA000FB6DDBB21946002000F078FD0023A7F889
:102CB0005A30B7F95A3047F6FF72934206D13E4B6D
:102CC0001B6843491846FEF7D1FB0FE0B7F95A30AD
:102CD00007F108003F4A502107F0EAF9364B1B681C
:102CE00007F1080211461846FEF7C0FB002387F8DB
:102CF00077302EE097F87730374A32F81330A7F85C
:102D00005A30B7F95A3047F6FF72934208D197F814
:102D1000773007F10800314A502107F0C9F90BE07C
:102D200097F87720B7F95A3007F108000093134657
:102D30002B4A502107F0BCF91F4B1B6807F1080212
:102D400011461846FEF792FB97F87730013387F863
:102D5000773097F87730072BCCD9224A3B6F136036
:102D6000214AFB6E1360214ABB6E1360204A3B6E02
:102D70001360204A97F8673013701F4B01221A70B6
:102D800007F10800BB6E0193FB6E00933B6F1B4A7B
:102D9000502107F08DF9084B1B6807F10802114616
:102DA0001846FEF763FB002318467837BD4680BD02
:102DB0001F85EB5198B10008AC330020D4B1000856
:102DC00010B2000828B200080934002054B20008EC
:102DD00068B2000884B200082C3400209CB20008BD
:102DE000B4B20008F4330020FC330020003400208B
:102DF0000434002008340020F8330020C8B2000852
:102E000080B598B000AF786039607B68032B01DD36
:102E1000022342E07B68022B01DC03233DE03B6898
:102E200004331B68184607F0BBF80346FB65FA6DD0
:102E30001C4BA3FB02135B09642101FB03F3D31AB0
:102E4000002B03D1FB6DB3F5FA7F10D207F10C0311
:102E5000154A5021184607F02BF9144B1B6807F14F
:102E60000C0211461846FEF701FB042315E0104A38
:102E7000FB6D13600F4B01221A7007F10C00FB6D04
:102E80000D4A502107F014F9084B1B6807F10C029A
:102E900011461846FEF7EAFA002318466037BD4689
:102EA00080BD00BF1F85EB5114B30008AC33002078
:102EB000FC330020F933002050B3000880B500AF88
:102EC0000249034806F038FF00BF80BD78010020AA
:102ED0007401002080B500AF214B1B6821491846C2
:102EE000FEF7C4FA1E4B1B681F491846FEF7BEFAD0
:102EF0001B4B1B681D491846FEF7B8FA184B1B6898
:102F00001B491846FEF7B2FA154B1B6819491846BB
:102F1000FEF7ACFA124B1B6817491846FEF7A6FAE3
:102F20000F4B1B6815491846FEF7A0FA0C4B1B689F
:102F300013491846FEF79AFA094B1B6811491846BF
:102F4000FEF794FA064B1B680F491846FEF78EFAF7
:102F5000034B1B680D491846FEF788FA00BF80BD79
:102F6000AC33002094B4000858B50008F8B5000848
:102F700098B600085CB700081CB80008E0B8000864
:102F8000A4B9000868BA00082CBB0008F0BB000810
:102F900080B483B000AF78607B689B6803F0020365
:102FA000022B01D1012300E0002318460C37BD4657
:102FB0005DF8047B704780B483B000AF78607B68B5
:102FC0009B6803F08003802B01D1012300E00023E4
:102FD00018460C37BD465DF8047B704780B485B059
:102FE00000AF78600B46FB707B680C33FB60FB68BE
:102FF000FA781A7000BF1437BD465DF8047B70473D
:1030000080B483B000AF786039607B683A689A61B9
:1030100000BF0C37BD465DF8047B704780B483B0B9
:1030200000AF786039603B681A047B689A6100BF22
:103030000C37BD465DF8047B7047000080B590B04A
:1030400002AF984B1B78DBB2002B0DD00A2006F0A4
:103050005DFE0346002B07D000F074FA924B1B680C
:1030600019460A2006F03CFE904B1B78DBB2002B81
:1030700000F014810B2006F049FE0346002B00F0FF
:10308000F3808B4B00221A708A4B1B78DBB21A46F6
:10309000520013445B00DAB2874B1B78DBB2134457
:1030A000DBB2063B87F83730844B1B78DBB2002B52
:1030B0003AD0834B1B78DBB2002B25D1814B1B7898
:1030C000DBB2002B20D1804B00221A60774B00220C
:1030D0001A70744B00221A70734B00221A607B4BDB
:1030E00001221A70744B01221A70724B01221A705D
:1030F000774B00221A60774B00221A60704B002237
:103100001A70704B00221A70002000F04DF9002058
:1031100000F0B0F96E4B1B6819460C2006F0E0FD7C
:10312000664B00221A7098E00C2006F0EFFD034673
:10313000002B00F092805F4B1B78DBB2012B1BD180
:10314000654B1B78DBB2002B16D15B4B1B78DBB2D7
:10315000012B11D100F0CAF85A4B1B78DBB2013BAE
:10316000DAB2584B1A705B4B1B6819460D2006F0FB
:10317000B7FD594B01221A700D2006F0C7FD03461A
:10318000002B61D04B4B1B78DBB2012B03D1534991
:103190005348FEF76BF997F83730184600F004F9FA
:1031A00097F83730184600F065F997F83730092B53
:1031B00012D8414B1B78DBB219463E4B1B78DBB271
:1031C0001A4697F83730381D019300920B46454A4E
:1031D000322106F06DFF11E0374B1B78DBB2194648
:1031E000344B1B78DBB21A4697F83730381D019301
:1031F00000920B463C4A322106F05AFF3B1D19460D
:103200003748FEF733F92B4B1B78DBB20133DAB2C8
:10321000284B1A70274B1B78DBB2062B11D9254B94
:1032200001221A70244B1B78DBB20133DAB2224B35
:103230001A70214B1B78DBB2062B02D91E4B0122E0
:103240001A70254B00221A701F4B1B6819460B2061
:1032500006F046FD194B01221A70134B1B681946E4
:103260000A2006F03DFD19E00D2006F04FFD034653
:10327000002B13D00A2006F049FD0346002B0DD089
:1032800000F0DEF90A4B1B780133DAB2084B1A70F2
:10329000054B1B6819460A2006F022FD00BF38378F
:1032A000BD4680BDF9330020FC330020F8330020F8
:1032B000F13300209E0100209D0100209F0100208D
:1032C0000934002008340020F43300209C01002041
:1032D0000034002004340020A0010020B4BC000809
:1032E00000140140B8BC0008CCBC000880B592B006
:1032F00002AF0023BB87B7F93C3047F6FF72934219
:1033000004D123492348FEF7B1F80BE0B7F93C306C
:103310003846214A3C2106F0CBFE3B4619461D4863
:10332000FEF7A4F8002387F83F3028E097F83F30F5
:103330001A4A32F81330BB87B7F93C3047F6FF72B0
:10334000934207D197F83F303846154A3C2106F0A2
:10335000AFFE0AE097F83F20B7F93C3038460093BB
:103360001346104A3C2106F0A3FE3B461946094885
:10337000FEF77CF897F83F30013387F83F3097F835
:103380003F30072BD2D900BF00BF4037BD4680BDBC
:10339000E0BC000800140140FCBC00082C340020F4
:1033A00014BD00082CBD000880B588B000AF0346EE
:1033B000FB712C4A07F1140392E8030018600433F0
:1033C0001980FB79002B21D0FB79242B1ED8FB79A7
:1033D000013B254A82FB0312DB17D31AFB76FB79EC
:1033E0005A1E214B83FB0231D317C91A0B465B00CF
:1033F0000B445B00D11A0B46BB76BB7E01229A4080
:10340000FB7ED2B220333B4403F80C2C0023FB613B
:103410000FE0FB69C3F1050320333B4413F80C1C98
:1034200007F10C02FB6913440A461A70FB69013369
:10343000FB61FB69052BECDD4FF400710B48FFF7D6
:10344000EDFD07F10C014FF47A730622084804F0F1
:10345000A2FA4FF400710548FFF7D2FD00BF2037F4
:10346000BD4680BD40BD0008ABAAAA2A000C0240A0
:103470008834002080B586B000AF0346FB712D4A2A
:1034800007F10C0392E80300186004331980FB79FC
:10349000002B21D0FB79242B1ED8FB79013B264A37
:1034A00082FB0312DB17D31AFB74FB795A1E224BE3
:1034B00083FB0231D317C91A0B465B000B445B0038
:1034C000D11A0B46BB74BB7C01229A40FB7CD2B262
:1034D00018333B4403F80C2C4FF480511748FFF786
:1034E0009DFD05237B6112E007F10C027B6913440B
:1034F0001B7819461248FFF771FD00BF1048FFF70F
:1035000047FD0346002BF9D07B69013B7B617B695A
:10351000002BE9DA00BF0A48FFF74DFD0346002BF8
:10352000F9D14FF480510548FFF76AFD00BF183705
:10353000BD4680BD40BD0008ABAAAA2A00100240CB
:103540000030014080B598B002AF0023A7F84030AA
:1035500000237B654FF000033B65324BFB64002387
:10356000BB6400237B644FF400612F48FFF756FDD6
:1035700000BF4FF400612C48FFF742FD4FF480611B
:103580002948FFF74BFD07F140014FF47A730222FF
:10359000264804F044FB4FF480612348FFF730FDD8
:1035A00097F840301B0297F8412013437B657B6DF1
:1035B00007EE903AB8EE677ADFED1D6AC7EE267A1D
:1035C00097ED137A67EE277AC7ED147AD7ED147A60
:1035D000FDEEE77A17EE903ABB64BB6C07EE903ACB
:1035E000F8EEE77A97ED147A77EE677A9FED117A25
:1035F00067EE877AFDEEE77A17EE903A7B64381D26
:103600007B6C0193BB6C00937B6D0B4A3C2106F0F5
:103610004FFD3B1D19460948FDF728FF00BF5837ED
:10362000BD4680BD00004040000C024088340020B0
:103630000000804700007A4448BD000800140140A3
:1036400080B590B002AF0023BB860023FB864FF409
:1036500000611C48FFF7E2FC00BF4FF4006119480D
:10366000FFF7CEFC4FF480611648FFF7D7FC07F157
:1036700034014FF47A730222134804F0D0FA4FF465
:1036800080611048FFF7BCFC97F834301B021AB277
:1036900097F835301BB213431BB2FB860B4B1B78DC
:1036A0001A46FB8E384600931346094A322106F02B
:1036B000FFFC3B4619460748FDF7D8FE00BF3837E8
:1036C000BD4680BD000C024088340020F13300204C
:1036D0006CBD00080014014080B500AF02490348EA
:1036E00006F02AFB00BF80BD8C010020880100206D
:1036F00080B483B000AF786039607B683A689A61C3
:1037000000BF0C37BD465DF8047B704780B483B0C2
:1037100000AF786039603B681A047B689A6100BF2B
:103720000C37BD465DF8047B704780B483B000AFB2
:1037300078607B689B6803F00203022B01D10123B0
:1037400000E0002318460C37BD465DF8047B704747
:1037500080B483B000AF78607B689B6803F080031F
:10376000802B01D1012300E0002318460C37BD4611
:103770005DF8047B704780B485B000AF78600B467D
:10378000FB707B680C33FB60FB68FA781A7000BF33
:103790001437BD465DF8047B7047000080B584B0E7
:1037A00000AF03460A46FB711346BB714FF48041DC
:1037B0002A48FFF7ABFFFB79002B07D0BB791B0131
:1037C0001AB2274B13431BB29BB206E0BB791B0115
:1037D0001BB243F440531BB29BB2FB81FB891B0A13
:1037E0009BB2DBB219461F48FFF7C5FF00BF1D485B
:1037F000FFF79BFF0346002BF9D0FB89DBB219468C
:103800001848FFF7B8FF00BF1648FFF78EFF0346C2
:10381000002BF9D000BF1348FFF79AFF0346002B97
:10382000F9D14FF480410D48FFF762FF4FF400419A
:103830000A48FFF76BFF0023BB6002E0BB6801335F
:10384000BB60BB68632BF9DD4FF400410348FFF711
:103850004FFF00BF1037BD4680BD00BF00100240C3
:1038600000B0FFFF0030014080B483B000AF5B4B7D
:103870005B790133DAB2594B5A71584B5B793B2B68
:103880007AD9564B00225A71544B1B790133DAB264
:10389000524B1A71514B1B793B2B6DD94F4B002268
:1038A0001A714E4BDB780133DAB24C4BDA704B4B6A
:1038B000DB78172B60D9494B0022DA70474B1B7815
:1038C0000133DAB2454B1A70444B9B7803F0030383
:1038D000DBB2002B1ED1414B9B78414AA2FB031265
:1038E0005209642101FB02F29B1ADBB2002B0FD1BB
:1038F0003A4B9B781A463A4B83FB0213D911D317E4
:10390000CB1A4FF4C87101FB03F3D31A002B01D17A
:10391000012300E00023FB71304B5B78022B03D1C5
:10392000FB791C33DBB204E02C4B5B78013B2D4A66
:10393000D35CBB71294B1B78BA799A421CD2274BB6
:1039400001221A70254B5B780133DAB2234B5A708F
:10395000224B5B780C2B0FD9204B01225A701F4B46
:103960009B780133DAB21D4B9A701C4B9B78632B0A
:1039700002D91A4B00229A701B4B9B790133DAB2A1
:10398000194B9A71184B9B793B2B21D9164B00226E
:103990009A71154B5B790133DAB2134B5A71124BA2
:1039A0005B793B2B14D9104B00225A710E4B1B79BB
:1039B0000133DAB20C4B1A710B4B1B79172B07D959
:1039C000094B00221A71084B1B680133064A136029
:1039D00000BF0C37BD465DF8047B7047A401002092
:1039E0001F85EB518CBD00080C34002080B500AF62
:1039F000114B00229A70104B01225A700E4B01227B
:103A00001A700D4B0022DA700B4B00221A710A4B10
:103A100000225A71094B00221A60084B00221A71C9
:103A2000064B00225A71054B00229A710449054841
:103A300006F082F900BF80BDA40100200C340020F4
:103A4000B0010020AC01002080B483B000AF7860EA
:103A50007B68002B06D07B68054A10681860928846
:103A60009A8000E000BF0C37BD465DF8047B7047CC
:103A7000A401002080B483B000AF786039607B6817
:103A80003A685A6300BF0C37BD465DF8047B704747
:103A900080B483B000AF786039607B683A689A631D
:103AA00000BF0C37BD465DF8047B704780B483B01F
:103AB00000AF786039607B683A68DA6300BF0C3722
:103AC000BD465DF8047B704780B483B000AF78607A
:103AD00039607B683A681A6400BF0C37BD465DF8F0
:103AE000047B704780B582B000AF03460A46FB7185
:103AF0001346BB80BB8842F20F72934202D942F256
:103B00000F73BB80FB79032B22D801A252F823F05C
:103B1000213B00082D3B0008393B0008453B0008CD
:103B2000BB8819460D48FFF7A5FF12E0BB88194670
:103B30000A48FFF7ADFF0CE0BB8819460748FFF7BE
:103B4000B5FF06E0BB8819460448FFF7BDFF00E05B
:103B500000BF00BF0837BD4680BD00BF0000014068
:103B600080B483B000AF786039607B683A685A638C
:103B700000BF0C37BD465DF8047B704780B483B04E
:103B800000AF786039607B683A689A6300BF0C3791
:103B9000BD465DF8047B704780B483B000AF7860A9
:103BA00039607B683A68DA6300BF0C37BD465DF860
:103BB000047B704780B483B000AF786039607B6865
:103BC0003A681A6400BF0C37BD465DF8047B704745
:103BD00080B582B000AF03460A46FB711346BB8036
:103BE000BB8842F20F72934202D942F20F73BB803C
:103BF000FB79032B2ED801A252F823F00D3C0008CC
:103C00001F3C0008313C0008433C0008144ABB88B4
:103C10001380BB8819461348FFF7A2FF1BE0104A28
:103C2000BB885380BB8819460E48FFF7A7FF12E0F8
:103C30000B4ABB889380BB8819460A48FFF7ACFF44
:103C400009E0074ABB88D380BB8819460548FFF7BF
:103C5000B1FF00E000BF00BF0837BD4680BD00BF18
:103C6000143400200004004080B483B000AF034649
:103C7000FB71FB79044A32F8133018460C37BD4605
:103C80005DF8047B704700BF1434002080B483B01B
:103C900000AF78607B689B6803F00103012B01D1C2
:103CA000012300E0002318460C37BD465DF8047B75
:103CB000704780B483B000AF78607B680C331B78AA
:103CC000DBB218460C37BD465DF8047B704780B404
:103CD00085B000AF78600B46FB707B680C33FB60EF
:103CE000FB68FA781A7000BF1437BD465DF8047B94
:103CF000704780B483B000AF786039607B683A6801
:103D00009A6100BF0C37BD465DF8047B704780B4F4
:103D100083B000AF786039603B681A047B689A61B1
:103D200000BF0C37BD465DF8047B704780B500AF1F
:103D30004FF480710248FFF7EAFF00BF80BD00BF6B
:103D40000004024080B500AF4FF480710248FFF7D5
:103D5000D0FF00BF80BD00BF0004024080B582B02C
:103D600000AF0346FB71FB7919460948FFF7AFFF27
:103D700000BF0748FFF78AFF0346002BF9D004482D
:103D8000FFF797FF034618460837BD4680BD00BFC2
:103D90000030014080B584B000AF78600B46FB7006
:103DA0000023FB73FFF7C2FF0023BB7310E0BB7B54
:103DB0007A6813441B781846FFF7D0FF0346FB735D
:103DC000BB7B7A681344FA7B1A70BB7B0133BB73ED
:103DD000BA7BFB789A42EAD3FFF7B4FFFB7B184625
:103DE0001037BD4680BD0000B0B582B000AFC7E956
:103DF0000001D7E900010E4D00242A1A64EB0103EB
:103E00004FF000004FF00001590641EAD211500670
:103E100005A3D3E90023FCF743FA02460B461346F9
:103E200018460837BD46B0BD00F9029500000000F5
:103E3000807C814A2DE9B00F85B000AFF860F96849
:103E4000C8170C4605461B4901FB05F0002104FB81
:103E500001F101441748A4FB002319440B46104606
:103E60001946002908DA6FF07E43C3183B6041F120
:103E700000037B60D7E900014FF000024FF0000320
:103E8000420E42EAC1124B160021D2F1000A61EB48
:103E9000030B52465B46084912EB010843F1000947
:103EA00042464B46104619461437BD46BDE8B00F92
:103EB000704700BF00F90295807C814A80B586B0CA
:103EC00000AF78600023FB6000233B617B681B78B8
:103ED0003B737B681B795B00DBB27B737B681B7871
:103EE000F22B11D17B681A6907F10C0302331946D2
:103EF000104600F03AFA07F10C030621184600F0CC
:103F0000F9F90346BB7407E007F10C0302211846D8
:103F100000F0F0F90346BB737B685A7807F10C0395
:103F200011461846FFF736FF07F10C03184600F05C
:103F30005AFA03469AB24FF0FF337B617B695B0507
:103F40007B617B695B0D7B617B699BB213409AB29D
:103F50007B68DA827B681B78F22B06D1BA7B7B68A0
:103F60001A75FA7C7B685A7519E07B681B78F42B0C
:103F70000FD107F10C030233184600F017FA02467E
:103F80007B681A61BA7C7B681A75FA7C7B685A7503
:103F900005E0BA7B7B681A75FA7B7B685A757B688B
:103FA0005B7DA52B02D04FF0FF3300E000231846C5
:103FB0001837BD4680BD000080B58AB000AF03460B
:103FC0003960FB71002387F82730144B1B883B8135
:103FD0003B89BB81FA79124913465B0013449B006D
:103FE000CA1807F1100307CA83E8070007F10C039A
:103FF0001846FFF763FF034687F8273097F9273005
:10400000002B02D097F9273003E0FA693B681A6069
:10401000002318462837BD4680BD00BF80BD00087C
:10402000C401002080B58AB000AF03463960FB713F
:104030000E4B1B88BB81BB893B82FA790C49134626
:104040005B0013449B00CA1807F1140307CA83E8F6
:1040500007003B683B6207F110031846FFF72EFF8D
:10406000034618462837BD4680BD00BF84BD000802
:10407000C401002080B586B000AF0346B9607A6005
:10408000FB7307F11402FB7B11461846FFF794FF00
:10409000BB68DA437B6913407B617968B86800F0DC
:1040A000D2F902467B6913437B617A69FB7B114637
:1040B0001846FFF7B7FF034618461837BD4680BDC0
:1040C00080B582B000AF0346FB71FB791A4601212F
:1040D0000020FFF7CFFF034618460837BD4680BDD6
:1040E00080B582B000AF0346FB71FB791A4602210E
:1040F0000020FFF7BFFF034618460837BD4680BDC6
:1041000080B500AF01224FF480410020FFF7B2FFDD
:104110000346184680BD80B582B000AF4FF0FF3334
:104120007B607B689B067B607B685B0D7B607B684C
:10413000002219460120FFF79DFF03461846083765
:10414000BD4680BD80B584B000AF78604FF0FF33CE
:10415000FB60FB687A6819460420FFF78BFF034673
:1041600018461037BD4680BD2DE9F04F8FB000AF27
:10417000002387F836304FF400415348FFF7C7FD5E
:1041800008215248FFF7C3FDFFF7BAFFFFF7C3FF4F
:10419000034687F836304FF400414B48FFF7A9FD3E
:1041A0000120FFF78DFF034687F8363043F60121E3
:1041B0000020FFF737FF034687F836304FF07F4087
:1041C000FFF7C0FF034687F8363000210120FFF7D4
:1041D00029FF034687F83630012005F021FD43F61C
:1041E00001210020FFF71EFF034687F836304FF00D
:1041F0007F40FFF71FFEC7E90A010020FFF71AFE04
:10420000C7E90801002387F8373045E0D7E90801FE
:10421000D7E90A23841A61EB030597F837300022A7
:104220009846914608FB05F204FB09F31344A4FBEE
:1042300008AB5B449B4652465B46002B06DAD11C1A
:10424000B96043F10003FB60D7E902234FF000009F
:104250004FF00001900840EA83709910D7E90A23D3
:1042600016183E604B417B60D7E90023C7E906235F
:10427000D7E90601FFF7B8FD78617B691846FFF7BB
:1042800061FF034687F83630012005F0C9FC97F836
:104290003730013387F8373097F83730042BB5D9EA
:1042A00008210A48FFF725FD0120FFF719FF034603
:1042B00087F83630B420FCF7CFF997F93630184636
:1042C0003C37BD46BDE8F08F0008024000100240B8
:1042D00080B487B000AF0146C7E900230B46FB73EB
:1042E0000023FB7597F9173018461C37BD465DF85B
:1042F000047B704780B485B000AF78600B46FB70DC
:104300000023FB7307233B730023BB7322E0BB7BBB
:104310007A6813441A78FB7B5340FB7300237B734A
:1043200012E097F90F30002B08DAFB7B5B005AB2E2
:1043300097F90C3053405BB2FB7302E0FB7B5B00F0
:10434000FB737B7B01337B737B7B072BE9D9BB7BC7
:104350000133BB73BA7BFB789A42D8D3FB7B1846F8
:104360001437BD465DF8047B704780B483B000AF5E
:10437000786039603B6803337A68D2B21A707B6820
:104380001A0A3B680233D2B21A707B681A0C3B6877
:104390000133D2B21A707B681B0EDAB23B681A7016
:1043A00000BF0C37BD465DF8047B704780B483B016
:1043B00000AF78607B6803331B781A467B68023352
:1043C0001B781B0213431A467B6801331B781B04BE
:1043D0001A437B681B781B06134318460C37BD46EF
:1043E0005DF8047B704780B483B000AF78607B6871
:1043F00001331B781A467B681B781B02134318464F
:104400000C37BD465DF8047B704780B485B000AFC3
:1044100078600023FB600CE07B6803F00103002B55
:1044200001D0FB6809E07B685B087B60FB680133B7
:10443000FB607B68002BEFD1202318461437BD4664
:104440005DF8047B704780B582B000AF786039605A
:104450007868FFF7DAFF02463B6803FA02F27B68EE
:10446000134018460837BD4680BD80B483B000AF06
:1044700078607B689B6843F001027B689A6000BFAC
:104480000C37BD465DF8047B704780B483B000AF45
:1044900078607B689B6803F00103012B0CBF01234C
:1044A0000023DBB218460C37BD465DF8047B70472D
:1044B00080B483B000AF78607B689B6843F0804233
:1044C0007B689A6000BF0C37BD465DF8047B70477F
:1044D00080B483B000AF786039600C4A3B68134405
:1044E0001B781A467B6813441B6808493A680A44DB
:1044F000127811467A680A4443F00103136000BF42
:104500000C37BD465DF8047B704700BF98BD0008BE
:1045100080B485B000AFF860B9607A600D4ABB68BE
:1045200013441B781A46FB6813441B6823F0C0022F
:104530000849BB680B441B781946FB680B441946B5
:104540007B6813430B6000BF1437BD465DF8047BE6
:10455000704700BF98BD000880B485B000AFF86018
:10456000B9607A600D4ABB6813441B781A46FB6831
:1045700013441B6823F490720849BB680B441B78F2
:104580001946FB680B4419467B6813430B6000BF58
:104590001437BD465DF8047B704700BF98BD000826
:1045A00080B485B000AFF860B9607A600D4ABB682E
:1045B00013441B781A46FB6813441B6823F40072EB
:1045C0000849BB680B441B781946FB680B44194625
:1045D0007B6813430B6000BF1437BD465DF8047B56
:1045E000704700BF98BD000880B485B000AFF86088
:1045F000B9607A600D4ABB6813441B781A46FB68A1
:1046000013441B6823F480620849BB680B441B7881
:104610001946FB680B4419467B6813430B6000BFC7
:104620001437BD465DF8047B704700BF98BD000895
:1046300080B485B000AFF860B9607A600D4ABB689D
:1046400013441B781A46FB6813441B6823F4C052BA
:104650000849BB680B441B781946FB680B44194694
:104660007B6813430B6000BF1437BD465DF8047BC5
:10467000704700BF98BD000880B485B000AFF860F7
:10468000B9607A600D4ABB6813441B781A46FB6810
:1046900013441B6823F4C0420849BB680B441B78D1
:1046A0001946FB680B4419467B6813430B6000BF37
:1046B0001437BD465DF8047B704700BF98BD000805
:1046C00080B485B000AFF860B9607A600D4ABB680D
:1046D00013441B781A46FB6813445B681B0C1B04CD
:1046E0000849BA680A4412781146FA680A44114621
:1046F0007A6813434B6000BF1437BD465DF8047BF6
:10470000704700BF98BD000880B485B000AFF86066
:10471000B9607A600D4ABB6813441B781A46FB687F
:1047200013441B6823F060620849BB680B441B7884
:104730001946FB680B4419467B6813430B6000BFA6
:104740001437BD465DF8047B704700BF98BD000874
:1047500080B485B000AFF860B9607A60074ABB6882
:1047600013441B781A46FB6813441A467B68D360CF
:1047700000BF1437BD465DF8047B704798BD000844
:1047800080B485B000AFF860B9607A60074ABB6852
:1047900013441B781A46FB6813441A467B689360DF
:1047A00000BF1437BD465DF8047B704798BD000814
:1047B00080B500AF002200212348FFF7A5FF0022AB
:1047C00000212148FFF7A4FE002200211E48FFF728
:1047D000E7FE4FF4806200211B48FFF705FF4FF40E
:1047E000006200211848FFF723FF4FF40052002118
:1047F0001548FFF741FF082200211348FFF760FF2B
:10480000124A00211048FFF7BBFF114B1A46002146
:104810000D48FFF79DFF4FF4807200210A48FFF713
:104820009BFE00210848FFF753FE0A48FFF71DFED4
:1048300000BF0848FFF729FE0346002BF9D00548C2
:10484000FFF736FE00BF80BD006402404C200140EF
:104850001C3400200020014080B485B000AF786097
:104860000023FB7328E0FB7B184A32F8133019460B
:10487000FB7B5B007A681344154A32F911201A80D9
:10488000FB7B5B007A681344B3F9003013F5FA7FC1
:1048900008DBFB7B5B007A681344B3F90030B3F5A7
:1048A000FA6F06DDFB7B5B007A68134447F6FF7204
:1048B0001A80FB7B0133FB73FB7B072BD3D900BF33
:1048C00000BF1437BD465DF8047B70471C340020E0
:1048D0002402002080B483B000AF786039607B6828
:1048E0003A689A6100BF0C37BD465DF8047B70479B
:1048F00080B483B000AF786039603B681A047B688D
:104900009A6100BF0C37BD465DF8047B704700001C
:1049100080B500AF0A4A13786FF300031370084A9A
:1049200013786FF341031370054A13786FF387030D
:10493000137000F0D5F800F0EBF800BF80BD00BFA9
:104940003C34002080B500AF0C4B1B78C3F38503CB
:10495000DBB2022B0CD0022B0DDC002B02D0012B82
:1049600003D008E000F00CF806E000F051F803E096
:1049700000F070F800E000BF00BF80BD3C340020B4
:1049800080B500AF214B1B7803F00103DBB2002B95
:1049900020D01E4B1B7803F00203DBB2002B19D092
:1049A000002005F0B3F90346002B2DD0174A1378E9
:1049B0006FF300031370154A13786FF341031370FC
:1049C00000F09AF800F0B0F84FF4FA71002005F00A
:1049D00087F919E0002005F099F90346002B13D060
:1049E0000A4A137843F001031370084A137843F01E
:1049F0000203137000F074F800F08AF84FF4FA71B3
:104A0000002005F06DF9FFE700BF80BD3C340020B9
:104A100080B500AF4FF400610D48FFF769FF4FF418
:104A200080610B48FFF756FF4FF4FA7005F0F8F875
:104A30004FF480610648FFF75BFF4FF400610448C4
:104A4000FFF748FF4FF4FA7005F0EAF800BF80BDA9
:104A50000010024080B500AF204B1B7803F001032B
:104A6000DBB2002B1FD01D4B1B7803F00203DBB21F
:104A7000002B18D0002005F049F90346002B2BD05D
:104A8000164A13786FF300031370144A13786FF308
:104A90004103137000F030F800F046F83221002096
:104AA00005F01EF918E0002005F030F90346002B50
:104AB00012D00A4A137843F001031370074A13789F
:104AC00043F00203137000F00BF800F021F83221DC
:104AD000002005F005F9FFE700BF80BD3C34002051
:104AE00080B500AF4FF480610248FFF7F3FE00BFCE
:104AF00080BD00BF0010024080B500AF4FF4806160
:104B00000248FFF7F5FE00BF80BD00BF0010024065
:104B100080B500AF4FF400610248FFF7DBFE00BF35
:104B200080BD00BF0010024080B500AF4FF40061AF
:104B30000248FFF7DDFE00BF80BD00BF001002404D
:104B400080B500AF0249034805F0F6F800BF80BD0C
:104B5000282200202422002080B400AF044BDB6810
:104B60001B0A03F007031846BD465DF8047B704737
:104B700000ED00E080B483B000AF0346FB7197F90D
:104B80000730002B0BDBFB7903F01F02074997F975
:104B900007305B09012000FA02F241F8232000BF30
:104BA0000C37BD465DF8047B704700BF00E100E0B4
:104BB00080B483B000AF03463960FB7197F90730CA
:104BC000002B0ADB3B68DAB20C4997F90730120177
:104BD000D2B20B4483F800230AE03B68DAB20849FA
:104BE000FB7903F00F03043B1201D2B20B441A7697
:104BF00000BF0C37BD465DF8047B704700E100E064
:104C000000ED00E080B489B000AFF860B9607A6070
:104C1000FB6803F00703FB61FB69C3F10703042B87
:104C200028BF0423BB61FB690433062B02D9FB694F
:104C3000033B00E000237B614FF0FF32BB6902FAC7
:104C400003F3DA43BB681A407B699A404FF0FF31A7
:104C50007B6901FA03F3D9437B680B401343184681
:104C60002437BD465DF8047B704780B489B000AF3F
:104C7000F860B9607A60FB682C331946BB6803F4AE
:104C800040734FF440727A617A6992FAA2F23A6103
:104C90003A69BA61BA69002A01D1202203E0BA69EF
:104CA000B2FA82F2D2B2D3409B000B44FB61FB69A3
:104CB0001A68BB6803F01F031F2101FA03F3DB43EB
:104CC0001A407B6803F01F01BB6803F01F0301FA61
:104CD00003F31A43FB691A6000BF2437BD465DF831
:104CE000047B704780B483B000AF786039607B6824
:104CF0009B6823F480623B681A437B689A6000BF1C
:104D00000C37BD465DF8047B704780B48FB000AFB0
:104D1000F860B9607A60FB680C331946BB6803F031
:104D200000734FF000727A617A6992FAA2F23A61E6
:104D30003A69BA61BA69002A01D1202203E0BA694E
:104D4000B2FA82F2D2B2D3409B000B447B637B6BFE
:104D50001A68BB6803F0F8734FF0F8713962396A6A
:104D600091FAA1F1F961F9697962796A002901D1B1
:104D7000202103E0796AB1FA81F1C9B2CB40072161
:104D800001FA03F3DB431A40BB6803F0F8734FF0FA
:104D9000F871F962F96A91FAA1F1B962B96A3963F5
:104DA000396B002901D1202103E0396BB1FA81F17F
:104DB000C9B2CB40796801FA03F31A437B6B1A60DE
:104DC00000BF3C37BD465DF8047B704780B485B0BA
:104DD00000AFF860B9607A600D4ABB6813441B7875
:104DE0001A46FB6813441B6823F0C0020849BB68DD
:104DF0000B441B781946FB680B4419467B68134328
:104E00000B6000BF1437BD465DF8047B704700BFE0
:104E1000A0BD000880B485B000AFF860B9607A60CA
:104E20000D4ABB6813441B781A46FB6813441B6881
:104E300023F490720849BB680B441B781946FB6841
:104E40000B4419467B6813430B6000BF1437BD4603
:104E50005DF8047B704700BFA0BD000880B485B03A
:104E600000AFF860B9607A600D4ABB6813441B78E4
:104E70001A46FB6813441B6823F400720849BB6898
:104E80000B441B781946FB680B4419467B68134397
:104E90000B6000BF1437BD465DF8047B704700BF50
:104EA000A0BD000880B485B000AFF860B9607A603A
:104EB0000D4ABB6813441B781A46FB6813441B68F1
:104EC00023F480620849BB680B441B781946FB68D1
:104ED0000B4419467B6813430B6000BF1437BD4673
:104EE0005DF8047B704700BFA0BD000880B485B0AA
:104EF00000AFF860B9607A600D4ABB6813441B7854
:104F00001A46FB6813441B6823F4C0520849BB6867
:104F10000B441B781946FB680B4419467B68134306
:104F20000B6000BF1437BD465DF8047B704700BFBF
:104F3000A0BD000880B485B000AFF860B9607A60A9
:104F40000D4ABB6813441B781A46FB6813441B6860
:104F500023F4C0420849BB680B441B781946FB6820
:104F60000B4419467B6813430B6000BF1437BD46E2
:104F70005DF8047B704700BFA0BD000880B485B019
:104F800000AFF860B9607A600D4ABB6813441B78C3
:104F90001A46FB6813441B6823F440320849BB6877
:104FA0000B441B781946FB680B4419467B68134376
:104FB0000B6000BF1437BD465DF8047B704700BF2F
:104FC000A0BD000880B485B000AFF860B9607A6019
:104FD0000D4ABB6813441B781A46FB6813441B68D0
:104FE00023F060620849BB680B441B781946FB68D4
:104FF0000B4419467B6813430B6000BF1437BD4652
:105000005DF8047B704700BFA0BD000880B483B08A
:1050100000AF786039600C4A3B6813441B781A462D
:105020007B6813445B6908493A680A441278114660
:105030007A680A4423F00403536100BF0C37BD466D
:105040005DF8047B704700BFA0BD000880B483B04A
:1050500000AF78607B681B6843F001027B681A60D0
:1050600000BF0C37BD465DF8047B704780B483B049
:1050700000AF78607B681B6823F080027B681A6051
:1050800000BF0C37BD465DF8047B704780B483B029
:1050900000AF78607B681B6823F040027B681A6071
:1050A00000BF0C37BD465DF8047B704780B483B009
:1050B00000AF786039607B68DB6823F0FE023B68F4
:1050C0001A437B68DA6000BF0C37BD465DF8047B8D
:1050D000704780B483B000AF78607B68DB6823F0F2
:1050E00001027B68DA6000BF0C37BD465DF8047BC7
:1050F000704780B483B000AF78607B685B6843F42E
:1051000000727B685A6000BF0C37BD465DF8047BB7
:105110007047000080B400AF054B1B68044A43F49D
:105120008033136000BFBD465DF8047B704700BF4D
:105130000038024080B400AF074B1B6803F4003313
:10514000B3F5003F0CBF01230023DBB21846BD4678
:105150005DF8047B704700BF0038024080B483B024
:1051600000AF7860064B9B6823F0030204497B681C
:1051700013438B6000BF0C37BD465DF8047B70475E
:105180000038024080B400AF044B9B6803F00C036E
:105190001846BD465DF8047B704700BF00380240EA
:1051A00080B483B000AF7860064B9B6823F0F002B8
:1051B00004497B6813438B6000BF0C37BD465DF824
:1051C000047B70470038024080B483B000AF786041
:1051D000064B9B6823F4E05204497B6813438B60C1
:1051E00000BF0C37BD465DF8047B704700380240B5
:1051F00080B483B000AF7860064B9B6823F46042B4
:1052000004497B6813438B6000BF0C37BD465DF8D3
:10521000047B70470038024080B485B000AF7860EE
:10522000084B1A6B07497B6813430B63054B1A6BDA
:105230007B681340FB60FB6800BF1437BD465DF818
:10524000047B70470038024080B485B000AF7860BE
:10525000084B1A6C07497B6813430B64054B1A6CA7
:105260007B681340FB60FB6800BF1437BD465DF8E8
:10527000047B70470038024080B485B000AF78608E
:10528000084B5A6C07497B6813434B64054B5A6CB7
:105290007B681340FB60FB6800BF1437BD465DF8B8
:1052A000047B70470038024080B483B000AF786060
:1052B000064B1B6823F0070204497B6813430B600D
:1052C00000BF0C37BD465DF8047B7047003C0240D0
:1052D00080B400AF044B1B6803F007031846BD46BB
:1052E0005DF8047B704700BF003C024080B483B08F
:1052F00000AF7860064B1B6823F4804204497B684A
:1053000013430B6000BF0C37BD465DF8047B70474C
:105310000070004080B483B000AF78607B681B6889
:1053200043F040027B681A6000BF0C37BD465DF851
:10533000047B704780B483B000AF786039607B68CD
:105340005B6823F010023B681A437B685A6000BF19
:105350000C37BD465DF8047B704780B483B000AF66
:1053600078607B681B6823F080027B681A6000BF4E
:105370000C37BD465DF8047B7047000080B485B0F3
:1053800000AF786039603B68012B1CD03B68042B70
:1053900017D03B68102B12D03B68402B0DD03B68D8
:1053A000B3F5807F07D03B68B3F5806F01D105234B
:1053B0000AE0062308E0042306E0032304E00223B6
:1053C00002E0012300E00023FB737B6818331946D9
:1053D000FB7B0B4AD35C0B44BB60BB681A68FB7B4E
:1053E0000849CB5C194604238B40DB431A40BB6859
:1053F0001A6000BF1437BD465DF8047B704700BFDC
:10540000A8BD0008B0BD000880B485B000AF7860CA
:1054100039603B68012B1CD03B68042B17D03B68DC
:10542000102B12D03B68402B0DD03B68B3F5807F2A
:1054300007D03B68B3F5806F01D105230AE006234E
:1054400008E0042306E0032304E0022302E0012332
:1054500000E00023FB737B6818331946FB7B0A4A84
:10546000D35C0B44BB60BB681A68FB7B0749CB5C11
:10547000194608238B401A43BB681A6000BF1437D3
:10548000BD465DF8047B7047A8BD0008B0BD0008AC
:1054900080B483B000AF786039607B689B6823F488
:1054A000804323F007033A681A437B689A6000BF81
:1054B0000C37BD465DF8047B704780B483B000AF05
:1054C000786039607B685B6823F070023B681A4340
:1054D0007B685A6000BF0C37BD465DF8047B70479F
:1054E00080B483B000AF78607B689B6823F0800253
:1054F0007B689A6000BF0C37BD465DF8047B70473F
:1055000080B483B000AF78607B68DB6843F40052FE
:105510007B68DA6000BF0C37BD465DF8047B7047DE
:1055200080B483B000AF78607B681B6923F490423D
:105530007B681A617B685B6923F02A027B685A6189
:1055400000BF0C37BD465DF8047B704780B483B064
:1055500000AF786039607B683A689A6100BF0C37A9
:10556000BD465DF8047B704780B483B000AF7860BF
:1055700039603B681A047B689A6100BF0C37BD46EE
:105580005DF8047B7047000080B500AF01F000FCBF
:1055900000F04CF800F040FD00F026FD00F0CAFAE3
:1055A00000F07CF800F088FB00F0ECF900F02CFC37
:1055B00000F042FA00F04AFB00F012FB00F054FC4D
:1055C00000F0B2FC00F08CF901F09AFBFFF7A0F9B3
:1055D0001348FCF7ADF8FFF7EBF801F079F904F0A8
:1055E00055FB01F099FBFFF7ABFAFDF767FC01F003
:1055F00075F9FEF771F8FEF7F9F904F071FCFBF7A5
:10560000EFFB0848FBF778FA04210748FFF79EFFF5
:1056100010210548FFF79AFF04F068FCFCE700BF83
:1056200000140140005800400004024080B500AF63
:105630000020FFF739FE00BFFFF74AFE0346002BAC
:10564000FAD14FF48040FFF751FEFFF763FD00BF32
:10565000FFF770FD0346012BFAD10020FFF7A0FDF4
:105660000020FFF7B1FD0020FFF7C2FD0120FFF78A
:1056700075FD00BFFFF786FD0346042BFAD10648EF
:1056800004F0F4FA0F2001F0A5FB0346002B01D033
:1056900000F092FD00BF80BD00127A0080B592B08C
:1056A00000AF07F13C0300221A605A609A6007F1CC
:1056B000280300221A605A609A60DA601A6107F1C2
:1056C000180300221A605A609A60DA603B46002292
:1056D0001A605A609A60DA601A615A614FF48070F9
:1056E000FFF7CAFD0420FFF797FD0120FFF794FDA7
:1056F0000220FFF791FD3F233B6003237B600023E3
:105700003B613B461946694803F0B5F810233B60FE
:1057100003237B6000233B613B461946644803F04A
:10572000AAF803233B6003237B6000233B613B46D5
:105730001946604803F09FF8002200215E48FFF7F9
:1057400041FC002200215C48FFF740FB4FF480320F
:1057500000215948FFF712FC4FF48072002156488F
:10576000FFF758FB002200215348FFF777FB4FF467
:10577000806200215048FFF795FB4FF40062002142
:105780004D48FFF7B3FB4FF4005200214A48FFF7A2
:10579000D1FB00214848FFF739FC0023FB630023BD
:1057A0003B644FF480737B6407F13C031946434824
:1057B00002F0A8FE0023BB624FF4E003FB6200236B
:1057C0003B6302237B634FF44073BB6307F1280301
:1057D00019463A4802F0C2FE00213848FFF782FA23
:1057E0000023BB610023FB6107F11803194634480D
:1057F00002F040FE0A224FF400713048FFF735FAFC
:1058000001220A212D48FFF780FA2E4A40F2052195
:105810002A48FFF72AFA01222A492848FFF775FA91
:10582000294A40F20A212548FFF71FFA012226499A
:105830002248FFF76AFA254A40F20F211F48FFF776
:1058400014FA012221491D48FFF75FFA204A4FF45C
:1058500005711A48FFF709FA01221D491748FFF799
:1058600054FA1C4A40F219211448FFF7FEF90122AC
:1058700018491248FFF749FA174A4FF480710F4848
:10588000FFF7F3F9012214490C48FFF73EFA134AD7
:1058900040F205110948FFF7E8F901220F490748CE
:1058A000FFF733FA00BF4837BD4680BD000802400D
:1058B0000000024000040240006402400020014059
:1058C000002301400B0030000C0060000D00900030
:1058D0000E00C0000F00F000080080030900B003B4
:1058E00080B584B000AF3B4600221A605A609A60CF
:1058F000DA60214B214A1A601F4B00225A601E4B6E
:1059000000229A601C4B00221A611B4B00221A765F
:10591000194B002283F82020174B0022DA62164B25
:10592000174A9A62144B0022DA60134B0122DA61A3
:10593000114B002283F830200F4B01225A610E4890
:1059400001F0BCFA0346002B01D000F035FC022325
:105950003B6001237B600023BB603B461946064841
:1059600001F0F0FA0346002B01D000F025FC00BF47
:105970001037BD4680BD00BF4034002000220140EA
:105980000100000F80B58CB000AF07F118030022B2
:105990001A605A609A60DA601A615A613B460022C6
:1059A0001A605A609A60DA601A615A610220FFF741
:1059B00033FCC0233B6002237B600323BB600123D5
:1059C000FB6000233B6104237B613B46194617487B
:1059D00002F051FF4FF40010FFF736FC1448FFF7B8
:1059E00078FB1348FFF752FB1148FFF73FFB0023FA
:1059F000BB61104BFB6100233B6200237B624FF4D1
:105A00008063BB624FF48043FB6207F118031946C1
:105A1000074803F007F900210548FFF747FB044852
:105A2000FFF714FB00BF3037BD4680BD00040240C5
:105A300000540040A086010080B58CB000AF07F193
:105A4000180300221A605A609A60DA601A615A617B
:105A50003B4600221A605A609A60DA601A615A6105
:105A60000220FFF7D9FB4FF440633B6002237B60C9
:105A70000323BB600123FB6000233B6104237B61A4
:105A80003B461946284802F0F6FE4FF48000FFF727
:105A9000DBFBFFF761F80346002200211846FFF701
:105AA000B1F8034619462120FFF782F82120FFF7BD
:105AB00061F8FFF751F80346002200211846FFF76E
:105AC000A1F8034619462220FFF772F82220FFF7BB
:105AD00051F81648FFF7FDFA1448FFF7D7FA1348B4
