:020000040800F2
:1000000000000220994A00083148000839480008D9
:100010004148000849480008514800080000000015
:100020000000000000000000000000005948000827
:10003000674800080000000075480008854800086F
:10004000E94A0008E94A0008E94A0008E94A0008C4
:10005000E94A0008E94A0008E94A0008E94A0008B4
:10006000E94A0008E94A0008E94A0008E94A0008A4
:10007000E94A0008E94A0008E94A0008E94A000894
:10008000E94A0008E94A0008E94A0008E94A000884
:10009000E94A0008E94A0008E94A0008E94A000874
:1000A000E94A0008E94A0008E94A0008E94A000864
:1000B000E94A0008E94A0008E94A0008E94A000854
:1000C000E94A0008DD480008E9480008E94A000854
:1000D000E94A0008F5480008E94A0008E94A00082A
:1000E000E94A0008E94A0008E94A0008E94A000824
:1000F000E94A0008E94A0008E94A0008E94A000814
:10010000E94A0008E94A0008E94A0008E94A000803
:10011000E94A0008E94A0008E94A0008E94A0008F3
:1001200009490008E94A0008E94A0008E94A0008C4
:10013000E94A0008E94A0008E94A0008E94A0008D3
:10014000E94A0008E94A0008E94A0008E94A0008C3
:10015000E94A0008E94A0008E94A00081949000884
:10016000E94A0008E94A0008E94A0008E94A0008A3
:10017000E94A0008E94A0008E94A000800000000CE
:08018000E94A0008E94A000801
:1001900010B5054C237833B9044B13B10448AFF3C1
:1001A00000800123237010BD4001002000000000EA
:1001B000DC8A000808B5034B1BB103490348AFF3C1
:1001C000008008BD0000000044010020DC8A000817
:1001D00001F0FF01102A2BDB10F0070F08D010F8F8
:1001E000013B013A8B422DD010F0070F42B3F6D1FC
:1001F000F0B441EA012141EA014122F007047FF015
:1002000000070023F0E80256083C85EA010586EA6B
:10021000010685FA47F5A3FA87F586FA47F6A5FAA7
:1002200087F68EB9EED1F0BC01F0FF0102F00702B3
:1002300032B110F8013B013A83EA010313B1F8D15E
:100240000020704701387047002D06BF354603383F
:10025000073815F0010F07D1013015F4807F02BF78
:10026000013015F4C03F0130F0BC0138704700BFC9
:1002700053B94AB9002908BF00281CBF4FF0FF310D
:100280004FF0FF3000F088B9ADF1080C6DE904CEF5
:1002900000F006F8DDF804E0DDE9022304B0704761
:1002A0002DE9F047089D8E4604468846002B4AD12A
:1002B0008A42174662D9B2FA82F64EB1C6F12003DD
:1002C00001FA06F820FA03F3B74043EA0808B440FD
:1002D0004FEA174E1FFA87FCB8FBFEF1230C0EFB0A
:1002E000118843EA084301FB0CF29A4209D9FB1832
:1002F00001F1FF3080F0EA809A4240F2E780023953
:100300003B449A1AA3B2B2FBFEF00EFB102243EA62
:10031000024300FB0CFC9C4509D9FB1800F1FF329D
:1003200080F0D6809C4540F2D3803B44023840EABE
:100330000140A3EB0C0300211DB1F3400022C5E9ED
:100340000032BDE8F0878B4205D90DB1C5E9000147
:1003500000210846F5E7B3FA83F1002946D1734539
:1003600002D3824200F20581841A6EEB030201205F
:100370009046002DE5D0C5E90048E2E7002A00F0EC
:100380009080B2FA82F6002E40F0A4808A1A030C04
:100390004FEA174E80B2BCB20121B2FBFEFC0EFB4D
:1003A0001C2243EA024304FB0CF29A4207D9FB18D1
:1003B0000CF1FF3802D29A4200F2E080C4469B1A48
:1003C000B3FBFEF20EFB123340EA034302FB04F4DC
:1003D0009C4207D9FB1802F1FF3002D29C4200F286
:1003E000CA8002461B1B42EA0C40A5E7C1F1200669
:1003F0008B4022FA06F71F430EFA01F420FA06F3A7
:100400002EFA06FE4FEA1749234300FA01F81FFAB5
:1004100087FCBEFBF9F01C0C09FB10EE44EA0E440D
:1004200000FB0CFEA64502FA01F209D93C1900F1C5
:10043000FF3A80F09C80A64540F2998002383C4407
:10044000A4EB0E041FFA83FEB4FBF9F309FB13447B
:100450004EEA044403FB0CFCA44508D93C1903F103
:10046000FF3E80F08280A4457FD9023B3C4443EAB2
:100470000040A4EB0C04A0FB02EC64457346E1468B
:1004800062D35FD05DB1B8EB030264EB090404FAF8
:1004900006F622FA01F31E43CC40C5E900640021B0
:1004A0004FE7B1FBF2FC010C41EA0E4180B240EA99
:1004B00001423B4638463C46B846BE462026B1FB84
:1004C000F7F1A2EB080241EA0C4166E7014618E7A2
:1004D00010462CE7C6F120022EFA02F3B740B140D5
:1004E00020FA02F24FEA174E0A43B3FBFEF8BCB201
:1004F0000EFB1833110C41EA034108FB04F9B0402C
:1005000089454FEA104380B23ED9791808F1FF3C83
:1005100001D289451FD8A1EB0901B1FBFEF909FB06
:1005200004F80EFB191192B242EA0142424529D267
:10053000BA1809F1FF31C4D24245C2D2A9F1020171
:100540003A44BEE7F0459DD2BEEB02036CEB070CCC
:100550000138E14696E7A7EB09094944A8F1020CE6
:10056000B1FBFEF909FB04F8DBE773467FE7504671
:1005700066E70846FDE63B44023A33E7ACF1020C7D
:100580003B441CE749469CE7A1EB0901C446B1FB8B
:10059000FEF909FB04F8C4E7704700BF80B483B0DC
:1005A00000AF78607B681B6843F001027B681A60CB
:1005B00000BF0C37BD465DF8047B704780B483B044
:1005C00000AF78607B681B6823F001027B681A60CB
:1005D00000BF0C37BD465DF8047B704780B483B024
:1005E00000AF78607B681B6823F080027B681A602C
:1005F00000BF0C37BD465DF8047B704780B483B004
:1006000000AF78607B681B6823F040027B681A604B
:1006100000BF0C37BD465DF8047B704780B483B0E3
:1006200000AF78607B68DB6823F001027B68DA60EA
:1006300000BF0C37BD465DF8047B704780B483B0C3
:1006400000AF78607B685B6843F400727B685A6037
:1006500000BF0C37BD465DF8047B704780B483B0A3
:1006600000AF78607B685B6843F480627B685A60A7
:1006700000BF0C37BD465DF8047B704780B483B083
:1006800000AF78607B685B6823F480627B685A60A7
:1006900000BF0C37BD465DF8047B704780B483B063
:1006A00000AF78607B685B6843F480727B685A6057
:1006B00000BF0C37BD465DF8047B704780B483B043
:1006C00000AF78607B685B6903F08003802B0CBF10
:1006D00001230023DBB218460C37BD465DF8047BCE
:1006E000704780B483B000AF78607B685B6903F0CB
:1006F0004003402B0CBF01230023DBB218460C370C
:10070000BD465DF8047B704780B483B000AF78606D
:100710007B685B6903F00203022B0CBF01230023FB
:10072000DBB218460C37BD465DF8047B704780B4D9
:1007300083B000AF78607B685B6903F48063B3F5D6
:10074000806F0CBF01230023DBB218460C37BD4677
:100750005DF8047B704780B483B000AF78607B683D
:100760005B6903F01003102B0CBF01230023DBB2E5
:1007700018460C37BD465DF8047B704780B483B0E3
:1007800000AF78607B685B6903F48073B3F5807FAA
:100790000CBF01230023DBB218460C37BD465DF8C1
:1007A000047B704780B483B000AF78607B685B697E
:1007B00003F40073B3F5007F0CBF01230023DBB209
:1007C00018460C37BD465DF8047B704780B483B093
:1007D00000AF78607B685B6903F40063B3F5006F7A
:1007E0000CBF01230023DBB218460C37BD465DF871
:1007F000047B704780B485B000AF78607B685B692C
:10080000FB60FB687B689B69FB60FB6800BF14377B
:10081000BD465DF8047B704780B483B000AF78605C
:100820007B685B6923F480627B685A6100BF0C3788
:10083000BD465DF8047B704780B485B000AF78603A
:100840007B685B69FB60FB687B681B6843F00102A7
:100850007B681A6000BF1437BD465DF8047B7047A3
:1008600080B483B000AF78607B685B6923F48072EA
:100870007B685A6100BF0C37BD465DF8047B70474A
:1008800080B483B000AF78607B685B6923F400724A
:100890007B685A6100BF0C37BD465DF8047B70472A
:1008A00080B483B000AF78607B685B6923F400623A
:1008B0007B685A6100BF0C37BD465DF8047B70470A
:1008C00080B483B000AF78607B689B6903F0040359
:1008D00018460C37BD465DF8047B704780B483B082
:1008E00000AF78607B681B69DBB218460C37BD46E9
:1008F0005DF8047B704780B483B000AF78600B462E
:10090000FB707B681B6923F0FF02FB781A437B684E
:100910001A6100BF0C37BD465DF8047B70470000CC
:1009200080B586B000AF244B9B681846FFF746FEA3
:10093000214B9B68184605F077FD1F4B9B681846B6
:10094000FFF74CFE1C4B9B681846FFF757FE1A4BEF
:100950009B681846FFF762FE3B4600221A605A6009
:100960009A60DA601A615A6100233B60134B7B6026
:100970000023BB602423FB604FF480633B614FF492
:1009800080437B610C4B9B683A461146184605F044
:1009900085FD094B9B681846FFF750FE064B9B6888
:1009A0001846FFF77BFE044B9B681846FFF7F6FDE1
:1009B00000BF1837BD4680BD5C020020A086010044
:1009C00080B400AF0A4B00225A71094B4FF0FF323E
:1009D0001A60074B00221A71054B00229A71044BD2
:1009E0000022DA7100BFBD465DF8047B704700BF8E
:1009F0005C02002080B582B000AF7860094A7B6855
:100A00009360094B00221A70FFF7DAFF4FF48072EF
:100A10000021064807F068F8002318460837BD464D
:100A200080BD00BF5C020020680200205C01002045
:100A300080B596B000AF784B01221A70774B9B6857
:100A40001846FFF761FE0346002B1AD0734B9B68D4
:100A50001846FFF7CFFE714B9B681846FFF730FF33
:100A60000346042B08D16D4B00221A716B4B9B6817
:100A70001846FFF7F3FD04E0684B9B681846FFF744
:100A8000EDFD664B9B681846FFF718FE0346002BEA
:100A900052D0002387F85730604B1B6807F13800AD
:100AA0005F4A1E2106F082FF07F1380319465D48B0
:100AB00000F093FC594B1B6807F138005A4A1E217D
:100AC00006F074FF07F138031946564800F085FC1C
:100AD000524B1A68554913465B0013440B440233CA
:100AE0001B7887F8573097F8573007F13800504A8D
:100AF0001E2106F05BFF07F138031946494800F054
:100B00006CFC97F8573007F138004A4A1E2106F06E
:100B10004DFF07F138031946424800F05EFC3F4B99
:100B20009B6897F8572011461846FFF7E4FE3B4BA9
:100B30009B681846FFF7A2FD384B9B681846FFF7E5
:100B4000D0FD0346002B4AD0344B9B681846FFF774
:100B5000C5FE034687F85630304B1B79DBB2002BBD
:100B60001FD12E4A97F85630537197F85630381DDA
:100B7000314A322106F01AFF3B1D1946294800F080
:100B80002CFC264B01221A71244B1B68381D2B4A62
:100B9000322106F00BFF3B1D1946224800F01DFCD8
:100BA0001DE01E4B1A68214913465B0013440B4499
:100BB00001331B78032B0AD1184B1A681B491346C3
:100BC0005B0013440B44023397F856201A70134B02
:100BD00000221A71114B9B681846FFF74FFD0F4B0F
:100BE0009B681846FFF7B7FD0346002B0FD00B4B51
:100BF0009B681846FFF720FE084B00221A71074B2E
:100C00009B681846FFF73AFD034B00221A7000BF9D
:100C10005837BD4680BD00BF680200205C0200203E
:100C2000F48A000800100140108B00086C020020BC
:100C3000248B0008408B0008588B0008688B000844
:100C400080B500AF2149224800F0C7FB214B0022AC
:100C50001A70214B9B681846FFF790FD0346002B46
:100C600004D01D4B9B681846FFF7FAFD1A4B9B6892
:100C70001846FFF797FD0346002B04D0164B9B68E0
:100C80001846FFF7FDFD144B9B681846FFF74FFD14
:100C90000346002B04D0104B9B681846FFF7BCFDA1
:100CA0000D4B9B681846FFF791FD0346002B04D0BF
:100CB000094B9B681846FFF7F3FDFFF731FE064B23
:100CC0009B681846FFF796FE00BF80BD7C8B00082E
:100CD00000100140680200205C02002080B588B04E
:100CE00000AFF860B9607A603B60FB68BA681A6070
:100CF000FB6804331F227968184606F0FDFEFB6886
:100D0000002283F82320FB683A685A62FB683A8D18
:100D10001A85FB682A33FB610023FB82FA8AFB6990
:100D2000BFF35B8F1A80FB682C33BB610023BB824F
:100D3000BA8ABB69BFF35B8F1A8000BF2037BD46FC
:100D400080BD80B48BB000AF78600B46FB707B68D1
:100D50002A333B623B6A1B889BB2FB81FB890133D0
:100D6000FB847B681B8DFA8C9A4201D10023FB84A3
:100D70007B682C33FB61FB691B88BFF35B8F9BB2E5
:100D8000BB81BB897B83FA8C7B8B9A4218D07B68B2
:100D90005B6A7A682A327A617A69128892B27A81B9
:100DA0007A891344FA781A707B682A333B61FB8C8A
:100DB0003B813A893B69BFF35B8F1A80012300E0D6
:100DC000002318462C37BD465DF8047B704780B47D
:100DD0008BB000AF786039607B682C333B623B6A34
:100DE0001B889BB27B827B8AFB847B682A33FB61F6
:100DF000FB691B88BFF35B8F9BB23B823B8A7B8383
:100E00007A8BFB8C9A421CD07B685A6AFB8C134409
:100E10001A783B681A70FB8C0133FB847B681B8D4E
:100E2000FA8C9A4201D10023FB847B682C337B61CE
:100E3000FB8CFB81FA897B69BFF35B8F1A800123EE
:100E400000E0002318462C37BD465DF8047B704750
:100E500080B489B000AF78607B682A33FB61FB699E
:100E60001B88BFF35B8F9BB23B823B8A7B837B6893
:100E70002C337B617B691B889BB2FB81FB897B8266
:100E80007A8B7B8A9A4204D17B681B8D013B9BB293
:100E900014E07A8B7B8A9A4206D27A8A7B8BD31AA9
:100EA0009BB2013B9BB209E07B681A8D7B8A13449D
:100EB0009AB27B8BD31A9BB2013B9BB21846243764
:100EC000BD465DF8047B704780B489B000AF7860A0
:100ED0007B682A33FB61FB691B88BFF35B8F9BB286
:100EE0003B823B8A7B837B682C337B617B691B88DD
:100EF0009BB2FB81FB897B827A8B7B8A9A4214BFEF
:100F000001230023DBB218462437BD465DF8047B7D
:100F10007047000080B483B000AF03463960FB71B6
:100F200097F90730002B0ADB3B68DAB20C4997F9D6
:100F300007301201D2B20B4483F800230AE03B6869
:100F4000DAB20849FB7903F00F03043B1201D2B275
:100F50000B441A7600BF0C37BD465DF8047B704722
:100F600000E100E000ED00E080B582B000AF786005
:100F70007B68013BB3F1807F01D301230FE00A4A74
:100F80007B68013B53600F214FF0FF30FFF7C2FF3A
:100F9000054B00229A60044B07221A600023184672
:100FA0000837BD4680BD00BF10E000E080B400AF50
:100FB000054B1B68044A43F00103136000BFBD46A4
:100FC0005DF8047B704700BF10E000E080B500AF23
:100FD000054B1B68054AA2FB03239B091846FFF734
:100FE000C3FF00BF80BD00BFD8000020D34D6210FA
:100FF00080B483B000AF78607B681B6803F00203A5
:10100000022B0CBF01230023DBB218460C37BD4670
:101010005DF8047B704780B483B000AF78607B6874
:101020001B6803F00403042B0CBF01230023DBB275
:1010300018460C37BD465DF8047B704780B483B01A
:1010400000AF78607B681B6803F00803082B0CBFB7
:1010500001230023DBB218460C37BD465DF8047B44
:10106000704780B483B000AF78607B681B6803F082
:101070002003202B0CBF01230023DBB218460C37C2
:10108000BD465DF8047B704780B483B000AF7860E4
:101090007B681B6803F08003802B0CBF01230023B7
:1010A000DBB218460C37BD465DF8047B704780B450
:1010B00085B000AF78607B681B68FB60FB687B686D
:1010C0005B68FB60FB6800BF1437BD465DF8047BBE
:1010D000704780B485B000AF78607B681B68FB60A8
:1010E000FB687B685B68FB60FB6800BF1437BD462C
:1010F0005DF8047B704780B485B000AF78607B6892
:101100001B68FB60FB687B685B68FB60FB6800BF7B
:101110001437BD465DF8047B704780B489B000AFDA
:1011200078607B680C33FB60FB6853E8003FBB6072
:10113000BB6843F02003FB617B680C33FA69BA613A
:101140007B617969BA6941E800233B613B69002B07
:10115000E7D100BF00BF2437BD465DF8047B704770
:1011600080B489B000AF78607B680C33FB60FB68AB
:1011700053E8003FBB60BB6843F08003FB617B68C2
:101180000C33FA69BA617B617969BA6941E8002375
:101190003B613B69002BE7D100BF00BF2437BD4650
:1011A0005DF8047B704780B489B000AF78607B68DD
:1011B0000C33FB60FB6853E8003FBB60BB6823F067
:1011C0002003FB617B680C33FA69BA617B61796942
:1011D000BA6941E800233B613B69002BE7D100BFBE
:1011E00000BF2437BD465DF8047B704780B489B0EA
:1011F00000AF78607B680C33FB60FB6853E8003F0E
:10120000BB60BB6823F08003FB617B680C33FA6929
:10121000BA617B617969BA6941E800233B613B6946
:10122000002BE7D100BF00BF2437BD465DF8047B2B
:10123000704780B483B000AF78607B68DB6803F0F0
:101240002003202B0CBF01230023DBB218460C37F0
:10125000BD465DF8047B704780B483B000AF786012
:101260007B68DB6803F08003802B0CBF0123002325
:10127000DBB218460C37BD465DF8047B704780B47E
:1012800083B000AF78607B685B68DBB218460C37D0
:10129000BD465DF8047B704780B483B000AF7860D2
:1012A0000B46FB70FA787B685A6000BF0C37BD466E
:1012B0005DF8047B7047000080B485B000AF7860B3
:1012C0000023FB6015E01049FA681346DB00134465
:1012D0009B000B441B687A689A4207D1FA68134650
:1012E000DB0013449B00084A134406E0FB6801330B
:1012F000FB60FB68012BE6DD002318461437BD4672
:101300005DF8047B704700BF0000002080B586B008
:1013100000AF0346B9607A60FB73BB685B6801335A
:10132000BA68D268B3FBF2F101FB02F29B1A7B614F
:10133000BB689A687B699A420FD07868FFF733FFE1
:10134000BB681A68BB685B681344FA7B1A707A69D9
:10135000BB685A607868FFF7E0FE00BF1837BD46EB
:1013600080BD80B586B000AF786039607868FFF7DF
:10137000A3FF78617B69002B2BD03B68002B28DB17
:101380007B6914333B613B695B6801333A69D2681E
:10139000B3FBF2F101FB02F29B1AFB607868FFF7E6
:1013A00002FF00BF3B699A68FB689A42FAD03B692A
:1013B0001A683B695B6813443A68D2B21A70FA68DB
:1013C0003B695A607868FFF7A8FE7868FFF7C8FEA7
:1013D00000E000BF1837BD4680BD80B582B000AFC9
:1013E0007860396007E03B685A1C3A601B78194600
:1013F0007868FFF7B6FF3B681B78002BF3D100BF7E
:1014000000BF0837BD4680BD80B586B000AF7860AC
:101410007868FFF751FF78617B69002B68D07B69A2
:1014200004333B617B691433FB607868FFF719FE76
:101430000346002B2DD07868FFF7FBFE0346002BF8
:1014400027D07868FFF71BFF0346FB727868FFF729
:10145000F5FD0346002B0BD17868FFF7C9FD034665
:10146000002B05D17868FFF7D6FD0346002B09D085
:101470007868FFF740FE7868FFF719FE7868FFF795
:1014800028FE36E0FB7A7A6839691846FFF73EFF96
:101490002FE07868FFF7F8FD0346002B29D0786825
:1014A000FFF7DAFE0346002B23D0FB685A68FB687F
:1014B0009B689A4203D17868FFF798FE19E0FB68B1
:1014C0001A68FB689B6813441B78BB72FB689B68B7
:1014D0000133FA68D268B3FBF2F101FB02F29A1A07
:1014E000FB689A60BB7A19467868FFF7D5FE00E082
:1014F00000BF1837BD4680BD80B483B000AF7860B0
:101500007B681B6803F00203022B0CBF012300233E
:10151000DBB218460C37BD465DF8047B704780B4DB
:1015200083B000AF78607B681B6803F00403042B72
:101530000CBF01230023DBB218460C37BD465DF813
:10154000047B704780B483B000AF78607B681B6811
:1015500003F00803082B0CBF01230023DBB218465D
:101560000C37BD465DF8047B704780B483B000AF94
:1015700078607B681B6803F02003202B0CBF0123DD
:101580000023DBB218460C37BD465DF8047B70477C
:1015900080B483B000AF78607B681B6803F0800381
:1015A000802B0CBF01230023DBB218460C37BD464D
:1015B0005DF8047B704780B485B000AF78607B68CD
:1015C0001B68FB60FB687B685B68FB60FB6800BFB7
:1015D0001437BD465DF8047B704780B485B000AF1A
:1015E00078607B681B68FB60FB687B685B68FB60FE
:1015F000FB6800BF1437BD465DF8047B704780B4BC
:1016000085B000AF78607B681B68FB60FB687B6817
:101610005B68FB60FB6800BF1437BD465DF8047B68
:10162000704780B489B000AF78607B680C33FB6092
:10163000FB6853E8003FBB60BB6843F02003FB61DD
:101640007B680C33FA69BA617B617969BA6941E8F0
:1016500000233B613B69002BE7D100BF00BF24376B
:10166000BD465DF8047B704780B489B000AF7860F8
:101670007B680C33FB60FB6853E8003FBB60BB68D2
:1016800043F08003FB617B680C33FA69BA617B61CC
:101690007969BA6941E800233B613B69002BE7D1D6
:1016A00000BF00BF2437BD465DF8047B704780B49F
:1016B00089B000AF78607B680C33FB60FB6853E84F
:1016C000003FBB60BB6823F08003FB617B680C3389
:1016D000FA69BA617B617969BA6941E800233B61C3
:1016E0003B69002BE7D100BF00BF2437BD465DF842
:1016F000047B704780B483B000AF78607B68DB68A0
:1017000003F02003202B0CBF01230023DBB218467B
:101710000C37BD465DF8047B704780B483B000AFE2
:1017200078607B68DB6803F08003802B0CBF0123AB
:101730000023DBB218460C37BD465DF8047B7047CA
:1017400080B483B000AF78607B685B68DBB218461A
:101750000C37BD465DF8047B704780B483B000AFA2
:1017600078600B46FB70FA787B685A6000BF0C37D4
:10177000BD465DF8047B704780B485B000AF7860EB
:101780000023FB6013E00F4AFB68642101FB03F3B5
:1017900013441B687A689A4206D1FB68642202FBF4
:1017A00003F3084A134406E0FB680133FB60FB685F
:1017B000002BE8DD002318461437BD465DF8047B96
:1017C000704700BF4800002080B582B002AF4FF4E0
:1017D000806300930A4B0B4A01210B48FFF77EFA06
:1017E0004FF480630093094B094A02210948FFF72F
:1017F00075FA0948FFF715FF00231846BD4680BD5E
:101800006C0F00208C8B00084C0000206C13002013
:10181000988B00087C0000200014014080B584B043
:1018200000AF78607868FFF7A7FFF860FB68002BCF
:1018300002D14FF0FF330EE0FB68043307F10B02D7
:1018400011461846FFF7C3FA0346002B01D0FB7A76
:1018500001E04FF0FF3318461037BD4680BD80B51C
:1018600084B000AF78600B46FB707868FFF784FFA8
:10187000F860FB68002B11D000BFFB683433FA78A6
:1018800011461846FFF75DFA034683F00103DBB209
:10189000002BF2D17868FFF7E7FE00E000BF1037B9
:1018A000BD4680BD80B584B000AF78607868FFF732
:1018B00063FFF860FB68002B01D1002305E0FB68A3
:1018C00004331846FFF700FB034618461037BD46A1
:1018D00080BD80B584B000AF78607868FFF74CFFBA
:1018E000F860FB68002B01D1002306E0FB6834336D
:1018F0001846FFF7ADFA034600BF18461037BD463D
:1019000080BD80B584B000AF78607868FFF734FFA1
:10191000F860FB68002B53D07868FFF726FE03467B
:10192000002B2CD07868FFF7E5FE0346002B26D06D
:101930007868FFF705FF0346FB727868FFF702FE41
:101940000346002B02D07868FFF759FE7868FFF74E
:10195000D3FD0346002B02D07868FFF72CFE786891
:10196000FFF7DDFD0346002B02D07868FFF735FE58
:10197000FB680433FA7A11461846FFF7E2F97868F3
:10198000FFF706FE0346002B1BD07868FFF7C5FE65
:101990000346002B15D0FB68343307F10A021146C9
:1019A0001846FFF714FA0346002B05D0BB7A1946F8
:1019B0007868FFF7D2FE04E07868FFF778FE00E071
:1019C00000BF1037BD4680BD80B483B000AF7860E3
:1019D00039607B683A689A6100BF0C37BD465DF894
:1019E000047B704780B483B000AF786039603B6897
:1019F0001A047B689A6100BF0C37BD465DF8047B12
:101A00007047000080B500AF0A4A137823F0010345
:101A10001370084A137823F002031370054A1378F1
:101A200023F0FC03137000F0D5F800F0EBF800BFD2
:101A300080BD00BF7017002080B500AF0C4B1B7835
:101A4000C3F38503DBB2022B0CD0022B0DDC002B81
:101A500002D0012B03D008E000F00CF806E000F003
:101A600051F803E000F070F800E000BF00BF80BD57
:101A70007017002080B500AF214B1B7803F00103E5
:101A8000DBB2002B20D01E4B1B7803F00203DBB22D
:101A9000002B19D0002005F075FD0346002B2DD03A
:101AA000174A137823F001031370154A137823F0B3
:101AB0000203137000F09AF800F0B0F84FF4FA71D6
:101AC000002005F049FD19E0002005F05BFD03460C
:101AD000002B13D00A4A137843F001031370084A0D
:101AE000137843F00203137000F074F800F08AF8E2
:101AF0004FF4FA71002005F02FFDFFE700BF80BD15
:101B00007017002080B500AF4FF400610D48FFF75B
:101B100069FF4FF480610B48FFF756FF4FF4FA70EE
:101B200005F0BAFC4FF480610648FFF75BFF4FF405
:101B300000610448FFF748FF4FF4FA7005F0ACFC71
:101B400000BF80BD0010024080B500AF204B1B7865
:101B500003F00103DBB2002B1FD01D4B1B7803F0F9
:101B60000203DBB2002B18D0002005F00BFD03466A
:101B7000002B2BD0164A137823F001031370144A5C
:101B8000137823F00203137000F030F800F046F8E9
:101B90003221002005F0E0FC18E0002005F0F2FC06
:101BA0000346002B12D00A4A137843F00103137046
:101BB000074A137843F00203137000F00BF800F0AB
:101BC00021F83221002005F0C7FCFFE700BF80BDEF
:101BD0007017002080B500AF4FF480610248FFF716
:101BE000F3FE00BF80BD00BF0010024080B500AF13
:101BF0004FF480610248FFF7F5FE00BF80BD00BFD3
:101C00000010024080B500AF4FF400610248FFF7BA
:101C1000DBFE00BF80BD00BF0010024080B500AFFA
:101C20004FF400610248FFF7DDFE00BF80BD00BF3A
:101C30000010024080B500AF0249034805F0B8FC2F
:101C400000BF80BDB0000020AC00002080B483B095
:101C500000AF78607B684FF0FF321A6000BF0C372E
:101C6000BD465DF8047B704780B485B000AF7860F6
:101C70000B46FB707B681A68FB785A407B681A60D9
:101C80000023FB6011E07B681B6803F001035B42EB
:101C9000BB607B681B685A08B968094B0B405A4007
:101CA0007B681A60FB680133FB60FB68072BEAD98D
:101CB00000BF00BF1437BD465DF8047B704700BF0E
:101CC0002083B8ED80B483B000AF78607B681B6878
:101CD000DB4318460C37BD465DF8047B704780B582
:101CE00082B000AF78600B46FB701346BB707B6818
:101CF00093F80032FA781146184600F095FEBB784A
:101D0000002B07D07B6803F5FA73FA781146184662
:101D1000FFF7AAFFFB78AA2B18D17B6893F8FF3155
:101D2000013BDAB27B6883F8FF217B6893F8FF31CF
:101D3000002B0FD17B6893F800325521184600F034
:101D400073FE7B68022283F8FF2103E07B68022296
:101D500083F8FF2100BF0837BD4680BD80B586B03F
:101D600000AFF8607B600B46FB721346BB72FB68EA
:101D7000022283F8FF21FB6803F5FA731846FFF788
:101D800065FFFB6893F80032184600F063FEFB68BD
:101D900093F80032AA21184600F046FEFB6893F83B
:101DA0000032AA21184600F03FFEFB6893F800328B
:101DB000AA21184600F038FEFB7A01221946F8687D
:101DC000FFF78DFF97F90B30002B05DABB7A012264
:101DD0001946F868FFF783FF97F828300122194663
:101DE000F868FFF77CFF0023BB7597F82830FB7578
:101DF00015E03B8C7A6813441B7801221946F86879
:101E0000FFF76DFF3B8C01333B843A8CBB8C134056
:101E10003B84FB7D013BFB75BB7D0133BB75FB7DCB
:101E2000002BE6D1FB6803F5FA731846FFF74AFF6B
:101E300038613B691B0EDBB200221946F868FFF7D8
:101E40004EFF3B691B0CDBB200221946F868FFF716
:101E500046FF3B691B0ADBB200221946F868FFF710
:101E60003EFF3B69DBB200221946F868FFF737FFF7
:101E7000FB6893F800325521184600F0D5FDFB6849
:101E800093F80032184600F0F0FD00BF1837BD4649
:101E900080BD000080B584B000AF78607B6893F8A7
:101EA000E4301A4613465B0013449B007A681344DF
:101EB000FB60FB68DB791946FB681B7A1A461548FC
:101EC00000F08CFD7B6893F8E230013BDAB27B686E
:101ED00083F8E2207B6893F8E4300133DAB27B6860
:101EE00083F8E4207B6893F8E43003F00F03DAB260
:101EF0007B6883F8E4207B68B3F8DC30FA68927979
:101F00009B1A9AB27B68A3F8DC2000BF1037BD464D
:101F100080BD00BFA48B000880B584B000AF78609E
:101F20000B467B800023FB607B6893F8E2300F2B2D
:101F300072D87B68B3F8DC301A467B88C3F58063BF
:101F40009A4260D87B6893F8E2300133DAB27B685A
:101F500083F8E2207B6893F8E2207B6893F8E33013
:101F60009A4205D97B6893F8E2207B6883F8E320E6
:101F70007B6893F8E5301A4613465B0013449B00D8
:101F80007A681344FB607B68B3F8E020FB689A80B2
:101F90007B68B3F8DC207B8813449AB27B68A3F893
:101FA000DC207B68B3F8DC207B68B3F8DE309A4233
:101FB00005D97B68B3F8DC207B68A3F8DE207B685A
:101FC000B3F8E0207B8813449AB27B68A3F8E02042
:101FD0007B68B3F8E030C3F309039AB27B68A3F8D7
:101FE000E0207B6893F8E5300133DAB27B6883F850
:101FF000E5207B6893F8E53003F00F03DAB27B68E5
:1020000083F8E5200BE079887B68B3F8DC301A466A
:10201000054800F0E3FC02E0044800F0DFFCFB6848
:1020200018461037BD4680BDC08B0008008C0008E4
:1020300080B485B000AF78600B46FB707B6893F886
:10204000E430FB73FA7BFB781344DBB203F00F023E
:1020500013465B0013449B007A68134418461437F8
:10206000BD465DF8047B704780B586B004AF7860EC
:1020700039603B68DB7919463B681B7A1A463B6836
:102080009B79104800F0AAFC3B68DB7963F07F0382
:10209000D9B23B68187A3B689B883A689279029279
:1020A00040F2FF3201920093074B02467868FFF737
:1020B00055FE064B1A683B681A6000BF0837BD46DC
:1020C00080BD00BF188C000874170020741B00200E
:1020D00080B586B004AF78607B6893F8E830194625
:1020E000114800F07BFC7B6893F80032184600F042
:1020F0008BFC03460A2B13D97B6893F8E8207B6896
:10210000E83301210291FF21019100210091FF217B
:102110007868FFF723FE054B1A687B68C3F8C02078
:1021200000BF0837BD4680BD508C0008741B0020DE
:1021300080B586B004AF78600D4800F04FFC7B6836
:1021400093F80032184600F05FFC03460A2B0BD9C7
:102150000023029300230193002300930023002215
:10216000FE217868FFF7FAFD00BF0837BD4680BD45
:10217000648C000880B483B000AF78607B68002274
:1021800083F8E2207B68002283F8E4207B68002249
:1021900083F8E5207B680022A3F8DC207B6800221E
:1021A000A3F8E0207B68002283F8E7207B68002208
:1021B00083F8E6207B68002283F8E820094B1A6840
:1021C0007B68C3F8C420074B1A687B68C3F8C0203B
:1021D0007B680022C3F8C82000BF0C37BD465DF8FD
:1021E000047B7047741B002080B582B000AF78601C
:1021F0000B46FB70FB78002B01D00A4B00E00A4B2A
:1022000019460A4800F0EAFBFB78002B02D07868F8
:10221000FFF78EFF7868FFF7ADFF00BF0837BD46B8
:1022200080BD00BF708C0008808C0008948C000872
:1022300080B588B000AFF8607A601A460B46FB7232
:102240001346BB72BB7A9BB21946F868FFF764FE6F
:1022500078617B69002B2BD0FB7A03F03F03DAB265
:102260007B69DA717B69BA7A9A717B699B887B8317
:102270000023FB6110E07A68FB691A447B8B1178BC
:10228000114AD1547B8B01337B837B8BC3F30903CE
:102290007B83FB690133FB61BB7AFA699A42EAD31B
:1022A000FB7ABA7A1946094800F098FB012307E047
:1022B000FB68D3F8CC305A1CFB68C3F8CC20002351
:1022C00018462037BD4680BD74170020B08C00082A
:1022D00080B483B000AF78600B46FB707B6893F8E6
:1022E000E2300F2B0AD87B68B3F8DC301A46FB7853
:1022F000C3F580639A4201D8012300E0002303F074
:102300000103DBB218460C37BD465DF8047B70470D
:1023100080B489B000AF78607B6893F8E7207B6871
:1023200093F8E630D31AFB747B6893F8E4301A46CE
:1023300013465B0013449B007A681344BB611E4B39
:102340001A68BB691B68D31A7B617B6893F8E43019
:10235000FB770023BB7723E0174B1968FA7F786877
:1023600013465B0013449B0003441B68CB1AFB60BD
:10237000FA687B699A4209D9FB687B61FA7F134648
:102380005B0013449B007A681344BB61FB7F0133FD
:10239000FB77FB7F03F00F03FB77BB7F0133BB773A
:1023A000BA7FFB7C9A42D7D3BB6918462437BD4617
:1023B0005DF8047B704700BF741B002080B588B0B7
:1023C00000AF78607B6893F8FB317B777B68EC33F8
:1023D000BB617B6893F8FE31FB757B6893F8FC3139
:1023E000BB75654B1A687B68C3F8C4207B7FFE2BE6
:1023F0005ED0FF2B6AD17B6893F8E630BA7DD31AA2
:102400007B75BB691A78BB7DD31A3B757B6893F8E3
:10241000E7207B6893F8E630D31AFB747A7DFB7C67
:102420009A4238D87B68BA7D83F8E620B97D7A7DF8
:102430003B7D524800F0D2FA0023FB7705E0786834
:10244000FFF728FDFB7F0133FB77FA7F7B7D9A4204
:10245000F5D37B6893F8E430BB770023FB7715E076
:10246000BA7F13465B0013449B007A681344FB60F9
:10247000F9687868FFF7F8FDBB7F0133BB77BB7F56
:1024800003F00F03BB77FB7F0133FB77FA7F3B7DC4
:102490009A42E5D36CE0BB7D1946394800F09EFABC
:1024A0007B68D3F8D0305A1C7B68C3F8D0205FE03B
:1024B000344800F093FA7B68D3F8D8305A1C7B6814
:1024C000C3F8D8207868FFF755FE51E097F91D3022
:1024D000002B39DA284B1A687B68C3F8C8207B6860
:1024E00093F8E830BA7D9A421ED17B6893F8E830C1
:1024F0000133DAB27B6883F8E8207868FFF7E8FDFB
:10250000B97D7B7F03F03F02FB7D1F4800F066FA38
:102510007B7F03F03F03D8B27B6893F80032FA7DEB
:10252000B96900F081FB22E07B68D3F8D4305A1CF3
:102530007B68C3F8D420B97D7B6893F8E8301A46ED
:10254000124800F04BFA12E07B7F03F03F03FA7D64
:1025500019460F4800F042FA7B7F03F03F03D8B2E0
:102560007B6893F80032FA7DB96900F05DFB00BF2B
:1025700000BF2037BD4680BD741B0020C88C0008FA
:10258000FC8C00081C8D00082C8D0008688D00084C
:10259000A08D000880B584B000AF78600B46FB705A
:1025A0007B6893F8F831022B14D17B68002283F802
:1025B000F821FB78AA2B04D17B68012283F8F9214A
:1025C00026E1FB78552B00F01E817B68002283F802
:1025D000F9211DE1FB78AA2B08D17B6893F8F8312B
:1025E0000133DAB27B6883F8F82103E07B680022CC
:1025F00083F8F8217B6893F8F931092B00F2F68013
:1026000001A252F823F000BF0B2800083126000871
:1026100081260008A3260008E126000831270008CB
:1026200045270008612700087D270008CB27000800
:102630007B68FA7883F8FB217B68002283F8FA2113
:102640007B6803F5F8731846FFF700FB7B6803F51A
:10265000F873FA7811461846FFF706FB97F903302E
:10266000002B04DA7B68022283F8F921D0E07B6832
:10267000002283F8FC217B68032283F8F921C7E05C
:102680007B68FA7883F8FC217B6803F5F873FA78A5
:1026900011461846FFF7E8FA7B68032283F8F92110
:1026A000B6E07B68FA7883F8FD217B68FA7883F8D6
:1026B000FE217B6803F5F873FA7811461846FFF798
:1026C000D3FA7B6893F8FD31002B04D07B68042299
:1026D00083F8F9219CE07B68052283F8F92197E0D3
:1026E0007B6893F8FA315A1CD1B27A6882F8FA11F1
:1026F0001A467B681344FA7883F8EC207B6803F56C
:10270000F873FA7811461846FFF7AEFA7B6893F82B
:10271000FD31013BDAB27B6883F8FD217B6893F8D9
:10272000FD31002B73D17B68052283F8F9216EE01F
:10273000FB781A067B68C3F8EC217B68062283F8D5
:10274000F92165E07B68D3F8EC21FB781B041A4380
:102750007B68C3F8EC217B68072283F8F92157E0F6
:102760007B68D3F8EC21FB781B021A437B68C3F823
:10277000EC217B68082283F8F92149E07B68D3F8D3
:10278000EC21FB781A437B68C3F8EC217B6803F5E6
:10279000F8731846FFF796FAF8607B68D3F8EC31C7
:1027A000FA689A420CD07B68D3F8EC31FA68194683
:1027B000194800F013F97B68002283F8F92127E01B
:1027C0007B68092283F8F92122E0FB78552B03D19D
:1027D0007868FFF7F3FD04E0FB7819460F4800F036
:1027E000FDF87B68002283F8F92111E0F9787B6815
:1027F00093F8F9311A460A4800F0F0F87B68002295
:1028000083F8F92104E000BF02E000BF00E000BF50
:102810001037BD4680BD00BFCC8D0008008E00087B
:102820001C8E000890B589B000AFF860B9607A607E
:102830000023FB610AE0BA68FB6913441B78194660
:10284000F868FFF7A7FEFB690133FB61FA697B6853
:102850009A42F0D300F014F90346444A1360434B04
:102860001A68FB68D3F8C430D31A40F2E7329342B7
:1028700094BF01230023FB763C4B1A68FB68D3F816
:10288000C830D31A40F2E732934294BF01230023A9
:10289000BB76FB6893F8E720FB6893F8E630D31A21
:1028A0007B767B7E032B2AD8FB6893F8E2307A7E16
:1028B0009A4224D27B7E1946F868FFF7B9FB78610B
:1028C0007B699B7903F10B04FB6893F8003218468F
:1028D00000F09AF803469C4234D8FB6893F8E7204E
:1028E0007B691A727969F868FFF7BEFBFB6893F899
:1028F000E7300133DAB2FB6883F8E72022E07B7E21
:10290000002B20D0FB7E002B1DD0F868FFF700FDC8
:102910003861164B1A683B691B68D31AF92B12D918
:102920003B699B7903F10B04FB6893F8003218466E
:1029300000F06AF803469C4205D83969F868FFF749
:1029400093FB00E000BF094B1A68FB68D3F8C03066
:10295000D31AFA2B05D9BB7E002B02D0F868FFF7FB
:10296000B7FB00BF2437BD4690BD00BF741B0020DD
:1029700080B582B000AF78600B46FB707B680022A8
:1029800083F8F8217B68002283F8F9217B68FA78C4
:1029900083F800227B680022C3F8D0207B680022E5
:1029A000C3F8D4207B680022C3F8CC207B680022C7
:1029B000C3F8D8207B680022A3F8DE207B680022C1
:1029C00083F8E3207868FFF7D5FB034800F006F8AA
:1029D00000BF0837BD4680BD488E00080FB480B5E3
:1029E00082B000AF07F114037B607968386905F0A5
:1029F00057F80D2004F0D2FF00BF0837BD46BDE8F0
:102A0000804004B07047000080B582B000AF03463C
:102A1000FB710448FEF75DFF034618460837BD46C4
:102A200080BD00BF0014014080B582B000AF0346F6
:102A30000A46FB711346BB71FB79002B04D1BB79AD
:102A400019460348FEF70BFF00BF0837BD4680BD9F
:102A50000014014080B483B000AF0346FB7100BF97
:102A60000C37BD465DF8047B704780B483B000AF7F
:102A70000346FB7100BF0C37BD465DF8047B704711
:102A800080B500AF02F098F80346184680BD0000FC
:102A900080B582B000AF78600B46FB707B68FA7837
:102AA00011461846FFF764FF7B6801211846FFF7BF
:102AB0009BFBFFF7E5FF02467B68C3F804227B68B7
:102AC000002283F80C227B68012283F80D22FB7818
:102AD000032B04D8FB7804497A6841F8232000BF0F
:102AE0000837BD4680BD00BF781B002080B582B08E
:102AF00000AF78607A687B6893F800321946104618
:102B0000FFF736FF7B6801211846FFF76DFBFFF7E3
:102B1000B7FF02467B68C3F804227B68002283F873
:102B20000C2200BF0837BD4680BD80B483B000AF23
:102B3000786039607B683A68C3F8082200BF0C37B8
:102B4000BD465DF8047B704780B586B000AFF86085
:102B5000B9607A60FB687A68B9681846FFF762FE68
:102B6000FFF78EFF7861FB6893F8E230002B35D0D9
:102B7000FB6893F8E4301A4613465B0013449B004D
:102B8000FA6813443B613B691B687A69D31A40F6C3
:102B9000B83293421ED9FB6893F80C3283F00103DC
:102BA000DBB2002B1AD0FB68D3F80832002B04D01C
:102BB000FB68D3F80832F8689847FB68012283F86D
:102BC0000C22FB6893F80D32002B07D0F868FFF752
:102BD0008DFF03E0FB68002283F80C22FB687A6912
:102BE000C3F8042200BF1837BD4680BD80B584B04D
:102BF00000AFF8607A601A460B46FB721346BB7250
:102C0000FB68BA7A11461846FFF762FB0346002BB1
:102C100005D0F868BB7AF97A7A68FFF709FB00BF3C
:102C20001037BD4680BD000080B586B000AF39606A
:102C300011461A460346FB710B46BB7113467B7166
:102C40007B79032B2AD87B79174A52F823303B61D2
:102C50003B69002B24D000F03DF8F86000F044F808
:102C6000B86000237B6114E07B69DB00FA681344E1
:102C70001B78FA799A4209D17B69DB00FA68134420
:102C80005B68BA793968386998470AE07B6901332B
:102C90007B617A69BB689A42E6DB02E000BF00E034
:102CA00000BF1837BD4680BD781B002080B584B0BA
:102CB00000AFF860B9601346FB710423044A012198
:102CC000F868FFF793FF00BF1037BD4680BD00BF17
:102CD000648E000880B400AF024B1846BD465DF814
:102CE000047B70475C8E000880B400AF0123184657
:102CF000BD465DF8047B704780B483B000AF786058
:102D000000BF0C37BD465DF8047B704780B500AF4F
:102D100000210448FFF7BCFE03490248FFF705FF06
:102D200000BF80BD881B0020F92C000880B582B050
:102D300000AF0FE00F48FEF771FD78607B68002B55
:102D400008DB7B68DBB2FB70FB1C012219460A48DA
:102D5000FFF7FAFE0748FEF7A5FD0346002BE9D171
:102D6000002200210448FFF7EFFE00BF0837BD46F0
:102D700080BD00BF00140140881B002080B500AF5B
:102D80000249034804F014FC00BF80BDC8000020C5
:102D9000C400002080B400AF044BDB681B0A03F0C2
:102DA00007031846BD465DF8047B704700ED00E060
:102DB00080B483B000AF0346FB7197F90730002B56
:102DC0000BDBFB7903F01F02074997F907305B091A
:102DD000012000FA02F241F8232000BF0C37BD4663
:102DE0005DF8047B704700BF00E100E080B483B071
:102DF00000AF03463960FB7197F90730002B0ADBFF
:102E00003B68DAB20C4997F907301201D2B20B4491
:102E100083F800230AE03B68DAB20849FB7903F043
:102E20000F03043B1201D2B20B441A7600BF0C37D9
:102E3000BD465DF8047B704700E100E000ED00E076
:102E400080B489B000AFF860B9607A60FB6803F0C5
:102E50000703FB61FB69C3F10703042B28BF0423AD
:102E6000BB61FB690433062B02D9FB69033B00E01D
:102E700000237B614FF0FF32BB6902FA03F3DA43B0
:102E8000BB681A407B699A404FF0FF317B6901FAB9
:102E900003F3D9437B680B40134318462437BD46E0
:102EA0005DF8047B704780B489B000AFF860B9600A
:102EB0007A60FB682C331946BB6803F440734FF407
:102EC00040727A617A6992FAA2F23A613A69BA6119
:102ED000BA69002A01D1202203E0BA69B2FA82F26B
:102EE000D2B2D3409B000B44FB61FB691A68BB68FC
:102EF00003F01F031F2101FA03F3DB431A407B6831
:102F000003F01F01BB6803F01F0301FA03F31A4328
:102F1000FB691A6000BF2437BD465DF8047B70472B
:102F200080B483B000AF786039607B689B6823F41D
:102F300080623B681A437B689A6000BF0C37BD46CD
:102F40005DF8047B704780B48FB000AFF860B96063
:102F50007A60FB680C331946BB6803F000734FF0CE
:102F600000727A617A6992FAA2F23A613A69BA61B8
:102F7000BA69002A01D1202203E0BA69B2FA82F2CA
:102F8000D2B2D3409B000B447B637B6B1A68BB6857
:102F900003F0F8734FF0F8713962396A91FAA1F1D0
:102FA000F961F9697962796A002901D1202103E088
:102FB000796AB1FA81F1C9B2CB40072101FA03F372
:102FC000DB431A40BB6803F0F8734FF0F871F96205
:102FD000F96A91FAA1F1B962B96A3963396B0029CA
:102FE00001D1202103E0396BB1FA81F1C9B2CB40A4
:102FF000796801FA03F31A437B6B1A6000BF3C3710
:10300000BD465DF8047B704780B485B000AFF860C2
:10301000B9607A600D4ABB6813441B781A46FB6896
:1030200013441B6823F0C0020849BB680B441B789B
:103030001946FB680B4419467B6813430B6000BFBD
:103040001437BD465DF8047B704700BF6C8E0008E6
:1030500080B485B000AFF860B9607A600D4ABB6893
:1030600013441B781A46FB6813441B6823F49072C0
:103070000849BB680B441B781946FB680B4419468A
:103080007B6813430B6000BF1437BD465DF8047BBB
:10309000704700BF6C8E000880B485B000AFF86048
:1030A000B9607A600D4ABB6813441B781A46FB6806
:1030B00013441B6823F400720849BB680B441B7857
:1030C0001946FB680B4419467B6813430B6000BF2D
:1030D0001437BD465DF8047B704700BF6C8E000856
:1030E00080B485B000AFF860B9607A600D4ABB6803
:1030F00013441B781A46FB6813441B6823F4806250
:103100000849BB680B441B781946FB680B441946F9
:103110007B6813430B6000BF1437BD465DF8047B2A
:10312000704700BF6C8E000880B485B000AFF860B7
:10313000B9607A600D4ABB6813441B781A46FB6875
:1031400013441B6823F4C0520849BB680B441B7826
:103150001946FB680B4419467B6813430B6000BF9C
:103160001437BD465DF8047B704700BF6C8E0008C5
:1031700080B485B000AFF860B9607A600D4ABB6872
:1031800013441B781A46FB6813441B6823F4C0429F
:103190000849BB680B441B781946FB680B44194669
:1031A0007B6813430B6000BF1437BD465DF8047B9A
:1031B000704700BF6C8E000880B485B000AFF86027
:1031C000B9607A600D4ABB6813441B781A46FB68E5
:1031D00013441B6823F440320849BB680B441B7836
:1031E0001946FB680B4419467B6813430B6000BF0C
:1031F0001437BD465DF8047B704700BF6C8E000835
:1032000080B485B000AFF860B9607A600D4ABB68E1
:1032100013441B781A46FB6813441B6823F0606252
:103220000849BB680B441B781946FB680B441946D8
:103230007B6813430B6000BF1437BD465DF8047B09
:10324000704700BF6C8E000880B483B000AF786018
:1032500039600C4A3B6813441B781A467B68134458
:103260005B6908493A680A44127811467A680A4448
:1032700023F00403536100BF0C37BD465DF8047BA7
:10328000704700BF6C8E000880B483B000AF7860D8
:103290007B681B6843F001027B681A6000BF0C3733
:1032A000BD465DF8047B704780B483B000AF7860A2
:1032B0007B681B6823F080027B681A6000BF0C37B4
:1032C000BD465DF8047B704780B483B000AF786082
:1032D0007B681B6823F040027B681A6000BF0C37D4
:1032E000BD465DF8047B704780B483B000AF786062
:1032F00039607B68DB6823F0FE023B681A437B6819
:10330000DA6000BF0C37BD465DF8047B704780B4BF
:1033100083B000AF78607B68DB6823F001027B68D4
:10332000DA6000BF0C37BD465DF8047B704780B49F
:1033300083B000AF78607B685B6843F400727B68A1
:103340005A6000BF0C37BD465DF8047B7047000033
:1033500080B400AF054B1B68044A43F4803313600C
:1033600000BFBD465DF8047B704700BF00380240D7
:1033700080B400AF074B1B6803F40033B3F5003F84
:103380000CBF01230023DBB21846BD465DF8047B69
:10339000704700BF0038024080B483B000AF78604F
:1033A000064B9B6823F0030204497B6813438B6040
:1033B00000BF0C37BD465DF8047B70470038024003
:1033C00080B400AF044B9B6803F00C031846BD4665
:1033D0005DF8047B704700BF0038024080B483B0C2
:1033E00000AF7860064B9B6823F0F00204497B68CD
:1033F00013438B6000BF0C37BD465DF8047B7047FC
:103400000038024080B483B000AF7860064B9B6800
:1034100023F4E05204497B6813438B6000BF0C37F0
:10342000BD465DF8047B70470038024080B483B02D
:1034300000AF7860064B9B6823F4604204497B68C8
:1034400013438B6000BF0C37BD465DF8047B7047AB
:103450000038024080B400AF054B1B68044A43F0BB
:103460008073136000BFBD465DF8047B704700BFEA
:103470000038024080B400AF074B1B6803F00073B4
:10348000B3F1007F0CBF01230023DBB21846BD4619
:103490005DF8047B704700BF0038024080B485B0FF
:1034A00000AFF860B9607A603B600D4B5A680D4B15
:1034B0001340F968BA6811437A6892010A430849CF
:1034C00013434B60064B5B6823F4403204493B686E
:1034D00013434B6000BF1437BD465DF8047B704753
:1034E000003802400080BFFF80B485B000AF786034
:1034F000084B1A6B07497B6813430B63054B1A6B28
:103500007B681340FB60FB6800BF1437BD465DF865
:10351000047B70470038024080B485B000AF78600B
:10352000084B1A6C07497B6813430B64054B1A6CF4
:103530007B681340FB60FB6800BF1437BD465DF835
:10354000047B70470038024080B485B000AF7860DB
:10355000084B5A6C07497B6813434B64054B5A6C04
:103560007B681340FB60FB6800BF1437BD465DF805
:10357000047B70470038024080B483B000AF7860AD
:10358000064B1B6823F0070204497B6813430B605A
:1035900000BF0C37BD465DF8047B7047003C02401D
:1035A00080B400AF044B1B6803F007031846BD4608
:1035B0005DF8047B704700BF003C024080B483B0DC
:1035C00000AF7860064B1B6823F4804204497B6897
:1035D00013430B6000BF0C37BD465DF8047B70479A
:1035E0000070004080B400AF074B5B6803F4804379
:1035F000B3F5804F0CBF01230023DBB21846BD4654
:103600005DF8047B704700BF0070004080B483B059
:1036100000AF78607B681B6843F040027B681A60EB
:1036200000BF0C37BD465DF8047B704780B483B0A3
:1036300000AF786039607B685B6823F010023B68FC
:103640001A437B685A6000BF0C37BD465DF8047BA7
:10365000704780B483B000AF78607B681B6823F04C
:1036600080027B681A6000BF0C37BD465DF8047BA2
:103670007047000080B485B000AF786039603B6867
:10368000012B1CD03B68042B17D03B68102B12D0A9
:103690003B68402B0DD03B68B3F5807F07D03B687B
:1036A000B3F5806F01D105230AE0062308E0042367
:1036B00006E0032304E0022302E0012300E00023EC
:1036C000FB737B6818331946FB7B0B4AD35C0B44B6
:1036D000BB60BB681A68FB7B0849CB5C19460423B6
:1036E0008B40DB431A40BB681A6000BF1437BD46ED
:1036F0005DF8047B704700BF748E00087C8E000864
:1037000080B485B000AF786039603B68012B1CD075
:103710003B68042B17D03B68102B12D03B68402B22
:103720000DD03B68B3F5807F07D03B68B3F5806F61
:1037300001D105230AE0062308E0042306E0032361
:1037400004E0022302E0012300E00023FB737B6816
:1037500018331946FB7B0A4AD35C0B44BB60BB6839
:103760001A68FB7B0749CB5C194608238B401A4338
:10377000BB681A6000BF1437BD465DF8047B704714
:10378000748E00087C8E000880B483B000AF78602F
:1037900039607B689B6823F4804323F007033A6811
:1037A0001A437B689A6000BF0C37BD465DF8047B06
:1037B000704780B483B000AF786039607B685B6825
:1037C00023F070023B681A437B685A6000BF0C37D5
:1037D000BD465DF8047B704780B483B000AF78606D
:1037E0007B689B6823F080027B689A6000BF0C377F
:1037F000BD465DF8047B704780B483B000AF78604D
:103800007B68DB6843F400527B68DA6000BF0C37EA
:10381000BD465DF8047B704780B483B000AF78602C
:103820007B681B6923F490427B681A617B685B6943
:1038300023F02A027B685A6100BF0C37BD465DF851
:10384000047B704780B483B000AF78607B681B68EE
:1038500003F08003802B0CBF01230023DBB218464A
:103860000C37BD465DF8047B704780B483B000AF71
:1038700078600B46FB70FA787B685A6000BF0C37A3
:10388000BD465DF8047B704780B483B000AF7860BC
:1038900039607B683A689A6100BF0C37BD465DF8B5
:1038A000047B704780B483B000AF786039603B68B8
:1038B0001A047B689A6100BF0C37BD465DF8047B33
:1038C000704780B500AF01F011F900F02DF800F05D
:1038D000DFFD00F0C5FD00F0BFFA00F073F800F066
:1038E000BDFB00F053FC00F039FA00F061FB00F082
:1038F00009FB00F055FD00F087F900F077FC00F0BF
:10390000EFFC00F0D3F9FEF77DF8FDF75DFFFFF760
:10391000FDF903F0F7FDFEF78DF9FFF72FFA03F03D
:103920001BFF03F01FFFFCE780B500AF0020FFF78F
:1039300023FE00BFFFF734FE0346002BFAD14FF4FD
:103940008040FFF73BFEFFF703FD00BFFFF710FDD0
:103950000346012BFAD14FF40033482204214FF4DF
:103960008000FFF79BFDFFF775FD00BFFFF782FDAD
:103970000346012BFAD100BFFFF734FE0346002BAC
:10398000FAD00020FFF72AFD0020FFF73BFD0020C2
:10399000FFF74CFD0220FFF7FFFC00BFFFF710FD13
:1039A0000346082BFAD1064803F09CFD0F2001F0D6
:1039B000BFF80346002B01D000F06CFE00BF80BDB5
:1039C00000366E0180B592B000AF07F13C030022D3
:1039D0001A605A609A6007F1280300221A605A6040
:1039E0009A60DA601A6107F1180300221A605A60BF
:1039F0009A60DA603B4600221A605A609A60DA6088
:103A00001A615A614FF48070FFF79EFD0420FFF7A2
:103A10006BFD0120FFF768FD0220FFF765FD3F23E6
:103A20003B6003237B6000233B613B4619466948AA
:103A300002F05DFB10233B6003237B6000233B61AE
:103A40003B461946644802F052FB03233B600323C4
:103A50007B6000233B613B461946604802F047FB10
:103A6000002200215E48FFF7CBFB002200215C48CA
:103A7000FFF7CAFA4FF4803200215948FFF79CFB48
:103A80004FF4807200215648FFF7E2FA002200212D
:103A90005348FFF701FB4FF4806200215048FFF7C5
:103AA0001FFB4FF4006200214D48FFF73DFB4FF430
:103AB000005200214A48FFF75BFB00214848FFF70E
:103AC000C3FB0023FB6300233B644FF480737B64E0
:103AD00007F13C031946434802F050F90023BB624A
:103AE0004FF4E003FB6200233B6302237B634FF44C
:103AF0004073BB6307F1280319463A4802F06AF99C
:103B000000213848FFF70CFA0023BB610023FB615A
:103B100007F118031946344802F0E8F80A224FF476
:103B200000713048FFF7BFF901220A212D48FFF745
:103B30000AFA2E4A40F205212A48FFF7B4F9012279
:103B40002A492848FFF7FFF9294A40F20A21254867
:103B5000FFF7A9F9012226492248FFF7F4F9254A7F
:103B600040F20F211F48FFF79EF9012221491D480D
:103B7000FFF7E9F9204A4FF405711A48FFF793F966
:103B800001221D491748FFF7DEF91C4A40F21921AE
:103B90001448FFF788F9012218491248FFF7D3F9B2
:103BA000174A4FF480710F48FFF77DF9012214493D
:103BB0000C48FFF7C8F9134A40F205110948FFF70E
:103BC00072F901220F490748FFF7BDF900BF4837D6
:103BD000BD4680BD000802400000024000040240D3
:103BE0000064024000200140002301400B0030002F
:103BF0000C0060000D0090000E00C0000F00F000EF
:103C0000080080030900B00380B584B000AF3B46D4
:103C100000221A605A609A60DA60214B214A1A60C9
:103C20001F4B00225A601E4B00229A601C4B002240
:103C30001A611B4B00221A76194B002283F82020B0
:103C4000174B0022DA62164B174A9A62144B002275
:103C5000DA60134B0122DA61114B002283F8302025
:103C60000F4B01225A610E4800F0B2FF0346002BB1
:103C700001D000F00FFD02233B6001237B60002395
:103C8000BB603B461946064800F0E6FF0346002BA2
:103C900001D000F0FFFC00BF1037BD4680BD00BF63
:103CA000981D0020002201400100000F80B58CB05B
:103CB00000AF07F1180300221A605A609A60DA60B8
:103CC0001A615A613B4600221A605A609A60DA60B3
:103CD0001A615A610220FFF707FCC0233B600223F0
:103CE0007B600323BB600123FB6000233B61042353
:103CF0007B613B461946164802F0F9F94FF4001073
:103D0000FFF70AFC1348FFF702FB1248FFF7DCFA43
:103D10001048FFF7C9FA0023BB610F4BFB6100237A
:103D20003B6200237B624FF48063BB624FF48043AD
:103D3000FB6207F118031946064802F0AFFB0021A9
:103D40000448FFF7D1FA00BF3037BD4680BD00BF41
:103D50000004024000540040A086010080B58CB0F1
:103D600000AF07F1180300221A605A609A60DA6007
:103D70001A615A613B4600221A605A609A60DA6002
:103D80001A615A610220FFF7AFFB4FF440633B60BA
:103D900002237B600323BB600123FB6000233B61A4
:103DA00004237B613B461946284802F0A0F94FF4F2
:103DB0008000FFF7B1FBFEF7EDFF03460022002174
:103DC0001846FFF73DF8034619462120FFF70EF885
:103DD0002120FEF7EDFFFEF7DDFF03460022002164
:103DE0001846FFF72DF8034619462220FEF7FEFF7E
:103DF0002220FEF7DDFF1648FFF789FA1448FFF787
:103E000063FA1348FFF750FA0023BB61114BFB61C3
:103E100000233B6224237B624FF48063BB624FF438
:103E20008043FB6207F118031946094802F036FB8C
:103E300000210748FFF758FA0548FFF778FA0448C9
:103E4000FFF722FA00BF3037BD4680BD00040240B4
:103E500000580040A086010080B590B000AF07F187
:103E6000180328220021184603F03EFE3B4600229C
:103E70001A605A609A60DA601A615A614FF4805091
:103E8000FFF762FB0120FFF72FFBE0233B600223DB
:103E90007B600323BB600023FB6000233B610523A1
:103EA0007B613B461946154802F021F90023BB61AE
:103EB0004FF48273FB6100233B6200237B6201238A
:103EC000BB624FF40073FB6220233B6300237B63E0
:103ED0000023BB630A23FB6307F118031946084854
:103EE00002F06BFC00210648FFF7A0FB0448FFF737
:103EF0008DFB00BF4037BD4680BD00BF00000240C3
:103F00000030014080B590B000AF07F118032822BF
:103F10000021184603F0E8FD3B4600221A605A6073
:103F20009A60DA601A615A614FF48040FFF7F4FA40
:103F30000220FFF7D9FA4FF460433B6002237B6015
:103F40000323BB600023FB6000233B6105237B61EF
:103F50003B461946144802F0CAF80023BB614FF4EF
:103F60008273FB6100233B6200237B620123BB62FF
:103F70004FF40073FB6218233B6300237B63002331
:103F8000BB630A23FB6307F118031946074802F0D5
:103F900014FC00210548FFF749FB0448FFF736FBF6
:103FA00000BF4037BD4680BD0004024000380040DD
:103FB00080B590B000AF07F1180328220021184601
:103FC00003F092FD3B4600221A605A609A60DA6064
:103FD0001A615A614FF40040FFF79EFA0420FFF780
:103FE00083FA4FF4E0533B6002237B600323BB6002
:103FF0000023FB6000233B6106237B613B4619469F
:10400000144802F074F80023BB614FF48273FB6123
:1040100000233B6200237B620023BB624FF40073EA
:10402000FB6218233B6300237B630023BB630A23EB
:10403000FB6307F118031946074802F0BEFB002195
:104040000548FFF7F3FA0448FFF7E0FA00BF4037EE
:10405000BD4680BD00080240003C004080B59AB0DB
:1040600000AF07F1540300221A605A609A60DA60C8
:104070001A6107F1340320220021184603F034FDB1
:1040800007F11C0300221A605A609A60DA601A6114
:104090005A613B1D00221A605A609A60DA601A6108
:1040A0005A610120FFF750FA5323A7F85430002338
:1040B000BB6542F20F73FB6500233B6600237B6602
:1040C00007F1540319462F4802F03CFC2D48FFF736
:1040D000C0FA00212B48FFF757FB01212948FFF7C1
:1040E0000FFB60237B630023BB630023FB63002380
:1040F0003B6400237B640023BB640023FB64002338
:104100003B6507F134031A4601211E4802F0B4FC56
:1041100001211C48FFF7AEFA00211A48FFF749FBBE
:104120001848FFF759FB0023FB6100233B62002383
:104130007B62002387F8283000237B854FF40053EF
:10414000FB6200233B6307F11C0319460D4802F094
:10415000D4FC1020FFF7C8F94FF400737B600223F2
:10416000BB600023FB6000233B6100237B610123D4
:10417000BB613B1D1946044801F0B9FF00BF683719
:10418000BD4680BD000001400010024080B586B0F1
:1041900000AF3B1D00221A605A609A60DA601A6113
:1041A0000220FFF7B9F95323BB800023BB6042F222
:1041B0000F73FB6000233B613B1D19460A4802F068
:1041C000C1FB0948FFF745FA00210748FFF7DCFA71
:1041D00000210548FFF7EDFA0348FFF7FDFA00BF9D
:1041E0001837BD4680BD00BF0004004080B58AB0CE
:1041F00000AF07F1200300221A605A603B1D002225
:104200001A605A609A60DA601A615A619A61324B98
:10421000324A1A60304B00225A602F4B00229A60BB
:104220002D4B4FF6FF72DA602B4B00221A612A4B9E
:1042300000229A61284801F0AFF90346002B01D013
:1042400000F028FA00233B6200237B6207F1200381
:104250001946214801F0A8FC0346002B01D000F0CC
:1042600019FA00237B600023BB600023FB6000235E
:104270007B613B1D00221946174801F0DDF903461A
:10428000002B01D000F006FA3B1D0422194612480B
:1042900001F0D2F90346002B01D000F0FBF93B1DE1
:1042A000082219460C4801F0C7F90346002B01D03B
:1042B00000F0F0F93B1D0C221946074801F0BCF94B
:1042C0000346002B01D000F0E5F9034800F076FA30
:1042D00000BF2837BD4680BDE01D0020000800401B
:1042E00080B58EB000AF07F11C0300221A605A603F
:1042F0009A60DA601A615A619A613B1D00221A6065
:104300005A609A60DA601A615A611020FFF71CF94E
:104310000120FFF7E9F84FF4C0637B600223BB6024
:104320000323FB6000233B6100237B610723BB6108
:104330003B1D1946184801F0DAFEFEF72BFD034637
:10434000002200211846FEF77BFD03461946252072
:10435000FEF74CFD2520FEF72BFD4FF4E133FB610A
:1043600000233B6200237B620023BB620C23FB62C1
:1043700000233B6300237B6307F11C0319460748B6
:1043800003F00AF80548FFF747FA0448FFF734FA44
:1043900000BF3837BD4680BD00000240001001401C
:1043A00080B58EB000AF07F11C0300221A605A607E
:1043B0009A60DA601A615A619A613B1D00221A60A4
:1043C0005A609A60DA601A615A612020FFF7BCF8DF
:1043D0000420FFF789F8C0237B600223BB6003231E
:1043E000FB6000233B6100237B610823BB613B1D15
:1043F0001946194801F07BFEFEF7CCFC034600226B
:1044000000211846FEF71CFD034619464720FEF71B
:10441000EDFC4720FEF7CCFC4FF4E133FB610023B9
:104420003B6200237B620023BB620C23FB62002300
:104430003B6300237B6307F11C031946074802F026
:10444000ABFF0648FFF7E8F90448FFF7D5F900BFCE
:104450003837BD4680BD00BF00080240001401404F
:1044600080B500AF4FF48000FFF73EF8FEF792FCF6
:104470000346002200211846FEF7E2FC03461946D7
:104480003820FEF7B3FC3820FEF792FC00BF80BD59
:1044900080B586B000AF3B4600221A605A609A6031
:1044A000DA601A615A611020FFF71EF80420FFF746
:1044B0001BF88020FFF718F80120FFF715F80220FD
:1044C000FFF712F80820FFF70FF840F67C4160482C
:1044D000FFF7E8F94FF460415E48FFF7E3F9022186
:1044E0005D48FFF7DFF94FF49A715C48FFF7DAF99E
:1044F00030215B48FFF7D6F94FF203015448FFF72C
:10450000C3F94FF498515648FFF7BEF94FF4606174
:104510005248FFF7B9F924233B6001237B60002355
:10452000BB600023FB6002233B613B4619464848C1
:1045300001F0DDFD4FF65B433B6001237B60002310
:10454000BB600023FB6000233B613B4619464048AB
:1045500001F0CDFD4FF460433B6001237B600023FD
:10456000BB600023FB6000233B613B461946394892
:1045700001F0BDFD02233B6001237B600023BB6093
:104580000023FB6000233B613B461946324801F0A3
:10459000AEFD80233B6000237B6000233B613B46F4
:1045A00019462B4801F0A3FD41F230333B60012353
:1045B0007B600023BB600023FB6000233B613B4624
:1045C0001946274801F093FD40F634733B60012300
:1045D0007B600023BB600023FB6000233B613B4604
:1045E00019461E4801F083FD4FF480733B600023A1
:1045F0007B6001233B613B461946164801F077FD7D
:104600004FF400733B6000237B6000233B613B461B
:104610001946104801F06BFD4FF480733B60002396
:104620007B6000233B613B4619460B4801F05FFD70
:1046300008233B6000237B6000233B613B46194617
:10464000064801F054FD00BF1837BD4680BD00BFCD
:10465000001002400008024000000240000C02402E
:104660000004024080B582B000AF786000BF084807
:10467000FFF7E8F80346002BF9D07B68DBB2194658
:104680000348FFF7F2F87B6818460837BD4680BD3F
:104690000014014080B400AF72B600BF00BFFDE758
:1046A00080B483B000AF00237B60104B5B6C0F4A7B
:1046B00043F4804353640D4B5B6C03F480437B6095
:1046C0007B6800233B60094B1B6C084A43F0805316
:1046D0001364064B1B6C03F080533B603B6800BFC8
:1046E0000C37BD465DF8047B704700BF00380240C0
:1046F00080B58AB000AF786007F1140300221A6019
:104700005A609A60DA601A617B681B68174A9342A4
:1047100027D100233B61164B5B6C154A43F4806341
:104720005364134B5B6C03F480633B613B69002370
:10473000FB600F4B1B6B0E4A43F0010313630C4BE2
:104740001B6B03F00103FB60FB680C237B610323FD
:10475000BB610023FB6107F114031946054800F013
:104760007FFD00BF2837BD4680BD00BF002201404D
:10477000003802400000024080B485B000AF78608D
:104780007B681B680B4A93420DD10023FB600A4BE8
:104790001B6C094A43F004031364074B1B6C03F0C2
:1047A0000403FB60FB6800BF1437BD465DF8047B63
:1047B000704700BF000800400038024080B588B054
:1047C00000AF786007F10C0300221A605A609A600B
:1047D000DA601A617B681B68124A93421ED100237B
:1047E000BB60114B1B6B104A43F0080313630E4B65
:1047F0001B6B03F00803BB60BB684FF47043FB60A6
:1048000002233B6100237B610023BB610223FB6128
:1048100007F10C031946054800F022FD00BF2037C0
:10482000BD4680BD0008004000380240000C024038
:1048300080B400AF00BFFDE780B400AF00BFFDE76C
:1048400080B400AF00BFFDE780B400AF00BFFDE75C
:1048500080B400AF00BFFDE780B400AF00BFBD462D
:104860005DF8047B704780B400AF00BFBD465DF8C3
:10487000047B704780B400AF00BFBD465DF8047B89
:104880007047000080B500AF114B1B680133104A20
:10489000136002F0CDFE0F4B1B78DBB2002B06D06D
:1048A0000C4B1B78DBB2013BDAB20A4B1A70094B96
:1048B0001B78DBB2002B06D0074B1B78DBB2013B29
:1048C000DAB2054B1A7000F063F900BF80BD00BF7B
:1048D000281E00206D1700206C17002080B500AF47
:1048E000FCF7A6F800BF80BD80B500AFFCF7A8F9C3
:1048F00000BF80BD80B500AF0248FCF785FD00BF5A
:1049000080BD00BF0010014080B400AF00BFBD46B5
:104910005DF8047B7047000080B500AF0248FCF7EB
:10492000F0FF00BF80BD00BF0014014080B586B01D
:1049300000AFF860B9607A6000237B610AE0AFF3F2
:1049400000800146BB685A1CBA60CAB21A707B6903
:1049500001337B617A697B689A42F0DB7B68184699
:104960001837BD4680BD80B586B000AFF860B9602D
:104970007A6000237B6109E0BB685A1CBA601B782F
:104980001846FFF76FFE7B6901337B617A697B68AC
:104990009A42F1DB7B6818461837BD4680BD80B46B
:1049A00083B000AF78604FF0FF3318460C37BD4638
:1049B0005DF8047B704780B483B000AF78603960E5
:1049C0003B684FF400525A60002318460C37BD462E
:1049D0005DF8047B704780B483B000AF786001233A
:1049E00018460C37BD465DF8047B704780B485B02F
:1049F00000AFF860B9607A60002318461437BD46EE
:104A00005DF8047B7047000080B586B000AF786029
:104A1000144A154BD31A7B617B693B61134B1B68AE
:104A2000002B02D1114B124A1A60104B1A687B6896
:104A300013443A699A4207D203F0B8F803460C22AD
:104A40001A604FF0FF3309E0084B1B68FB60074B0F
:104A50001A687B681344054A1360FB6818461837C8
:104A6000BD4680BD00000220000400002C1E002076
:104A7000A821002080B400AF064BD3F88830054A47
:104A800043F47003C2F8883000BFBD465DF8047B74
:104A9000704700BF00ED00E0DFF834D0FFF7EAFF19
:104AA0000C480D490D4A002302E0D458C450043389
:104AB000C4188C42F9D30A4A0A4C002301E013605F
:104AC0000432A242FBD303F077F8FEF7FAFE7047F8
:104AD000000002200000002040010020E08E0008BD
:104AE00040010020A4210020FEE7000080B500AFB7
:104AF0000E4B1B680D4A43F4007313600B4B1B688D
:104B00000A4A43F480631360084B1B68074A43F466
:104B100080731360032000F06FFB0F2000F008F893
:104B2000FFF7BEFD0023184680BD00BF003C0240D9
:104B300080B582B000AF7860124B1A68124B1B78B8
:104B400019464FF47A73B3FBF1F3B2FBF3F3184653
:104B500000F079FB0346002B01D001230EE07B68B7
:104B60000F2B0AD8002279684FF0FF3000F04FFB7E
:104B7000064A7B681360002300E0012318460837CB
:104B8000BD4680BDD8000020E0000020DC000020F1
:104B900080B400AF064B1B781A46064B1B681344C3
:104BA000044A136000BFBD465DF8047B704700BF38
:104BB000E0000020301E002080B400AF034B1B68D3
:104BC0001846BD465DF8047B704700BF301E0020CC
:104BD00080B584B000AF78600023FB737B68002B46
:104BE00001D1012333E07B681B6C002B09D178686D
:104BF000FFF77EFD7B6800225A647B68002283F801
:104C00003C207B681B6C03F01003002B18D17B68E1
:104C10001B6C23F4885323F0020343F002027B68E9
:104C20001A64786800F03AF97B6800225A647B685D
:104C30001B6C23F0030343F001027B681A6401E05C
:104C40000123FB737B68002283F83C20FB7B184622
:104C50001037BD4680BD000080B485B000AF7860DD
:104C600039600023BB607B6893F83C30012B01D195
:104C7000022305E17B68012283F83C203B681B6826
:104C8000092B25D97B681B68D9683B681B689BB2D8
:104C90001A4613465B0013441E3B072202FA03F335
:104CA000DA437B681B680A40DA607B681B68D96856
:104CB0003B689A683B681B689BB2184603465B00DA
:104CC00003441E3B9A407B681B680A43DA6022E07B
:104CD0007B681B6819693B681B689BB21A461346C0
:104CE0005B001344072202FA03F3DA437B681B6874
:104CF0000A401A617B681B6819693B689A683B68BF
:104D00001B689BB2184603465B0003449A407B68CD
:104D10001B680A431A613B685B68062B24D87B68D2
:104D20001B68596B3B685A6813469B001344053B4C
:104D30001F2202FA03F3DA437B681B680A405A63B6
:104D40007B681B68596B3B681B689BB218463B68C5
:104D50005A6813469B001344053B00FA03F27B6834
:104D60001B680A435A634CE03B685B680C2B24D8F1
:104D70007B681B68196B3B685A6813469B00134499
:104D8000233B1F2202FA03F3DA437B681B680A40C5
:104D90001A637B681B68196B3B681B689BB21846DB
:104DA0003B685A6813469B001344233B00FA03F206
:104DB0007B681B680A431A6323E07B681B68D96A17
:104DC0003B685A6813469B001344413B1F2202FA7A
:104DD00003F3DA437B681B680A40DA627B681B686E
:104DE000D96A3B681B689BB218463B685A681346F1
:104DF0009B001344413B00FA03F27B681B680A43A3
:104E0000DA62224BFB607B681B68214A934209D11E
:104E10003B681B68122B05D1FB685B6843F480027A
:104E2000FB685A607B681B68194A934223D13B6830
:104E30001B68102B03D03B681B68112B1BD1FB6830
:104E40005B6843F40002FB685A603B681B68102BE8
:104E500011D1104B1B68104AA2FB03239A0C134676
:104E60009B0013445B00BB6002E0BB68013BBB607E
:104E7000BB68002BF9D17B68002283F83C2000231B
:104E800018461437BD465DF8047B70470023014087
:104E900000200140D800002083DE1B4380B485B091
:104EA00000AF7860794BFB60FB685B6823F44032AD
:104EB000FB685A60FB685A687B685B681A43FB684A
:104EC0005A607B681B685A687B681B6822F4807292
:104ED0005A607B681B6859687B681B691A027B688B
:104EE0001B680A435A607B681B685A687B681B68AA
:104EF00022F040725A607B681B6859687B689A6828
:104F00007B681B680A435A607B681B689A687B68E9
:104F10001B6822F400629A607B681B6899687B6852
:104F2000DA687B681B680A439A607B689B6A584A08
:104F3000934222D07B681B689A687B681B6822F0CA
:104F400070629A607B681B6899687B689A6A7B6864
:104F50001B680A439A607B681B689A687B681B68B9
:104F600022F040529A607B681B6899687B68DA6A15
:104F70007B681B680A439A600FE07B681B689A682D
:104F80007B681B6822F070629A607B681B689A6875
:104F90007B681B6822F040529A607B681B689A68A5
:104FA0007B681B6822F002029A607B681B68996824
:104FB0007B681B7E5A007B681B680A439A607B688B
:104FC00093F82030002B1BD07B681B685A687B68E5
:104FD0001B6842F400625A607B681B685A687B68F1
:104FE0001B6822F460425A607B681B6859687B68C2
:104FF0005B6A013B5A037B681B680A435A6007E0FF
:105000007B681B685A687B681B6822F400625A60E0
:105010007B681B68DA6A7B681B6822F47002DA62BC
:105020007B681B68D96A7B68DB69013B1A057B6872
:105030001B680A43DA627B681B689A687B681B6896
:1050400022F400729A607B681B6899687B6893F809
:1050500030305A027B681B680A439A607B681B6881
:105060009A687B681B6822F480629A607B681B6880
:1050700099687B685B699A027B681B680A439A603F
:1050800000BF1437BD465DF8047B70470023014024
:105090000100000F80B485B000AF78607B6803F03A
:1050A0000703FB600C4BDB68BB60BA684FF6FF037D
:1050B0001340BB60FB681A02BB68134343F0BF6335
:1050C00043F40033BB60044ABB68D36000BF1437AD
:1050D000BD465DF8047B704700ED00E080B400AF92
:1050E000044BDB681B0A03F007031846BD465DF856
:1050F000047B704700ED00E080B483B000AF03464E
:105100003960FB7197F90730002B0ADB3B68DAB294
:105110000C4997F907301201D2B20B4483F80023EF
:105120000AE03B68DAB20849FB7903F00F03043B5D
:105130001201D2B20B441A7600BF0C37BD465DF89F
:10514000047B704700E100E000ED00E080B489B02E
:1051500000AFF860B9607A60FB6803F00703FB6199
:10516000FB69C3F10703042B28BF0423BB61FB6960
:105170000433062B02D9FB69033B00E000237B616B
:105180004FF0FF32BB6902FA03F3DA43BB681A40FF
:105190007B699A404FF0FF317B6901FA03F3D943F1
:1051A0007B680B40134318462437BD465DF8047BEB
:1051B0007047000080B582B000AF78607B68013B2B
:1051C000B3F1807F01D301230FE00A4A7B68013BE2
:1051D00053600F214FF0FF30FFF78EFF054B002289
:1051E0009A60044B07221A60002318460837BD4610
:1051F00080BD00BF10E000E080B582B000AF7860F5
:105200007868FFF747FF00BF0837BD4680BD80B50F
:1052100086B000AF0346B9607A60FB7300237B6100
:10522000FFF75CFF78617A68B9687869FFF78EFFED
:10523000024697F90F3011461846FFF75DFF00BF91
:105240001837BD4680BD80B582B000AF7860786801
:10525000FFF7B0FF034618460837BD4680BD000083
:1052600080B489B000AF7860396000237B6100238F
:105270003B610023BB610023FB616BE10122FB6901
:1052800002FA03F37B613B681B687A6913403B6158
:105290003A697B699A4240F05A813B685B6803F047
:1052A0000303012B05D03B685B6803F00303022B6B
:1052B00030D17B689B68BB61FB695B00032202FA0B
:1052C00003F3DB43BA691340BB613B68DA68FB69EF
:1052D0005B0002FA03F3BA691343BB617B68BA69E6
:1052E0009A607B685B68BB610122FB6902FA03F389
:1052F000DB43BA691340BB613B685B681B0903F081
:105300000102FB6902FA03F3BA691343BB617B68CC
:10531000BA695A603B685B6803F00303032B17D03C
:105320007B68DB68BB61FB695B00032202FA03F365
:10533000DB43BA691340BB613B689A68FB695B0059
:1053400002FA03F3BA691343BB617B68BA69DA6096
:105350003B685B6803F00303022B23D1FB69DA0887
:105360007B68083253F82230BB61FB6903F0070306
:105370009B000F2202FA03F3DB43BA691340BB61BF
:105380003B681A69FB6903F007039B0002FA03F309
:10539000BA691343BB61FB69DA087B680832B969F3
:1053A00043F822107B681B68BB61FB695B0003222A
:1053B00002FA03F3DB43BA691340BB613B685B68E5
:1053C00003F00302FB695B0002FA03F3BA691343BB
:1053D000BB617B68BA691A603B685B6803F4403361
:1053E000002B00F0B4800023FB60604B5B6C5F4AD5
:1053F00043F4804353645D4B5B6C03F48043FB6078
:10540000FB685B4AFB699B08023352F82330BB619F
:10541000FB6903F003039B000F2202FA03F3DB4353
:10542000BA691340BB617B68524A93422BD07B68B8
:10543000514A934225D07B68504A93421FD07B68E3
:105440004F4A934219D07B684E4A934213D07B68EF
:105450004D4A93420DD07B684C4A934207D07B68FB
:105460004B4A934201D107230EE008230CE00623A8
:105470000AE0052308E0042306E0032304E00223F6
:1054800002E0012300E00023FA6902F00302920027
:105490009340BA691343BB613549FB699B080233EA
:1054A000BA6941F823203B4B9B68BB613B69DB43F6
:1054B000BA691340BB613B685B6803F48013002B3F
:1054C00003D0BA693B691343BB61324ABB6993603D
:1054D000304BDB68BB613B69DB43BA691340BB619E
:1054E0003B685B6803F40013002B03D0BA693B6987
:1054F0001343BB61274ABB69D360264B5B68BB6122
:105500003B69DB43BA691340BB613B685B6803F4EA
:105510000033002B03D0BA693B691343BB611D4ABA
:10552000BB6953601B4B1B68BB613B69DB43BA69BA
:105530001340BB613B685B6803F48033002B03D0EE
:10554000BA693B691343BB61124ABB691360FB69CB
:105550000133FB61FB690F2B7FF690AE00BF00BFEC
:105560002437BD465DF8047B704700BF0038024019
:1055700000380140000002400004024000080240E0
:10558000000C0240001002400014024000180240CB
:10559000001C0240003C014080B582B000AF786042
:1055A0007B68002B01D1012341E07B6893F83D30FB
:1055B000DBB2002B06D17B68002283F83C207868A0
:1055C000FFF7DAF87B68022283F83D207B681A68CF
:1055D0007B6804331946104600F08AF87B68012284
:1055E00083F846207B68012283F83E207B680122F5
:1055F00083F83F207B68012283F840207B680122EA
:1056000083F841207B68012283F842207B680122D5
:1056100083F843207B68012283F844207B680122C1
:1056200083F845207B68012283F83D20002318463B
:105630000837BD4680BD000080B586B000AFF86079
:10564000B9607A600023FB75FB6893F83C30012B4E
:1056500001D1022348E0FB68012283F83C207B68EB
:105660000C2B39D801A252F823F000BFA156000834
:10567000D9560008D9560008D9560008AF56000878
:10568000D9560008D9560008D9560008BD5600085A
:10569000D9560008D9560008D9560008CB5600083C
:1056A000FB681B68B968184600F0CEF817E0FB6885
:1056B0001B68B968184600F037F910E0FB681B68F2
:1056C000B968184600F0A6F909E0FB681B68B968DC
:1056D000184600F013FA02E00123FB7500BFFB68D7
:1056E000002283F83C20FB7D18461837BD4680BD5C
:1056F00080B485B000AF786039607B681B68FB6060
:105700007B68464A934213D07B68B3F1804F0FD039
:105710007B68434A93420BD07B68424A934207D04E
:105720007B68414A934203D07B68404A934208D148
:10573000FB6823F07003FB603B685B68FA68134307
:10574000FB607B68354A93422BD07B68B3F1804F76
:1057500027D07B68324A934223D07B68314A9342F8
:105760001FD07B68304A93421BD07B682F4A9342FC
:1057700017D07B682E4A934213D07B682D4A934200
:105780000FD07B682C4A93420BD07B682B4A934204
:1057900007D07B682A4A934203D07B68294A934208
:1057A00008D1FB6823F44073FB603B68DB68FA6850
:1057B0001343FB60FB6823F080023B685B69134383
:1057C000FB607B68FA681A603B689A687B68DA62FB
:1057D0003B681A687B689A627B68104A934203D0E0
:1057E0007B68124A934203D13B681A697B681A634B
:1057F0007B6801225A617B681B6903F00103012B5E
:1058000005D17B681B6923F001027B681A6100BF28
:105810001437BD465DF8047B704700BF00000140AF
:105820000004004000080040000C0040000401405B
:105830000040014000440140004801400018004081
:10584000001C00400020004080B487B000AF7860AA
:1058500039607B681B6A7B617B681B6A23F00102ED
:105860007B681A627B685B683B617B689B69FB6055
:10587000FB6823F07003FB60FB6823F00303FB600D
:105880003B681B68FA681343FB607B6923F00203E3
:105890007B613B689B687A6913437B617B68204A24
:1058A000934203D07B681F4A93420CD17B6923F05B
:1058B00008037B613B68DB687A6913437B617B6922
:1058C00023F004037B617B68154A934203D07B6815
:1058D000144A934211D13B6923F480733B613B69C5
:1058E00023F400733B613B685B693A6913433B6196
:1058F0003B689B693A6913433B617B683A695A602C
:105900007B68FA689A613B685A687B685A637B686F
:105910007A691A6200BF1C37BD465DF8047B704788
:10592000000001400004014080B487B000AF7860FF
:1059300039607B681B6A7B617B681B6A23F01002FD
:105940007B681A627B685B683B617B689B69FB6074
:10595000FB6823F4E043FB60FB6823F44073FB60C7
:105960003B681B681B02FA681343FB607B6923F0EA
:1059700020037B613B689B681B017A6913437B6151
:105980007B68224A934203D07B68214A93420DD11F
:105990007B6923F080037B613B68DB681B017A69CC
:1059A00013437B617B6923F040037B617B68174A6B
:1059B000934203D07B68164A934213D13B6923F488
:1059C00080633B613B6923F400633B613B685B6937
:1059D0009B003A6913433B613B689B699B003A69B2
:1059E00013433B617B683A695A607B68FA689A6145
:1059F0003B685A687B689A637B687A691A6200BF61
:105A00001C37BD465DF8047B704700BF00000140B5
:105A10000004014080B487B000AF786039607B68D3
:105A20001B6A7B617B681B6A23F480727B681A6245
:105A30007B685B683B617B68DB69FB60FB6823F02C
:105A40007003FB60FB6823F00303FB603B681B688B
:105A5000FA681343FB607B6923F400737B613B6846
:105A60009B681B027A6913437B617B68214A9342DE
:105A700003D07B68204A93420DD17B6923F40063F5
:105A80007B613B68DB681B027A6913437B617B693E
:105A900023F480637B617B68164A934203D07B6862
:105AA000154A934213D13B6923F480533B613B6910
:105AB00023F400533B613B685B691B013A69134364
:105AC0003B613B689B691B013A6913433B617B68FF
:105AD0003A695A607B68FA68DA613B685A687B68A1
