:020000040800F2
:108000000000022039F30008E5F10008EDF1000856
:10801000F5F10008FDF1000805F20008000000007D
:108020000000000000000000000000000DF2000849
:108030001BF200080000000029F2000839F20008D5
:1080400089F3000889F3000889F3000889F3000820
:1080500089F3000889F3000889F3000889F3000810
:1080600089F3000889F3000889F3000889F3000800
:1080700089F3000889F3000889F3000889F30008F0
:1080800089F3000889F3000889F3000889F30008E0
:1080900089F3000889F3000889F3000889F30008D0
:1080A00089F3000889F3000889F3000889F30008C0
:1080B00089F3000889F3000889F3000889F30008B0
:1080C00089F3000859F2000865F2000889F30008F6
:1080D00089F3000871F2000889F3000889F30008A9
:1080E00089F3000889F3000889F3000889F3000880
:1080F00089F3000889F3000889F3000889F3000870
:1081000089F3000889F3000889F3000889F300085F
:1081100089F3000889F3000889F3000889F300084F
:1081200085F2000889F3000889F3000889F3000844
:1081300089F3000889F3000889F3000889F300082F
:1081400089F3000889F3000889F3000889F300081F
:1081500089F3000889F3000889F3000895F2000804
:1081600089F3000889F3000889F3000889F30008FF
:1081700089F3000889F3000889F300080000000073
:0881800089F3000889F30008EF
:1081900010B5054C237833B9044B13B10448AFF341
:1081A00000800123237010BD042400200000000083
:1081B000D83C010808B5034B1BB103490348AFF392
:1081C000008008BD0000000008240020D83C010801
:1081D00010F8012B11F8013B012A28BF9A42F7D071
:1081E000D01A7047034613F8012B002AFBD1181A46
:1081F000013870470000000000000000000000008F
:1082000001F0FF01102A2BDB10F0070F08D010F847
:10821000013B013A8B422DD010F0070F42B3F6D14B
:10822000F0B441EA012141EA014122F007047FF064
:1082300000070023F0E80256083C85EA010586EABB
:10824000010685FA47F5A3FA87F586FA47F6A5FAF7
:1082500087F68EB9EED1F0BC01F0FF0102F0070203
:1082600032B110F8013B013A83EA010313B1F8D1AE
:108270000020704701387047002D06BF354603388F
:10828000073815F0010F07D1013015F4807F02BFC8
:10829000013015F4C03F0130F0BC0138704700BF19
:1082A0007BB972B90029BEBF00204FF0004106E043
:1082B00008BF00281CBF6FF000414FF0FF3000F0F6
:1082C000D3B9ADF1080C6DE904CE002909DB002B10
:1082D0001ADB00F04DF8DDF804E0DDE9022304B01C
:1082E0007047404261EB4101002B1BDB00F040F87E
:1082F000DDF804E0DDE9022304B0404261EB410116
:10830000524263EB43037047524263EB430300F076
:108310002FF8DDF804E0DDE9022304B0404261EB10
:1083200041017047524263EB430300F021F8DDF84E
:1083300004E0DDE9022304B0524263EB43037047DB
:1083400053B94AB9002908BF00281CBF4FF0FF31BC
:108350004FF0FF3000F088B9ADF1080C6DE904CEA4
:1083600000F006F8DDF804E0DDE9022304B0704710
:108370002DE9F047089D8E4604468846002B4AD1D9
:108380008A42174662D9B2FA82F64EB1C6F120038C
:1083900001FA06F820FA03F3B74043EA0808B440AC
:1083A0004FEA174E1FFA87FCB8FBFEF1230C0EFBB9
:1083B000118843EA084301FB0CF29A4209D9FB18E1
:1083C00001F1FF3080F0EA809A4240F2E780023902
:1083D0003B449A1AA3B2B2FBFEF00EFB102243EA12
:1083E000024300FB0CFC9C4509D9FB1800F1FF324D
:1083F00080F0D6809C4540F2D3803B44023840EA6E
:108400000140A3EB0C0300211DB1F3400022C5E99C
:108410000032BDE8F0878B4205D90DB1C5E90001F6
:1084200000210846F5E7B3FA83F1002946D17345E8
:1084300002D3824200F20581841A6EEB030201200E
:108440009046002DE5D0C5E90048E2E7002A00F09B
:108450009080B2FA82F6002E40F0A4808A1A030CB3
:108460004FEA174E80B2BCB20121B2FBFEFC0EFBFC
:108470001C2243EA024304FB0CF29A4207D9FB1880
:108480000CF1FF3802D29A4200F2E080C4469B1AF7
:10849000B3FBFEF20EFB123340EA034302FB04F48B
:1084A0009C4207D9FB1802F1FF3002D29C4200F235
:1084B000CA8002461B1B42EA0C40A5E7C1F1200618
:1084C0008B4022FA06F71F430EFA01F420FA06F356
:1084D0002EFA06FE4FEA1749234300FA01F81FFA65
:1084E00087FCBEFBF9F01C0C09FB10EE44EA0E44BD
:1084F00000FB0CFEA64502FA01F209D93C1900F175
:10850000FF3A80F09C80A64540F2998002383C44B6
:10851000A4EB0E041FFA83FEB4FBF9F309FB13442A
:108520004EEA044403FB0CFCA44508D93C1903F1B2
:10853000FF3E80F08280A4457FD9023B3C4443EA61
:108540000040A4EB0C04A0FB02EC64457346E1463A
:1085500062D35FD05DB1B8EB030264EB090404FAA7
:1085600006F622FA01F31E43CC40C5E9006400215F
:108570004FE7B1FBF2FC010C41EA0E4180B240EA48
:1085800001423B4638463C46B846BE462026B1FB33
:10859000F7F1A2EB080241EA0C4166E7014618E751
:1085A00010462CE7C6F120022EFA02F3B740B14084
:1085B00020FA02F24FEA174E0A43B3FBFEF8BCB2B0
:1085C0000EFB1833110C41EA034108FB04F9B040DB
:1085D00089454FEA104380B23ED9791808F1FF3C33
:1085E00001D289451FD8A1EB0901B1FBFEF909FBB6
:1085F00004F80EFB191192B242EA0142424529D217
:10860000BA1809F1FF31C4D24245C2D2A9F1020120
:108610003A44BEE7F0459DD2BEEB02036CEB070C7B
:108620000138E14696E7A7EB09094944A8F1020C95
:10863000B1FBFEF909FB04F8DBE773467FE7504620
:1086400066E70846FDE63B44023A33E7ACF1020C2C
:108650003B441CE749469CE7A1EB0901C446B1FB3A
:10866000FEF909FB04F8C4E7704700BF80B400AF0F
:10867000074B1B6803F48033B3F5803F0CBF012325
:108680000023DBB21846BD465DF8047B704700BF8F
:1086900010E000E080B584B000AF0346FB71FB79C9
:1086A0000C4A12680C49A1FB0212920C02FB03F364
:1086B000FB6007E0FFF7DAFF0346002B02D0FB6800
:1086C000013BFB60FB68002BF4D100BF00BF1037FB
:1086D000BD4680BD2C23002083DE1B4380B483B0C5
:1086E00000AF78607B681B6843F001027B681A600A
:1086F00000BF0C37BD465DF8047B704780B483B083
:1087000000AF78607B681B6823F001027B681A6009
:1087100000BF0C37BD465DF8047B704780B483B062
:1087200000AF78607B681B6823F080027B681A606A
:1087300000BF0C37BD465DF8047B704780B483B042
:1087400000AF78607B681B6823F040027B681A608A
:1087500000BF0C37BD465DF8047B704780B483B022
:1087600000AF78607B68DB6823F001027B68DA6029
:1087700000BF0C37BD465DF8047B704780B483B002
:1087800000AF78607B685B6843F400727B685A6076
:1087900000BF0C37BD465DF8047B704780B483B0E2
:1087A00000AF78607B685B6843F480627B685A60E6
:1087B00000BF0C37BD465DF8047B704780B483B0C2
:1087C00000AF78607B685B6823F480627B685A60E6
:1087D00000BF0C37BD465DF8047B704780B483B0A2
:1087E00000AF78607B685B6843F480727B685A6096
:1087F00000BF0C37BD465DF8047B704780B483B082
:1088000000AF78607B685B6903F08003802B0CBF4E
:1088100001230023DBB218460C37BD465DF8047B0C
:10882000704780B483B000AF78607B685B6903F009
:108830004003402B0CBF01230023DBB218460C374A
:10884000BD465DF8047B704780B483B000AF7860AC
:108850007B685B6903F00203022B0CBF012300233A
:10886000DBB218460C37BD465DF8047B704780B418
:1088700083B000AF78607B685B6903F48063B3F515
:10888000806F0CBF01230023DBB218460C37BD46B6
:108890005DF8047B704780B483B000AF78607B687C
:1088A0005B6903F01003102B0CBF01230023DBB224
:1088B00018460C37BD465DF8047B704780B483B022
:1088C00000AF78607B685B6903F48073B3F5807FE9
:1088D0000CBF01230023DBB218460C37BD465DF800
:1088E000047B704780B483B000AF78607B685B69BD
:1088F00003F40073B3F5007F0CBF01230023DBB248
:1089000018460C37BD465DF8047B704780B483B0D1
:1089100000AF78607B685B6903F40063B3F5006FB8
:108920000CBF01230023DBB218460C37BD465DF8AF
:10893000047B704780B485B000AF78607B685B696A
:10894000FB60FB687B689B69FB60FB6800BF1437BA
:10895000BD465DF8047B704780B483B000AF78609B
:108960007B685B6923F480627B685A6100BF0C37C7
:10897000BD465DF8047B704780B485B000AF786079
:108980007B685B69FB60FB687B681B6843F00102E6
:108990007B681A6000BF1437BD465DF8047B7047E2
:1089A00080B483B000AF78607B685B6923F4807229
:1089B0007B685A6100BF0C37BD465DF8047B704789
:1089C00080B483B000AF78607B685B6923F4007289
:1089D0007B685A6100BF0C37BD465DF8047B704769
:1089E00080B483B000AF78607B685B6923F4006279
:1089F0007B685A6100BF0C37BD465DF8047B704749
:108A000080B483B000AF78607B689B6903F0040397
:108A100018460C37BD465DF8047B704780B483B0C0
:108A200000AF78607B681B69DBB218460C37BD4627
:108A30005DF8047B704780B483B000AF78600B466C
:108A4000FB707B681B6923F0FF02FB781A437B688D
:108A50001A6100BF0C37BD465DF8047B704700000B
:108A600080B586B000AF244B9B681846FFF746FEE2
:108A7000214B9B68184609F0F3F91F4B9B68184679
:108A8000FFF74CFE1C4B9B681846FFF757FE1A4B2E
:108A90009B681846FFF762FE3B4600221A605A6048
:108AA0009A60DA601A615A6100233B60134B7B6065
:108AB0000023BB602423FB604FF480633B614FF4D1
:108AC00080437B610C4B9B683A461146184609F07F
:108AD00001FA094B9B681846FFF750FE064B9B684E
:108AE0001846FFF77BFE044B9B681846FFF7F6FD20
:108AF00000BF1837BD4680BD20250020A08601009C
:108B000080B400AF0A4B00225A71094B4FF0FF327C
:108B10001A60074B00221A71054B00229A71044B10
:108B20000022DA7100BFBD465DF8047B704700BFCC
:108B30002025002080B582B000AF7860094A7B68AC
:108B40009360094B00221A70FFF7DAFF4FF480722E
:108B5000002106480AF03AFC002318460837BD46B3
:108B600080BD00BF202500202C25002020240020CF
:108B700080B596B000AF784B01221A70774B9B6896
:108B80001846FFF761FE0346002B1AD0734B9B6813
:108B90001846FFF7CFFE714B9B681846FFF730FF72
:108BA0000346042B08D16D4B00221A716B4B9B6856
:108BB0001846FFF7F3FD04E0684B9B681846FFF783
:108BC000EDFD664B9B681846FFF718FE0346002B29
:108BD00052D0002387F85730604B1B6807F13800EC
:108BE0005F4A1E210AF0BCFB07F1380319465D48B5
:108BF00000F0D8FB594B1B6807F138005A4A1E2178
:108C00000AF0AEFB07F138031946564800F0CAFBDC
:108C1000524B1A68554913465B0013440B44023308
:108C20001B7887F8573097F8573007F13800504ACB
:108C30001E210AF095FB07F138031946494800F058
:108C4000B1FB97F8573007F138004A4A1E210AF065
:108C500087FB07F138031946424800F0A3FB3F4B5E
:108C60009B6897F8572011461846FFF7E4FE3B4BE8
:108C70009B681846FFF7A2FD384B9B681846FFF724
:108C8000D0FD0346002B4AD0344B9B681846FFF7B3
:108C9000C5FE034687F85630304B1B79DBB2002BFC
:108CA0001FD12E4A97F85630537197F85630381D19
:108CB000314A32210AF054FB3B1D1946294800F085
:108CC00071FB264B01221A71244B1B68381D2B4A5D
:108CD00032210AF045FB3B1D1946224800F062FB99
:108CE0001DE01E4B1A68214913465B0013440B44D8
:108CF00001331B78032B0AD1184B1A681B49134602
:108D00005B0013440B44023397F856201A70134B40
:108D100000221A71114B9B681846FFF74FFD0F4B4D
:108D20009B681846FFF7B7FD0346002B0FD00B4B8F
:108D30009B681846FFF720FE084B00221A71074B6C
:108D40009B681846FFF73AFD034B00221A7000BFDC
:108D50005837BD4680BD00BF2C25002020250020AF
:108D6000F03C0108001001400C3D010830250020B6
:108D7000203D01083C3D0108543D0108643D0108C7
:108D800080B500AF2149224800F00CFB214B0022A6
:108D90001A70214B9B681846FFF790FD0346002B85
:108DA00004D01D4B9B681846FFF7FAFD1A4B9B68D1
:108DB0001846FFF797FD0346002B04D0164B9B681F
:108DC0001846FFF7FDFD144B9B681846FFF74FFD53
:108DD0000346002B04D0104B9B681846FFF7BCFDE0
:108DE0000D4B9B681846FFF791FD0346002B04D0FE
:108DF000094B9B681846FFF7F3FDFFF731FE064B62
:108E00009B681846FFF796FE00BF80BD783D0108BD
:108E1000001001402C2500202025002080B483B0C4
:108E200000AF03463960FB7197F90730002B0ADB6E
:108E30003B68DAB20C4997F907301201D2B20B4401
:108E400083F800230AE03B68DAB20849FB7903F0B3
:108E50000F03043B1201D2B20B441A7600BF0C3749
:108E6000BD465DF8047B704700E100E000ED00E0E6
:108E700080B582B000AF78607B68013BB3F1807F42
:108E800001D301230FE00A4A7B68013B53600F21A5
:108E90004FF0FF30FFF7C2FF054B00229A60044BF2
:108EA00007221A60002318460837BD4680BD00BF60
:108EB00010E000E080B400AF054B1B68044A43F0AB
:108EC0000103136000BFBD465DF8047B704700BF1F
:108ED00010E000E080B500AF054B1B68054AA2FB1F
:108EE00003239B091846FFF7C3FF00BF80BD00BFE7
:108EF0002C230020D34D621080B483B000AF786083
:108F00007B681B6803F00203022B0CBF01230023C4
:108F1000DBB218460C37BD465DF8047B704780B461
:108F200083B000AF78607B681B6803F00403042BF8
:108F30000CBF01230023DBB218460C37BD465DF899
:108F4000047B704780B483B000AF78607B681B6897
:108F500003F00803082B0CBF01230023DBB21846E3
:108F60000C37BD465DF8047B704780B483B000AF1A
:108F700078607B681B6803F02003202B0CBF012363
:108F80000023DBB218460C37BD465DF8047B704702
:108F900080B483B000AF78607B681B6803F0800307
:108FA000802B0CBF01230023DBB218460C37BD46D3
:108FB0005DF8047B704780B485B000AF78607B6853
:108FC0001B68FB60FB687B685B68FB60FB6800BF3D
:108FD0001437BD465DF8047B704780B485B000AFA0
:108FE00078607B681B68FB60FB687B685B68FB6084
:108FF000FB6800BF1437BD465DF8047B704780B442
:1090000085B000AF78607B681B68FB60FB687B689D
:109010005B68FB60FB6800BF1437BD465DF8047BEE
:10902000704780B489B000AF78607B680C33FB6018
:10903000FB6853E8003FBB60BB6843F02003FB6163
:109040007B680C33FA69BA617B617969BA6941E876
:1090500000233B613B69002BE7D100BF00BF2437F1
:10906000BD465DF8047B704780B489B000AF78607E
:109070007B680C33FB60FB6853E8003FBB60BB6858
:1090800043F08003FB617B680C33FA69BA617B6152
:109090007969BA6941E800233B613B69002BE7D15C
:1090A00000BF00BF2437BD465DF8047B704780B425
:1090B00089B000AF78607B680C33FB60FB6853E8D5
:1090C000003FBB60BB6823F02003FB617B680C336F
:1090D000FA69BA617B617969BA6941E800233B6149
:1090E0003B69002BE7D100BF00BF2437BD465DF8C8
:1090F000047B704780B489B000AF78607B680C3324
:10910000FB60FB6853E8003FBB60BB6823F0800353
:10911000FB617B680C33FA69BA617B617969BA6972
:1091200041E800233B613B69002BE7D100BF00BF52
:109130002437BD465DF8047B704780B483B000AF30
:1091400078607B68DB6803F02003202B0CBF0123D1
:109150000023DBB218460C37BD465DF8047B704730
:1091600080B483B000AF78607B68DB6803F0800375
:10917000802B0CBF01230023DBB218460C37BD4601
:109180005DF8047B704780B483B000AF78607B6883
:109190005B68DBB218460C37BD465DF8047B704750
:1091A00080B483B000AF78600B46FB70FA787B68C0
:1091B0005A6000BF0C37BD465DF8047B7047000065
:1091C00080B485B000AF78600023FB6015E01049E3
:1091D000FA681346DB0013449B000B441B687A6853
:1091E0009A4207D1FA681346DB0013449B00084AF1
:1091F000134406E0FB680133FB60FB68012BE6DDEE
:10920000002318461437BD465DF8047B704700BF45
:109210000000002080B586B000AF0346B9607A60D8
:10922000FB73BB685B680133BA68D268B3FBF2F1C9
:1092300001FB02F29B1A7B61BB689A687B699A42C8
:109240000FD07868FFF733FFBB681A68BB685B68AC
:109250001344FA7B1A707A69BB685A607868FFF722
:10926000E0FE00BF1837BD4680BD80B586B000AFB8
:1092700078607868FFF7A4FF78617B69002B02D1E2
:109280004FF0FF3325E07B6904333B613B695A684B
:109290003B699B689A4202D14FF0FF3319E078682E
:1092A000FFF705FF3B691A683B699B6813441B780D
:1092B000FB733B699B6801333A69D268B3FBF2F1F7
:1092C00001FB02F29A1A3B699A607868FFF7A9FEDF
:1092D000FB7B18461837BD4680BD80B586B000AF11
:1092E000786039607868FFF76BFF78617B69002BE5
:1092F0002BD03B68002B28DB7B6914333B613B6937
:109300005B6801333A69D268B3FBF2F101FB02F208
:109310009B1AFB607868FFF7CAFE00BF3B699A683A
:10932000FB689A42FAD03B691A683B695B68134450
:109330003A68D2B21A70FA683B695A607868FFF7E7
:1093400070FE7868FFF790FE00E000BF1837BD465A
:1093500080BD80B584B000AF78607868FFF730FFDB
:10936000F860FB68002B01D1002317E0FB68043391
:10937000BB60BB68DB689AB2BB685B689BB2134496
:109380009AB2BB689B689BB2D31A9BB21A46BB6861
:10939000DB68B2FBF3F101FB03F3D31A1846103775
:1093A000BD4680BD80B582B000AF7860396007E00F
:1093B0003B685A1C3A601B7819467868FFF78DFFA6
:1093C0003B681B78002BF3D100BF00BF0837BD46B8
:1093D00080BD80B584B000AF78607868FFF7F0FE9C
:1093E000F860FB68002B11D0FB680433BB60BB68DE
:1093F0001868BB68DB681A46002109F0E7FFBB6804
:1094000000225A60BB6800229A6000E000BF10375B
:10941000BD4680BD80B586B000AF78607868FFF744
:10942000CFFE78617B69002B68D07B6904333B6198
:109430007B691433FB607868FFF797FD0346002BC8
:109440002DD07868FFF779FE0346002B27D0786887
:10945000FFF799FE0346FB727868FFF773FD03463A
:10946000002B0BD17868FFF747FD0346002B05D191
:109470007868FFF754FD0346002B09D07868FFF7A2
:10948000BEFD7868FFF797FD7868FFF7A6FD36E028
:10949000FB7A7A6839691846FFF7BCFE2FE07868D6
:1094A000FFF776FD0346002B29D07868FFF758FEBA
:1094B0000346002B23D0FB685A68FB689B689A42DE
:1094C00003D17868FFF716FE19E0FB681A68FB689D
:1094D0009B6813441B78BB72FB689B680133FA6876
:1094E000D268B3FBF2F101FB02F29A1AFB689A60B0
:1094F000BB7A19467868FFF753FE00E000BF1837C3
:10950000BD4680BD80B586B000AF78600123FB7397
:1095100000233B617B687B611FE07B691B78202B0C
:1095200005D17B6900221A700123FB7312E0FB7BDB
:10953000002B0FD03B69072B0AD81E493B697A697B
:1095400041F823203B6901333B610023FB7301E0B9
:1095500002232BE07B6901337B617B691B78002B45
:10956000DBD13B69002B20D03B6901333B61124BBF
:10957000BB6016E00F4B1A68BB681B6819461046A3
:10958000FEF726FE0346002B08D1BB685B683A69EC
:109590000849104698470346DBB207E0BB680C3326
:1095A000BB60BB681B68002BE4D101231846183749
:1095B000BD4680BD303200206000002080B400AF86
:1095C000BFF34F8F00BF064BDB6803F4E062044932
:1095D000044B1343CB60BFF34F8F00BF00BFFDE7C9
:1095E00000ED00E00400FA0580B483B000AF7860BD
:1095F00039607B683A689A6100BF0C37BD465DF8F8
:10960000047B704780B483B000AF786039603B68FA
:109610001A047B689A6100BF0C37BD465DF8047B75
:109620007047000080B58AB000AF7860144A7B684C
:10963000136040220021134809F0C8FE124B00229B
:109640001A700F4B1B6811491846FFF7ABFE0C4B05
:109650001B681846FFF7BDFE07F108000C4B0D4ACA
:109660001E2109F07DFE064B1B6807F1080211461A
:109670001846FFF797FE00BF2837BD4680BD00BFE4
:109680009C340020A0340020E0340020A0480108D1
:10969000BC480108C448010880B582B000AF144B33
:1096A0001B681846FFF755FE0346002B1CD0104BD5
:1096B0001B681846FFF7D9FD0346FB71FB791B2B8E
:1096C00006D10B4B1B680B491846FFF76BFE06E0F3
:1096D000074B1B68FA7911461846FFF7FEFDFB7928
:1096E0000549184600F00AF800BF0837BD4680BD9E
:1096F0009C340020D44801085432002080B5BCB00E
:1097000002AF03463960FB71FB791B2B32D107F1A5
:10971000DC0300221A609A8007F1DC03184602F08D
:109720001BFC97F8DF30194697F8E03097F8E120F6
:1097300007F1BC00019200930B46B94A1E2109F0C3
:109740000FFE07F1BC0307F10800B64A0092B64AC3
:109750003C2109F005FEB54B1B6807F108021146D4
:109760001846FFF71FFE3B680022A3F840203B6825
:1097700000221A70FB792D2B6BD107F1B403002264
:109780001A609A8007F1B403184602F0E5FB97F8D7
:10979000B730194697F8B83097F8B92007F1940018
:1097A000019200930B469E4A1E2109F0D9FD3B68A9
:1097B000B3F84432002B07D03B68B3F84432013B86
:1097C0009AB23B68A3F844223B68B3F844223B6852
:1097D000B3F842329A4215D238683B68B3F8443243
:1097E00001339B013A6813440233194609F022FE03
:1097F0003B681846FEF7F6FC03469AB23B68A3F8AE
:10980000402006E03B6800221A703B680022A3F863
:109810004020864B1B6886491846FFF7C3FD07F1B9
:10982000940307F108007F4A0092824A3C2109F024
:1098300097FD7E4B1B6807F1080211461846FFF79B
:10984000B1FD7A4B1B683A6811461846FFF7AAFD2E
:10985000C8E1FB793D2B6ED107F18C0300221A6021
:109860009A8007F18C03184602F076FB97F88F3048
:10987000194697F8903097F8912007F16C00019203
:1098800000930B46664A1E2109F06AFD3B68B3F857
:1098900044223B68B3F842329A4207D23B68B3F89D
:1098A000443201339AB23B68A3F844223B68B3F8D0
:1098B00044223B68B3F842329A4215D238683B687A
:1098C000B3F8443201339B013A681344023319461A
:1098D00009F0B0FD3B681846FEF784FC03469AB2D7
:1098E0003B68A3F8402006E03B6800221A703B6802
:1098F0000022A3F840204D4B1B684D491846FFF746
:1099000051FD07F16C0307F10800464A0092494AED
:109910003C2109F025FD454B1B6807F10802114663
:109920001846FFF73FFD414B1B683A681146184641
:10993000FFF738FD56E1FB791F2B02D9FB797E2B0F
:1099400006D9FB790D2B03D0FB797F2B40F04A81A0
:10995000FB792D2B00F04681FB793D2B00F04281F5
:10996000FB795C2B00F03E8107F1640300221A6052
:109970009A8007F16403184602F0EEFA97F8673010
:10998000194697F8683097F8692007F1440001926A
:1099900000930B46224A1E2109F0E2FCFB790D2BB5
:1099A00040F0C9803B68B3F84030002B00F0AE8037
:1099B0003B68B3F840301A463B68002199543B6835
:1099C000B3F84232002B10D03B68B3F84232013B6F
:1099D00001339B013A68134402333A681146184632
:1099E000FEF7F6FB0346002B4DD03B68B3F842323E
:1099F000072B21D83B68B3F8423201339B013A6808
:109A0000134402333A681146184609F013FD3B68C7
:109A1000B3F8423201339AB23B68A3F8422232E0F3
:109A2000DC480108BC480108F04801089C340020CB
:109A3000FC480108044901080023C7F8E43016E097
:109A4000D7F8E43001339B013A681344981CD7F8E7
:109A5000E430013301339B013A6813440233194661
:109A600009F0E8FCD7F8E4300133C7F8E430D7F860
:109A7000E430062BE4DD3B6803F202233A6811462A
:109A8000184609F0D7FC3B68B3F842223B68A3F8BC
:109A900044223B681846FFF735FD034687F8E3305C
:109AA00097F9E330062B00F09D8007F108034F4A39
:109AB0003C21184609F054FC4D4B1B6807F1080285
:109AC00011461846FFF76EFC494B1A6897F9E330C8
:109AD000484951F8233019461046FFF763FC07F157
:109AE000440307F10800444A0092444A3C2109F02B
:109AF00037FC3F4B1B6807F1080211461846FFF779
:109B000051FC3B680022A3F840206BE000F07EF897
:109B100007F1440307F10800374A0092384A3C2114
:109B200009F01EFC324B1B6807F10802114618466B
:109B3000FFF738FC56E0FB797F2B1BD13B68B3F86D
:109B40004030002B0FD03B68B3F84030013B9AB255
:109B50003B68A3F840203B68B3F840301A463B68A6
:109B6000002199543EE0224B1B6826491846FFF716
:109B700019FC37E03B68B3F840303E2B13D83B6804
:109B8000B3F840305A1C91B23A68A2F84010194616
:109B90003B68FA795A543B68B3F840301A463B6840
:109BA000002199541EE0124B1B6817491846FFF715
:109BB000F9FB07F1440307F108000F4A0092104A2D
:109BC0003C2109F0CDFB0A4B1B6807F10802114646
:109BD0001846FFF7E7FB3B680022A3F840203B68EC
:109BE00000221A70E837BD4680BD00BF0C4901084D
:109BF0009C34002048000020BC4801081C49010892
:109C0000F0480108244901082849010880B400AF40
:109C1000124B00221A60124B00221A70114B0022C4
:109C20001A70114B00221A60104B01221A70104B4F
:109C300001221A700F4B01221A700F4B00221A607A
:109C40000E4B00221A600E4B00221A700D4B0022A0
:109C50001A7000BFBD465DF8047B7047E4340020F5
:109C6000E8340020E9340020EC3400202C020020ED
:109C70002D0200202E020020F0340020F4340020B9
:109C8000F9340020F834002080B5CCB004AF07F5DB
:109C90009073A3F58E73186007F59073A3F5907316
:109CA000196007F59073A3F58E731B68022B01DD15
:109CB000022363E0344B1B6834491846FFF772FBFC
:109CC000334BC7F81C310023C7F8183116E0D7F81A
:109CD0001C311B681846FEF785FAC7F80C01D7F847
:109CE0000C21D7F818319A4203D9D7F80C31C7F8AC
:109CF0001831D7F81C310C33C7F81C31D7F81C3198
:109D00001B68002BE3D1224BC7F81C3130E0D7F899
:109D10001C311B681846FEF765FAC7F81401D7F81E
:109D20001821D7F81431D31A0433C7F81031D7F8F3
:109D30001C311A68D7F81C319B6807F10C0002939C
:109D4000144B0193D7F8103100931346124A4FF485
:109D5000807109F005FB0C4B1B6807F10C021146E2
:109D60001846FFF71FFBD7F81C310C33C7F81C311E
:109D7000D7F81C311B68002BC9D10023184607F502
:109D80009077BD4680BD00BF9C3400204449010847
:109D9000600000206C4901085C49010880B582B070
:109DA00000AF78603960FFF709FC000080B582B031
:109DB00000AF78603960054B1B6805491846FFF70E
:109DC000F1FA002318460837BD4680BD9C340020B8
:109DD0007049010880B582B000AF78603960FFF744
:109DE000EDFB000080B582B000AF786039607B6821
:109DF000022B01DC032317E07B68032B01DD022328
:109E000012E03B6804331B68184609F021FA034648
:109E1000002B04D010210648FFF7E6FB03E01021D9
:109E20000348FFF7EFFB002318460837BD4680BD07
:109E3000000C024080B592B002AF786039607B6858
:109E4000052B01DC03234BE07B68062B01DD02239D
:109E500046E0002387F83F303DE097F83F3001337C
:109E60009B003A6813441B68184609F0F1F9024652
:109E700097F83F3012B25B0040333B4423F80C2C80
:109E800097F83F305B0040333B4433F90C2C97F894
:109E90003F301146184605F0D5FB97F83F2097F85C
:109EA0003F305B0040333B4433F90C3C07F10C007E
:109EB000009313460C4A282109F052FA0B4B1B68F9
:109EC00007F10C0211461846FFF76CFA97F83F307D
:109ED000013387F83F3097F83F30032BBDD900237B
:109EE00018464037BD4680BD884901089C34002093
:109EF00080B59AB002AF786039607B68022B01DDD3
:109F000002235AE00023A7F85C30B7F95C3047F62B
:109F1000FF72934206D12B4B1B682B491846FFF763
:109F200041FA0FE0B7F95C3007F10C00274A5021E5
:109F300009F016FA234B1B6807F10C02114618466C
:109F4000FFF730FA224803F007FB002387F85F3061
:109F50002EE097F85F301E4A32F81330A7F85C30D5
:109F6000B7F95C3047F6FF72934208D197F85F303B
:109F700007F10C00174A502109F0F2F90BE097F8AD
:109F80005F20B7F95C3007F10C0000931346124ACA
:109F9000502109F0E5F90B4B1B6807F10C02114643
:109FA0001846FFF7FFF997F85F30013387F85F3005
:109FB00097F85F30072BCCD9002318466037BD4691
:109FC00080BD00BF9C340020A0490108B8490108A9
:109FD00070350020D0490108E849010880B594B0E7
:109FE00002AF786039607B68022B01DD02232CE030
:109FF0000023A7F84430002387F8473020E097F883
:10A000004730184605F034FB0346A7F8443097F86C
:10A010004720B7F9443007F10800009313460D4A72
:10A020003C2109F09DF90C4B1B6807F10802114611
:10A030001846FFF7B7F997F84730013387F84730EC
:10A0400097F84730032BDAD9002318464837BD4626
:10A0500080BD00BFFC4901089C34002080B594B04D
:10A0600000AF786039607B68032B01DD022397E045
:10A070000123BB64002387F84E307B68022B47D155
:10A08000002387F84F303DE097F84F30184602F034
:10A0900053FE034687F84E300A2008F019FF97F95F
:10A0A0004E30002B05D197F84F300021184602F0B2
:10A0B000F2FD07F1480297F84F300121184602F0EF
:10A0C00049FDBB6C002B08D197F84F3007F10C000D
:10A0D000354A3C2109F044F907E097F84F3007F181
:10A0E0000C00324A3C2109F03BF9314B1B6807F167
:10A0F0000C0211461846FFF755F997F84F30013317
:10A1000087F84F3097F84F30032BBDD9002347E035
:10A110007B68032B43D13B6804331B68184609F066
:10A1200097F8034687F84D3097F84D30184602F0FF
:10A1300003FE034687F84E300A2008F0C9FE97F95F
:10A140004E30002B05D197F84D300021184602F013
:10A15000A2FD07F1480297F84D300121184602F0A0
:10A16000F9FCBB6C002B08D197F84D3007F10C00BF
:10A170000D4A3C2109F0F4F807E097F84D3007F15B
:10A180000C000A4A3C2109F0EBF8094B1B6807F167
:10A190000C0211461846FFF705F9002300E00023E2
:10A1A00018465037BD4680BD144A0108304A0108A0
:10A1B0009C34002090B59BB002AF786039607B681A
:10A1C000052B01DC032341E07B68062B01DD022324
:10A1D0003CE0002387F85F3033E097F85F300133CD
:10A1E0009B003A6813441B68184609F031F803468F
:10A1F0009AB297F85F301146184605F04DFA97F875
:10A200005F4097F85F3001339B003A6813441B6846
:10A21000184609F01DF8034607F10C000093234689
:10A220000C4A502109F09CF80B4B1B6807F10C02FB
:10A2300011461846FFF7B6F897F85F30013387F8F4
:10A240005F3097F85F30032BC7D900231846643777
:10A25000BD4690BD484A01089C34002090B59DB091
:10A2600002AF786039607B68022B01DD022334E0A5
:10A27000002387F867302BE097F8674097F867303E
:10A28000184605F035FA03461A46630068333B4426
:10A2900023F80C2C97F8672097F867305B00683339
:10A2A0003B4433F80C3C07F10C00009313460D4A75
:10A2B000502109F055F80C4B1B6807F10C021146B0
:10A2C0001846FFF76FF897F86730013387F8673063
:10A2D00097F86730032BCFD9002318466C37BD465B
:10A2E00090BD00BF644A01089C34002080B584B052
:10A2F00000AF786039607B68052B01DC03233FE009
:10A300007B68062B01DD02233AE03B6804331B68BF
:10A31000184608F09DFF0346002B14BF01230023BD
:10A32000DBB2FB733B6808331B68184608F090FFEC
:10A330000346002B14BF01230023DBB2BB733B6831
:10A340000C331B68184608F083FF0346002B14BF2C
:10A3500001230023DBB27B733B6810331B68184674
:10A3600008F076FF0346002B14BF01230023DBB265
:10A370003B733B7B7A7BB97BF87B05F069FA002362
:10A3800018461037BD4680BD80B582B000AF7860FA
:10A3900039607B68052B01DC03234DE07B68062BCD
:10A3A00001DD022348E03B6804331B68184608F0CF
:10A3B0004FFF0346002B04D00121002002F06BFC6C
:10A3C00003E00021002002F066FC3B6808331B68B4
:10A3D000184608F03DFF0346002B04D00121012060
:10A3E00002F059FC03E00021012002F054FC3B681C
:10A3F0000C331B68184608F02BFF0346002B04D0D3
:10A400000121022002F047FC03E00021022002F0BB
:10A4100042FC3B6810331B68184608F019FF0346DE
:10A42000002B04D00121032002F035FC03E00021C1
:10A43000032002F030FC002318460837BD4680BDDB
:10A4400080B596B002AF786039603B6804331B6812
:10A45000184608F0FDFE034687F84F3007F1480222
:10A4600097F84F300021184602F074FBBB6C1A0CB1
:10A47000BB6C07F10C0000931346614A3C2108F0C5
:10A480006FFF604B1B6807F10C0211461846FEF780
:10A4900089FF07F1480297F84F300121184602F072
:10A4A00059FBBB6C1A0CBB6C07F10C0000931346F4
:10A4B000554A3C2108F054FF524B1B6807F10C022F
:10A4C00011461846FEF76EFF07F1480297F84F3025
:10A4D0000221184602F03EFBBB6C1A0CBB6C07F164
:10A4E0000C0000931346494A3C2108F039FF454BC4
:10A4F0001B6807F10C0211461846FEF753FF07F1DF
:10A50000480297F84F300321184602F023FBBB6C3A
:10A510001A0CBB6C07F10C00009313463C4A3C211B
:10A5200008F01EFF374B1B6807F10C021146184656
:10A53000FEF738FF07F1480297F84F30042118461C
:10A5400002F008FBBB6C1A0CBB6C07F10C0000930B
:10A550001346304A3C2108F003FF2A4B1B6807F1E1
:10A560000C0211461846FEF71DFF07F1480297F846
:10A570004F300521184602F0EDFABB6C07F10C00D4
:10A58000254A3C2108F0ECFE1E4B1B6807F10C022B
:10A5900011461846FEF706FF07F1480297F84F30BC
:10A5A0000621184602F0D6FABB6C07F10C001B4AD4
:10A5B0003C2108F0D5FE134B1B6807F10C02114635
:10A5C0001846FEF7EFFE07F1480297F84F300721D3
:10A5D000184602F0BFFABB6C07F10C00104A3C2190
:10A5E00008F0BEFE074B1B6807F10C021146184627
:10A5F000FEF7D8FE002318465037BD4680BD00BF89
:10A60000844A01089C340020A04A0108BC4A010881
:10A61000D84A0108F44A01080C4B0108244B0108F0
:10A620003C4B010880B59AB002AF786039607B6816
:10A63000052B01DC032342E07B68062B01DD0223AE
:10A640003DE0002387F85E3034E097F85E30013358
:10A650009B003A6813441B68184608F0F9FD03464E
:10A6600087F85F3097F85F30642B02D9642387F84E
:10A670005F3097F85F2097F85E301146184605F076
:10A6800053F897F85E2097F85F3007F10C000093BD
:10A6900013460D4A502108F063FE0C4B1B6807F16E
:10A6A0000C0211461846FEF77DFE97F85E30013326
:10A6B00087F85E3097F85E30032BC6D90023184622
:10A6C0006037BD4680BD00BF504B01089C34002060
:10A6D00080B59AB002AF786039607B68022B01DDEB
:10A6E000022329E0002387F85F3020E097F85F30ED
:10A6F000184605F041F8034687F85E3097F85F206A
:10A7000097F85E3007F10C00009313460C4A502175
:10A7100008F026FE0B4B1B6807F10C021146184689
:10A72000FEF740FE97F85F30013387F85F3097F807
:10A730005F30032BDAD9002318466037BD4680BD51
:10A740006C4B01089C34002080B584B000AF786069
:10A7500039607B68052B01DC03233FE07B68062B17
:10A7600001DD02233AE03B6804331B68184608F019
:10A770006FFD0346002B14BF01230023DBB2FB73E4
:10A780003B6808331B68184608F062FD0346002B3F
:10A7900014BF01230023DBB2BB733B680C331B687F
:10A7A000184608F055FD0346002B14BF0123002373
:10A7B000DBB27B733B6810331B68184608F048FD1A
:10A7C0000346002B14BF01230023DBB23B733B7B0A
:10A7D0007A7BB97BF87B04F0EDFF00231846103735
:10A7E000BD4680BD80B5BAB002AF786039607B6885
:10A7F000052B01DC0323A8E07B68062B01DD022387
:10A80000A3E03B6804331B68184608F021FD0346AB
:10A81000002B14BF01230023DBB287F8DF303B6835
:10A8200008331B68184608F013FD0346A7F8DC3010
:10A830003B680C331B68184608F00AFD034687F88E
:10A84000DB303B6810331B68184608F001FD0346F7
:10A85000A7F8D8300123C7F8D030002002F06CFAF6
:10A86000034687F8D7300A2008F032FB97F8D73034
:10A87000002B03D10021002002F00DFA07F1D003D4
:10A880001A460121002002F065F9D7F8D030002BDC
:10A8900033D1304B1B6830491846FEF783FDB7F8BB
:10A8A000DC301946002004F0F7FE97F8DB3019463B
:10A8B000002004F039FFB7F9D8301946002004F021
:10A8C000C1FEB7F8DC1097F8DB30B7F9D82007F1F4
:10A8D0000800019200930B46204AC82108F040FD71
:10A8E0001C4B1B6807F1080211461846FEF75AFD7B
:10A8F00097F8DF30002B18D007E0164B1B6818497B
:10A900001846FEF74FFD00231FE0164B93F84C301E
:10A9100043F00103DAB2134B83F84C200D4B1B6854
:10A9200011491846FEF73EFD0EE00E4B93F84C30F1
:10A9300023F00103DAB20B4B83F84C20054B1B6864
:10A940000A491846FEF72EFD00231846E037BD469B
:10A9500080BD00BF9C340020844B0108B84B010827
:10A96000A04B010848230020044C01081C4C01089E
:10A9700080B5BAB002AF786039607B68052B01DC26
:10A980000323A8E07B68062B01DD0223A3E03B68DC
:10A9900004331B68184608F05BFC0346002B14BF09
:10A9A00001230023DBB287F8DF303B6808331B68E4
:10A9B000184608F04DFC0346A7F8DC303B680C3322
:10A9C0001B68184608F044FC034687F8DB303B68F8
:10A9D00010331B68184608F03BFC0346A7F8D83034
:10A9E0000123C7F8D030012002F0A6F9034687F80A
:10A9F000D7300A2008F06CFA97F8D730002B03D133
:10AA00000021012002F047F907F1D0031A46012185
:10AA1000012002F09FF8D7F8D030002B33D1304B13
:10AA20001B6830491846FEF7BDFCB7F8DC30194604
:10AA3000012004F031FE97F8DB301946012004F0C4
:10AA400073FEB7F9D8301946012004F0FBFDB7F8C2
:10AA5000DC1097F8DB30B7F9D82007F10800019235
:10AA600000930B46204AC82108F07AFC1C4B1B6857
:10AA700007F1080211461846FEF794FC97F8DF30FC
:10AA8000002B18D007E0164B1B6818491846FEF734
:10AA900089FC00231FE0164B93F84C3043F002036F
:10AAA000DAB2134B83F84C200D4B1B681149184642
:10AAB000FEF778FC0EE00E4B93F84C3023F00203C7
:10AAC000DAB20B4B83F84C20054B1B680A49184639
:10AAD000FEF768FC00231846E037BD4680BD00BF86
:10AAE0009C340020304C0108644C01084C4C010897
:10AAF00048230020B04C0108C84C010880B5BAB00A
:10AB000002AF786039607B68052B01DC0323A8E085
:10AB10007B68062B01DD0223A3E03B6804331B683E
:10AB2000184608F095FB0346002B14BF01230023B1
:10AB3000DBB287F8DF303B6808331B68184608F043
:10AB400087FB0346A7F8DC303B680C331B681846CC
:10AB500008F07EFB034687F8DB303B6810331B6848
:10AB6000184608F075FB0346A7F8D8300123C7F84C
:10AB7000D030022002F0E0F8034687F8D7300A20F0
:10AB800008F0A6F997F8D730002B03D10021022056
:10AB900002F081F807F1D0031A460121022001F0EA
:10ABA000D9FFD7F8D030002B33D1304B1B68304958
:10ABB0001846FEF7F7FBB7F8DC301946022004F020
:10ABC0006BFD97F8DB301946022004F0ADFDB7F9B4
:10ABD000D8301946022004F035FDB7F8DC1097F89C
:10ABE000DB30B7F9D82007F10800019200930B463B
:10ABF000204AC82108F0B4FB1C4B1B6807F108026F
:10AC000011461846FEF7CEFB97F8DF30002B18D020
:10AC100007E0164B1B6818491846FEF7C3FB0023D4
:10AC20001FE0164B93F84C3043F00403DAB2134B99
:10AC300083F84C200D4B1B6811491846FEF7B2FBF8
:10AC40000EE00E4B93F84C3023F00403DAB20B4BBA
:10AC500083F84C20054B1B680A491846FEF7A2FBF7
:10AC600000231846E037BD4680BD00BF9C3400205D
:10AC7000DC4C0108104D0108F84C01084823002065
:10AC80005C4D0108744D010880B5BAB002AF786020
:10AC900039607B68052B01DC0323A8E07B68062B69
:10ACA00001DD0223A3E03B6804331B68184608F06B
:10ACB000CFFA0346002B14BF01230023DBB287F831
:10ACC000DF303B6808331B68184608F0C1FA0346BA
:10ACD000A7F8DC303B680C331B68184608F0B8FA5C
:10ACE000034687F8DB303B6810331B68184608F0D2
:10ACF000AFFA0346A7F8D8300123C7F8D0300320B5
:10AD000002F01AF8034687F8D7300A2008F0E0F876
:10AD100097F8D730002B03D10021032001F0BBFFAF
:10AD200007F1D0031A460121032001F013FFD7F8E1
:10AD3000D030002B33D1304B1B6830491846FEF71A
:10AD400031FBB7F8DC301946032004F0A5FC97F876
:10AD5000DB301946032004F0E7FCB7F9D830194678
:10AD6000032004F06FFCB7F8DC1097F8DB30B7F97C
:10AD7000D82007F10800019200930B46204AC82111
:10AD800008F0EEFA1C4B1B6807F108021146184642
:10AD9000FEF708FB97F8DF30002B18D007E0164BC2
:10ADA0001B6818491846FEF7FDFA00231FE0164BF2
:10ADB00093F84C3043F00803DAB2134B83F84C207D
:10ADC0000D4B1B6811491846FEF7ECFA0EE00E4BCE
:10ADD00093F84C3023F00803DAB20B4B83F84C2085
:10ADE000054B1B680A491846FEF7DCFA0023184693
:10ADF000E037BD4680BD00BF9C340020884D01086F
:10AE0000BC4D0108A44D010848230020084E01084C
:10AE1000204E010880B598B000AF786039607B683B
:10AE2000052B01DC03232AE07B68062B01DD0223CE
:10AE300025E03B6804331B68184608F009FA03460E
:10AE400087F85F3097F85F30642B02D9642387F866
:10AE50005F3097F85F30184601F018F997F85F30C7
:10AE600007F10C00084A502108F07AFA074B1B68DA
:10AE700007F10C0211461846FEF794FA0023184613
:10AE80006037BD4680BD00BF344E01089C340020B1
:10AE900080B58EB000AF786039607B68022B01DD31
:10AEA000022315E001F012F9034687F8373097F8CE
:10AEB000373007F10C00084A282108F051FA074BF7
:10AEC0001B6807F10C0211461846FEF76BFA0023C7
:10AED00018463837BD4680BD484E01089C340020D6
:10AEE00080B483B000AF78603960002318460C3717
:10AEF000BD465DF8047B704780B483B000AF7860D6
:10AF00003960002318460C37BD465DF8047B704756
:10AF100080B592B000AF786039607B68032B01DDAB
:10AF200002232BE07B68022B01DC032326E03B6835
:10AF300004331B68184608F08BF90346A7F846301F
:10AF4000B7F84630FF2B01D9042317E0B7F8463095
:10AF500007F108000B4A3C2108F002FA0A4B1B6873
:10AF600007F1080211461846FEF71CFAB7F84630FA
:10AF70001A460021054801F079FB0023184648379E
:10AF8000BD4680BD5C4E01089C3400204835002041
:10AF900080B584B000AF786039607B68032B01DD39
:10AFA000022317E07B68022B01DC032312E03B68DD
:10AFB00004331B68184608F04BF90346FB73FB7B10
:10AFC000242B01D9042305E0FB7B1946034801F03B
:10AFD000B1F9002318461037BD4680BD0835002062
:10AFE00080B5A0B002AF786039607B68082B01DDC6
:10AFF00002233EE17B68072B01DC032339E13B6838
:10B0000004331B68184608F023F903463B673B6886
:10B0100008331B68184608F01BF90346FB663B68BB
:10B020000C331B68184608F013F90346BB663B68EF
:10B0300010331B68184608F00BF9034687F8673091
:10B040003B6814331B68184608F002F903463B6658
:10B050003B6818331B68184608F0FAF80346FB658E
:10B060003A6F864BA3FB02135B09642101FB03F3D8
:10B07000D31A002B03D13B6FB3F5C87F10D207F171
:10B0800008037F4A5021184608F06AF97D4B1B6877
:10B0900007F1080211461846FEF784F90423E8E098
:10B0A000FB6EC72B0ED9FA6E744BA3FB02135B0920
:10B0B000642101FB03F3D31A002B03D1FA6E3B6F1B
:10B0C0009A4210D907F108036F4A5021184608F038
:10B0D00047F96C4B1B6807F1080211461846FEF74A
:10B0E00061F90423C5E0BB6EB3F5FA7F10D907F10F
:10B0F0000803664A5021184608F032F9614B1B6874
:10B1000007F1080211461846FEF74CF90423B0E097
:10B1100097F86730C82B10D907F108035C4A502113
:10B12000184608F01DF9574B1B6807F10802114635
:10B130001846FEF737F904239BE097F86730002B99
:10B140000CBF01230023DBB21A46524B1A70FB6D71
:10B15000FF2B01D904238CE007F10800FB6D4E4A58
:10B16000502108F0FDF8474B1B6807F10802114613
:10B170001846FEF717F90023A7F85A30B7F95A30E6
:10B1800047F6FF72934206D13E4B1B68434918466F
:10B19000FEF708F90FE0B7F95A3007F10800404A06
:10B1A000502108F0DDF8374B1B6807F10802114603
:10B1B0001846FEF7F7F8002387F877302EE097F867
:10B1C0007730384A32F81330A7F85A30B7F95A3086
:10B1D00047F6FF72934208D197F8773007F10800DD
:10B1E000314A502108F0BCF80BE097F87720B7F906
:10B1F0005A3007F10800009313462C4A502108F0FA
:10B20000AFF8204B1B6807F1080211461846FEF7FD
:10B21000C9F897F87730013387F8773097F87730A7
:10B22000072BCCD9224A3B6F1360224AFB6E136076
:10B23000214ABB6E1360214A3B6E1360204A97F887
:10B24000673013701F4B01221A7007F10800BB6EA4
:10B250000193FB6E00933B6F1B4A502108F080F86E
:10B26000084B1B6807F1080211461846FEF79AF8CA
:10B27000002318467837BD4680BD00BF1F85EB51BF
:10B28000744E01089C340020B04E0108EC4E0108B9
:10B29000044F0108F9340020304F0108444F0108E1
:10B2A000604F010870350020784F0108904F010869
:10B2B000E4340020EC340020F0340020F43400208A
:10B2C000F8340020E8340020A44F010880B592B083
:10B2D00000AF786039607B68032B01DD02232BE02F
:10B2E0007B68022B01DC032326E03B6804331B68E8
:10B2F000184607F0ADFF0346A7F84630B7F84630CA
:10B30000D22B01D9042317E0B7F8463007F1080023
:10B310000B4A3C2108F024F80A4B1B6807F108028D
:10B3200011461846FEF73EF8B7F846301A46012196
:10B33000054801F09BF9002318464837BD4680BDFB
:10B34000F04F01089C3400204835002080B584B0BF
:10B3500000AF786039607B68032B01DD022317E0C2
:10B360007B68022B01DC032312E03B6804331B687B
:10B37000184607F06DFF0346FB73FB7B082B01D9D2
:10B38000042305E0FB7B1946034800F0D3FF0023AC
:10B3900018461037BD4680BD2835002080B483B0E4
:10B3A00000AF78603960002318460C37BD465DF861
:10B3B000047B704780B588B000AF786039607B68E7
:10B3C000032B01DD022364E07B68022B01DC0323F5
:10B3D0005FE03B6804331B68184607F039FF0346FB
:10B3E000FB76FB7E242B01D9042352E007F11003E6
:10B3F00000221A609A80FB7E002B21D0FB7E242B3A
:10B400001ED8FB7E013B254A82FB0312DB17D31AB1
:10B41000BB76FB7E5A1E214B83FB0231D317C91A20
:10B420000B465B000B445B00D11A0B467B767B7EA0
:10B4300001229A40BB7ED2B220333B4403F8102C49
:10B440000023FB610FE0FB69C3F1050320333B449C
:10B4500013F8101C07F10802FB6913440A461A701E
:10B46000FB690133FB61FB69052BECDD4FF40071D7
:10B470000B48FEF7C7F807F108014FF47A7306226C
:10B48000084805F05CF84FF400710548FEF7ACF889
:10B49000002318462037BD4680BD00BFABAAAA2AAC
:10B4A000000C0240CC35002080B594B000AF78602D
:10B4B00039607B68022B01DD02233DE07B68012BB4
:10B4C00001DC032338E00023A7F848300023FB64A5
:10B4D0004FF400611A48FEF795F800BF4FF4006181
:10B4E0001748FEF781F84FF480611548FEF78AF897
:10B4F00007F148014FF47A730222124805F063F90C
:10B500004FF480610E48FEF76FF897F848301B0241
:10B5100097F849201343FB6407F10C00FB6C0A4ABF
:10B520003C2107F01DFF094B1B6807F10C02114677
:10B530001846FDF737FF002318465037BD4680BD3B
:10B54000000C0240CC350020085001089C3400203B
:10B5500080B598B000AF786039607B68032B01DD5F
:10B56000022342E07B68022B01DC03233DE03B68C1
:10B5700004331B68184607F06BFE0346FB65FA6D43
:10B580001C4BA3FB02135B09642101FB03F3D31AD9
:10B59000002B03D1FB6DB3F5FA7F10D207F10C033A
:10B5A000154A5021184607F0DBFE144B1B6807F1C3
:10B5B0000C0211461846FDF7F5FE042315E0104A6B
:10B5C000FB6D13600F4B01221A7007F10C00FB6D2D
:10B5D0000D4A502107F0C4FE084B1B6807F10C020E
:10B5E00011461846FDF7DEFE002318466037BD46BB
:10B5F00080BD00BF1F85EB511C5001089C3400200A
:10B60000EC340020E93400205850010880B500AF28
:10B610000249034807F0E8FC00BF80BD0802002093
:10B620000402002080B483B000AF78607B689B6820
:10B6300003F00203022B01D1012300E0002318468E
:10B640000C37BD465DF8047B704780B483B000AF13
:10B6500078607B689B6803F08003802B01D1012315
:10B6600000E0002318460C37BD465DF8047B7047A8
:10B6700080B485B000AF78600B46FB707B680C33FC
:10B68000FB60FB68FA781A7000BF1437BD465DF89E
:10B69000047B704780B483B000AF786039607B680A
:10B6A0003A689A6100BF0C37BD465DF8047B70476D
:10B6B00080B483B000AF786039603B681A047B685F
:10B6C0009A6100BF0C37BD465DF8047B70470000EF
:10B6D00080B590B002AF984B1B78DBB2002B0DD039
:10B6E0000A2007F06BFC0346002B07D000F06CFA31
:10B6F000924B1B6819460A2007F04AFC904B1B78B6
:10B70000DBB2002B00F014810B2007F057FC03463E
:10B71000002B00F0F3808B4B00221A708A4B1B78B1
:10B72000DBB21A46520013445B00DAB2874B1B7837
:10B73000DBB21344DBB2063B87F83730844B1B780F
:10B74000DBB2002B3AD0834B1B78DBB2002B25D128
:10B75000814B1B78DBB2002B20D1804B00221A607A
:10B76000774B00221A70744B00221A70734B002220
:10B770001A607B4B01221A70744B01221A70724BB3
:10B7800001221A70774B00221A60774B00221A6050
:10B79000704B00221A70704B00221A70002000F0CB
:10B7A0004DF9002000F0ACF96E4B1B6819460C20D7
:10B7B00007F0EEFB664B00221A7098E00C2007F0B1
:10B7C000FDFB0346002B00F092805F4B1B78DBB241
:10B7D000012B1BD1654B1B78DBB2002B16D15B4BC9
:10B7E0001B78DBB2012B11D100F0CAF85A4B1B7841
:10B7F000DBB2013BDAB2584B1A705B4B1B6819463F
:10B800000D2007F0C5FB594B01221A700D2007F0DF
:10B81000D5FB0346002B61D04B4B1B78DBB2012BD1
:10B8200003D153495348FDF7BDFD97F8373018460B
:10B8300000F004F997F83730184600F061F997F8EE
:10B840003730092B12D8414B1B78DBB219463E4BDF
:10B850001B78DBB21A4697F83730381D01930092F7
:10B860000B46454A322107F07BFD11E0374B1B7830
:10B87000DBB21946344B1B78DBB21A4697F83730E7
:10B88000381D019300920B463C4A322107F068FDB7
:10B890003B1D19463748FDF785FD2B4B1B78DBB266
:10B8A0000133DAB2284B1A70274B1B78DBB2062B18
:10B8B00011D9254B01221A70244B1B78DBB20133BE
:10B8C000DAB2224B1A70214B1B78DBB2062B02D95D
:10B8D0001E4B01221A70254B00221A701F4B1B6849
:10B8E00019460B2007F054FB194B01221A70134B19
:10B8F0001B6819460A2007F04BFB19E00D2007F0E2
:10B900005DFB0346002B13D00A2007F057FB0346CC
:10B91000002B0DD000F0D6F90A4B1B780133DAB2B8
:10B92000084B1A70054B1B6819460A2007F030FBBC
:10B9300000BF3837BD4680BDE9340020EC3400201C
:10B94000E8340020E13400202E0200202D020020E7
:10B950002F020020F9340020F8340020E4340020C5
:10B960002C020020F0340020F434002030020020AB
:10B97000AC58010800100140B0580108C458010833
:10B9800080B592B002AF0023BB87B7F93C3047F6D1
:10B99000FF72934204D123492348FDF703FD0BE0D6
:10B9A000B7F93C303846214A3C2107F0D9FC3B46E8
:10B9B00019461D48FDF7F6FC002387F83F3028E0C4
:10B9C00097F83F301A4A32F81330BB87B7F93C304A
:10B9D00047F6FF72934207D197F83F303846154A31
:10B9E0003C2107F0BDFC0AE097F83F20B7F93C3056
:10B9F000384600931346104A3C2107F0B1FC3B4601
:10BA000019460948FDF7CEFC97F83F30013387F817
:10BA10003F3097F83F30072BD2D900BF00BF4037E7
:10BA2000BD4680BDD858010800100140F4580108F7
:10BA3000703500200C5901082459010880B588B0E0
:10BA400000AF0346FB7107F1140300221A609A80CD
:10BA5000FB79002B21D0FB79242B1ED8FB79013BED
:10BA6000244A82FB0312DB17D31AFB76FB795A1E9A
:10BA7000204B83FB0231D317C91A0B465B000B44E2
:10BA80005B00D11A0B46BB76BB7E01229A40FB7E3F
:10BA9000D2B220333B4403F80C2C0023FB610FE0AF
:10BAA000FB69C3F1050320333B4413F80C1C07F179
:10BAB0000C02FB6913440A461A70FB690133FB61EF
:10BAC000FB69052BECDD4FF400710B48FFF7F0FD2F
:10BAD00007F10C014FF47A730622084804F02FFD99
:10BAE0004FF400710448FFF7D5FD00BF2037BD4675
:10BAF00080BD00BFABAAAA2A000C0240CC350020B2
:10BB000080B586B000AF0346FB7107F10C0300223D
:10BB10001A609A80FB79002B21D0FB79242B1ED848
:10BB2000FB79013B254A82FB0312DB17D31AFB7416
:10BB3000FB795A1E214B83FB0231D317C91A0B46DE
:10BB40005B000B445B00D11A0B46BB74BB7C01222B
:10BB50009A40FB7CD2B218333B4403F80C2C4FF4D0
:10BB600080411748FFF7A4FD05237B6112E007F130
:10BB70000C027B6913441B7819461248FFF778FDC5
:10BB800000BF1048FFF74EFD0346002BF9D07B693C
:10BB9000013B7B617B69002BE9DA00BF0948FFF7B5
:10BBA00054FD0346002BF9D14FF480410448FFF7C0
:10BBB00071FD00BF1837BD4680BD00BFABAAAA2AE1
:10BBC000001002400030014080B598B002AF002361
:10BBD000A7F8403000237B654FF000033B65324BF4
:10BBE000FB640023BB6400237B644FF400612F4897
:10BBF000FFF75EFD00BF4FF400612C48FFF74AFDE0
:10BC00004FF480612948FFF753FD07F140014FF4DD
:10BC10007A730222264804F0D6FD4FF4806123484F
:10BC2000FFF738FD97F840301B0297F84120134387
:10BC30007B657B6D07EE903AB8EE677ADFED1D6AA3
:10BC4000C7EE267A97ED137A67EE277AC7ED147A56
:10BC5000D7ED147AFDEEE77A17EE903ABB64BB6C31
:10BC600007EE903AF8EEE77A97ED147A77EE677A76
:10BC70009FED117A67EE877AFDEEE77A17EE903A3C
:10BC80007B64381D7B6C0193BB6C00937B6D0B4A0E
:10BC90003C2107F065FB3B1D19460948FDF782FB77
:10BCA00000BF5837BD4680BD00004040000C024038
:10BCB000CC3500200000804700007A443859010844
:10BCC0000010014080B590B002AF0023BB86002376
:10BCD000FB864FF400611D48FFF7EAFC00BF4FF4FC
:10BCE00000611A48FFF7D6FC4FF480611748FFF750
:10BCF000DFFC07F134014FF47A730222144804F098
:10BD000062FD4FF480611148FFF7C4FC97F83430AE
:10BD10001BB21B021AB297F835301BB213431BB289
:10BD2000FB860C4B1B781A46FB8E38460093134655
:10BD3000094A322107F014FB3B4619460748FDF734
:10BD400031FB00BF3837BD4680BD00BF000C02404C
:10BD5000CC350020E13400205C590108001001407E
:10BD600080B500AF0249034807F03EF900BF80BD2F
:10BD70001C0200201802002080B483B000AF5B4B8F
:10BD80005B790133DAB2594B5A71584B5B793B2BD3
:10BD90007AD9564B00225A71544B1B790133DAB2CF
:10BDA000524B1A71514B1B793B2B6DD94F4B0022D3
:10BDB0001A714E4BDB780133DAB24C4BDA704B4BD5
:10BDC000DB78172B60D9494B0022DA70474B1B7880
:10BDD0000133DAB2454B1A70444B9B7803F00303EE
:10BDE000DBB2002B1ED1414B9B78414AA2FB0312D0
:10BDF0005209642101FB02F29B1ADBB2002B0FD126
:10BE00003A4B9B781A463A4B83FB0213D911D3174E
:10BE1000CB1A4FF4C87101FB03F3D31A002B01D1E5
:10BE2000012300E00023FB71304B5B78022B03D130
:10BE3000FB791C33DBB204E02C4B5B78013B2D4AD1
:10BE4000D35CBB71294B1B78BA799A421CD2274B21
:10BE500001221A70254B5B780133DAB2234B5A70FA
:10BE6000224B5B780C2B0FD9204B01225A701F4BB1
:10BE70009B780133DAB21D4B9A701C4B9B78632B75
:10BE800002D91A4B00229A701B4B9B790133DAB20C
:10BE9000194B9A71184B9B793B2B21D9164B0022D9
:10BEA0009A71154B5B790133DAB2134B5A71124B0D
:10BEB0005B793B2B14D9104B00225A710E4B1B7926
:10BEC0000133DAB20C4B1A710B4B1B79172B07D9C4
:10BED000094B00221A71084B1B680133064A136094
:10BEE00000BF0C37BD465DF8047B7047340200206C
:10BEF0001F85EB517C590108FC34002080B500AF50
:10BF0000114B00229A70104B01225A700E4B0122E5
:10BF10001A700D4B0022DA700B4B00221A710A4B7B
:10BF200000225A71094B00221A60084B00221A7134
:10BF3000064B00225A71054B00229A7104490548AC
:10BF400007F052F800BF80BD34020020FC3400200E
:10BF5000400200203C02002080B483B000AF786033
:10BF60007B68002B06D07B68054A106818609288B1
:10BF70009A8000E000BF0C37BD465DF8047B704737
:10BF80003402002080B483B000AF786039607B68F1
:10BF90003A685A6300BF0C37BD465DF8047B7047B2
:10BFA00080B483B000AF786039607B683A689A6388
:10BFB00000BF0C37BD465DF8047B704780B483B08A
:10BFC00000AF786039607B683A68DA6300BF0C378D
:10BFD000BD465DF8047B704780B483B000AF7860E5
:10BFE00039607B683A681A6400BF0C37BD465DF85B
:10BFF000047B704780B582B000AF03460A46FB71F0
:10C000001346BB80BB88B3F57A7F02D340F2E73397
:10C01000BB80FB79032B23D801A252F823F000BF89
:10C0200031C000083DC0000849C0000855C00008E4
:10C03000BB8819460D48FFF7A5FF12E0BB881946DB
:10C040000A48FFF7ADFF0CE0BB8819460748FFF729
:10C05000B5FF06E0BB8819460448FFF7BDFF00E0C6
:10C0600000BF00BF0837BD4680BD00BF00000140D3
:10C0700080B483B000AF786039607B683A685A63F7
:10C0800000BF0C37BD465DF8047B704780B582B0B9
:10C0900000AF0346FB71FB799BB21A469200134432
:10C0A0005B009AB2074B1A80FA7913469B0013443F
:10C0B0005B0019460448FFF7DBFF00BF0837BD46A9
:10C0C00080BD00BF043500200000014080B400AFF7
:10C0D000064B1B88064AA2FB0323DB089BB2DBB29C
:10C0E0001846BD465DF8047B704700BF043500204C
:10C0F000CDCCCCCC80B483B000AF78607B681B68BB
:10C1000043F040027B681A6000BF0C37BD465DF803
:10C11000047B704780B483B000AF78607B681B6895
:10C1200003F04003402B01D1012300E00023184617
:10C130000C37BD465DF8047B704780B483B000AF18
:10C1400078607B689B6803F00203022B01D1012316
:10C1500000E0002318460C37BD465DF8047B7047AD
:10C1600080B483B000AF78607B689B6803F0800385
:10C17000802B01D1012300E0002318460C37BD4677
:10C180005DF8047B704780B485B000AF78600B46E3
:10C19000FB707B680C33FB60FB68FA781A7000BF99
:10C1A0001437BD465DF8047B704780B483B000AFA0
:10C1B000786039607B683A689A6100BF0C37BD4689
:10C1C0005DF8047B704780B483B000AF786039605D
:10C1D0003B681A047B689A6100BF0C37BD465DF866
:10C1E000047B704780B584B000AF786000BF7B6887
:10C1F0001B681846FFF7A1FF0346002BF7D07B68AA
:10C200005A687B689B6819461046FFF7DCFF7B681D
:10C210001B7B013BFB601EE07B6818687A68FB684B
:10C2200013440D331B781946FFF7ADFF00BF7B6841
:10C230001B681846FFF781FF0346002BF7D000BFAD
:10C240007B681B681846FFF78BFF0346002BF7D16E
:10C25000FB68013BFB60FB68002BDDDA7B685A68FA
:10C260007B689B6819461046FFF79FFF00BF103799
:10C27000BD4680BD80B58CB000AFF860B9607A6013
:10C280003B60FB68BA681A60FB6897F838201A733D
:10C29000FB687A685A60FB683A689A6007F1140391
:10C2A00000221A605A609A60DA601A615A61FB686B
:10C2B0009B687B610123BB610223FB6100233B621E
:10C2C00000237B62FB685B6807F114021146184685
:10C2D00005F029FCFB685A68FB689B681946104604
:10C2E000FFF763FF0023FB6208E0FA68FB6A134470
:10C2F0000D3300221A70FB6A0133FB62FB681B7B63
:10C300001A46FB6A9342F0DBFB681B681846FFF78E
:10C31000F1FE00BFFB681B681846FFF7FBFE0346F3
:10C32000002BF7D0F868FFF75DFF00BF3037BD4640
:10C3300080BD000080B584B000AF78600B46FB7014
:10C34000FB78232B03D97B681B7B062B5AD0FB7809
:10C35000072B03D97B681B7B012B55D07B681B7B8C
:10C36000062B38D10023FB6008E07A68FB68134491
:10C370000D3300221A70FB680133FB607B681B7B66
:10C380001A46FB689342F0DBFB78002B36D0FB7833
:10C39000013B1F4A82FB0312DB17D31AFB72FB78A7
:10C3A0005A1E1B4B83FB0231D317C91A0B465B0085
:10C3B0000B445B00D11A0B46BB72BB7A012202FA16
:10C3C00003F3DAB2FB7A02F03F02D1B27A68134487
:10C3D0000A465A7312E07B681B7B012B0ED1FB7857
:10C3E000002B08D0FB78013B012202FA03F3DAB2FA
:10C3F0007B685A7302E07B6800225A737868FFF703
:10C40000F1FE02E000BF00E000BF1037BD4680BD76
:10C41000ABAAAA2A80B483B000AF78607B681B689F
:10C4200043F040027B681A6000BF0C37BD465DF8E0
:10C43000047B704780B483B000AF78607B681B6872
:10C4400003F04003402B01D1012300E000231846F4
:10C450000C37BD465DF8047B704780B483B000AFF5
:10C4600078607B689B6803F00203022B01D10123F3
:10C4700000E0002318460C37BD465DF8047B70478A
:10C4800080B483B000AF78607B689B6803F0800362
:10C49000802B01D1012300E0002318460C37BD4654
:10C4A0005DF8047B704780B485B000AF78600B46C0
:10C4B000FB707B680C33FB60FB68FA781A7000BF76
:10C4C0001437BD465DF8047B704780B483B000AF7D
:10C4D000786039607B683A689A6100BF0C37BD4666
:10C4E0005DF8047B704780B483B000AF786039603A
:10C4F0003B681A047B689A6100BF0C37BD465DF843
:10C50000047B704780B483B000AF0346FB80FB8898
:10C5100007EE903AF8EEE77A9FED097A27EE877AF0
:10C52000DFED086AC7EE267AFCEEE77AC7ED007AFF
:10C530003B78DBB218460C37BD465DF8047B70478C
:10C54000333323403333534080B584B000AF786039
:10C5500000BF7B681B681846FFF77FFF0346002B70
:10C56000F7D00023FB6076E07B685A687B689B68A5
:10C5700019461046FFF7B7FFFB68002B0CD07A680E
:10C58000FB68134414331B781BB21B011AB2364BE1
:10C5900013431BB29BB20BE07A68FB68134414335D
:10C5A0001B781BB21B011BB243F440531BB29BB25E
:10C5B0007B817B681A687B891B0A9BB2DBB21946B8
:10C5C0001046FFF770FF00BF7B681B681846FFF737
:10C5D00044FF0346002BF7D000BF7B681B6818465A
:10C5E000FFF74EFF0346002BF7D17B681B687A8963
:10C5F000D2B211461846FFF756FF00BF7B681B6892
:10C600001846FFF72AFF0346002BF7D000BF7B68D0
:10C610001B681846FFF734FF0346002BF7D17B68F1
:10C620005A687B689B6819461046FFF74EFF7B6887
:10C63000DA687B681B6919461046FFF754FF00BF94
:10C640007B68DA687B681B6919461046FFF73DFF77
:10C65000FB680133FB60FB68012B85DD00BF00BF79
:10C660001037BD4680BD00BF00B0FFFF90B583B05E
:10C6700000AF78600B46FB7013463B80FC783B882C
:10C680001846FFF73FFF03461A467B6823441A7596
:10C690007868FFF759FF00BF0C37BD4690BD80B5E5
:10C6A0008CB000AFF860B9607A603B60FB68BA6834
:10C6B0001A60FB687A685A60FB683A689A60FB689F
:10C6C000BA6BDA60FB68FA6B1A6107F11403002297
:10C6D0001A605A609A60DA601A615A61FB689B6856
:10C6E0007B610123BB610223FB6100233B620023CA
:10C6F0007B62FB685B6807F114021146184605F07F
:10C7000012FAFB681B697B61FB68DB6807F11402A6
:10C710001146184605F007FAFB685A68FB689B68E3
:10C7200019461046FFF7D1FEFB68DA68FB681B6903
:10C7300019461046FFF7C9FE0023FB6208E0FA68BD
:10C74000FB6A1344143300221A70FB6A0133FB6244
:10C75000FB6A012BF3DDFB681B681846FFF75AFEE6
:10C7600000BFFB681B681846FFF764FE0346002BFA
:10C77000F7D0F868FFF7E8FE00BF3037BD4680BD50
:10C7800080B582B002AF062300934FF480430E4A77
:10C790000E490F48FFF76EFD082300934FF4005336
:10C7A000094A0A490B48FFF765FD4FF4004301931E
:10C7B000054B00934FF48053034A04490648FFF7A2
:10C7C0006EFF00BFBD4680BD00100240003001403A
:10C7D00008350020283500204835002080B483B07B
:10C7E00000AF78607B689B6803F00103012B01D1E7
:10C7F000012300E0002318460C37BD465DF8047B9A
:10C80000704780B483B000AF78607B680C331B78CE
:10C81000DBB218460C37BD465DF8047B704780B428
:10C8200085B000AF78600B46FB707B680C33FB6013
:10C83000FB68FA781A7000BF1437BD465DF8047BB8
:10C84000704780B483B000AF786039607B683A6825
:10C850009A6100BF0C37BD465DF8047B704780B419
:10C8600083B000AF786039603B681A047B689A61D6
:10C8700000BF0C37BD465DF8047B704780B582B0C1
:10C8800000AF0346FB71FB79074A52F82330184684
:10C89000FB79064A52F823301946FFF7E0FF00BF44
:10C8A0000837BD4680BD00BFB4020020C40200208E
:10C8B00080B582B000AF0346FB71FB79074A52F89E
:10C8C00023301846FB79064A52F823301946FFF701
:10C8D000B8FF00BF0837BD4680BD00BFB4020020CE
:10C8E000C402002080B582B000AF0346FB71FB7923
:10C8F00019460948FFF793FF00BF0748FFF76EFF8F
:10C900000346002BF9D00448FFF77BFF0346184687
:10C910000837BD4680BD00BF003C004080B584B0F4
:10C9200000AF03463960FB711346BB710023FB73F4
:10C93000FB791846FFF7A2FF0023BB7310E0BB7B17
:10C940003A6813441B781846FFF7CCFF0346FB7385
:10C95000BB7B3A681344FA7B1A70BB7B0133BB7311
:10C96000BA7BBB799A42EAD3FB791846FFF7A0FF5E
:10C97000FB7B18461037BD4680BD0000000000005C
:10C98000B0B582B000AFC7E90001D7E900010E4D94
:10C9900000242A1A64EB01034FF000004FF000015D
:10C9A000590641EAD211500605A3D3E90023FBF74B
:10C9B00077FC02460B46134618460837BD46B0BD05
:10C9C00000F9029500000000807C814A2DE9B00F3B
:10C9D00085B000AFF860F968C8170C4605461B49DA
:10C9E00001FB05F0002104FB01F101441748A4FB01
:10C9F000002319440B4610461946002908DA6FF047
:10CA00007E43C3183B6041F100037B60D7E900011E
:10CA10004FF000024FF00003420E42EAC1124B16E3
:10CA20000021D2F1000A61EB030B52465B46084934
:10CA300012EB010843F1000942464B4610461946E5
:10CA40001437BD46BDE8B00F704700BF00F902952E
:10CA5000807C814A80B586B000AF03463960FB71A7
:10CA600007F10C0300221A605A603B681B783B7385
:10CA70003B681B795B00DBB27B733B681B78F22B56
:10CA800011D13B681A6907F10C03023319461046AD
:10CA900000F0EAFA07F10C030621184600F0A8FAA4
:10CAA0000346BB7407E007F10C030221184600F0AF
:10CAB0009FFA0346BB733B685A7807F10C01FB7978
:10CAC0001846FFF72BFF07F10C03184600F00AFB8E
:10CAD00003469AB24FF0FF337B617B695B057B6154
:10CAE0007B695B0D7B617B699BB213409AB23B68AB
:10CAF000DA823B681B78F22B06D1BA7B3B681A7549
:10CB0000FA7C3B685A7519E03B681B78F42B0FD10F
:10CB100007F10C030233184600F0C7FA02463B68DF
:10CB20001A61BA7C3B681A75FA7C3B685A7505E055
:10CB3000BA7B3B681A75FA7B3B685A753B685B7D2C
:10CB4000A52B02D04FF0FF3300E000231846183722
:10CB5000BD4680BD80B58AB000AF03463A60FB7128
:10CB60000B46BB71002387F82730154B1B883B8190
:10CB70003B89BB81BA79134913465B0013449B0080
:10CB8000CA1807F1100307CA83E8070007F10C026F
:10CB9000FB7911461846FFF75DFF034687F82730FB
:10CBA00097F92730002B02D097F9273003E0FA6974
:10CBB0003B681A60002318462837BD4680BD00BF79
:10CBC000705901085402002080B58AB000AF0346B6
:10CBD0003A60FB710B46BB710F4B1B88BB81BB8955
:10CBE0003B82BA790D4913465B0013449B00CA1877
:10CBF00007F1140307CA83E807003B683B6207F1AB
:10CC00001002FB7911461846FFF724FF0346184629
:10CC10002837BD4680BD00BF74590108540200206A
:10CC200080B586B000AFBA607B600346FB730B46ED
:10CC3000BB7307F11402B97BFB7B1846FFF78AFF31
:10CC4000BB68DA437B6913407B617968B86800F0A0
:10CC500079FA02467B6913437B617A69B97BFB7B76
:10CC60001846FFF7B1FF034618461837BD4680BD8A
:10CC700080B582B000AF03460A46FB711346BB7114
:10CC8000BB79F87901220021FFF7CAFF0346184655
:10CC90000837BD4680BD80B582B000AF03460A4666
:10CCA000FB711346BB71BB79F87902220021FFF7B3
:10CCB000B7FF034618460837BD4680BD80B582B031
:10CCC00000AF0346FB71F87901234FF48042002145
:10CCD000FFF7A6FF034618460837BD4680BD80B55E
:10CCE00084B000AF0346FB714FF0FF33FB60FB687D
:10CCF0009B06FB60FB685B0DFB60FA68F87900231C
:10CD00000121FFF78DFF034618461037BD4680BD51
:10CD100080B584B000AF03463960FB714FF0FF333C
:10CD2000FB60FA68F8793B680421FFF779FF034656
:10CD300018461037BD4680BD2DE9F04F91B000AFC9
:10CD40000346FB75002387F83E30FB7D6B4A52F8A3
:10CD500023301846FB7D6A4A52F823301946FFF704
:10CD60007EFDFB7D674A52F823301846FB7D664AFC
:10CD700052F823301946FFF772FDFB7D1846FFF786
:10CD80009DFFFB7D1846FFF7AAFF034687F83E305C
:10CD9000FB7D5A4A52F823301846FB7D584A52F818
:10CDA00023301946FFF74DFDFB7D01211846FFF7A3
:10CDB0005FFF034687F83E30FB7D43F601220021EA
:10CDC0001846FFF701FF034687F83E30FB7D4FF022
:10CDD0007F411846FFF79CFF034687F83E30FB7DF6
:10CDE000002201211846FFF7EFFE034687F83E3088
:10CDF000012006F06DF8FB7D43F601220021184664
:10CE0000FFF7E2FE034687F83E304FF07F40FFF722
:10CE1000DDFDC7E90C010020FFF7D8FDC7E90A01D5
:10CE2000002387F83F3047E0D7E90A01D7E90C2310
:10CE3000841A61EB030597F83F300022984691462B
:10CE400008FB05F204FB09F31344A4FB08AB5B44A5
:10CE50009B4652465B46002B06DAD11CB96043F173
:10CE60000003FB60D7E902234FF000004FF0000100
:10CE7000900840EA83709910D7E90C2316183E6099
:10CE80004B417B60D7E90023C7E90823D7E90801B4
:10CE9000FFF776FDF861FA69FB7D11461846FFF74A
:10CEA00037FF034687F83E30012006F011F897F867
:10CEB0003F30013387F83F3097F83F30042BB3D928
:10CEC000FB7D104A52F823301846FB7D0E4A52F87B
:10CED00023301946FFF7B5FCFB7D01211846FFF70B
:10CEE000DAFE034687F83E30C820FBF7D3FB97F9FC
:10CEF0003E3018464437BD46BDE8F08FD4020020CE
:10CF0000E4020020F4020020040300202DE9B04FC9
:10CF10008CB000AFC7E904230346FB770B46BB7711
:10CF2000002387F827304FF000024FF00003C7E9D5
:10CF30000A2300233B62BB7F002B24D1D7E90423C3
:10CF400010461946002907DA10F10F03BB6041F1C2
:10CF50000003FB60D7E902014FF000024FF000032D
:10CF6000020942EA01720B1100215042386061EB64
:10CF700003037B60D7E900231C4912EB010843F14E
:10CF80000009C7E90A89BB7F012B19D1D7E904231E
:10CF9000002B05DA12F10F0A43F1000B52465B46F3
:10CFA0004FF000004FF00001100940EA0370191122
:10CFB00002460B460D49541843F10005C7E90A45DE
:10CFC000D7E90A01FFF7DCFC38623A6AFB7F1146B9
:10CFD0001846FFF79DFE034687F8273097F927305C
:10CFE00018463037BD46BDE8B08F00BF807C814A0F
:10CFF00080B485B000AF78600B46FB700023FB73F4
:10D0000007233B730023BB7323E0BB7B7A68134485
:10D010001A78FB7B5340FB7300237B7313E097F973
:10D020000F30002B09DA97F90F305B005AB297F9ED
:10D030000C3053405BB2FB7302E0FB7B5B00FB7385
:10D040007B7B01337B737B7B072BE8D9BB7B013375
:10D05000BB73BA7BFB789A42D7D3FB7B1846143755
:10D06000BD465DF8047B704780B483B000AF786044
:10D0700039603B6803337A68D2B21A707B681A0A47
:10D080003B680233D2B21A707B681A0C3B680133DA
:10D09000D2B21A707B681B0EDAB23B681A7000BFFE
:10D0A0000C37BD465DF8047B704780B483B000AF99
:10D0B00078607B6803331B781A467B6802331B78E1
:10D0C0001B0213431A467B6801331B781B041A4367
:10D0D0007B681B781B06134318460C37BD465DF86A
:10D0E000047B704780B483B000AF78607B68013305
:10D0F0001B781A467B681B781B02134318460C37B3
:10D10000BD465DF8047B704780B485B000AF7860A1
:10D110000023FB600CE07B6803F00103002B01D0CF
:10D12000FB6809E07B685B087B60FB680133FB60A0
:10D130007B68002BEFD1202318461437BD465DF8DD
:10D14000047B704780B582B000AF78603960786842
:10D15000FFF7DAFF02463B6803FA02F27B681340EE
:10D1600018460837BD4680BD80B483B000AF7860F4
:10D170007B689B6843F001027B689A6000BF0C37B4
:10D18000BD465DF8047B704780B483B000AF786023
:10D190007B689B6803F00103012B0CBF0123002374
:10D1A000DBB218460C37BD465DF8047B704780B48F
:10D1B00083B000AF78607B689B6843F080427B68F7
:10D1C0009A6000BF0C37BD465DF8047B70470000D5
:10D1D00080B483B000AF786039600C4A3B68134478
:10D1E0001B781A467B6813441B6808493A680A444E
:10D1F000127811467A680A4443F00103136000BFB5
:10D200000C37BD465DF8047B704700BF88590108A4
:10D2100080B485B000AFF860B9607A600D4ABB6831
:10D2200013441B781A46FB6813441B6823F0C002A2
:10D230000849BB680B441B781946FB680B44194628
:10D240007B6813430B6000BF1437BD465DF8047B59
:10D25000704700BF8859010880B485B000AFF860FE
:10D26000B9607A600D4ABB6813441B781A46FB68A4
:10D2700013441B6823F490720849BB680B441B7865
:10D280001946FB680B4419467B6813430B6000BFCB
:10D290001437BD465DF8047B704700BF885901080C
:10D2A00080B485B000AFF860B9607A600D4ABB68A1
:10D2B00013441B781A46FB6813441B6823F400725E
:10D2C0000849BB680B441B781946FB680B44194698
:10D2D0007B6813430B6000BF1437BD465DF8047BC9
:10D2E000704700BF8859010880B485B000AFF8606E
:10D2F000B9607A600D4ABB6813441B781A46FB6814
:10D3000013441B6823F480620849BB680B441B78F4
:10D310001946FB680B4419467B6813430B6000BF3A
:10D320001437BD465DF8047B704700BF885901087B
:10D3300080B485B000AFF860B9607A600D4ABB6810
:10D3400013441B781A46FB6813441B6823F4C0522D
:10D350000849BB680B441B781946FB680B44194607
:10D360007B6813430B6000BF1437BD465DF8047B38
:10D37000704700BF8859010880B485B000AFF860DD
:10D38000B9607A600D4ABB6813441B781A46FB6883
:10D3900013441B6823F4C0420849BB680B441B7844
:10D3A0001946FB680B4419467B6813430B6000BFAA
:10D3B0001437BD465DF8047B704700BF88590108EB
:10D3C00080B485B000AFF860B9607A600D4ABB6880
:10D3D00013441B781A46FB6813445B681B0C1B0440
:10D3E0000849BA680A4412781146FA680A44114694
:10D3F0007A6813434B6000BF1437BD465DF8047B69
:10D40000704700BF8859010880B485B000AFF8604C
:10D41000B9607A600D4ABB6813441B781A46FB68F2
:10D4200013441B6823F060620849BB680B441B78F7
:10D430001946FB680B4419467B6813430B6000BF19
:10D440001437BD465DF8047B704700BF885901085A
:10D4500080B485B000AFF860B9607A60074ABB68F5
:10D4600013441B781A46FB6813441A467B68D36042
:10D4700000BF1437BD465DF8047B7047885901082A
:10D4800080B485B000AFF860B9607A60074ABB68C5
:10D4900013441B781A46FB6813441A467B68936052
:10D4A00000BF1437BD465DF8047B704788590108FA
:10D4B00080B500AF002200212348FFF7A5FF00221E
:10D4C00000212148FFF7A4FE002200211E48FFF79B
:10D4D000E7FE4FF4806200211B48FFF705FF4FF481
:10D4E000006200211848FFF723FF4FF4005200218B
:10D4F0001548FFF741FF082200211348FFF760FF9E
:10D50000124A00211048FFF7BBFF114B1A460021B9
:10D510000D48FFF79DFF4FF4807200210A48FFF786
:10D520009BFE00210848FFF753FE0A48FFF71CFE48
:10D5300000BF0848FFF728FE0346002BF9D0054836
:10D54000FFF735FE00BF80BD006402404C20014063
:10D55000603500200020014080B485B000AF7860C5
:10D560000023FB7328E0FB7B184A32F8133019467E
:10D57000FB7B5B007A681344154A32F911201A804C
:10D58000FB7B5B007A681344B3F9003013F5FA7F34
:10D5900008DBFB7B5B007A681344B3F90030B3F51A
:10D5A000FA6F06DDFB7B5B007A68134447F6FF7277
:10D5B0001A80FB7B0133FB73FB7B072BD3D900BFA6
:10D5C00000BF1437BD465DF8047B7047603500200E
:10D5D0001403002080B483B000AF786039607B68AA
:10D5E0003A689A6100BF0C37BD465DF8047B70470E
:10D5F00080B483B000AF786039603B681A047B6800
:10D600009A6100BF0C37BD465DF8047B704700008F
:10D6100080B500AF0A4A137823F001031370084A5B
:10D62000137823F002031370054A137823F0FC03E8
:10D63000137000F0D5F800F0EBF800BF80BD00BF1C
:10D640008035002080B500AF0C4B1B78C3F38503F9
:10D65000DBB2022B0CD0022B0DDC002B02D0012BF5
:10D6600003D008E000F00CF806E000F051F803E009
:10D6700000F070F800E000BF00BF80BD80350020E2
:10D6800080B500AF214B1B7803F00103DBB2002B08
:10D6900020D01E4B1B7803F00203DBB2002B19D005
:10D6A000002005F08BFC0346002B2DD0174A137881
:10D6B00023F001031370154A137823F0020313704B
:10D6C00000F09AF800F0B0F84FF4FA71002005F07D
:10D6D0005FFC19E0002005F071FC0346002B13D01D
:10D6E0000A4A137843F001031370084A137843F091
:10D6F0000203137000F074F800F08AF84FF4FA7126
:10D70000002005F045FCFFE700BF80BD803500200C
:10D7100080B500AF4FF400610D48FFF769FF4FF48B
:10D7200080610B48FFF756FF4FF4FA7005F0D0FB0D
:10D730004FF480610648FFF75BFF4FF40061044837
:10D74000FFF748FF4FF4FA7005F0C2FB00BF80BD41
:10D750000010024080B500AF204B1B7803F001039E
:10D76000DBB2002B1FD01D4B1B7803F00203DBB292
:10D77000002B18D0002005F021FC0346002B2BD0F5
:10D78000164A137823F001031370144A137823F018
:10D790000203137000F030F800F046F83221002048
:10D7A00005F0F6FB18E0002005F008FC0346002B0E
:10D7B00012D00A4A137843F001031370074A137812
:10D7C00043F00203137000F00BF800F021F832214F
:10D7D000002005F0DDFBFFE700BF80BD80350020A5
:10D7E00080B500AF4FF480610248FFF7F3FE00BF41
:10D7F00080BD00BF0010024080B500AF4FF48061D3
:10D800000248FFF7F5FE00BF80BD00BF00100240D8
:10D8100080B500AF4FF400610248FFF7DBFE00BFA8
:10D8200080BD00BF0010024080B500AF4FF4006122
:10D830000248FFF7DDFE00BF80BD00BF00100240C0
:10D8400080B500AF0249034805F0CEFB00BF80BDA4
:10D85000182300201423002080B400AF044BDB68A1
:10D860001B0A03F007031846BD465DF8047B7047AA
:10D8700000ED00E080B483B000AF0346FB7197F980
:10D880000730002B0BDBFB7903F01F02074997F9E8
:10D8900007305B09012000FA02F241F8232000BFA3
:10D8A0000C37BD465DF8047B704700BF00E100E027
:10D8B00080B483B000AF03463960FB7197F907303D
:10D8C000002B0ADB3B68DAB20C4997F907301201EA
:10D8D000D2B20B4483F800230AE03B68DAB208496D
:10D8E000FB7903F00F03043B1201D2B20B441A760A
:10D8F00000BF0C37BD465DF8047B704700E100E0D7
:10D9000000ED00E080B489B000AFF860B9607A60E3
:10D91000FB6803F00703FB61FB69C3F10703042BFA
:10D9200028BF0423BB61FB690433062B02D9FB69C2
:10D93000033B00E000237B614FF0FF32BB6902FA3A
:10D9400003F3DA43BB681A407B699A404FF0FF311A
:10D950007B6901FA03F3D9437B680B4013431846F4
:10D960002437BD465DF8047B704780B489B000AFB2
:10D97000F860B9607A60FB682C331946BB6803F421
:10D9800040734FF440727A617A6992FAA2F23A6176
:10D990003A69BA61BA69002A01D1202203E0BA6962
:10D9A000B2FA82F2D2B2D3409B000B44FB61FB6916
:10D9B0001A68BB6803F01F031F2101FA03F3DB435E
:10D9C0001A407B6803F01F01BB6803F01F0301FAD4
:10D9D00003F31A43FB691A6000BF2437BD465DF8A4
:10D9E000047B704780B483B000AF786039607B6897
:10D9F0009B6823F480623B681A437B689A6000BF8F
:10DA00000C37BD465DF8047B704780B48FB000AF23
:10DA1000F860B9607A60FB680C331946BB6803F0A4
:10DA200000734FF000727A617A6992FAA2F23A6159
:10DA30003A69BA61BA69002A01D1202203E0BA69C1
:10DA4000B2FA82F2D2B2D3409B000B447B637B6B71
:10DA50001A68BB6803F0F8734FF0F8713962396ADD
:10DA600091FAA1F1F961F9697962796A002901D124
:10DA7000202103E0796AB1FA81F1C9B2CB400721D4
:10DA800001FA03F3DB431A40BB6803F0F8734FF06D
:10DA9000F871F962F96A91FAA1F1B962B96A396368
:10DAA000396B002901D1202103E0396BB1FA81F1F2
:10DAB000C9B2CB40796801FA03F31A437B6B1A6051
:10DAC00000BF3C37BD465DF8047B704780B485B02D
:10DAD00000AFF860B9607A600D4ABB6813441B78E8
