:020000040800F2
:1000000000000220ED780008617700086977000899
:1000100071770008797700088177000800000000F8
:1000200000000000000000000000000089770008C8
:100030009777000800000000A5770008B577000852
:100040003D7900083D7900083D7900083D790008B8
:100050003D7900083D7900083D7900083D790008A8
:100060003D7900083D7900083D7900083D79000898
:100070003D7900083D7900083D7900083D79000888
:100080003D7900083D7900083D7900083D79000878
:100090003D7900083D7900083D7900083D79000868
:1000A0003D7900083D7900083D7900083D79000858
:1000B0003D7900083D7900083D7900083D79000848
:1000C0003D7900080D780008197800083D7900088E
:1000D0003D790008257800083D7900083D79000841
:1000E0003D7900083D7900083D7900083D79000818
:1000F0003D7900083D7900083D7900083D79000808
:100100003D7900083D7900083D7900083D790008F7
:100110003D7900083D7900083D7900083D790008E7
:10012000397800083D7900083D7900083D790008DC
:100130003D7900083D7900083D7900083D790008C7
:100140003D7900083D7900083D7900083D790008B7
:100150003D7900083D7900083D790008497800089C
:100160003D7900083D7900083D7900083D79000897
:100170003D7900083D7900083D7900080000000045
:080180003D7900083D790008FB
:1001900010B5054C237833B9044B13B10448AFF3C1
:1001A00000800123237010BD3444002000000000B3
:1001B000F0B8000808B5034B1BB103490348AFF37F
:1001C000008008BD0000000038440020F0B800089E
:1001D00010F8012B11F8013B012A28BF9A42F7D0F1
:1001E000D01A7047034613F8012B002AFBD1181AC6
:1001F000013870470000000000000000000000000F
:1002000001F0FF01102A2BDB10F0070F08D010F8C7
:10021000013B013A8B422DD010F0070F42B3F6D1CB
:10022000F0B441EA012141EA014122F007047FF0E4
:1002300000070023F0E80256083C85EA010586EA3B
:10024000010685FA47F5A3FA87F586FA47F6A5FA77
:1002500087F68EB9EED1F0BC01F0FF0102F0070283
:1002600032B110F8013B013A83EA010313B1F8D12E
:100270000020704701387047002D06BF354603380F
:10028000073815F0010F07D1013015F4807F02BF48
:10029000013015F4C03F0130F0BC0138704700BF99
:1002A0007BB972B90029BEBF00204FF0004106E0C3
:1002B00008BF00281CBF6FF000414FF0FF3000F076
:1002C000D3B9ADF1080C6DE904CE002909DB002B90
:1002D0001ADB00F04DF8DDF804E0DDE9022304B09C
:1002E0007047404261EB4101002B1BDB00F040F8FE
:1002F000DDF804E0DDE9022304B0404261EB410196
:10030000524263EB43037047524263EB430300F0F6
:100310002FF8DDF804E0DDE9022304B0404261EB90
:1003200041017047524263EB430300F021F8DDF8CE
:1003300004E0DDE9022304B0524263EB430370475B
:1003400053B94AB9002908BF00281CBF4FF0FF313C
:100350004FF0FF3000F088B9ADF1080C6DE904CE24
:1003600000F006F8DDF804E0DDE9022304B0704790
:100370002DE9F047089D8E4604468846002B4AD159
:100380008A42174662D9B2FA82F64EB1C6F120030C
:1003900001FA06F820FA03F3B74043EA0808B4402C
:1003A0004FEA174E1FFA87FCB8FBFEF1230C0EFB39
:1003B000118843EA084301FB0CF29A4209D9FB1861
:1003C00001F1FF3080F0EA809A4240F2E780023982
:1003D0003B449A1AA3B2B2FBFEF00EFB102243EA92
:1003E000024300FB0CFC9C4509D9FB1800F1FF32CD
:1003F00080F0D6809C4540F2D3803B44023840EAEE
:100400000140A3EB0C0300211DB1F3400022C5E91C
:100410000032BDE8F0878B4205D90DB1C5E9000176
:1004200000210846F5E7B3FA83F1002946D1734568
:1004300002D3824200F20581841A6EEB030201208E
:100440009046002DE5D0C5E90048E2E7002A00F01B
:100450009080B2FA82F6002E40F0A4808A1A030C33
:100460004FEA174E80B2BCB20121B2FBFEFC0EFB7C
:100470001C2243EA024304FB0CF29A4207D9FB1800
:100480000CF1FF3802D29A4200F2E080C4469B1A77
:10049000B3FBFEF20EFB123340EA034302FB04F40B
:1004A0009C4207D9FB1802F1FF3002D29C4200F2B5
:1004B000CA8002461B1B42EA0C40A5E7C1F1200698
:1004C0008B4022FA06F71F430EFA01F420FA06F3D6
:1004D0002EFA06FE4FEA1749234300FA01F81FFAE5
:1004E00087FCBEFBF9F01C0C09FB10EE44EA0E443D
:1004F00000FB0CFEA64502FA01F209D93C1900F1F5
:10050000FF3A80F09C80A64540F2998002383C4436
:10051000A4EB0E041FFA83FEB4FBF9F309FB1344AA
:100520004EEA044403FB0CFCA44508D93C1903F132
:10053000FF3E80F08280A4457FD9023B3C4443EAE1
:100540000040A4EB0C04A0FB02EC64457346E146BA
:1005500062D35FD05DB1B8EB030264EB090404FA27
:1005600006F622FA01F31E43CC40C5E900640021DF
:100570004FE7B1FBF2FC010C41EA0E4180B240EAC8
:1005800001423B4638463C46B846BE462026B1FBB3
:10059000F7F1A2EB080241EA0C4166E7014618E7D1
:1005A00010462CE7C6F120022EFA02F3B740B14004
:1005B00020FA02F24FEA174E0A43B3FBFEF8BCB230
:1005C0000EFB1833110C41EA034108FB04F9B0405B
:1005D00089454FEA104380B23ED9791808F1FF3CB3
:1005E00001D289451FD8A1EB0901B1FBFEF909FB36
:1005F00004F80EFB191192B242EA0142424529D297
:10060000BA1809F1FF31C4D24245C2D2A9F10201A0
:100610003A44BEE7F0459DD2BEEB02036CEB070CFB
:100620000138E14696E7A7EB09094944A8F1020C15
:10063000B1FBFEF909FB04F8DBE773467FE75046A0
:1006400066E70846FDE63B44023A33E7ACF1020CAC
:100650003B441CE749469CE7A1EB0901C446B1FBBA
:10066000FEF909FB04F8C4E7704700BF80B400AF8F
:10067000074B1B6803F48033B3F5803F0CBF0123A5
:100680000023DBB21846BD465DF8047B704700BF0F
:1006900010E000E080B584B000AF0346FB71FB7949
:1006A0000C4A12680C49A1FB0212920C02FB03F3E4
:1006B000FB6007E0FFF7DAFF0346002B02D0FB6880
:1006C000013BFB60FB68002BF4D100BF00BF10377B
:1006D000BD4680BD5C43002083DE1B4380B483B0F5
:1006E00000AF78607B681B6843F001027B681A608A
:1006F00000BF0C37BD465DF8047B704780B483B003
:1007000000AF78607B681B6823F001027B681A6089
:1007100000BF0C37BD465DF8047B704780B483B0E2
:1007200000AF78607B681B6823F080027B681A60EA
:1007300000BF0C37BD465DF8047B704780B483B0C2
:1007400000AF78607B681B6823F040027B681A600A
:1007500000BF0C37BD465DF8047B704780B483B0A2
:1007600000AF78607B68DB6823F001027B68DA60A9
:1007700000BF0C37BD465DF8047B704780B483B082
:1007800000AF78607B685B6843F400727B685A60F6
:1007900000BF0C37BD465DF8047B704780B483B062
:1007A00000AF78607B685B6843F480627B685A6066
:1007B00000BF0C37BD465DF8047B704780B483B042
:1007C00000AF78607B685B6823F480627B685A6066
:1007D00000BF0C37BD465DF8047B704780B483B022
:1007E00000AF78607B685B6843F480727B685A6016
:1007F00000BF0C37BD465DF8047B704780B483B002
:1008000000AF78607B685B6903F08003802B0CBFCE
:1008100001230023DBB218460C37BD465DF8047B8C
:10082000704780B483B000AF78607B685B6903F089
:100830004003402B0CBF01230023DBB218460C37CA
:10084000BD465DF8047B704780B483B000AF78602C
:100850007B685B6903F00203022B0CBF01230023BA
:10086000DBB218460C37BD465DF8047B704780B498
:1008700083B000AF78607B685B6903F48063B3F595
:10088000806F0CBF01230023DBB218460C37BD4636
:100890005DF8047B704780B483B000AF78607B68FC
:1008A0005B6903F01003102B0CBF01230023DBB2A4
:1008B00018460C37BD465DF8047B704780B483B0A2
:1008C00000AF78607B685B6903F48073B3F5807F69
:1008D0000CBF01230023DBB218460C37BD465DF880
:1008E000047B704780B483B000AF78607B685B693D
:1008F00003F40073B3F5007F0CBF01230023DBB2C8
:1009000018460C37BD465DF8047B704780B483B051
:1009100000AF78607B685B6903F40063B3F5006F38
:100920000CBF01230023DBB218460C37BD465DF82F
:10093000047B704780B485B000AF78607B685B69EA
:10094000FB60FB687B689B69FB60FB6800BF14373A
:10095000BD465DF8047B704780B483B000AF78601B
:100960007B685B6923F480627B685A6100BF0C3747
:10097000BD465DF8047B704780B485B000AF7860F9
:100980007B685B69FB60FB687B681B6843F0010266
:100990007B681A6000BF1437BD465DF8047B704762
:1009A00080B483B000AF78607B685B6923F48072A9
:1009B0007B685A6100BF0C37BD465DF8047B704709
:1009C00080B483B000AF78607B685B6923F4007209
:1009D0007B685A6100BF0C37BD465DF8047B7047E9
:1009E00080B483B000AF78607B685B6923F40062F9
:1009F0007B685A6100BF0C37BD465DF8047B7047C9
:100A000080B483B000AF78607B689B6903F0040317
:100A100018460C37BD465DF8047B704780B483B040
:100A200000AF78607B681B69DBB218460C37BD46A7
:100A30005DF8047B704780B483B000AF78600B46EC
:100A4000FB707B681B6923F0FF02FB781A437B680D
:100A50001A6100BF0C37BD465DF8047B704700008B
:100A600080B586B000AF244B9B681846FFF746FE62
:100A7000214B9B68184608F0FFFF1F4B9B681846E8
:100A8000FFF74CFE1C4B9B681846FFF757FE1A4BAE
:100A90009B681846FFF762FE3B4600221A605A60C8
:100AA0009A60DA601A615A6100233B60134B7B60E5
:100AB0000023BB602423FB604FF480633B614FF451
:100AC00080437B610C4B9B683A461146184609F0FF
:100AD0000DF8094B9B681846FFF750FE064B9B68C4
:100AE0001846FFF77BFE044B9B681846FFF7F6FDA0
:100AF00000BF1837BD4680BD50450020A0860100CC
:100B000080B400AF0A4B00225A71094B4FF0FF32FC
:100B10001A60074B00221A71054B00229A71044B90
:100B20000022DA7100BFBD465DF8047B704700BF4C
:100B30005045002080B582B000AF7860094A7B68DC
:100B40009360094B00221A70FFF7DAFF4FF48072AE
:100B5000002106480AF046FA002318460837BD4629
:100B600080BD00BF504500205C450020504400205F
:100B700080B596B000AF784B01221A70774B9B6816
:100B80001846FFF761FE0346002B1AD0734B9B6893
:100B90001846FFF7CFFE714B9B681846FFF730FFF2
:100BA0000346042B08D16D4B00221A716B4B9B68D6
:100BB0001846FFF7F3FD04E0684B9B681846FFF703
:100BC000EDFD664B9B681846FFF718FE0346002BA9
:100BD00052D0002387F85730604B1B6807F138006C
:100BE0005F4A1E210AF0C8F907F1380319465D482B
:100BF00000F0D8FB594B1B6807F138005A4A1E21F8
:100C00000AF0BAF907F138031946564800F0CAFB52
:100C1000524B1A68554913465B0013440B44023388
:100C20001B7887F8573097F8573007F13800504A4B
:100C30001E210AF0A1F907F138031946494800F0CE
:100C4000B1FB97F8573007F138004A4A1E210AF0E5
:100C500093F907F138031946424800F0A3FB3F4BD4
:100C60009B6897F8572011461846FFF7E4FE3B4B68
:100C70009B681846FFF7A2FD384B9B681846FFF7A4
:100C8000D0FD0346002B4AD0344B9B681846FFF733
:100C9000C5FE034687F85630304B1B79DBB2002B7C
:100CA0001FD12E4A97F85630537197F85630381D99
:100CB000314A32210AF060F93B1D1946294800F0FB
:100CC00071FB264B01221A71244B1B68381D2B4ADD
:100CD00032210AF051F93B1D1946224800F062FB0F
:100CE0001DE01E4B1A68214913465B0013440B4458
:100CF00001331B78032B0AD1184B1A681B49134682
:100D00005B0013440B44023397F856201A70134BC0
:100D100000221A71114B9B681846FFF74FFD0F4BCD
:100D20009B681846FFF7B7FD0346002B0FD00B4B0F
:100D30009B681846FFF720FE084B00221A71074BEC
:100D40009B681846FFF73AFD034B00221A7000BF5C
:100D50005837BD4680BD00BF5C450020504500208F
:100D600008B900080010014024B9000860450020BF
:100D700038B9000854B900086CB900087CB90008FB
:100D800080B500AF2149224800F00CFB214B002226
:100D90001A70214B9B681846FFF790FD0346002B05
:100DA00004D01D4B9B681846FFF7FAFD1A4B9B6851
:100DB0001846FFF797FD0346002B04D0164B9B689F
:100DC0001846FFF7FDFD144B9B681846FFF74FFDD3
:100DD0000346002B04D0104B9B681846FFF7BCFD60
:100DE0000D4B9B681846FFF791FD0346002B04D07E
:100DF000094B9B681846FFF7F3FDFFF731FE064BE2
:100E00009B681846FFF796FE00BF80BD90B90008AA
:100E1000001001405C4500205045002080B483B0A4
:100E200000AF03463960FB7197F90730002B0ADBEE
:100E30003B68DAB20C4997F907301201D2B20B4481
:100E400083F800230AE03B68DAB20849FB7903F033
:100E50000F03043B1201D2B20B441A7600BF0C37C9
:100E6000BD465DF8047B704700E100E000ED00E066
:100E700080B582B000AF78607B68013BB3F1807FC2
:100E800001D301230FE00A4A7B68013B53600F2125
:100E90004FF0FF30FFF7C2FF054B00229A60044B72
:100EA00007221A60002318460837BD4680BD00BFE0
:100EB00010E000E080B400AF054B1B68044A43F02B
:100EC0000103136000BFBD465DF8047B704700BF9F
:100ED00010E000E080B500AF054B1B68054AA2FB9F
:100EE00003239B091846FFF7C3FF00BF80BD00BF67
:100EF0005C430020D34D621080B483B000AF7860B3
:100F00007B681B6803F00203022B0CBF0123002344
:100F1000DBB218460C37BD465DF8047B704780B4E1
:100F200083B000AF78607B681B6803F00403042B78
:100F30000CBF01230023DBB218460C37BD465DF819
:100F4000047B704780B483B000AF78607B681B6817
:100F500003F00803082B0CBF01230023DBB2184663
:100F60000C37BD465DF8047B704780B483B000AF9A
:100F700078607B681B6803F02003202B0CBF0123E3
:100F80000023DBB218460C37BD465DF8047B704782
:100F900080B483B000AF78607B681B6803F0800387
:100FA000802B0CBF01230023DBB218460C37BD4653
:100FB0005DF8047B704780B485B000AF78607B68D3
:100FC0001B68FB60FB687B685B68FB60FB6800BFBD
:100FD0001437BD465DF8047B704780B485B000AF20
:100FE00078607B681B68FB60FB687B685B68FB6004
:100FF000FB6800BF1437BD465DF8047B704780B4C2
:1010000085B000AF78607B681B68FB60FB687B681D
:101010005B68FB60FB6800BF1437BD465DF8047B6E
:10102000704780B489B000AF78607B680C33FB6098
:10103000FB6853E8003FBB60BB6843F02003FB61E3
:101040007B680C33FA69BA617B617969BA6941E8F6
:1010500000233B613B69002BE7D100BF00BF243771
:10106000BD465DF8047B704780B489B000AF7860FE
:101070007B680C33FB60FB6853E8003FBB60BB68D8
:1010800043F08003FB617B680C33FA69BA617B61D2
:101090007969BA6941E800233B613B69002BE7D1DC
:1010A00000BF00BF2437BD465DF8047B704780B4A5
:1010B00089B000AF78607B680C33FB60FB6853E855
:1010C000003FBB60BB6823F02003FB617B680C33EF
:1010D000FA69BA617B617969BA6941E800233B61C9
:1010E0003B69002BE7D100BF00BF2437BD465DF848
:1010F000047B704780B489B000AF78607B680C33A4
:10110000FB60FB6853E8003FBB60BB6823F08003D3
:10111000FB617B680C33FA69BA617B617969BA69F2
:1011200041E800233B613B69002BE7D100BF00BFD2
:101130002437BD465DF8047B704780B483B000AFB0
:1011400078607B68DB6803F02003202B0CBF012351
:101150000023DBB218460C37BD465DF8047B7047B0
:1011600080B483B000AF78607B68DB6803F08003F5
:10117000802B0CBF01230023DBB218460C37BD4681
:101180005DF8047B704780B483B000AF78607B6803
:101190005B68DBB218460C37BD465DF8047B7047D0
:1011A00080B483B000AF78600B46FB70FA787B6840
:1011B0005A6000BF0C37BD465DF8047B70470000E5
:1011C00080B485B000AF78600023FB6015E0104963
:1011D000FA681346DB0013449B000B441B687A68D3
:1011E0009A4207D1FA681346DB0013449B00084A71
:1011F000134406E0FB680133FB60FB68012BE6DD6E
:10120000002318461437BD465DF8047B704700BFC5
:101210000000002080B586B000AF0346B9607A6058
:10122000FB73BB685B680133BA68D268B3FBF2F149
:1012300001FB02F29B1A7B61BB689A687B699A4248
:101240000FD07868FFF733FFBB681A68BB685B682C
:101250001344FA7B1A707A69BB685A607868FFF7A2
:10126000E0FE00BF1837BD4680BD80B586B000AF38
:1012700078607868FFF7A4FF78617B69002B02D162
:101280004FF0FF3325E07B6904333B613B695A68CB
:101290003B699B689A4202D14FF0FF3319E07868AE
:1012A000FFF705FF3B691A683B699B6813441B788D
:1012B000FB733B699B6801333A69D268B3FBF2F177
:1012C00001FB02F29A1A3B699A607868FFF7A9FE5F
:1012D000FB7B18461837BD4680BD80B586B000AF91
:1012E000786039607868FFF76BFF78617B69002B65
:1012F0002BD03B68002B28DB7B6914333B613B69B7
:101300005B6801333A69D268B3FBF2F101FB02F288
:101310009B1AFB607868FFF7CAFE00BF3B699A68BA
:10132000FB689A42FAD03B691A683B695B681344D0
:101330003A68D2B21A70FA683B695A607868FFF767
:1013400070FE7868FFF790FE00E000BF1837BD46DA
:1013500080BD80B584B000AF78607868FFF730FF5B
:10136000F860FB68002B01D1002317E0FB68043311
:10137000BB60BB68DB689AB2BB685B689BB2134416
:101380009AB2BB689B689BB2D31A9BB21A46BB68E1
:10139000DB68B2FBF3F101FB03F3D31A18461037F5
:1013A000BD4680BD80B582B000AF7860396007E08F
:1013B0003B685A1C3A601B7819467868FFF78DFF26
:1013C0003B681B78002BF3D100BF00BF0837BD4638
:1013D00080BD80B584B000AF78607868FFF7F0FE1C
:1013E000F860FB68002B11D0FB680433BB60BB685E
:1013F0001868BB68DB681A46002109F0F3FDBB687A
:1014000000225A60BB6800229A6000E000BF1037DB
:10141000BD4680BD80B586B000AF78607868FFF7C4
:10142000CFFE78617B69002B68D07B6904333B6118
:101430007B691433FB607868FFF797FD0346002B48
:101440002DD07868FFF779FE0346002B27D0786807
:10145000FFF799FE0346FB727868FFF773FD0346BA
:10146000002B0BD17868FFF747FD0346002B05D111
:101470007868FFF754FD0346002B09D07868FFF722
:10148000BEFD7868FFF797FD7868FFF7A6FD36E0A8
:10149000FB7A7A6839691846FFF7BCFE2FE0786856
:1014A000FFF776FD0346002B29D07868FFF758FE3A
:1014B0000346002B23D0FB685A68FB689B689A425E
:1014C00003D17868FFF716FE19E0FB681A68FB681D
:1014D0009B6813441B78BB72FB689B680133FA68F6
:1014E000D268B3FBF2F101FB02F29A1AFB689A6030
:1014F000BB7A19467868FFF753FE00E000BF183743
:10150000BD4680BD80B586B000AF78600123FB7317
:1015100000233B617B687B611FE07B691B78202B8C
:1015200005D17B6900221A700123FB7312E0FB7B5B
:10153000002B0FD03B69072B0AD81E493B697A69FB
:1015400041F823203B6901333B610023FB7301E039
:1015500002232BE07B6901337B617B691B78002BC5
:10156000DBD13B69002B20D03B6901333B61124B3F
:10157000BB6016E00F4B1A68BB681B681946104623
:10158000FEF726FE0346002B08D1BB685B683A696C
:101590000849104698470346DBB207E0BB680C33A6
:1015A000BB60BB681B68002BE4D1012318461837C9
:1015B000BD4680BD605200206000002080B400AFB6
:1015C000BFF34F8F00BF064BDB6803F4E0620449B2
:1015D000044B1343CB60BFF34F8F00BF00BFFDE749
:1015E00000ED00E00400FA0580B483B000AF78603D
:1015F00039607B683A689A6100BF0C37BD465DF878
:10160000047B704780B483B000AF786039603B687A
:101610001A047B689A6100BF0C37BD465DF8047BF5
:101620007047000080B483B000AF7860054B5A6A01
:1016300004497B6813434B6200BF0C37BD465DF81D
:10164000047B70470038024080B483B000AF7860FC
:10165000064B5A6A7B68DB43044913404B6200BF68
:101660000C37BD465DF8047B704700BF0038024070
:1016700080B58AB000AF7860144A7B68136040225E
:101680000021134809F0AEFC124B00221A700F4BD8
:101690001B6811491846FFF785FE0C4B1B6818465E
:1016A000FFF797FE07F108000C4B0D4A1E2109F0C9
:1016B00063FC064B1B6807F1080211461846FFF74A
:1016C00071FE00BF2837BD4680BD00BFCC5400204E
:1016D000D054002010550020B8C40008D4C400081D
:1016E000DCC4000880B582B000AF144B1B681846FC
:1016F000FFF72FFE0346002B1CD0104B1B6818462B
:10170000FFF7B3FD0346FB71FB791B2B06D10B4B97
:101710001B680B491846FFF745FE06E0074B1B68A0
:10172000FA7911461846FFF7D8FDFB7905491846A6
:1017300000F00AF800BF0837BD4680BDCC54002039
:10174000ECC400088452002080B5BCB002AF034650
:101750003960FB71FB791B2B32D107F1DC030022CE
:101760001A609A8007F1DC03184602F0E7FC97F84C
:10177000DF30194697F8E03097F8E12007F1BC0018
:10178000019200930B46B94A1E2109F0F5FB07F1BF
:10179000BC0307F10800B64A0092B64A3C2109F0A2
:1017A000EBFBB54B1B6807F1080211461846FFF723
:1017B000F9FD3B680022A3F840203B6800221A7024
:1017C000FB792D2B6BD107F1B40300221A609A80AC
:1017D00007F1B403184602F0B1FC97F8B730194688
:1017E00097F8B83097F8B92007F194000192009368
:1017F0000B469E4A1E2109F0BFFB3B68B3F84432FA
:10180000002B07D03B68B3F84432013B9AB23B68E7
:10181000A3F844223B68B3F844223B68B3F8423251
:101820009A4215D238683B68B3F8443201339B01C1
:101830003A6813440233194609F008FC3B6818461D
:10184000FEF7D0FC03469AB23B68A3F8402006E0BE
:101850003B6800221A703B680022A3F84020864BA8
:101860001B6886491846FFF79DFD07F1940307F1B1
:1018700008007F4A0092824A3C2109F07DFB7E4BA2
:101880001B6807F1080211461846FFF78BFD7A4BDB
:101890001B683A6811461846FFF784FDC8E1FB79DA
:1018A0003D2B6ED107F18C0300221A609A8007F15C
:1018B0008C03184602F042FC97F88F30194697F8CF
:1018C000903097F8912007F16C00019200930B463D
:1018D000664A1E2109F050FB3B68B3F844223B687E
:1018E000B3F842329A4207D23B68B3F8443201332C
:1018F0009AB23B68A3F844223B68B3F844223B68A1
:10190000B3F842329A4215D238683B68B3F8443291
:1019100001339B013A6813440233194609F096FBE0
:101920003B681846FEF75EFC03469AB23B68A3F894
:10193000402006E03B6800221A703B680022A3F8B2
:1019400040204D4B1B684D491846FFF72BFD07F112
:101950006C0307F10800464A0092494A3C2109F00D
:101960000BFB454B1B6807F1080211461846FFF7B1
:1019700019FD414B1B683A6811461846FFF712FDE6
:1019800056E1FB791F2B02D9FB797E2B06D9FB7917
:101990000D2B03D0FB797F2B40F04A81FB792D2B57
:1019A00000F04681FB793D2B00F04281FB795C2BF6
:1019B00000F03E8107F1640300221A609A8007F16B
:1019C0006403184602F0BAFB97F86730194697F897
:1019D000683097F8692007F14400019200930B46A4
:1019E000224A1E2109F0C8FAFB790D2B40F0C9806C
:1019F0003B68B3F84030002B00F0AE803B68B3F892
:101A000040301A463B68002199543B68B3F8423293
:101A1000002B10D03B68B3F84232013B01339B01ED
:101A20003A68134402333A6811461846FEF7D0FB71
:101A30000346002B4DD03B68B3F84232072B21D828
:101A40003B68B3F8423201339B013A6813440233D6
:101A50003A681146184609F0F9FA3B68B3F8423281
:101A600001339AB23B68A3F8422232E0F4C4000882
:101A7000D4C4000808C50008CC54002014C50008D0
:101A80001CC500080023C7F8E43016E0D7F8E4309E
:101A900001339B013A681344981CD7F8E4300133B2
:101AA00001339B013A6813440233194609F0CEFA18
:101AB000D7F8E4300133C7F8E430D7F8E430062B28
:101AC000E4DD3B6803F202233A681146184609F048
:101AD000BDFA3B68B3F842223B68A3F844223B6856
:101AE0001846FFF70FFD034687F8E33097F9E33018
:101AF000062B00F09D8007F108034F4A3C21184651
:101B000009F03AFA4D4B1B6807F1080211461846D6
:101B1000FFF748FC494B1A6897F9E330484951F8F8
:101B2000233019461046FFF73DFC07F1440307F147
:101B30000800444A0092444A3C2109F01DFA3F4BF8
:101B40001B6807F1080211461846FFF72BFC3B689B
:101B50000022A3F840206BE000F07EF807F1440378
:101B600007F10800374A0092384A3C2109F004FA8C
:101B7000324B1B6807F1080211461846FFF712FCAA
:101B800056E0FB797F2B1BD13B68B3F84030002B2C
:101B90000FD03B68B3F84030013B9AB23B68A3F8E2
:101BA00040203B68B3F840301A463B680021995406
:101BB0003EE0224B1B6826491846FFF7F3FB37E04F
:101BC0003B68B3F840303E2B13D83B68B3F8403045
:101BD0005A1C91B23A68A2F8401019463B68FA794B
:101BE0005A543B68B3F840301A463B680021995478
:101BF0001EE0124B1B6817491846FFF7D3FB07F18D
:101C0000440307F108000F4A0092104A3C2109F0F2
:101C1000B3F90A4B1B6807F1080211461846FFF793
:101C2000C1FB3B680022A3F840203B6800221A70E9
:101C3000E837BD4680BD00BF24C50008CC54002055
:101C400048000020D4C4000834C5000808C50008B6
:101C50003CC5000840C5000880B400AF124B00220C
:101C60001A60124B00221A70114B00221A70114B8D
:101C700000221A60104B01221A70104B01221A70B8
:101C80000F4B01221A700F4B00221A600E4B0022DC
:101C90001A600E4B00221A700D4B00221A7000BF02
:101CA000BD465DF8047B7047145500201855002090
:101CB000195500201C5500202C0200202D02002068
:101CC0002E020020205500202455002029550020F8
:101CD0002855002080B5CCB004AF07F59073A3F56C
:101CE0008E73186007F59073A3F59073196007F56C
:101CF0009073A3F58E731B68022B01DD022363E052
:101D0000344B1B6834491846FFF74CFB334BC7F87C
:101D10001C310023C7F8183116E0D7F81C311B68B6
:101D20001846FEF75FFAC7F80C01D7F80C21D7F870
:101D300018319A4203D9D7F80C31C7F81831D7F8BF
:101D40001C310C33C7F81C31D7F81C311B68002B31
:101D5000E3D1224BC7F81C3130E0D7F81C311B68A7
:101D60001846FEF73FFAC7F81401D7F81821D7F83C
:101D70001431D31A0233C7F81031D7F81C311A685E
:101D8000D7F81C319B6807F10C000293144B0193A8
:101D9000D7F8103100931346124A4FF4807109F0BE
:101DA000EBF80C4B1B6807F10C0211461846FFF7C5
:101DB000F9FAD7F81C310C33C7F81C31D7F81C31AD
:101DC0001B68002BC9D10023184607F59077BD4644
:101DD00080BD00BFCC5400205CC50008600000201E
:101DE00084C5000874C5000880B584B000AF786071
:101DF000396072B600BF0023FB7310E0154AFB7B0D
:101E000020334FF0FF3142F82310124AFB7B60333E
:101E10004FF0FF3142F82310FB7B0133FB73FB7B58
:101E2000072BEBD91020FFF7FDFB1020FFF70CFC70
:101E300006F00CFE06F0A0F8074B00221A60064BD5
:101E400000225A60044B00229A6062B600BFFFF77E
:101E5000B5FB00BF00E100E010E000E080B582B01B
:101E600000AF78603960054B1B6805491846FFF7DD
:101E700099FA002318460837BD4680BDCC5400208F
:101E800088C5000880B584B000AF7860396072B64C
:101E900000BF0023FB7310E0154AFB7B20334FF09B
:101EA000FF3142F82310124AFB7B60334FF0FF31C1
:101EB00042F82310FB7B0133FB73FB7B072BEBD931
:101EC0001020FFF7AFFB1020FFF7BEFB06F0BEFDB2
:101ED00006F052F8074B00221A60064B00225A60A7
:101EE000044B00229A6062B600BFFFF767FB00BF99
:101EF00000E100E010E000E080B582B000AF786063
:101F000039607B68022B01DC032317E07B68032B1D
:101F100001DD022312E03B6804331B68184608F019
:101F2000A3FF0346002B04D010210648FFF75CFBFB
:101F300003E010210348FFF765FB0023184608372C
:101F4000BD4680BD000C024080B592B002AF786003
:101F500039607B68052B01DC03234BE07B68062B93
:101F600001DD022346E0002387F83F303DE097F88B
:101F70003F3001339B003A6813441B68184608F051
:101F800073FF024697F83F3012B25B0040333B4488
:101F900023F80C2C97F83F305B0040333B4433F977
:101FA0000C2C97F83F301146184605F025FE97F89F
:101FB0003F2097F83F305B0040333B4433F90C3C03
:101FC00007F10C00009313460C4A282108F0D4FFB7
:101FD0000B4B1B6807F10C0211461846FFF7E2F99C
:101FE00097F83F30013387F83F3097F83F30032BA5
:101FF000BDD9002318464037BD4680BDA0C50008A6
:10200000CC54002080B59AB002AF786039607B680C
:10201000022B01DD02235AE00023A7F85C30B7F958
:102020005C3047F6FF72934206D12B4B1B682B495D
:102030001846FFF7B7F90FE0B7F95C3007F10C006D
:10204000274A502108F098FF234B1B6807F10C0228
:1020500011461846FFF7A6F9224803F00DFA0023AF
:1020600087F85F302EE097F85F301E4A32F8133061
:10207000A7F85C30B7F95C3047F6FF72934208D19D
:1020800097F85F3007F10C00174A502108F074FFF1
:102090000BE097F85F20B7F95C3007F10C00009374
:1020A0001346124A502108F067FF0B4B1B6807F1DB
:1020B0000C0211461846FFF775F997F85F300133A7
:1020C00087F85F3097F85F30072BCCD9002318468C
:1020D0006037BD4680BD00BFCC540020B8C50008A5
:1020E000D0C5000860550020E8C5000800C60008FB
:1020F00080B594B002AF786039607B68022B01DD57
:1021000002232CE00023A7F84430002387F847304F
:1021100020E097F84730184605F084FD0346A7F8FD
:10212000443097F84720B7F9443007F1080000938E
:1021300013460D4A3C2108F01FFF0C4B1B6807F1AA
:10214000080211461846FFF72DF997F8473001337A
:1021500087F8473097F84730032BDAD90023184621
:102160004837BD4680BD00BF14C60008CC540020CF
:1021700080B594B000AF786039607B68032B01DDD7
:10218000022397E00123BB64002387F84E307B686D
:10219000022B47D1002387F84F303DE097F84F30AE
:1021A000184602F031FD034687F84E300A2008F049
:1021B0009BFC97F94E30002B05D197F84F3000214A
:1021C000184602F0D0FC07F1480297F84F30012181
:1021D000184602F027FCBB6C002B08D197F84F3053
:1021E00007F10C00354A3C2108F0C6FE07E097F8DD
:1021F0004F3007F10C00324A3C2108F0BDFE314B54
:102200001B6807F10C0211461846FFF7CBF897F848
:102210004F30013387F84F3097F84F30032BBDD93B
:10222000002347E07B68032B43D13B6804331B68E2
:10223000184608F019FE034687F84D3097F84D30E0
:10224000184602F0E1FC034687F84E300A2008F0F9
:102250004BFC97F94E30002B05D197F84D300021FB
:10226000184602F080FC07F1480297F84D30012132
:10227000184602F0D7FBBB6C002B08D197F84D3005
:1022800007F10C000D4A3C2108F076FE07E097F8B4
:102290004D3007F10C000A4A3C2108F06DFE094B55
:1022A0001B6807F10C0211461846FFF77BF8002364
:1022B00000E0002318465037BD4680BD2CC60008FC
:1022C00048C60008CC54002090B59BB002AF78609F
:1022D00039607B68052B01DC032341E07B68062B1A
:1022E00001DD02233CE0002387F85F3033E097F8FC
:1022F0005F3001339B003A6813441B68184608F0AE
:10230000B3FD03469AB297F85F301146184605F0C0
:102310009DFC97F85F4097F85F3001339B003A6867
:1023200013441B68184608F09FFD034607F10C0094
:10233000009323460C4A502108F01EFE0B4B1B68ED
:1023400007F10C0211461846FFF72CF897F85F309A
:10235000013387F85F3097F85F30032BC7D900232C
:1023600018466437BD4690BD60C60008CC540020B6
:1023700080B59AB002AF786039607B68022B01DDCE
:10238000022336E00023A7F85C300023A7F85A3078
:10239000002387F85F3027E097F85F30184605F094
:1023A00081FC0346A7F85C3043F23903A7F85A30A2
:1023B00097F85F10B7F85C30B7F85A2007F10800BB
:1023C000019200930B460D4A502108F0D5FD0C4BAD
:1023D0001B6807F1080211461846FEF7E3FF97F85D
:1023E0005F30013387F85F3097F85F30032BD3D924
:1023F000002318466037BD4680BD00BF7CC600087C
:10240000CC54002080B584B000AF786039607B6820
:10241000052B01DC03233FE07B68062B01DD022353
:102420003AE03B6804331B68184608F01DFD03467C
:10243000002B14BF01230023DBB2FB733B6808337E
:102440001B68184608F010FD0346002B14BF01233B
:102450000023DBB2BB733B680C331B68184608F0E3
:1024600003FD0346002B14BF01230023DBB27B7363
:102470003B6810331B68184608F0F6FC0346002B37
:1024800014BF01230023DBB23B733B7B7A7BB97B18
:10249000F87B05F0B7FC002318461037BD4680BD19
:1024A00080B582B000AF786039607B68052B01DCB5
:1024B00003234DE07B68062B01DD022348E03B68E7
:1024C00004331B68184608F0CFFC0346002B04D0E9
:1024D0000121002002F047FB03E00021002002F070
:1024E00042FB3B6808331B68184608F0BDFC0346F6
:1024F000002B04D00121012002F035FB03E0002174
:10250000012002F030FB3B680C331B68184608F0D2
:10251000ABFC0346002B04D00121022002F023FB78
:1025200003E00021022002F01EFB3B6810331B6811
:10253000184608F099FC0346002B04D00121032023
:1025400002F011FB03E00021032002F00CFB00234A
:1025500018460837BD4680BD80B596B002AF78609A
:1025600039603B6804331B68184608F07DFC03465D
:1025700087F84F3007F1480297F84F30002118468E
:1025800002F050FABB6C1A0CBB6C07F10C00009304
:102590001346614A3C2108F0EFFC604B1B6807F1D1
:1025A0000C0211461846FEF7FDFE07F1480297F8A7
:1025B0004F300121184602F035FABB6C1A0CBB6C87
:1025C00007F10C0000931346554A3C2108F0D4FC57
:1025D000524B1B6807F10C0211461846FEF7E2FE4B
:1025E00007F1480297F84F300221184602F01AFA14
:1025F000BB6C1A0CBB6C07F10C0000931346494AE4
:102600003C2108F0B9FC454B1B6807F10C02114650
:102610001846FEF7C7FE07F1480297F84F3003212E
:10262000184602F0FFF9BB6C1A0CBB6C07F10C00EA
:10263000009313463C4A3C2108F09EFC374B1B6834
:1026400007F10C0211461846FEF7ACFE07F14802EE
:1026500097F84F300421184602F0E4F9BB6C1A0CCD
:10266000BB6C07F10C0000931346304A3C2108F084
:1026700083FC2A4B1B6807F10C0211461846FEF733
:1026800091FE07F1480297F84F300521184602F0F5
:10269000C9F9BB6C07F10C00254A3C2108F06CFC21
:1026A0001E4B1B6807F10C0211461846FEF77AFE16
:1026B00007F1480297F84F300621184602F0B2F9A8
:1026C000BB6C07F10C001B4A3C2108F055FC134B76
:1026D0001B6807F10C0211461846FEF763FE07F16E
:1026E000480297F84F300721184602F09BF9BB6C5F
:1026F00007F10C00104A3C2108F03EFC074B1B6818
:1027000007F10C0211461846FEF74CFE002318464E
:102710005037BD4680BD00BF9CC60008CC54002089
:10272000B8C60008D4C60008F0C600080CC70008E8
:1027300024C700083CC7000854C7000880B59AB0F9
:1027400002AF786039607B68052B01DC032342E02F
:102750007B68062B01DD02233DE0002387F85E3015
:1027600034E097F85E3001339B003A6813441B68ED
:10277000184608F079FB034687F85F3097F85F301A
:10278000642B02D9642387F85F3097F85F2097F8AD
:102790005E301146184605F0A1FA97F85E2097F8CA
:1027A0005F3007F10C00009313460D4A502108F0EA
:1027B000E3FB0C4B1B6807F10C0211461846FEF7B1
:1027C000F1FD97F85E30013387F85E3097F85E30A0
:1027D000032BC6D9002318466037BD4680BD00BF15
:1027E00068C70008CC54002080B59AB002AF78606A
:1027F00039607B68022B01DD022329E0002387F882
:102800005F3020E097F85F30184605F08FFA0346F6
:1028100087F85E3097F85F2097F85E3007F10C007C
:10282000009313460C4A502108F0A6FB0B4B1B6883
:1028300007F10C0211461846FEF7B4FD97F85F3019
:10284000013387F85F3097F85F30032BDAD9002324
:1028500018466037BD4680BD84C70008CC540020B0
:1028600080B584B000AF786039607B68052B01DCEF
:1028700003233FE07B68062B01DD02233AE03B683F
:1028800004331B68184608F0EFFA0346002B14BF08
:1028900001230023DBB2FB733B6808331B68184637
:1028A00008F0E2FA0346002B14BF01230023DBB239
:1028B000BB733B680C331B68184608F0D5FA034617
:1028C000002B14BF01230023DBB27B733B68103362
:1028D0001B68184608F0C8FA0346002B14BF0123F2
:1028E0000023DBB23B733B7B7A7BB97BF87B05F043
:1028F0003BFA002318461037BD4680BD80B5BAB0FC
:1029000002AF786039607B68052B01DC0323A8E007
:102910007B68062B01DD0223A3E03B6804331B68C0
:10292000184608F0A1FA0346002B14BF0123002328
:10293000DBB287F8DF303B6808331B68184608F0C5
:1029400093FA0346A7F8DC303B680C331B68184643
:1029500008F08AFA034687F8DB303B6810331B68BF
:10296000184608F081FA0346A7F8D8300123C7F8C3
:10297000D030002002F048F9034687F8D7300A200B
:1029800008F0B2F897F8D730002B03D100210020CF
:1029900002F0E9F807F1D0031A460121002002F005
:1029A00041F8D7F8D030002B33D1304B1B68304979
:1029B0001846FEF7F7FCB7F8DC301946002005F0A2
:1029C00045F997F8DB301946002005F087F9B7F98B
:1029D000D8301946002005F00FF9B7F8DC1097F849
:1029E000DB30B7F9D82007F10800019200930B46BD
:1029F000204AC82108F0C0FA1C4B1B6807F10802E6
:102A000011461846FEF7CEFC97F8DF30002B18D0A1
:102A100007E0164B1B6818491846FEF7C3FC002355
:102A20001FE0164B93F84C3043F00103DAB2134B1E
:102A300083F84C200D4B1B6811491846FEF7B2FC79
:102A40000EE00E4B93F84C3023F00103DAB20B4B3F
:102A500083F84C20054B1B680A491846FEF7A2FC78
:102A600000231846E037BD4680BD00BFCC5400208F
:102A70009CC70008D0C70008B8C7000878430020EA
:102A80001CC8000834C8000880B5BAB002AF78602E
:102A900039607B68052B01DC0323A8E07B68062BEB
:102AA00001DD0223A3E03B6804331B68184608F0ED
:102AB000DBF90346002B14BF01230023DBB287F8A8
:102AC000DF303B6808331B68184608F0CDF9034631
:102AD000A7F8DC303B680C331B68184608F0C4F9D3
:102AE000034687F8DB303B6810331B68184608F054
:102AF000BBF90346A7F8D8300123C7F8D03001202E
:102B000002F082F8034687F8D7300A2007F0ECFF7E
:102B100097F8D730002B03D10021012002F023F8D1
:102B200007F1D0031A460121012001F07BFFD7F8FD
:102B3000D030002B33D1304B1B6830491846FEF79C
:102B400031FCB7F8DC301946012005F07FF897F822
:102B5000DB301946012005F0C1F8B7F9D830194625
:102B6000012005F049F8B7F8DC1097F8DB30B7F929
:102B7000D82007F10800019200930B46204AC82193
:102B800008F0FAF91C4B1B6807F1080211461846B9
:102B9000FEF708FC97F8DF30002B18D007E0164B43
:102BA0001B6818491846FEF7FDFB00231FE0164B73
:102BB00093F84C3043F00203DAB2134B83F84C2005
:102BC0000D4B1B6811491846FEF7ECFB0EE00E4B4F
:102BD00093F84C3023F00203DAB20B4B83F84C200D
:102BE000054B1B680A491846FEF7DCFB0023184614
:102BF000E037BD4680BD00BFCC54002048C8000867
:102C00007CC8000864C8000878430020C8C80008D1
:102C1000E0C8000880B5BAB002AF786039607B6860
:102C2000052B01DC0323A8E07B68062B01DD0223D2
:102C3000A3E03B6804331B68184608F015F9034607
:102C4000002B14BF01230023DBB287F8DF303B6881
:102C500008331B68184608F007F90346A7F8DC306C
:102C60003B680C331B68184608F0FEF8034687F8EB
:102C7000DB303B6810331B68184608F0F5F8034654
:102C8000A7F8D8300123C7F8D030022001F0BCFFEC
:102C9000034687F8D7300A2007F026FF97F8D73089
:102CA000002B03D10021022001F05DFF07F1D003CA
:102CB0001A460121022001F0B5FED7F8D030002BD2
:102CC00033D1304B1B6830491846FEF76BFBB7F821
:102CD000DC301946022004F0B9FF97F8DB301946C2
:102CE000022004F0FBFFB7F9D8301946022004F0A7
:102CF00083FFB7F8DC1097F8DB30B7F9D82007F17D
:102D00000800019200930B46204AC82108F034F9CC
:102D10001C4B1B6807F1080211461846FEF742FBE0
:102D200097F8DF30002B18D007E0164B1B681849C6
:102D30001846FEF737FB00231FE0164B93F84C3084
:102D400043F00403DAB2134B83F84C200D4B1B689D
:102D500011491846FEF726FB0EE00E4B93F84C3057
:102D600023F00403DAB20B4B83F84C20054B1B68AD
:102D70000A491846FEF716FB00231846E037BD4601
:102D800080BD00BFCC540020F4C8000828C900084A
:102D900010C900087843002074C900088CC90008D5
:102DA00080B5BAB002AF786039607B68052B01DC72
:102DB0000323A8E07B68062B01DD0223A3E03B6828
:102DC00004331B68184608F04FF80346002B14BF65
:102DD00001230023DBB287F8DF303B6808331B6830
:102DE000184608F041F80346A7F8DC303B680C337E
:102DF0001B68184608F038F8034687F8DB303B6854
:102E000010331B68184608F02FF80346A7F8D8308F
:102E10000123C7F8D030032001F0F6FE034687F8FF
:102E2000D7300A2007F060FE97F8D730002B03D187
:102E30000021032001F097FE07F1D0031A4601217B
:102E4000032001F0EFFDD7F8D030002B33D1304B09
:102E50001B6830491846FEF7A5FAB7F8DC3019466A
:102E6000032004F0F3FE97F8DB301946032004F04A
:102E700035FFB7F9D8301946032004F0BDFEB7F886
:102E8000DC1097F8DB30B7F9D82007F10800019281
:102E900000930B46204AC82108F06EF81C4B1B68B3
:102EA00007F1080211461846FEF77CFA97F8DF3062
:102EB000002B18D007E0164B1B6818491846FEF780
:102EC00071FA00231FE0164B93F84C3043F00803CF
:102ED000DAB2134B83F84C200D4B1B68114918468E
:102EE000FEF760FA0EE00E4B93F84C3023F0080327
:102EF000DAB20B4B83F84C20054B1B680A49184685
:102F0000FEF750FA00231846E037BD4680BD00BFEB
:102F1000CC540020A0C90008D4C90008BCC90008CE
:102F20007843002020CA000838CA000880B598B04D
:102F300000AF786039607B68052B01DC03232AE051
:102F40007B68062B01DD022325E03B6804331B6808
:102F5000184607F089FF034687F85F3097F85F301F
:102F6000642B02D9642387F85F3097F85F301846E6
:102F700001F07EF997F85F3007F10C00084A502104
:102F800007F0FAFF074B1B6807F10C0211461846C1
:102F9000FEF708FA002318466037BD4680BD00BF23
:102FA0004CCA0008CC54002080B58EB000AF7860C9
:102FB00039607B68022B01DD022315E001F078F90E
:102FC000034687F8373097F8373007F10C00084A86
:102FD000282107F0D1FF074B1B6807F10C021146AF
:102FE0001846FEF7DFF9002318463837BD4680BD86
:102FF00060CA0008CC54002080B483B000AF786071
:103000003960002318460C37BD465DF8047B7047D5
:1030100080B483B000AF78603960002318460C3765
:10302000BD465DF8047B704780B592B000AF786014
:1030300039607B68032B01DD02232BE07B68022BC8
:1030400001DC032326E03B6804331B68184607F0C5
:103050000BFF0346A7F84630B7F84630FF2B01D9DF
:10306000042317E0B7F8463007F108000B4A3C216B
:1030700007F082FF0A4B1B6807F108021146184649
:10308000FEF790F9B7F846301A460021054801F0DE
:1030900063FA002318464837BD4680BD74CA00084D
:1030A000CC5400203855002080B584B000AF786043
:1030B00039607B68032B01DD02231EE07B68022B55
:1030C00001DC032319E03B6804331B68184607F052
:1030D000CBFE0346FB73FA7B0A4B1B7B1946094B5D
:1030E0009B7A01FB03F39A4201DD042305E0FB7B9D
:1030F0001946044800F039FC002318461037BD4635
:1031000080BD00BF5402002080B5A0B002AF78603F
:1031100039607B68082B01DD022345E17B68072BC2
:1031200001DC032340E13B6804331B68184607F0C9
:103130009BFE03463B673B6808331B68184607F055
:1031400093FE0346FB663B680C331B68184607F08A
:103150008BFE0346BB663B6810331B68184607F0BE
:1031600083FE034687F867303B6814331B681846B4
:1031700007F07AFE03463B663B6818331B68184627
:1031800007F072FE0346FB653A6F894BA3FB0213FF
:103190005B09642101FB03F3D31A002B03D13B6FBE
:1031A000B3F5C87F10D207F10803824A50211846B0
:1031B00007F0E2FE804B1B6807F108021146184633
:1031C000FEF7F0F80423EFE0FB6EC72B0ED9FA6E82
:1031D000774BA3FB02135B09642101FB03F3D31AB2
:1031E000002B03D1FA6E3B6F9A4210D907F1080306
:1031F000724A5021184607F0BFFE6F4B1B6807F15B
:10320000080211461846FEF7CDF80423CCE0BB6E49
:10321000B3F5FA7F10D907F10803694A502118461F
:1032200007F0AAFE644B1B6807F108021146184616
:10323000FEF7B8F80423B7E097F86730C82B10D929
:1032400007F108035F4A5021184607F095FE5A4BD4
:103250001B6807F1080211461846FEF7A3F804237D
:10326000A2E097F86730002B0CBF01230023DBB2EC
:103270001A46554B1A70FB6DFF2B01D9042393E0BE
:10328000FB6DDBB21A460021504801F051F907F1FD
:103290000800FB6D4E4A502107F06EFE464B1B683E
:1032A00007F1080211461846FEF77CF80023A7F83C
:1032B0005A30B7F95A3047F6FF72934206D13E4B67
:1032C0001B6844491846FEF76DF80FE0B7F95A300D
:1032D00007F10800404A502107F04EFE364B1B68AC
:1032E00007F1080211461846FEF75CF8002387F83C
:1032F00077302EE097F87730384A32F81330A7F855
:103300005A30B7F95A3047F6FF72934208D197F80E
:10331000773007F10800324A502107F02DFE0BE00C
:1033200097F87720B7F95A3007F108000093134651
:103330002C4A502107F020FE1F4B1B6807F10802A2
:1033400011461846FEF72EF897F87730013387F8C4
:10335000773097F87730072BCCD9234A3B6F13602F
:10336000224AFB6E1360224ABB6E1360214A3B6EF9
:103370001360214A97F867301370204B01221A70AE
:1033800007F10800BB6E0193FB6E00933B6F1C4A74
:10339000502107F0F1FD084B1B6807F108021146A8
:1033A0001846FDF7FFFF002318467837BD4680BD5D
:1033B0001F85EB518CCA0008CC540020C8CA0008F5
:1033C00004CB00081CCB00082955002038550020EC
:1033D00048CB00085CCB000878CB00086055002083
:1033E00090CB0008A8CB0008145500201C550020E5
:1033F0002055002024550020285500201855002075
:10340000BCCB000880B592B000AF786039607B68B3
:10341000032B01DD02232BE07B68022B01DC03235D
:1034200026E03B6804331B68184607F01DFD034681
:10343000A7F84630B7F84630D22B01D9042317E05D
:10344000B7F8463007F108000B4A3C2107F094FD1D
:103450000A4B1B6807F1080211461846FDF7A2FF48
:10346000B7F846301A460121054801F075F80023E7
:1034700018464837BD4680BD08CC0008CC54002013
:103480003855002080B584B000AF786039607B6823
:10349000032B01DD022319E07B68022B01DC0323EF
:1034A00014E03B6804331B68184607F0DDFC034654
:1034B000FB73084B9B7AFA7B9A4201D9042305E0FF
:1034C000FB7B1946034800F0D2F900231846103759
:1034D000BD4680BD6402002080B483B000AF786038
:1034E0003960002318460C37BD465DF8047B7047F1
:1034F00080B584B000AF786039607B68032B01DD54
:1035000002231EE07B68022B01DC032319E03B68E9
:1035100004331B68184607F0A7FC0346FB73FA7BCD
:103520000A4B1B7B1946094B9B7A01FB03F39A421A
:1035300001DD042305E0FB7B1946044800F015FA81
:10354000002318461037BD4680BD00BF344300201D
:1035500080B592B000AF786039607B68022B01DDE6
:1035600002231BE07B68012B01DC032316E0002310
:103570007B640C4802F0D4F903467B6407F1080031
:103580007B6C094A3C2107F0F7FC084B1B6807F1EC
:10359000080211461846FDF705FF00231846483774
:1035A000BD4680BD7455002020CC0008CC540020BE
:1035B00080B598B000AF786039607B68032B01DD7F
:1035C000022342E07B68022B01DC03233DE03B68E1
:1035D00004331B68184607F047FC0346FB65FA6D89
:1035E0001C4BA3FB02135B09642101FB03F3D31AF9
:1035F000002B03D1FB6DB3F5FA7F10D207F10C035A
:10360000154A5021184607F0B7FC144B1B6807F108
:103610000C0211461846FDF7C5FE042315E0104ABA
:10362000FB6D13600F4B01221A7007F10C00FB6D4C
:103630000D4A502107F0A0FC084B1B6807F10C0253
:1036400011461846FDF7AEFE002318466037BD460A
:1036500080BD00BF1F85EB5134CC0008CC54002046
:103660001C5500201955002070CC000880B500AF13
:103670000249034807F0C4FA00BF80BD08020020D9
:103680000402002080B483B000AF78607B689B6840
:1036900003F00203022B01D1012300E000231846AE
:1036A0000C37BD465DF8047B704780B483B000AF33
:1036B00078607B689B6803F08003802B01D1012335
:1036C00000E0002318460C37BD465DF8047B7047C8
:1036D00080B485B000AF78600B46FB707B680C331C
:1036E000FB60FB68FA781A7000BF1437BD465DF8BE
:1036F000047B704780B483B000AF786039607B682A
:103700003A689A6100BF0C37BD465DF8047B70478C
:1037100080B483B000AF786039603B681A047B687E
:103720009A6100BF0C37BD465DF8047B704700000E
:1037300080B483B000AF0346FB71044AFB79137079
:1037400000BF0C37BD465DF8047B70471155002063
:1037500080B400AF034B1B78DBB21846BD465DF862
:10376000047B70471155002080B582B000AF7860AF
:103770007B685A687B681B8919461046FFF7C8FFAB
:1037800000BF0837BD4680BD80B582B000AF78600D
:103790007B685A687B681B8919461046FFF7AAFFA9
:1037A00000BF0837BD4680BD80B586B000AFF86069
:1037B000B9601346FB80FB88DBB2013BDBB2FB75D3
:1037C00031E00A20FFF7B4FF00BFFB681B68184612
:1037D000FFF758FF0346002B04D1FFF7B9FF03465C
:1037E000002BF2D1FB68186897F91730BA681344B8
:1037F0001B781946FFF76CFF0A20FFF799FF00BFFF
:10380000FB681B681846FFF750FF0346002B04D0E7
:10381000FFF79EFF0346002BF2D197F91730DBB27A
:10382000013BDBB2FB7597F91730002BC9DA00BFFB
:1038300000BF1837BD4680BD80B584B000AF78604A
:103840007868FFF7A1FF0023FB737868FFF78CFF10
:1038500007F10F03012219467868FFF7A5FF786882
:10386000FFF792FF002318461037BD4680BD80B594
:1038700084B000AF78600B46FB707B689B7AFA7867
:103880009A4201D9012314E0FB78013B012202FA9C
:1038900003F3DBB2FB737868FFF766FF07F10F03F2
:1038A000012219467868FFF77FFF7868FFF76CFF01
:1038B000002318461037BD4680BD2DE9F04387B080
:1038C00000AF78606B461E467B681846FFF75CFFCA
:1038D0007B68197B0B46013B3B61CBB200229846CB
:1038E00091464FF000024FF000034FEAC90343EA4C
:1038F00058734FEAC802CBB200221C4615464FF05F
:1039000000024FF00003EB0043EA5473E2000B4661
:103910000733DB08DB00ADEB030D6B460033FB60C8
:103920000023FB7506E0FB7DFA680021D154FB7D86
:103930000133FB757B681B7BFA7D9A42F3D37B686E
:103940001846FFF711FF78687B681B7B1A46F968F9
:10395000FFF72AFF7B681846FFF716FF0023B546DE
:1039600018461C37BD46BDE8F0832DE9F04387B00B
:1039700000AF78600B46FB706B461E46FA787B689A
:103980001B7B19467B689B7A01FB03F39A4201DD9E
:10399000012362E07B68197B0B46013B3B61CBB2A4
:1039A0000022984691464FF000024FF000034FEA84
:1039B000C90343EA58734FEAC802CBB200221C463F
:1039C00015464FF000024FF00003EB0043EA54733A
:1039D000E2000B460733DB08DB00ADEB030D6B4663
:1039E0000033FB600023FB7506E0FB7DFA680021D5
:1039F000D154FB7D0133FB757B681B7BFA7D9A42BA
:103A0000F3D3FB78013B7A68927A93FBF2F3FB7273
:103A1000FB78013B7A68927A93FBF2F101FB02F2A8
:103A20009B1ABB72BB7A012202FA03F3DAB2FB7A69
:103A300002F03F02D1B2FA68D1547B681846FFF712
:103A400093FE78687B681B7B1A46F968FFF7ACFE2B
:103A50007B681846FFF798FE0023B54618461C37CA
:103A6000BD46BDE8F083000080B590B002AF984B32
:103A70001B78DBB2002B0DD00A2007F0ABF8034611
:103A8000002B07D000F0DEF9924B1B6819460A2084
:103A900007F08AF8904B1B78DBB2002B00F0148102
:103AA0000B2007F097F80346002B00F0F3808B4BB8
:103AB00000221A708A4B1B78DBB21A46520013445C
:103AC0005B00DAB2874B1B78DBB21344DBB2063BF8
:103AD00087F83730844B1B78DBB2002B3AD0834B0E
:103AE0001B78DBB2002B25D1814B1B78DBB2002B7E
:103AF00020D1804B00221A60774B00221A70744B41
:103B000000221A70734B00221A607B4B01221A703C
:103B1000744B01221A70724B01221A70774B0022EB
:103B20001A60774B00221A60704B00221A70704B9B
:103B300000221A70002000F04DF9002000F066F914
:103B40006E4B1B6819460C2007F02EF8664B0022BE
:103B50001A7098E00C2007F03DF80346002B00F0A7
:103B600092805F4B1B78DBB2012B1BD1654B1B781E
:103B7000DBB2002B16D15B4B1B78DBB2012B11D1D2
:103B800000F0CAF85A4B1B78DBB2013BDAB2584B53
:103B90001A705B4B1B6819460D2007F005F8594B4E
:103BA00001221A700D2007F015F80346002B61D092
:103BB0004B4B1B78DBB2012B03D153495348FDF724
:103BC000F1FB97F83730184600F004F997F83730D2
:103BD000184600F01BF997F83730092B12D8414BE3
:103BE0001B78DBB219463E4B1B78DBB21A4697F8BE
:103BF0003730381D019300920B46454A322107F0B9
:103C0000BBF911E0374B1B78DBB21946344B1B78FC
:103C1000DBB21A4697F83730381D019300920B46F5
:103C20003C4A322107F0A8F93B1D19463748FDF7F9
:103C3000B9FB2B4B1B78DBB20133DAB2284B1A707D
:103C4000274B1B78DBB2062B11D9254B01221A70AA
:103C5000244B1B78DBB20133DAB2224B1A70214BB2
:103C60001B78DBB2062B02D91E4B01221A70254BA2
:103C700000221A701F4B1B6819460B2006F094FF98
:103C8000194B01221A70134B1B6819460A2006F0C3
:103C90008BFF19E00D2006F09DFF0346002B13D08B
:103CA0000A2006F097FF0346002B0DD000F024F900
:103CB0000A4B1B780133DAB2084B1A70054B1B68AC
:103CC00019460A2006F070FF00BF3837BD4680BD98
:103CD000195500201C5500201855002012550020B1
:103CE0002E0200202D0200202F0200202955002046
:103CF00028550020145500202C02002020550020BB
:103D00002455002030020020C4D4000800100140D7
:103D1000C8D40008DCD4000880B592B002AF0023FC
:103D2000BB87B7F93C3047F6FF72934204D1234971
:103D30002348FDF737FB0BE0B7F93C303846214A02
:103D40003C2107F019F93B4619461D48FDF72AFBAF
:103D5000002387F83F3028E097F83F301A4A32F8BE
:103D60001330BB87B7F93C3047F6FF72934207D157
:103D700097F83F303846154A3C2107F0FDF80AE035
:103D800097F83F20B7F93C30384600931346104A65
:103D90003C2107F0F1F83B4619460948FDF702FBC4
:103DA00097F83F30013387F83F3097F83F30072BC3
:103DB000D2D900BF00BF4037BD4680BDF0D4000857
:103DC000001001400CD500086055002024D50008E3
:103DD0003CD5000880B582B000AF0346FB71FA798C
:103DE000094B1B7B1946084B9B7A01FB03F39A4254
:103DF00005DCFB7919460448FFF7B7FD00E000BF7A
:103E00000837BD4680BD00BF3443002080B582B076
:103E100000AF0346FB71FA79094B1B7B1946084B2F
:103E20009B7A01FB03F39A4205DCFB7919460448AF
:103E3000FFF79BFD00E000BF0837BD4680BD00BF17
:103E40005402002080B596B002AF0023FB644FF00F
:103E50000003BB64224B7B6400233B640023FB63B1
:103E6000204801F05DFD0346FB64FB6C07EE903AD1
:103E7000B8EE677ADFED1C6AC7EE267A97ED117A05
:103E800067EE277AC7ED127AD7ED127AFDEEE77A60
:103E900017EE903A3B643B6C07EE903AF8EEE77A07
:103EA00097ED127A77EE677A9FED107A67EE877A50
:103EB000FDEEE77A17EE903AFB633846FB6B019311
:103EC0003B6C0093FB6C0A4A3C2107F055F83B46DB
:103ED00019460848FDF766FA00BF5037BD4680BD59
:103EE00000004040745500200000804700007A44E4
:103EF00050D500080010014080B590B002AF0023FB
:103F0000FB860C4801F00CFD0346FB860A4B1B7830
:103F10001A46FB8E381D00931346084A322107F0DB
:103F20002BF83B1D19460648FDF73CFA00BF383711
:103F3000BD4680BD745500201255002074D5000880
:103F40000010014080B500AF0249034806F058FE5A
:103F500000BF80BD1C0200201802002080B483B086
:103F600000AF5B4B5B790133DAB2594B5A71584B56
:103F70005B793B2B7AD9564B00225A71544B1B79F3
:103F80000133DAB2524B1A71514B1B793B2B6DD96D
:103F90004F4B00221A714E4BDB780133DAB24C4B97
:103FA000DA704B4BDB78172B60D9494B0022DA7063
:103FB000474B1B780133DAB2454B1A70444B9B7860
:103FC00003F00303DBB2002B1ED1414B9B78414A27
:103FD000A2FB03125209642101FB02F29B1ADBB21D
:103FE000002B0FD13A4B9B781A463A4B83FB0213B6
:103FF000D911D317CB1A4FF4C87101FB03F3D31AAD
:10400000002B01D1012300E00023FB71304B5B78D2
:10401000022B03D1FB791C33DBB204E02C4B5B7821
:10402000013B2D4AD35CBB71294B1B78BA799A426C
:104030001CD2274B01221A70254B5B780133DAB270
:10404000234B5A70224B5B780C2B0FD9204B01224B
:104050005A701F4B9B780133DAB21D4B9A701C4B80
:104060009B78632B02D91A4B00229A701B4B9B79C9
:104070000133DAB2194B9A71184B9B793B2B21D93A
:10408000164B00229A71154B5B790133DAB2134B50
:104090005A71124B5B793B2B14D9104B00225A7189
:1040A0000E4B1B790133DAB20C4B1A710B4B1B7997
:1040B000172B07D9094B00221A71084B1B680133D3
:1040C000064A136000BF0C37BD465DF8047B70479D
:1040D000340200201F85EB51ACD500082C55002080
:1040E00080B500AF114B00229A70104B01225A701C
:1040F0000E4B01221A700D4B0022DA700B4B00227E
:104100001A710A4B00225A71094B00221A60084B9F
:1041100000221A71064B00225A71054B00229A7137
:104120000449054806F06CFD00BF80BD3402002044
:104130002C550020400200203C02002080B483B0B7
:1041400000AF78607B68002B06D07B68054A10685A
:10415000186092889A8000E000BF0C37BD465DF879
:10416000047B70473402002080B483B000AF7860D5
:1041700039607B683A685A6300BF0C37BD465DF80A
:10418000047B704780B483B000AF786039607B688F
:104190003A689A6300BF0C37BD465DF8047B7047F0
:1041A00080B483B000AF786039607B683A68DA63C6
:1041B00000BF0C37BD465DF8047B704780B483B008
:1041C00000AF786039607B683A681A6400BF0C37CA
:1041D000BD465DF8047B704780B582B000AF0346F2
:1041E0000A46FB711346BB80BB88B3F57A7F02D3C6
:1041F00040F2E733BB80FB79032B23D801A252F8AE
:1042000023F000BF15420008214200082D4200089B
:1042100039420008BB8819460D48FFF7A5FF12E098
:10422000BB8819460A48FFF7ADFF0CE0BB8819466A
:104230000748FFF7B5FF06E0BB8819460448FFF7BB
:10424000BDFF00E000BF00BF0837BD4680BD00BF16
:104250000000014080B483B000AF786039607B68B3
:104260003A685A6300BF0C37BD465DF8047B70475F
:1042700080B582B000AF0346FB71FB799BB21A4652
:10428000920013445B009AB2074B1A80FA791346E6
:104290009B0013445B0019460448FFF7DBFF00BF97
:1042A0000837BD4680BD00BF3455002000000140E6
:1042B00080B400AF064B1B88064AA2FB0323DB0831
:1042C0009BB2DBB21846BD465DF8047B704700BF69
:1042D00034550020CDCCCCCC80B483B000AF786016
:1042E0007B681B6843F040027B681A6000BF0C3794
:1042F000BD465DF8047B704780B483B000AF786042
:104300007B681B6803F04003402B01D1012300E0D0
:10431000002318460C37BD465DF8047B704780B417
:1043200083B000AF78607B689B6803F00203022BC8
:1043300001D1012300E0002318460C37BD465DF88B
:10434000047B704780B483B000AF78607B689B6863
:1043500003F08003802B01D1012300E000231846E5
:104360000C37BD465DF8047B704780B485B000AF64
:1043700078600B46FB707B680C33FB60FB68FA7857
:104380001A7000BF1437BD465DF8047B704780B4D7
:1043900083B000AF786039607B683A689A6100BF8B
:1043A0000C37BD465DF8047B704780B483B000AF26
:1043B000786039603B681A047B689A6100BF0C37EB
:1043C000BD465DF8047B704780B483B000AF034600
:1043D000FB80FB8807EE903AF8EEE77A9FED097ACA
:1043E00027EE877ADFED086AC7EE267AFCEEE77AD9
:1043F000C7ED007A3B78DBB218460C37BD465DF856
:10440000047B7047333323403333534080B584B04B
:1044100000AF786000BF7B681B681846FFF77FFF1E
:104420000346002BF7D00023FB6076E07B685A68D8
:104430007B689B6819461046FFF7B7FFFB68002BA7
:104440000CD07A68FB68134414331B781BB21B0131
:104450001AB2364B13431BB29BB20BE07A68FB686F
:10446000134414331B781BB21B011BB243F440539B
:104470001BB29BB27B817B681A687B891B0A9BB24B
:10448000DBB219461046FFF770FF00BF7B681B6860
:104490001846FFF744FF0346002BF7D000BF7B68A8
:1044A0001B681846FFF74EFF0346002BF7D17B68C9
:1044B0001B687A89D2B211461846FFF756FF00BF33
:1044C0007B681B681846FFF72AFF0346002BF7D0CE
:1044D00000BF7B681B681846FFF734FF0346002BBC
:1044E000F7D17B685A687B689B6819461046FFF7CE
:1044F0004EFF7B68DA687B681B6919461046FFF738
:1045000054FF00BF7B68DA687B681B691946104658
:10451000FFF73DFFFB680133FB60FB68012B85DD86
:1045200000BF00BF1037BD4680BD00BF00B0FFFF19
:1045300080B582B000AF78600B46FB701346BB704D
:10454000FB787A681344BA781A757868FFF75EFFCB
:1045500000BF0837BD4680BD90B583B000AF78601E
:104560000B46FB7013463B80FC783B881846FFF7F0
:104570002BFF03461A467B6823441A757868FFF7B9
:1045800045FF00BF0C37BD4690BD80B58CB000AF75
:10459000F860B9607A603B60FB68BA681A60FB68D3
:1045A0007A685A60FB683A689A60FB68BA6BDA60AE
:1045B000FB68FA6B1A6107F1140300221A605A6053
:1045C0009A60DA601A615A61FB689B687B6101231B
:1045D000BB610223FB6100233B6200237B62FB681B
:1045E0005B6807F114021146184605F0A8F8FB684D
:1045F0001B697B61FB68DB6807F1140211461846F2
:1046000005F09DF8FB685A68FB689B6819461046E0
:10461000FFF7BDFEFB68DA68FB681B6919461046A8
:10462000FFF7B5FE0023FB6208E0FA68FB6A13445B
:10463000143300221A70FB6A0133FB62FB6A012B00
:10464000F3DDFB681B681846FFF746FE00BFFB68FA
:104650001B681846FFF750FE0346002BF7D0F8689A
:10466000FFF7D4FE00BF3037BD4680BD80B582B0B5
:1046700002AF0A48FFF721F90948FFF7DDF84FF4C8
:1046800000430193074B00934FF48053054A0649BA
:104690000648FFF77AFF00BFBD4680BD54020020E8
:1046A0006402002000100240003001403855002014
:1046B00080B483B000AF78607B689B6803F001032F
:1046C000012B01D1012300E0002318460C37BD4621
:1046D0005DF8047B704780B483B000AF78607B687E
:1046E0000C331B78DBB218460C37BD465DF8047BF3
:1046F000704780B485B000AF78600B46FB707B6874
:104700000C33FB60FB68FA781A7000BF1437BD46A3
:104710005DF8047B704780B483B000AF7860396087
:104720007B683A689A6100BF0C37BD465DF8047B30
:10473000704780B483B000AF786039603B681A047A
:104740007B689A6100BF0C37BD465DF8047B7047FB
:1047500080B582B000AF0346FB71FB79074A52F87F
:1047600023301846FB79064A52F823301946FFF7E2
:10477000E0FF00BF0837BD4680BD00BFD00200206B
:10478000E002002080B582B000AF0346FB71FB79E8
:10479000074A52F823301846FB79064A52F823306C
:1047A0001946FFF7B8FF00BF0837BD4680BD00BF00
:1047B000D0020020E002002080B582B000AF0346A6
:1047C000FB71FB7919460948FFF793FF00BF0748C3
:1047D000FFF76EFF0346002BF9D00448FFF77BFF7D
:1047E000034618460837BD4680BD00BF003C004068
:1047F00080B584B000AF03463960FB711346BB71CE
:104800000023FB73FB791846FFF7A2FF0023BB735D
:1048100010E0BB7B3A6813441B781846FFF7CCFFC7
:104820000346FB73BB7B3A681344FA7B1A70BB7B6D
:104830000133BB73BA7BBB799A42EAD3FB79184642
:10484000FFF7A0FFFB7B18461037BD4680BD000078
:10485000B0B582B000AFC7E90001D7E900010E4D45
:1048600000242A1A64EB01034FF000004FF000010E
:10487000590641EAD211500605A3D3E90023FBF7FC
:104880000FFD02460B46134618460837BD46B0BD1D
:1048900000F9029500000000807C814A2DE9B00FEC
:1048A00085B000AFF860F968C8170C4605461B498B
:1048B00001FB05F0002104FB01F101441748A4FBB2
:1048C000002319440B4610461946002908DA6FF0F8
:1048D0007E43C3183B6041F100037B60D7E90001D0
:1048E0004FF000024FF00003420E42EAC1124B1695
:1048F0000021D2F1000A61EB030B52465B460849E6
:1049000012EB010843F1000942464B461046194696
:104910001437BD46BDE8B00F704700BF00F90295DF
:10492000807C814A80B586B000AF03463960FB7158
:1049300007F10C0300221A605A603B681B783B7336
:104940003B681B795B00DBB27B733B681B78F22B07
:1049500011D13B681A6907F10C030233194610465E
:1049600000F0EAFA07F10C030621184600F0A8FA55
:104970000346BB7407E007F10C030221184600F060
:104980009FFA0346BB733B685A7807F10C01FB7929
:104990001846FFF72DFF07F10C03184600F00AFB3D
:1049A00003469AB24FF0FF337B617B695B057B6105
:1049B0007B695B0D7B617B699BB213409AB23B685C
:1049C000DA823B681B78F22B06D1BA7B3B681A75FA
:1049D000FA7C3B685A7519E03B681B78F42B0FD1C1
:1049E00007F10C030233184600F0C7FA02463B6891
:1049F0001A61BA7C3B681A75FA7C3B685A7505E007
:104A0000BA7B3B681A75FA7B3B685A753B685B7DDD
:104A1000A52B02D04FF0FF3300E0002318461837D3
:104A2000BD4680BD80B58AB000AF03463A60FB71D9
:104A30000B46BB71002387F82730154B1B883B8141
:104A40003B89BB81BA79134913465B0013449B0031
:104A5000CA1807F1100307CA83E8070007F10C0220
:104A6000FB7911461846FFF75DFF034687F82730AC
:104A700097F92730002B02D097F9273003E0FA6925
:104A80003B681A60002318462837BD4680BD00BF2A
:104A900088D500087002002080B58AB000AF0346B8
:104AA0003A60FB710B46BB710F4B1B88BB81BB8906
:104AB0003B82BA790D4913465B0013449B00CA1828
:104AC00007F1140307CA83E807003B683B6207F15C
:104AD0001002FB7911461846FFF724FF03461846DB
:104AE0002837BD4680BD00BF8CD50008700200206D
:104AF00080B586B000AFBA607B600346FB730B469F
:104B0000BB7307F11402B97BFB7B1846FFF78AFFE2
:104B1000BB68DA437B6913407B617968B86800F051
:104B200079FA02467B6913437B617A69B97BFB7B27
:104B30001846FFF7B1FF034618461837BD4680BD3B
:104B400080B582B000AF03460A46FB711346BB71C5
:104B5000BB79F87901220021FFF7CAFF0346184606
:104B60000837BD4680BD80B582B000AF03460A4617
:104B7000FB711346BB71BB79F87902220021FFF764
:104B8000B7FF034618460837BD4680BD80B582B0E2
:104B900000AF0346FB71F87901234FF480420021F6
:104BA000FFF7A6FF034618460837BD4680BD80B50F
:104BB00084B000AF0346FB714FF0FF33FB60FB682E
:104BC0009B06FB60FB685B0DFB60FA68F8790023CD
:104BD0000121FFF78DFF034618461037BD4680BD03
:104BE00080B584B000AF03463960FB714FF0FF33EE
:104BF000FB60FA68F8793B680421FFF779FF034608
:104C000018461037BD4680BD2DE9F04F91B000AF7A
:104C10000346FB75002387F83E30FB7D6B4A52F854
:104C200023301846FB7D6A4A52F823301946FFF7B5
:104C300080FDFB7D674A52F823301846FB7D664AAB
:104C400052F823301946FFF774FDFB7D1846FFF735
:104C50009DFFFB7D1846FFF7AAFF034687F83E300D
:104C6000FB7D5A4A52F823301846FB7D584A52F8C9
:104C700023301946FFF74FFDFB7D01211846FFF752
:104C80005FFF034687F83E30FB7D43F6012200219B
:104C90001846FFF701FF034687F83E30FB7D4FF0D3
:104CA0007F411846FFF79CFF034687F83E30FB7DA7
:104CB000002201211846FFF7EFFE034687F83E3039
:104CC000012005F011FFFB7D43F60122002118466B
:104CD000FFF7E2FE034687F83E304FF07F40FFF7D4
:104CE000DDFDC7E90C010020FFF7D8FDC7E90A0187
:104CF000002387F83F3047E0D7E90A01D7E90C23C2
:104D0000841A61EB030597F83F30002298469146DC
:104D100008FB05F204FB09F31344A4FB08AB5B4456
:104D20009B4652465B46002B06DAD11CB96043F124
:104D30000003FB60D7E902234FF000004FF00001B1
:104D4000900840EA83709910D7E90C2316183E604A
:104D50004B417B60D7E90023C7E90823D7E9080165
:104D6000FFF776FDF861FA69FB7D11461846FFF7FB
:104D700037FF034687F83E30012005F0B5FE97F86F
:104D80003F30013387F83F3097F83F30042BB3D9D9
:104D9000FB7D104A52F823301846FB7D0E4A52F82C
:104DA00023301946FFF7B7FCFB7D01211846FFF7BA
:104DB000DAFE034687F83E30C820FBF76BFC97F914
:104DC0003E3018464437BD46BDE8F08FF002002063
:104DD0000003002010030020200300202DE9B04F25
:104DE0008CB000AFC7E904230346FB770B46BB77C3
:104DF000002387F827304FF000024FF00003C7E987
:104E00000A2300233B62BB7F002B24D1D7E9042374
:104E100010461946002907DA10F10F03BB6041F173
:104E20000003FB60D7E902014FF000024FF00003DE
:104E3000020942EA01720B1100215042386061EB15
:104E400003037B60D7E900231C4912EB010843F1FF
:104E50000009C7E90A89BB7F012B19D1D7E90423CF
:104E6000002B05DA12F10F0A43F1000B52465B46A4
:104E70004FF000004FF00001100940EA03701911D3
:104E800002460B460D49541843F10005C7E90A458F
:104E9000D7E90A01FFF7DCFC38623A6AFB7F11466A
:104EA0001846FFF79DFE034687F8273097F927300D
:104EB00018463037BD46BDE8B08F00BF807C814AC0
:104EC00080B485B000AF78600B46FB700023FB73A5
:104ED00007233B730023BB7323E0BB7B7A68134437
:104EE0001A78FB7B5340FB7300237B7313E097F925
:104EF0000F30002B09DA97F90F305B005AB297F99F
:104F00000C3053405BB2FB7302E0FB7B5B00FB7336
:104F10007B7B01337B737B7B072BE8D9BB7B013326
:104F2000BB73BA7BFB789A42D7D3FB7B1846143706
:104F3000BD465DF8047B704780B483B000AF7860F5
:104F400039603B6803337A68D2B21A707B681A0AF8
:104F50003B680233D2B21A707B681A0C3B6801338B
:104F6000D2B21A707B681B0EDAB23B681A7000BFAF
:104F70000C37BD465DF8047B704780B483B000AF4A
:104F800078607B6803331B781A467B6802331B7892
:104F90001B0213431A467B6801331B781B041A4318
:104FA0007B681B781B06134318460C37BD465DF81B
:104FB000047B704780B483B000AF78607B680133B6
:104FC0001B781A467B681B781B02134318460C3764
:104FD000BD465DF8047B704780B485B000AF786053
:104FE0000023FB600CE07B6803F00103002B01D081
:104FF000FB6809E07B685B087B60FB680133FB6052
:105000007B68002BEFD1202318461437BD465DF88E
:10501000047B704780B582B000AF786039607868F3
:10502000FFF7DAFF02463B6803FA02F27B6813409F
:1050300018460837BD4680BD80B483B000AF7860A5
:1050400039607B683A689A6100BF0C37BD465DF8ED
:10505000047B704780B582B000AF78607B685A6887
:105060007B681B8919461046FFF7E6FF00BF08372B
:10507000BD4680BD80B582B000AF78607868FFF72C
:10508000E9FF00BF0837BD4680BD80B483B000AFE4
:1050900078607B689B6843F001027B689A6000BF80
:1050A0000C37BD465DF8047B704780B483B000AF19
:1050B00078607B689B6803F00103012B0CBF012320
:1050C0000023DBB218460C37BD465DF8047B704701
:1050D00080B483B000AF78607B689B6843F0804207
:1050E0007B689A6000BF0C37BD465DF8047B704753
:1050F00080B483B000AF786039600C4A3B681344D9
:105100001B781A467B6813441B6808493A680A44AE
:10511000127811467A680A4443F00103136000BF15
:105120000C37BD465DF8047B704700BFB8D500085A
:1051300080B485B000AFF860B9607A600D4ABB6892
:1051400013441B781A46FB6813441B6823F0C00203
:105150000849BB680B441B781946FB680B44194689
:105160007B6813430B6000BF1437BD465DF8047BBA
:10517000704700BFB8D5000880B485B000AFF860B4
:10518000B9607A600D4ABB6813441B781A46FB6805
:1051900013441B6823F490720849BB680B441B78C6
:1051A0001946FB680B4419467B6813430B6000BF2C
:1051B0001437BD465DF8047B704700BFB8D50008C2
:1051C00080B485B000AFF860B9607A600D4ABB6802
:1051D00013441B781A46FB6813441B6823F40072BF
:1051E0000849BB680B441B781946FB680B441946F9
:1051F0007B6813430B6000BF1437BD465DF8047B2A
:10520000704700BFB8D5000880B485B000AFF86023
:10521000B9607A600D4ABB6813441B781A46FB6874
:1052200013441B6823F480620849BB680B441B7855
:105230001946FB680B4419467B6813430B6000BF9B
:105240001437BD465DF8047B704700BFB8D5000831
:1052500080B485B000AFF860B9607A600D4ABB6871
:1052600013441B781A46FB6813441B6823F4C0528E
:105270000849BB680B441B781946FB680B44194668
:105280007B6813430B6000BF1437BD465DF8047B99
:10529000704700BFB8D5000880B485B000AFF86093
:1052A000B9607A600D4ABB6813441B781A46FB68E4
:1052B00013441B6823F4C0420849BB680B441B78A5
:1052C0001946FB680B4419467B6813430B6000BF0B
:1052D0001437BD465DF8047B704700BFB8D50008A1
:1052E00080B485B000AFF860B9607A600D4ABB68E1
:1052F00013441B781A46FB6813445B681B0C1B04A1
:105300000849BA680A4412781146FA680A441146F4
:105310007A6813434B6000BF1437BD465DF8047BC9
:10532000704700BFB8D5000880B485B000AFF86002
:10533000B9607A600D4ABB6813441B781A46FB6853
:1053400013441B6823F060620849BB680B441B7858
:105350001946FB680B4419467B6813430B6000BF7A
:105360001437BD465DF8047B704700BFB8D5000810
:1053700080B485B000AFF860B9607A60074ABB6856
:1053800013441B781A46FB6813441A467B68D360A3
:1053900000BF1437BD465DF8047B7047B8D50008E0
:1053A00080B485B000AFF860B9607A60074ABB6826
:1053B00013441B781A46FB6813441A467B689360B3
:1053C00000BF1437BD465DF8047B7047B8D50008B0
:1053D00080B500AF002200212348FFF7A5FF00227F
:1053E00000212148FFF7A4FE002200211E48FFF7FC
:1053F000E7FE4FF4806200211B48FFF705FF4FF4E2
:10540000006200211848FFF723FF4FF400520021EB
:105410001548FFF741FF082200211348FFF760FFFE
:10542000124A00211048FFF7BBFF114B1A4600211A
:105430000D48FFF79DFF4FF4807200210A48FFF7E7
:105440009BFE00210848FFF753FE0A48FFF71DFEA8
:1054500000BF0848FFF729FE0346002BF9D0054896
:10546000FFF736FE00BF80BD006402404C200140C3
:10547000505500200020014080B485B000AF786016
:105480000023FB7329E0FB7B194A32F813301A46DC
:10549000184B53F82210FB7B5B007A6813440AB266
:1054A0001A80FB7B5B007A681344B3F9003013F574
:1054B000FA7F08DBFB7B5B007A681344B3F90030AA
:1054C000B3F5FA6F06DDFB7B5B007A68134447F6A1
:1054D000FF721A80FB7B0133FB73FB7B072BD2D956
:1054E00000BF00BF1437BD465DF8047B704700BFA6
:1054F000505500203003002080B483B000AF7860A6
:105500007B681B6803F04003402B01D1012300E0BE
:10551000002318460C37BD465DF8047B704780B405
:1055200083B000AF78607B689B6803F00103012BB8
:1055300001D1012300E0002318460C37BD465DF879
:10554000047B704780B483B000AF78607B689B6851
:1055500003F00203022B01D1012300E000231846CF
:105560000C37BD465DF8047B704780B483B000AF54
:1055700078607B689B6803F08003802B01D1012356
:1055800000E0002318460C37BD465DF8047B7047E9
:1055900080B483B000AF78607B680C331B78DBB2DB
:1055A00018460C37BD465DF8047B704780B485B063
:1055B00000AF78600B46FB707B680C33FB60FB68C8
:1055C000FA781A7000BF1437BD465DF8047B704747
:1055D00080B483B000AF786039607B681A693B683B
:1055E00013403A689A420CBF01230023DBB21846ED
:1055F0000C37BD465DF8047B704780B483B000AFC4
:10560000786039607B683A689A6100BF0C37BD46A4
:105610005DF8047B704780B483B000AF7860396078
:105620003B681A047B689A6100BF0C37BD465DF881
:10563000047B704780B483B000AF0346FB71044A1B
:10564000FB79137000BF0C37BD465DF8047B7047D3
:105650007055002080B400AF034B1B78DBB21846B6
:10566000BD465DF8047B70477055002080B584B05E
:1056700000AF78600B467B800023FB817B685A6813
:105680007B689B6819461046FFF7C5FF0A20FFF7A5
:10569000D1FF00BF7B681B681846FFF753FF034626
:1056A000002B04D1FFF7D6FF0346002BF2D17B6815
:1056B0001A687B881B0A9BB2DBB219461046FFF7BB
:1056C00075FF0A20FFF7B6FF00BF7B681B6818460E
:1056D000FFF74BFF0346002B04D0FFF7BBFF034649
:1056E000002BF2D10A20FFF7A5FF00BF7B681B68E3
:1056F0001846FFF714FF0346002B04D1FFF7AAFF5B
:105700000346002BF2D17B681B681846FFF740FF69
:1057100003461B02FB810A20FFF78CFF00BF7B685A
:105720001B681846FFF721FF0346002B04D0FFF744
:1057300091FF0346002BF2D10A20FFF77BFF00BF49
:105740007B681B681846FFF7FDFE0346002B04D15B
:10575000FFF780FF0346002BF2D17B681B687A8835
:10576000D2B211461846FFF721FF0A20FFF762FF69
:1057700000BF7B681B681846FFF7F7FE0346002B47
:1057800004D0FFF767FF0346002BF2D10A20FFF792
:1057900051FF00BF7B681B681846FFF7C0FE034639
:1057A000002B04D1FFF756FF0346002BF2D17B6894
:1057B0001B681846FFF7ECFE03461A46FB891343A5
:1057C000FB810A20FFF736FF00BF7B681B68184685
:1057D000FFF7CBFE0346002B04D0FFF73BFF034649
:1057E000002BF2D17B685A687B689B68194610468B
:1057F000FFF703FFFB8918461037BD4680BD80B513
:1058000082B000AF78607B684FF430429A837B6847
:105810005A687B689B6819461046FFF7FCFE7B6858
:105820009B8B19467868FFF721FF7B685A687B6875
:105830009B6819461046FFF7E0FE00BF0837BD46DB
:1058400080BD80B584B000AF78600B467B807B68FC
:105850005A687B689B6819461046FFF7DCFE7B6838
:105860004FF460429A837B687A88DA837B689B8BEB
:105870001BB223F47F6323F00F031AB27B68DB8B28
:105880001BB2C3F30B031BB213431BB2FB81FB8997
:1058900019467868FFF7EAFE7B685A687B689B6860
:1058A00019461046FFF7A9FE00BF1037BD4680BD60
:1058B00080B582B000AF78600B46FB70FB78002BA0
:1058C00006D1164B1B8819467868FFF7BAFF20E00F
:1058D000FB78012B1DD17B685A687B689B68194651
:1058E0001046FFF798FE7B684FF470429A837B68FE
:1058F00040F6FD62DA837B689B8B19467868FFF778
:10590000B5FE7B685A687B689B6819461046FFF7AE
:1059100074FE00BF0837BD4680BD00BF3043002085
:1059200080B582B000AF78607B68DA687B681B69FD
:1059300019461046FFF76FFE0A20FFF77BFE00BFF7
:105940007B685A697B689B6919461046FFF740FEE1
:105950000346002B04D0FFF77DFE0346002BEFD15A
:105960000A20FFF767FE00BF7B685A697B689B6966
:1059700019461046FFF72CFE0346002B04D1FFF713
:1059800069FE0346002BEFD17B68DA687B681B69F0
:1059900019461046FFF731FE00217868FFF766FED2
:1059A00003461A467B681A847B681B8C18460837A6
:1059B000BD4680BD80B584B000AFF860B9607A6044
:1059C0003B60FB68BA681A60FB687A685A60FB68DB
:1059D0003A689A60FB68BA69DA60FB68FA691A612A
:1059E000FB683A6A5A61FB687A6A9A6100BFFB6891
:1059F0001B681846FFF780FD0346002BF7D00021F7
:105A0000F868FFF755FFF868FFF7F9FE00BF103799
:105A1000BD4680BD80B584B004AF0B48FDF74DFF97
:105A20004FF480730393094B02934FF40063019387
:105A3000074B00934FF48063054A06490648FFF779
:105A4000B9FF00BFBD4680BD3443002000080240BE
:105A5000000C0240003800407455002080B483B030
:105A600000AF786039607B683A689A6100BF0C3794
:105A7000BD465DF8047B704780B483B000AF7860AA
:105A800039603B681A047B689A6100BF0C37BD46D9
:105A90005DF8047B7047000080B500AF0A4A1378B8
:105AA00023F001031370084A137823F002031370E4
:105AB000054A137823F0FC03137000F0D5F800F0CA
:105AC000EBF800BF80BD00BF9855002080B500AF47
:105AD0000C4B1B78C3F38503DBB2022B0CD0022BDB
